{
	"CrowdFunding.sol": {
		"CrowdFunding": {
			"abi": [
				{
					"inputs": [
						{
							"internalType": "uint256",
							"name": "_goal",
							"type": "uint256"
						},
						{
							"internalType": "uint256",
							"name": "_deadline",
							"type": "uint256"
						}
					],
					"stateMutability": "nonpayable",
					"type": "constructor"
				},
				{
					"anonymous": false,
					"inputs": [
						{
							"indexed": false,
							"internalType": "address",
							"name": "_sender",
							"type": "address"
						},
						{
							"indexed": false,
							"internalType": "uint256",
							"name": "_value",
							"type": "uint256"
						}
					],
					"name": "ContributeEvent",
					"type": "event"
				},
				{
					"anonymous": false,
					"inputs": [
						{
							"indexed": false,
							"internalType": "string",
							"name": "_description",
							"type": "string"
						},
						{
							"indexed": false,
							"internalType": "address",
							"name": "recipient",
							"type": "address"
						},
						{
							"indexed": false,
							"internalType": "uint256",
							"name": "value",
							"type": "uint256"
						}
					],
					"name": "CreateRequestEvent",
					"type": "event"
				},
				{
					"anonymous": false,
					"inputs": [
						{
							"indexed": false,
							"internalType": "address",
							"name": "_recipient",
							"type": "address"
						},
						{
							"indexed": false,
							"internalType": "uint256",
							"name": "value",
							"type": "uint256"
						}
					],
					"name": "MakePaymentEvent",
					"type": "event"
				},
				{
					"inputs": [],
					"name": "admin",
					"outputs": [
						{
							"internalType": "address",
							"name": "",
							"type": "address"
						}
					],
					"stateMutability": "view",
					"type": "function"
				},
				{
					"inputs": [],
					"name": "contribute",
					"outputs": [],
					"stateMutability": "payable",
					"type": "function"
				},
				{
					"inputs": [
						{
							"internalType": "address",
							"name": "",
							"type": "address"
						}
					],
					"name": "contributors",
					"outputs": [
						{
							"internalType": "uint256",
							"name": "",
							"type": "uint256"
						}
					],
					"stateMutability": "view",
					"type": "function"
				},
				{
					"inputs": [
						{
							"internalType": "string",
							"name": "_description",
							"type": "string"
						},
						{
							"internalType": "address payable",
							"name": "_recipient",
							"type": "address"
						},
						{
							"internalType": "uint256",
							"name": "_value",
							"type": "uint256"
						}
					],
					"name": "createRequest",
					"outputs": [],
					"stateMutability": "nonpayable",
					"type": "function"
				},
				{
					"inputs": [],
					"name": "deadline",
					"outputs": [
						{
							"internalType": "uint256",
							"name": "",
							"type": "uint256"
						}
					],
					"stateMutability": "view",
					"type": "function"
				},
				{
					"inputs": [],
					"name": "getBalance",
					"outputs": [
						{
							"internalType": "uint256",
							"name": "",
							"type": "uint256"
						}
					],
					"stateMutability": "view",
					"type": "function"
				},
				{
					"inputs": [],
					"name": "getRefund",
					"outputs": [],
					"stateMutability": "nonpayable",
					"type": "function"
				},
				{
					"inputs": [],
					"name": "goal",
					"outputs": [
						{
							"internalType": "uint256",
							"name": "",
							"type": "uint256"
						}
					],
					"stateMutability": "view",
					"type": "function"
				},
				{
					"inputs": [
						{
							"internalType": "uint256",
							"name": "_requestNo",
							"type": "uint256"
						}
					],
					"name": "makePayment",
					"outputs": [],
					"stateMutability": "nonpayable",
					"type": "function"
				},
				{
					"inputs": [],
					"name": "minimumContribution",
					"outputs": [
						{
							"internalType": "uint256",
							"name": "",
							"type": "uint256"
						}
					],
					"stateMutability": "view",
					"type": "function"
				},
				{
					"inputs": [],
					"name": "noOfContributors",
					"outputs": [
						{
							"internalType": "uint256",
							"name": "",
							"type": "uint256"
						}
					],
					"stateMutability": "view",
					"type": "function"
				},
				{
					"inputs": [],
					"name": "numRequests",
					"outputs": [
						{
							"internalType": "uint256",
							"name": "",
							"type": "uint256"
						}
					],
					"stateMutability": "view",
					"type": "function"
				},
				{
					"inputs": [],
					"name": "raisedAmount",
					"outputs": [
						{
							"internalType": "uint256",
							"name": "",
							"type": "uint256"
						}
					],
					"stateMutability": "view",
					"type": "function"
				},
				{
					"inputs": [
						{
							"internalType": "uint256",
							"name": "",
							"type": "uint256"
						}
					],
					"name": "requests",
					"outputs": [
						{
							"internalType": "string",
							"name": "description",
							"type": "string"
						},
						{
							"internalType": "address payable",
							"name": "recipient",
							"type": "address"
						},
						{
							"internalType": "uint256",
							"name": "noOfVoters",
							"type": "uint256"
						},
						{
							"internalType": "uint256",
							"name": "value",
							"type": "uint256"
						},
						{
							"internalType": "bool",
							"name": "completed",
							"type": "bool"
						}
					],
					"stateMutability": "view",
					"type": "function"
				},
				{
					"inputs": [
						{
							"internalType": "uint256",
							"name": "_requestNo",
							"type": "uint256"
						}
					],
					"name": "voteRequest",
					"outputs": [],
					"stateMutability": "nonpayable",
					"type": "function"
				},
				{
					"stateMutability": "payable",
					"type": "receive"
				}
			],
			"devdoc": {
				"kind": "dev",
				"methods": {},
				"version": 1
			},
			"evm": {
				"assembly": "    /* \"CrowdFunding.sol\":60:3319  contract CrowdFunding {... */\n  mstore(0x40, 0x80)\n    /* \"CrowdFunding.sol\":691:878  constructor ( uint _goal,uint _deadline) {... */\n  callvalue\n  dup1\n  iszero\n  tag_1\n  jumpi\n  0x00\n  dup1\n  revert\ntag_1:\n  pop\n  mload(0x40)\n  sub(codesize, bytecodeSize)\n  dup1\n  bytecodeSize\n  dup4\n  codecopy\n  dup2\n  dup2\n  add\n  0x40\n  mstore\n  dup2\n  add\n  swap1\n  tag_2\n  swap2\n  swap1\n  tag_3\n  jump\t// in\ntag_2:\n    /* \"CrowdFunding.sol\":749:754  _goal */\n  dup2\n    /* \"CrowdFunding.sol\":743:747  goal */\n  0x04\n    /* \"CrowdFunding.sol\":743:754  goal= _goal */\n  dup2\n  swap1\n  sstore\n  pop\n    /* \"CrowdFunding.sol\":793:802  _deadline */\n  dup1\n    /* \"CrowdFunding.sol\":775:790  block.timestamp */\n  timestamp\n    /* \"CrowdFunding.sol\":775:802  block.timestamp + _deadline */\n  tag_6\n  swap2\n  swap1\n  tag_7\n  jump\t// in\ntag_6:\n    /* \"CrowdFunding.sol\":765:773  deadline */\n  0x05\n    /* \"CrowdFunding.sol\":765:802  deadline= block.timestamp + _deadline */\n  dup2\n  swap1\n  sstore\n  pop\n    /* \"CrowdFunding.sol\":821:831  msg.sender */\n  caller\n    /* \"CrowdFunding.sol\":813:818  admin */\n  0x01\n  0x00\n    /* \"CrowdFunding.sol\":813:831  admin = msg.sender */\n  0x0100\n  exp\n  dup2\n  sload\n  dup2\n  0xffffffffffffffffffffffffffffffffffffffff\n  mul\n  not\n  and\n  swap1\n  dup4\n  0xffffffffffffffffffffffffffffffffffffffff\n  and\n  mul\n  or\n  swap1\n  sstore\n  pop\n    /* \"CrowdFunding.sol\":863:870  100 wei */\n  0x64\n    /* \"CrowdFunding.sol\":842:861  minimumContribution */\n  0x03\n    /* \"CrowdFunding.sol\":842:870  minimumContribution= 100 wei */\n  dup2\n  swap1\n  sstore\n  pop\n    /* \"CrowdFunding.sol\":691:878  constructor ( uint _goal,uint _deadline) {... */\n  pop\n  pop\n    /* \"CrowdFunding.sol\":60:3319  contract CrowdFunding {... */\n  jump(tag_8)\n    /* \"#utility.yul\":88:205   */\ntag_10:\n    /* \"#utility.yul\":197:198   */\n  0x00\n    /* \"#utility.yul\":194:195   */\n  dup1\n    /* \"#utility.yul\":187:199   */\n  revert\n    /* \"#utility.yul\":334:411   */\ntag_12:\n    /* \"#utility.yul\":371:378   */\n  0x00\n    /* \"#utility.yul\":400:405   */\n  dup2\n    /* \"#utility.yul\":389:405   */\n  swap1\n  pop\n    /* \"#utility.yul\":334:411   */\n  swap2\n  swap1\n  pop\n  jump\t// out\n    /* \"#utility.yul\":417:539   */\ntag_13:\n    /* \"#utility.yul\":490:514   */\n  tag_22\n    /* \"#utility.yul\":508:513   */\n  dup2\n    /* \"#utility.yul\":490:514   */\n  tag_12\n  jump\t// in\ntag_22:\n    /* \"#utility.yul\":483:488   */\n  dup2\n    /* \"#utility.yul\":480:515   */\n  eq\n    /* \"#utility.yul\":470:533   */\n  tag_23\n  jumpi\n    /* \"#utility.yul\":529:530   */\n  0x00\n    /* \"#utility.yul\":526:527   */\n  dup1\n    /* \"#utility.yul\":519:531   */\n  revert\n    /* \"#utility.yul\":470:533   */\ntag_23:\n    /* \"#utility.yul\":417:539   */\n  pop\n  jump\t// out\n    /* \"#utility.yul\":545:688   */\ntag_14:\n    /* \"#utility.yul\":602:607   */\n  0x00\n    /* \"#utility.yul\":633:639   */\n  dup2\n    /* \"#utility.yul\":627:640   */\n  mload\n    /* \"#utility.yul\":618:640   */\n  swap1\n  pop\n    /* \"#utility.yul\":649:682   */\n  tag_25\n    /* \"#utility.yul\":676:681   */\n  dup2\n    /* \"#utility.yul\":649:682   */\n  tag_13\n  jump\t// in\ntag_25:\n    /* \"#utility.yul\":545:688   */\n  swap3\n  swap2\n  pop\n  pop\n  jump\t// out\n    /* \"#utility.yul\":694:1201   */\ntag_3:\n    /* \"#utility.yul\":773:779   */\n  0x00\n    /* \"#utility.yul\":781:787   */\n  dup1\n    /* \"#utility.yul\":830:832   */\n  0x40\n    /* \"#utility.yul\":818:827   */\n  dup4\n    /* \"#utility.yul\":809:816   */\n  dup6\n    /* \"#utility.yul\":805:828   */\n  sub\n    /* \"#utility.yul\":801:833   */\n  slt\n    /* \"#utility.yul\":798:917   */\n  iszero\n  tag_27\n  jumpi\n    /* \"#utility.yul\":836:915   */\n  tag_28\n  tag_10\n  jump\t// in\ntag_28:\n    /* \"#utility.yul\":798:917   */\ntag_27:\n    /* \"#utility.yul\":956:957   */\n  0x00\n    /* \"#utility.yul\":981:1045   */\n  tag_29\n    /* \"#utility.yul\":1037:1044   */\n  dup6\n    /* \"#utility.yul\":1028:1034   */\n  dup3\n    /* \"#utility.yul\":1017:1026   */\n  dup7\n    /* \"#utility.yul\":1013:1035   */\n  add\n    /* \"#utility.yul\":981:1045   */\n  tag_14\n  jump\t// in\ntag_29:\n    /* \"#utility.yul\":971:1045   */\n  swap3\n  pop\n    /* \"#utility.yul\":927:1055   */\n  pop\n    /* \"#utility.yul\":1094:1096   */\n  0x20\n    /* \"#utility.yul\":1120:1184   */\n  tag_30\n    /* \"#utility.yul\":1176:1183   */\n  dup6\n    /* \"#utility.yul\":1167:1173   */\n  dup3\n    /* \"#utility.yul\":1156:1165   */\n  dup7\n    /* \"#utility.yul\":1152:1174   */\n  add\n    /* \"#utility.yul\":1120:1184   */\n  tag_14\n  jump\t// in\ntag_30:\n    /* \"#utility.yul\":1110:1184   */\n  swap2\n  pop\n    /* \"#utility.yul\":1065:1194   */\n  pop\n    /* \"#utility.yul\":694:1201   */\n  swap3\n  pop\n  swap3\n  swap1\n  pop\n  jump\t// out\n    /* \"#utility.yul\":1207:1387   */\ntag_15:\n    /* \"#utility.yul\":1255:1332   */\n  0x4e487b7100000000000000000000000000000000000000000000000000000000\n    /* \"#utility.yul\":1252:1253   */\n  0x00\n    /* \"#utility.yul\":1245:1333   */\n  mstore\n    /* \"#utility.yul\":1352:1356   */\n  0x11\n    /* \"#utility.yul\":1349:1350   */\n  0x04\n    /* \"#utility.yul\":1342:1357   */\n  mstore\n    /* \"#utility.yul\":1376:1380   */\n  0x24\n    /* \"#utility.yul\":1373:1374   */\n  0x00\n    /* \"#utility.yul\":1366:1381   */\n  revert\n    /* \"#utility.yul\":1393:1584   */\ntag_7:\n    /* \"#utility.yul\":1433:1436   */\n  0x00\n    /* \"#utility.yul\":1452:1472   */\n  tag_33\n    /* \"#utility.yul\":1470:1471   */\n  dup3\n    /* \"#utility.yul\":1452:1472   */\n  tag_12\n  jump\t// in\ntag_33:\n    /* \"#utility.yul\":1447:1472   */\n  swap2\n  pop\n    /* \"#utility.yul\":1486:1506   */\n  tag_34\n    /* \"#utility.yul\":1504:1505   */\n  dup4\n    /* \"#utility.yul\":1486:1506   */\n  tag_12\n  jump\t// in\ntag_34:\n    /* \"#utility.yul\":1481:1506   */\n  swap3\n  pop\n    /* \"#utility.yul\":1529:1530   */\n  dup3\n    /* \"#utility.yul\":1526:1527   */\n  dup3\n    /* \"#utility.yul\":1522:1531   */\n  add\n    /* \"#utility.yul\":1515:1531   */\n  swap1\n  pop\n    /* \"#utility.yul\":1550:1553   */\n  dup1\n    /* \"#utility.yul\":1547:1548   */\n  dup3\n    /* \"#utility.yul\":1544:1554   */\n  gt\n    /* \"#utility.yul\":1541:1577   */\n  iszero\n  tag_35\n  jumpi\n    /* \"#utility.yul\":1557:1575   */\n  tag_36\n  tag_15\n  jump\t// in\ntag_36:\n    /* \"#utility.yul\":1541:1577   */\ntag_35:\n    /* \"#utility.yul\":1393:1584   */\n  swap3\n  swap2\n  pop\n  pop\n  jump\t// out\n    /* \"CrowdFunding.sol\":60:3319  contract CrowdFunding {... */\ntag_8:\n  dataSize(sub_0)\n  dup1\n  dataOffset(sub_0)\n  0x00\n  codecopy\n  0x00\n  return\nstop\n\nsub_0: assembly {\n        /* \"CrowdFunding.sol\":60:3319  contract CrowdFunding {... */\n      mstore(0x40, 0x80)\n      jumpi(tag_1, lt(calldatasize, 0x04))\n      shr(0xe0, calldataload(0x00))\n      dup1\n      0x5114cb52\n      gt\n      tag_18\n      jumpi\n      dup1\n      0xb2d5ae44\n      gt\n      tag_19\n      jumpi\n      dup1\n      0xb2d5ae44\n      eq\n      tag_14\n      jumpi\n      dup1\n      0xc59ee1dc\n      eq\n      tag_15\n      jumpi\n      dup1\n      0xd7bb99ba\n      eq\n      tag_16\n      jumpi\n      dup1\n      0xf851a440\n      eq\n      tag_17\n      jumpi\n      jump(tag_2)\n    tag_19:\n      dup1\n      0x5114cb52\n      eq\n      tag_10\n      jumpi\n      dup1\n      0x81d12c58\n      eq\n      tag_11\n      jumpi\n      dup1\n      0x937e09b1\n      eq\n      tag_12\n      jumpi\n      dup1\n      0x9fb42b1f\n      eq\n      tag_13\n      jumpi\n      jump(tag_2)\n    tag_18:\n      dup1\n      0x29dcb0cf\n      gt\n      tag_20\n      jumpi\n      dup1\n      0x29dcb0cf\n      eq\n      tag_6\n      jumpi\n      dup1\n      0x40193883\n      eq\n      tag_7\n      jumpi\n      dup1\n      0x4cb6f4a5\n      eq\n      tag_8\n      jumpi\n      dup1\n      0x4e260f6f\n      eq\n      tag_9\n      jumpi\n      jump(tag_2)\n    tag_20:\n      dup1\n      0x12065fe0\n      eq\n      tag_3\n      jumpi\n      dup1\n      0x1b16bb5c\n      eq\n      tag_4\n      jumpi\n      dup1\n      0x1f6d4942\n      eq\n      tag_5\n      jumpi\n      jump(tag_2)\n    tag_1:\n      jumpi(tag_2, calldatasize)\n        /* \"CrowdFunding.sol\":1510:1522  contribute() */\n      tag_23\n        /* \"CrowdFunding.sol\":1510:1520  contribute */\n      tag_24\n        /* \"CrowdFunding.sol\":1510:1522  contribute() */\n      jump\t// in\n    tag_23:\n        /* \"CrowdFunding.sol\":60:3319  contract CrowdFunding {... */\n      stop\n    tag_2:\n      0x00\n      dup1\n      revert\n        /* \"CrowdFunding.sol\":1539:1635  function getBalance() public view returns (uint) {... */\n    tag_3:\n      callvalue\n      dup1\n      iszero\n      tag_25\n      jumpi\n      0x00\n      dup1\n      revert\n    tag_25:\n      pop\n      tag_26\n      tag_27\n      jump\t// in\n    tag_26:\n      mload(0x40)\n      tag_28\n      swap2\n      swap1\n      tag_29\n      jump\t// in\n    tag_28:\n      mload(0x40)\n      dup1\n      swap2\n      sub\n      swap1\n      return\n        /* \"CrowdFunding.sol\":2080:2542  function createRequest (string memory _description, address payable _recipient, uint _value) public {... */\n    tag_4:\n      callvalue\n      dup1\n      iszero\n      tag_30\n      jumpi\n      0x00\n      dup1\n      revert\n    tag_30:\n      pop\n      tag_31\n      0x04\n      dup1\n      calldatasize\n      sub\n      dup2\n      add\n      swap1\n      tag_32\n      swap2\n      swap1\n      tag_33\n      jump\t// in\n    tag_32:\n      tag_34\n      jump\t// in\n    tag_31:\n      stop\n        /* \"CrowdFunding.sol\":89:134  mapping (address => uint) public contributors */\n    tag_5:\n      callvalue\n      dup1\n      iszero\n      tag_35\n      jumpi\n      0x00\n      dup1\n      revert\n    tag_35:\n      pop\n      tag_36\n      0x04\n      dup1\n      calldatasize\n      sub\n      dup2\n      add\n      swap1\n      tag_37\n      swap2\n      swap1\n      tag_38\n      jump\t// in\n    tag_37:\n      tag_39\n      jump\t// in\n    tag_36:\n      mload(0x40)\n      tag_40\n      swap2\n      swap1\n      tag_29\n      jump\t// in\n    tag_40:\n      mload(0x40)\n      dup1\n      swap2\n      sub\n      swap1\n      return\n        /* \"CrowdFunding.sol\":264:284  uint public deadline */\n    tag_6:\n      callvalue\n      dup1\n      iszero\n      tag_41\n      jumpi\n      0x00\n      dup1\n      revert\n    tag_41:\n      pop\n      tag_42\n      tag_43\n      jump\t// in\n    tag_42:\n      mload(0x40)\n      tag_44\n      swap2\n      swap1\n      tag_29\n      jump\t// in\n    tag_44:\n      mload(0x40)\n      dup1\n      swap2\n      sub\n      swap1\n      return\n        /* \"CrowdFunding.sol\":241:257  uint public goal */\n    tag_7:\n      callvalue\n      dup1\n      iszero\n      tag_45\n      jumpi\n      0x00\n      dup1\n      revert\n    tag_45:\n      pop\n      tag_46\n      tag_47\n      jump\t// in\n    tag_46:\n      mload(0x40)\n      tag_48\n      swap2\n      swap1\n      tag_29\n      jump\t// in\n    tag_48:\n      mload(0x40)\n      dup1\n      swap2\n      sub\n      swap1\n      return\n        /* \"CrowdFunding.sol\":2550:2857  function voteRequest(uint _requestNo) public {... */\n    tag_8:\n      callvalue\n      dup1\n      iszero\n      tag_49\n      jumpi\n      0x00\n      dup1\n      revert\n    tag_49:\n      pop\n      tag_50\n      0x04\n      dup1\n      calldatasize\n      sub\n      dup2\n      add\n      swap1\n      tag_51\n      swap2\n      swap1\n      tag_52\n      jump\t// in\n    tag_51:\n      tag_53\n      jump\t// in\n    tag_50:\n      stop\n        /* \"CrowdFunding.sol\":168:196  uint public noOfContributors */\n    tag_9:\n      callvalue\n      dup1\n      iszero\n      tag_54\n      jumpi\n      0x00\n      dup1\n      revert\n    tag_54:\n      pop\n      tag_55\n      tag_56\n      jump\t// in\n    tag_55:\n      mload(0x40)\n      tag_57\n      swap2\n      swap1\n      tag_29\n      jump\t// in\n    tag_57:\n      mload(0x40)\n      dup1\n      swap2\n      sub\n      swap1\n      return\n        /* \"CrowdFunding.sol\":2865:3316  function makePayment(uint _requestNo) public onlyAdmin{... */\n    tag_10:\n      callvalue\n      dup1\n      iszero\n      tag_58\n      jumpi\n      0x00\n      dup1\n      revert\n    tag_58:\n      pop\n      tag_59\n      0x04\n      dup1\n      calldatasize\n      sub\n      dup2\n      add\n      swap1\n      tag_60\n      swap2\n      swap1\n      tag_52\n      jump\t// in\n    tag_60:\n      tag_61\n      jump\t// in\n    tag_59:\n      stop\n        /* \"CrowdFunding.sol\":532:573  mapping (uint => Request) public requests */\n    tag_11:\n      callvalue\n      dup1\n      iszero\n      tag_62\n      jumpi\n      0x00\n      dup1\n      revert\n    tag_62:\n      pop\n      tag_63\n      0x04\n      dup1\n      calldatasize\n      sub\n      dup2\n      add\n      swap1\n      tag_64\n      swap2\n      swap1\n      tag_52\n      jump\t// in\n    tag_64:\n      tag_65\n      jump\t// in\n    tag_63:\n      mload(0x40)\n      tag_66\n      swap6\n      swap5\n      swap4\n      swap3\n      swap2\n      swap1\n      tag_67\n      jump\t// in\n    tag_66:\n      mload(0x40)\n      dup1\n      swap2\n      sub\n      swap1\n      return\n        /* \"CrowdFunding.sol\":203:234  uint public minimumContribution */\n    tag_12:\n      callvalue\n      dup1\n      iszero\n      tag_68\n      jumpi\n      0x00\n      dup1\n      revert\n    tag_68:\n      pop\n      tag_69\n      tag_70\n      jump\t// in\n    tag_69:\n      mload(0x40)\n      tag_71\n      swap2\n      swap1\n      tag_29\n      jump\t// in\n    tag_71:\n      mload(0x40)\n      dup1\n      swap2\n      sub\n      swap1\n      return\n        /* \"CrowdFunding.sol\":616:639  uint public numRequests */\n    tag_13:\n      callvalue\n      dup1\n      iszero\n      tag_72\n      jumpi\n      0x00\n      dup1\n      revert\n    tag_72:\n      pop\n      tag_73\n      tag_74\n      jump\t// in\n    tag_73:\n      mload(0x40)\n      tag_75\n      swap2\n      swap1\n      tag_29\n      jump\t// in\n    tag_75:\n      mload(0x40)\n      dup1\n      swap2\n      sub\n      swap1\n      return\n        /* \"CrowdFunding.sol\":1643:1981  function getRefund() public {... */\n    tag_14:\n      callvalue\n      dup1\n      iszero\n      tag_76\n      jumpi\n      0x00\n      dup1\n      revert\n    tag_76:\n      pop\n      tag_77\n      tag_78\n      jump\t// in\n    tag_77:\n      stop\n        /* \"CrowdFunding.sol\":291:315  uint public raisedAmount */\n    tag_15:\n      callvalue\n      dup1\n      iszero\n      tag_79\n      jumpi\n      0x00\n      dup1\n      revert\n    tag_79:\n      pop\n      tag_80\n      tag_81\n      jump\t// in\n    tag_80:\n      mload(0x40)\n      tag_82\n      swap2\n      swap1\n      tag_29\n      jump\t// in\n    tag_82:\n      mload(0x40)\n      dup1\n      swap2\n      sub\n      swap1\n      return\n        /* \"CrowdFunding.sol\":1091:1465  function contribute () payable public {... */\n    tag_16:\n      tag_83\n      tag_24\n      jump\t// in\n    tag_83:\n      stop\n        /* \"CrowdFunding.sol\":141:161  address public admin */\n    tag_17:\n      callvalue\n      dup1\n      iszero\n      tag_84\n      jumpi\n      0x00\n      dup1\n      revert\n    tag_84:\n      pop\n      tag_85\n      tag_86\n      jump\t// in\n    tag_85:\n      mload(0x40)\n      tag_87\n      swap2\n      swap1\n      tag_88\n      jump\t// in\n    tag_87:\n      mload(0x40)\n      dup1\n      swap2\n      sub\n      swap1\n      return\n        /* \"CrowdFunding.sol\":1091:1465  function contribute () payable public {... */\n    tag_24:\n        /* \"CrowdFunding.sol\":1166:1174  deadline */\n      sload(0x05)\n        /* \"CrowdFunding.sol\":1148:1163  block.timestamp */\n      timestamp\n        /* \"CrowdFunding.sol\":1148:1174  block.timestamp < deadline */\n      lt\n        /* \"CrowdFunding.sol\":1140:1175  require(block.timestamp < deadline) */\n      tag_90\n      jumpi\n      0x00\n      dup1\n      revert\n    tag_90:\n        /* \"CrowdFunding.sol\":1207:1226  minimumContribution */\n      sload(0x03)\n        /* \"CrowdFunding.sol\":1194:1203  msg.value */\n      callvalue\n        /* \"CrowdFunding.sol\":1194:1226  msg.value >= minimumContribution */\n      lt\n      iszero\n        /* \"CrowdFunding.sol\":1186:1227  require(msg.value >= minimumContribution) */\n      tag_91\n      jumpi\n      0x00\n      dup1\n      revert\n    tag_91:\n        /* \"CrowdFunding.sol\":1269:1270  0 */\n      0x00\n        /* \"CrowdFunding.sol\":1243:1255  contributors */\n      dup1\n        /* \"CrowdFunding.sol\":1243:1267  contributors[msg.sender] */\n      0x00\n        /* \"CrowdFunding.sol\":1256:1266  msg.sender */\n      caller\n        /* \"CrowdFunding.sol\":1243:1267  contributors[msg.sender] */\n      0xffffffffffffffffffffffffffffffffffffffff\n      and\n      0xffffffffffffffffffffffffffffffffffffffff\n      and\n      dup2\n      mstore\n      0x20\n      add\n      swap1\n      dup2\n      mstore\n      0x20\n      add\n      0x00\n      keccak256\n      sload\n        /* \"CrowdFunding.sol\":1243:1270  contributors[msg.sender]==0 */\n      sub\n        /* \"CrowdFunding.sol\":1240:1317  if(contributors[msg.sender]==0){... */\n      tag_92\n      jumpi\n        /* \"CrowdFunding.sol\":1286:1302  noOfContributors */\n      0x02\n      0x00\n        /* \"CrowdFunding.sol\":1286:1305  noOfContributors ++ */\n      dup2\n      sload\n      dup1\n      swap3\n      swap2\n      swap1\n      tag_93\n      swap1\n      tag_94\n      jump\t// in\n    tag_93:\n      swap2\n      swap1\n      pop\n      sstore\n      pop\n        /* \"CrowdFunding.sol\":1240:1317  if(contributors[msg.sender]==0){... */\n    tag_92:\n        /* \"CrowdFunding.sol\":1357:1366  msg.value */\n      callvalue\n        /* \"CrowdFunding.sol\":1329:1341  contributors */\n      0x00\n        /* \"CrowdFunding.sol\":1329:1353  contributors[msg.sender] */\n      dup1\n        /* \"CrowdFunding.sol\":1342:1352  msg.sender */\n      caller\n        /* \"CrowdFunding.sol\":1329:1353  contributors[msg.sender] */\n      0xffffffffffffffffffffffffffffffffffffffff\n      and\n      0xffffffffffffffffffffffffffffffffffffffff\n      and\n      dup2\n      mstore\n      0x20\n      add\n      swap1\n      dup2\n      mstore\n      0x20\n      add\n      0x00\n      keccak256\n      0x00\n        /* \"CrowdFunding.sol\":1329:1366  contributors[msg.sender] += msg.value */\n      dup3\n      dup3\n      sload\n      tag_95\n      swap2\n      swap1\n      tag_96\n      jump\t// in\n    tag_95:\n      swap3\n      pop\n      pop\n      dup2\n      swap1\n      sstore\n      pop\n        /* \"CrowdFunding.sol\":1392:1401  msg.value */\n      callvalue\n        /* \"CrowdFunding.sol\":1377:1389  raisedAmount */\n      0x06\n      0x00\n        /* \"CrowdFunding.sol\":1377:1401  raisedAmount+= msg.value */\n      dup3\n      dup3\n      sload\n      tag_97\n      swap2\n      swap1\n      tag_96\n      jump\t// in\n    tag_97:\n      swap3\n      pop\n      pop\n      dup2\n      swap1\n      sstore\n      pop\n        /* \"CrowdFunding.sol\":1419:1457  ContributeEvent(msg.sender, msg.value) */\n      0x2daf61dec57a2c194e9e87958b1a40a5c236b5e8c6041655d664ddbd16c29320\n        /* \"CrowdFunding.sol\":1435:1445  msg.sender */\n      caller\n        /* \"CrowdFunding.sol\":1447:1456  msg.value */\n      callvalue\n        /* \"CrowdFunding.sol\":1419:1457  ContributeEvent(msg.sender, msg.value) */\n      mload(0x40)\n      tag_98\n      swap3\n      swap2\n      swap1\n      tag_99\n      jump\t// in\n    tag_98:\n      mload(0x40)\n      dup1\n      swap2\n      sub\n      swap1\n      log1\n        /* \"CrowdFunding.sol\":1091:1465  function contribute () payable public {... */\n      jump\t// out\n        /* \"CrowdFunding.sol\":1539:1635  function getBalance() public view returns (uint) {... */\n    tag_27:\n        /* \"CrowdFunding.sol\":1582:1586  uint */\n      0x00\n        /* \"CrowdFunding.sol\":1606:1627  address(this).balance */\n      selfbalance\n        /* \"CrowdFunding.sol\":1599:1627  return address(this).balance */\n      swap1\n      pop\n        /* \"CrowdFunding.sol\":1539:1635  function getBalance() public view returns (uint) {... */\n      swap1\n      jump\t// out\n        /* \"CrowdFunding.sol\":2080:2542  function createRequest (string memory _description, address payable _recipient, uint _value) public {... */\n    tag_34:\n        /* \"CrowdFunding.sol\":2191:2217  Request storage newRequest */\n      0x00\n        /* \"CrowdFunding.sol\":2219:2227  requests */\n      0x07\n        /* \"CrowdFunding.sol\":2219:2240  requests[numRequests] */\n      0x00\n        /* \"CrowdFunding.sol\":2228:2239  numRequests */\n      sload(0x08)\n        /* \"CrowdFunding.sol\":2219:2240  requests[numRequests] */\n      dup2\n      mstore\n      0x20\n      add\n      swap1\n      dup2\n      mstore\n      0x20\n      add\n      0x00\n      keccak256\n        /* \"CrowdFunding.sol\":2191:2240  Request storage newRequest= requests[numRequests] */\n      swap1\n      pop\n        /* \"CrowdFunding.sol\":2251:2262  numRequests */\n      0x08\n      0x00\n        /* \"CrowdFunding.sol\":2251:2264  numRequests++ */\n      dup2\n      sload\n      dup1\n      swap3\n      swap2\n      swap1\n      tag_102\n      swap1\n      tag_94\n      jump\t// in\n    tag_102:\n      swap2\n      swap1\n      pop\n      sstore\n      pop\n        /* \"CrowdFunding.sol\":2301:2313  _description */\n      dup4\n        /* \"CrowdFunding.sol\":2277:2287  newRequest */\n      dup2\n        /* \"CrowdFunding.sol\":2277:2299  newRequest.description */\n      0x00\n      add\n        /* \"CrowdFunding.sol\":2277:2313  newRequest.description= _description */\n      swap1\n      dup2\n      tag_103\n      swap2\n      swap1\n      tag_104\n      jump\t// in\n    tag_103:\n      pop\n        /* \"CrowdFunding.sol\":2346:2356  _recipient */\n      dup3\n        /* \"CrowdFunding.sol\":2324:2334  newRequest */\n      dup2\n        /* \"CrowdFunding.sol\":2324:2344  newRequest.recipient */\n      0x01\n      add\n      0x00\n        /* \"CrowdFunding.sol\":2324:2356  newRequest.recipient= _recipient */\n      0x0100\n      exp\n      dup2\n      sload\n      dup2\n      0xffffffffffffffffffffffffffffffffffffffff\n      mul\n      not\n      and\n      swap1\n      dup4\n      0xffffffffffffffffffffffffffffffffffffffff\n      and\n      mul\n      or\n      swap1\n      sstore\n      pop\n        /* \"CrowdFunding.sol\":2385:2391  _value */\n      dup2\n        /* \"CrowdFunding.sol\":2367:2377  newRequest */\n      dup2\n        /* \"CrowdFunding.sol\":2367:2383  newRequest.value */\n      0x03\n      add\n        /* \"CrowdFunding.sol\":2367:2391  newRequest.value= _value */\n      dup2\n      swap1\n      sstore\n      pop\n        /* \"CrowdFunding.sol\":2424:2429  false */\n      0x00\n        /* \"CrowdFunding.sol\":2402:2412  newRequest */\n      dup2\n        /* \"CrowdFunding.sol\":2402:2422  newRequest.completed */\n      0x04\n      add\n      0x00\n        /* \"CrowdFunding.sol\":2402:2429  newRequest.completed= false */\n      0x0100\n      exp\n      dup2\n      sload\n      dup2\n      0xff\n      mul\n      not\n      and\n      swap1\n      dup4\n      iszero\n      iszero\n      mul\n      or\n      swap1\n      sstore\n      pop\n        /* \"CrowdFunding.sol\":2463:2464  0 */\n      0x00\n        /* \"CrowdFunding.sol\":2440:2450  newRequest */\n      dup2\n        /* \"CrowdFunding.sol\":2440:2461  newRequest.noOfVoters */\n      0x02\n      add\n        /* \"CrowdFunding.sol\":2440:2464  newRequest.noOfVoters= 0 */\n      dup2\n      swap1\n      sstore\n      pop\n        /* \"CrowdFunding.sol\":2482:2534  CreateRequestEvent(_description, _recipient, _value) */\n      0x5392bd80651676ccaaedec1afbe841d47e369223df0ba1586110b6426ee87a3a\n        /* \"CrowdFunding.sol\":2501:2513  _description */\n      dup5\n        /* \"CrowdFunding.sol\":2515:2525  _recipient */\n      dup5\n        /* \"CrowdFunding.sol\":2527:2533  _value */\n      dup5\n        /* \"CrowdFunding.sol\":2482:2534  CreateRequestEvent(_description, _recipient, _value) */\n      mload(0x40)\n      tag_105\n      swap4\n      swap3\n      swap2\n      swap1\n      tag_106\n      jump\t// in\n    tag_105:\n      mload(0x40)\n      dup1\n      swap2\n      sub\n      swap1\n      log1\n        /* \"CrowdFunding.sol\":2180:2542  {... */\n      pop\n        /* \"CrowdFunding.sol\":2080:2542  function createRequest (string memory _description, address payable _recipient, uint _value) public {... */\n      pop\n      pop\n      pop\n      jump\t// out\n        /* \"CrowdFunding.sol\":89:134  mapping (address => uint) public contributors */\n    tag_39:\n      mstore(0x20, 0x00)\n      dup1\n      0x00\n      mstore\n      keccak256(0x00, 0x40)\n      0x00\n      swap2\n      pop\n      swap1\n      pop\n      sload\n      dup2\n      jump\t// out\n        /* \"CrowdFunding.sol\":264:284  uint public deadline */\n    tag_43:\n      sload(0x05)\n      dup2\n      jump\t// out\n        /* \"CrowdFunding.sol\":241:257  uint public goal */\n    tag_47:\n      sload(0x04)\n      dup2\n      jump\t// out\n        /* \"CrowdFunding.sol\":2550:2857  function voteRequest(uint _requestNo) public {... */\n    tag_53:\n        /* \"CrowdFunding.sol\":2641:2642  0 */\n      0x00\n        /* \"CrowdFunding.sol\":2614:2626  contributors */\n      dup1\n        /* \"CrowdFunding.sol\":2614:2638  contributors[msg.sender] */\n      0x00\n        /* \"CrowdFunding.sol\":2627:2637  msg.sender */\n      caller\n        /* \"CrowdFunding.sol\":2614:2638  contributors[msg.sender] */\n      0xffffffffffffffffffffffffffffffffffffffff\n      and\n      0xffffffffffffffffffffffffffffffffffffffff\n      and\n      dup2\n      mstore\n      0x20\n      add\n      swap1\n      dup2\n      mstore\n      0x20\n      add\n      0x00\n      keccak256\n      sload\n        /* \"CrowdFunding.sol\":2614:2642  contributors[msg.sender] > 0 */\n      gt\n        /* \"CrowdFunding.sol\":2606:2643  require(contributors[msg.sender] > 0) */\n      tag_108\n      jumpi\n      0x00\n      dup1\n      revert\n    tag_108:\n        /* \"CrowdFunding.sol\":2656:2683  Request storage thisRequest */\n      0x00\n        /* \"CrowdFunding.sol\":2686:2694  requests */\n      0x07\n        /* \"CrowdFunding.sol\":2686:2706  requests[_requestNo] */\n      0x00\n        /* \"CrowdFunding.sol\":2695:2705  _requestNo */\n      dup4\n        /* \"CrowdFunding.sol\":2686:2706  requests[_requestNo] */\n      dup2\n      mstore\n      0x20\n      add\n      swap1\n      dup2\n      mstore\n      0x20\n      add\n      0x00\n      keccak256\n        /* \"CrowdFunding.sol\":2656:2706  Request storage thisRequest = requests[_requestNo] */\n      swap1\n      pop\n        /* \"CrowdFunding.sol\":2761:2766  false */\n      0x00\n        /* \"CrowdFunding.sol\":2727:2766  thisRequest.voters[msg.sender] == false */\n      iszero\n      iszero\n        /* \"CrowdFunding.sol\":2727:2738  thisRequest */\n      dup2\n        /* \"CrowdFunding.sol\":2727:2745  thisRequest.voters */\n      0x05\n      add\n        /* \"CrowdFunding.sol\":2727:2757  thisRequest.voters[msg.sender] */\n      0x00\n        /* \"CrowdFunding.sol\":2746:2756  msg.sender */\n      caller\n        /* \"CrowdFunding.sol\":2727:2757  thisRequest.voters[msg.sender] */\n      0xffffffffffffffffffffffffffffffffffffffff\n      and\n      0xffffffffffffffffffffffffffffffffffffffff\n      and\n      dup2\n      mstore\n      0x20\n      add\n      swap1\n      dup2\n      mstore\n      0x20\n      add\n      0x00\n      keccak256\n      0x00\n      swap1\n      sload\n      swap1\n      0x0100\n      exp\n      swap1\n      div\n      0xff\n      and\n        /* \"CrowdFunding.sol\":2727:2766  thisRequest.voters[msg.sender] == false */\n      iszero\n      iszero\n      eq\n        /* \"CrowdFunding.sol\":2719:2767  require(thisRequest.voters[msg.sender] == false) */\n      tag_109\n      jumpi\n      0x00\n      dup1\n      revert\n    tag_109:\n        /* \"CrowdFunding.sol\":2810:2814  true */\n      0x01\n        /* \"CrowdFunding.sol\":2778:2789  thisRequest */\n      dup2\n        /* \"CrowdFunding.sol\":2778:2796  thisRequest.voters */\n      0x05\n      add\n        /* \"CrowdFunding.sol\":2778:2808  thisRequest.voters[msg.sender] */\n      0x00\n        /* \"CrowdFunding.sol\":2797:2807  msg.sender */\n      caller\n        /* \"CrowdFunding.sol\":2778:2808  thisRequest.voters[msg.sender] */\n      0xffffffffffffffffffffffffffffffffffffffff\n      and\n      0xffffffffffffffffffffffffffffffffffffffff\n      and\n      dup2\n      mstore\n      0x20\n      add\n      swap1\n      dup2\n      mstore\n      0x20\n      add\n      0x00\n      keccak256\n      0x00\n        /* \"CrowdFunding.sol\":2778:2814  thisRequest.voters[msg.sender]= true */\n      0x0100\n      exp\n      dup2\n      sload\n      dup2\n      0xff\n      mul\n      not\n      and\n      swap1\n      dup4\n      iszero\n      iszero\n      mul\n      or\n      swap1\n      sstore\n      pop\n        /* \"CrowdFunding.sol\":2825:2836  thisRequest */\n      dup1\n        /* \"CrowdFunding.sol\":2825:2847  thisRequest.noOfVoters */\n      0x02\n      add\n      0x00\n        /* \"CrowdFunding.sol\":2825:2849  thisRequest.noOfVoters++ */\n      dup2\n      sload\n      dup1\n      swap3\n      swap2\n      swap1\n      tag_110\n      swap1\n      tag_94\n      jump\t// in\n    tag_110:\n      swap2\n      swap1\n      pop\n      sstore\n      pop\n        /* \"CrowdFunding.sol\":2595:2857  {... */\n      pop\n        /* \"CrowdFunding.sol\":2550:2857  function voteRequest(uint _requestNo) public {... */\n      pop\n      jump\t// out\n        /* \"CrowdFunding.sol\":168:196  uint public noOfContributors */\n    tag_56:\n      sload(0x02)\n      dup2\n      jump\t// out\n        /* \"CrowdFunding.sol\":2865:3316  function makePayment(uint _requestNo) public onlyAdmin{... */\n    tag_61:\n        /* \"CrowdFunding.sol\":2042:2047  admin */\n      0x01\n      0x00\n      swap1\n      sload\n      swap1\n      0x0100\n      exp\n      swap1\n      div\n      0xffffffffffffffffffffffffffffffffffffffff\n      and\n        /* \"CrowdFunding.sol\":2028:2047  msg.sender == admin */\n      0xffffffffffffffffffffffffffffffffffffffff\n      and\n        /* \"CrowdFunding.sol\":2028:2038  msg.sender */\n      caller\n        /* \"CrowdFunding.sol\":2028:2047  msg.sender == admin */\n      0xffffffffffffffffffffffffffffffffffffffff\n      and\n      eq\n        /* \"CrowdFunding.sol\":2020:2048  require(msg.sender == admin) */\n      tag_112\n      jumpi\n      0x00\n      dup1\n      revert\n    tag_112:\n        /* \"CrowdFunding.sol\":2951:2955  goal */\n      sload(0x04)\n        /* \"CrowdFunding.sol\":2938:2950  raisedAmount */\n      sload(0x06)\n        /* \"CrowdFunding.sol\":2938:2955  raisedAmount>goal */\n      gt\n        /* \"CrowdFunding.sol\":2930:2956  require(raisedAmount>goal) */\n      tag_114\n      jumpi\n      0x00\n      dup1\n      revert\n    tag_114:\n        /* \"CrowdFunding.sol\":2967:2994  Request storage thisRequest */\n      0x00\n        /* \"CrowdFunding.sol\":2997:3005  requests */\n      0x07\n        /* \"CrowdFunding.sol\":2997:3017  requests[_requestNo] */\n      0x00\n        /* \"CrowdFunding.sol\":3006:3016  _requestNo */\n      dup4\n        /* \"CrowdFunding.sol\":2997:3017  requests[_requestNo] */\n      dup2\n      mstore\n      0x20\n      add\n      swap1\n      dup2\n      mstore\n      0x20\n      add\n      0x00\n      keccak256\n        /* \"CrowdFunding.sol\":2967:3017  Request storage thisRequest = requests[_requestNo] */\n      swap1\n      pop\n        /* \"CrowdFunding.sol\":3063:3068  false */\n      0x00\n        /* \"CrowdFunding.sol\":3038:3068  thisRequest.completed == false */\n      iszero\n      iszero\n        /* \"CrowdFunding.sol\":3038:3049  thisRequest */\n      dup2\n        /* \"CrowdFunding.sol\":3038:3059  thisRequest.completed */\n      0x04\n      add\n      0x00\n      swap1\n      sload\n      swap1\n      0x0100\n      exp\n      swap1\n      div\n      0xff\n      and\n        /* \"CrowdFunding.sol\":3038:3068  thisRequest.completed == false */\n      iszero\n      iszero\n      eq\n        /* \"CrowdFunding.sol\":3030:3069  require(thisRequest.completed == false) */\n      tag_115\n      jumpi\n      0x00\n      dup1\n      revert\n    tag_115:\n        /* \"CrowdFunding.sol\":3130:3131  2 */\n      0x02\n        /* \"CrowdFunding.sol\":3113:3129  noOfContributors */\n      dup1\n      sload\n        /* \"CrowdFunding.sol\":3113:3131  noOfContributors/2 */\n      tag_116\n      swap2\n      swap1\n      tag_117\n      jump\t// in\n    tag_116:\n        /* \"CrowdFunding.sol\":3088:3099  thisRequest */\n      dup2\n        /* \"CrowdFunding.sol\":3088:3110  thisRequest.noOfVoters */\n      0x02\n      add\n      sload\n        /* \"CrowdFunding.sol\":3088:3131  thisRequest.noOfVoters > noOfContributors/2 */\n      gt\n        /* \"CrowdFunding.sol\":3080:3132  require(thisRequest.noOfVoters > noOfContributors/2) */\n      tag_118\n      jumpi\n      0x00\n      dup1\n      revert\n    tag_118:\n        /* \"CrowdFunding.sol\":3145:3156  thisRequest */\n      dup1\n        /* \"CrowdFunding.sol\":3145:3166  thisRequest.recipient */\n      0x01\n      add\n      0x00\n      swap1\n      sload\n      swap1\n      0x0100\n      exp\n      swap1\n      div\n      0xffffffffffffffffffffffffffffffffffffffff\n      and\n        /* \"CrowdFunding.sol\":3145:3175  thisRequest.recipient.transfer */\n      0xffffffffffffffffffffffffffffffffffffffff\n      and\n        /* \"CrowdFunding.sol\":3145:3194  thisRequest.recipient.transfer(thisRequest.value) */\n      0x08fc\n        /* \"CrowdFunding.sol\":3176:3187  thisRequest */\n      dup3\n        /* \"CrowdFunding.sol\":3176:3193  thisRequest.value */\n      0x03\n      add\n      sload\n        /* \"CrowdFunding.sol\":3145:3194  thisRequest.recipient.transfer(thisRequest.value) */\n      swap1\n      dup2\n      iszero\n      mul\n      swap1\n      mload(0x40)\n      0x00\n      mload(0x40)\n      dup1\n      dup4\n      sub\n      dup2\n      dup6\n      dup9\n      dup9\n      call\n      swap4\n      pop\n      pop\n      pop\n      pop\n      iszero\n      dup1\n      iszero\n      tag_120\n      jumpi\n      returndatasize\n      0x00\n      dup1\n      returndatacopy\n      revert(0x00, returndatasize)\n    tag_120:\n      pop\n        /* \"CrowdFunding.sol\":3228:3232  true */\n      0x01\n        /* \"CrowdFunding.sol\":3205:3216  thisRequest */\n      dup2\n        /* \"CrowdFunding.sol\":3205:3226  thisRequest.completed */\n      0x04\n      add\n      0x00\n        /* \"CrowdFunding.sol\":3205:3232  thisRequest.completed= true */\n      0x0100\n      exp\n      dup2\n      sload\n      dup2\n      0xff\n      mul\n      not\n      and\n      swap1\n      dup4\n      iszero\n      iszero\n      mul\n      or\n      swap1\n      sstore\n      pop\n        /* \"CrowdFunding.sol\":3250:3308  MakePaymentEvent(thisRequest.recipient, thisRequest.value) */\n      0x516e1673e5e85c44620165259173329adda2ad25e7bb15020c732be060b5b790\n        /* \"CrowdFunding.sol\":3267:3278  thisRequest */\n      dup2\n        /* \"CrowdFunding.sol\":3267:3288  thisRequest.recipient */\n      0x01\n      add\n      0x00\n      swap1\n      sload\n      swap1\n      0x0100\n      exp\n      swap1\n      div\n      0xffffffffffffffffffffffffffffffffffffffff\n      and\n        /* \"CrowdFunding.sol\":3290:3301  thisRequest */\n      dup3\n        /* \"CrowdFunding.sol\":3290:3307  thisRequest.value */\n      0x03\n      add\n      sload\n        /* \"CrowdFunding.sol\":3250:3308  MakePaymentEvent(thisRequest.recipient, thisRequest.value) */\n      mload(0x40)\n      tag_121\n      swap3\n      swap2\n      swap1\n      tag_122\n      jump\t// in\n    tag_121:\n      mload(0x40)\n      dup1\n      swap2\n      sub\n      swap1\n      log1\n        /* \"CrowdFunding.sol\":2919:3316  {... */\n      pop\n        /* \"CrowdFunding.sol\":2865:3316  function makePayment(uint _requestNo) public onlyAdmin{... */\n      pop\n      jump\t// out\n        /* \"CrowdFunding.sol\":532:573  mapping (uint => Request) public requests */\n    tag_65:\n      mstore(0x20, 0x07)\n      dup1\n      0x00\n      mstore\n      keccak256(0x00, 0x40)\n      0x00\n      swap2\n      pop\n      swap1\n      pop\n      dup1\n      0x00\n      add\n      dup1\n      sload\n      tag_123\n      swap1\n      tag_124\n      jump\t// in\n    tag_123:\n      dup1\n      0x1f\n      add\n      0x20\n      dup1\n      swap2\n      div\n      mul\n      0x20\n      add\n      mload(0x40)\n      swap1\n      dup2\n      add\n      0x40\n      mstore\n      dup1\n      swap3\n      swap2\n      swap1\n      dup2\n      dup2\n      mstore\n      0x20\n      add\n      dup3\n      dup1\n      sload\n      tag_125\n      swap1\n      tag_124\n      jump\t// in\n    tag_125:\n      dup1\n      iszero\n      tag_126\n      jumpi\n      dup1\n      0x1f\n      lt\n      tag_127\n      jumpi\n      0x0100\n      dup1\n      dup4\n      sload\n      div\n      mul\n      dup4\n      mstore\n      swap2\n      0x20\n      add\n      swap2\n      jump(tag_126)\n    tag_127:\n      dup3\n      add\n      swap2\n      swap1\n      0x00\n      mstore\n      keccak256(0x00, 0x20)\n      swap1\n    tag_128:\n      dup2\n      sload\n      dup2\n      mstore\n      swap1\n      0x01\n      add\n      swap1\n      0x20\n      add\n      dup1\n      dup4\n      gt\n      tag_128\n      jumpi\n      dup3\n      swap1\n      sub\n      0x1f\n      and\n      dup3\n      add\n      swap2\n    tag_126:\n      pop\n      pop\n      pop\n      pop\n      pop\n      swap1\n      dup1\n      0x01\n      add\n      0x00\n      swap1\n      sload\n      swap1\n      0x0100\n      exp\n      swap1\n      div\n      0xffffffffffffffffffffffffffffffffffffffff\n      and\n      swap1\n      dup1\n      0x02\n      add\n      sload\n      swap1\n      dup1\n      0x03\n      add\n      sload\n      swap1\n      dup1\n      0x04\n      add\n      0x00\n      swap1\n      sload\n      swap1\n      0x0100\n      exp\n      swap1\n      div\n      0xff\n      and\n      swap1\n      pop\n      dup6\n      jump\t// out\n        /* \"CrowdFunding.sol\":203:234  uint public minimumContribution */\n    tag_70:\n      sload(0x03)\n      dup2\n      jump\t// out\n        /* \"CrowdFunding.sol\":616:639  uint public numRequests */\n    tag_74:\n      sload(0x08)\n      dup2\n      jump\t// out\n        /* \"CrowdFunding.sol\":1643:1981  function getRefund() public {... */\n    tag_78:\n        /* \"CrowdFunding.sol\":1709:1717  deadline */\n      sload(0x05)\n        /* \"CrowdFunding.sol\":1690:1705  block.timestamp */\n      timestamp\n        /* \"CrowdFunding.sol\":1690:1717  block.timestamp >= deadline */\n      lt\n      iszero\n        /* \"CrowdFunding.sol\":1690:1740  block.timestamp >= deadline && raisedAmount < goal */\n      dup1\n      iszero\n      tag_130\n      jumpi\n      pop\n        /* \"CrowdFunding.sol\":1736:1740  goal */\n      sload(0x04)\n        /* \"CrowdFunding.sol\":1721:1733  raisedAmount */\n      sload(0x06)\n        /* \"CrowdFunding.sol\":1721:1740  raisedAmount < goal */\n      lt\n        /* \"CrowdFunding.sol\":1690:1740  block.timestamp >= deadline && raisedAmount < goal */\n    tag_130:\n        /* \"CrowdFunding.sol\":1682:1741  require(block.timestamp >= deadline && raisedAmount < goal) */\n      tag_131\n      jumpi\n      0x00\n      dup1\n      revert\n    tag_131:\n        /* \"CrowdFunding.sol\":1787:1788  0 */\n      0x00\n        /* \"CrowdFunding.sol\":1760:1772  contributors */\n      dup1\n        /* \"CrowdFunding.sol\":1760:1784  contributors[msg.sender] */\n      0x00\n        /* \"CrowdFunding.sol\":1773:1783  msg.sender */\n      caller\n        /* \"CrowdFunding.sol\":1760:1784  contributors[msg.sender] */\n      0xffffffffffffffffffffffffffffffffffffffff\n      and\n      0xffffffffffffffffffffffffffffffffffffffff\n      and\n      dup2\n      mstore\n      0x20\n      add\n      swap1\n      dup2\n      mstore\n      0x20\n      add\n      0x00\n      keccak256\n      sload\n        /* \"CrowdFunding.sol\":1760:1788  contributors[msg.sender] > 0 */\n      gt\n        /* \"CrowdFunding.sol\":1752:1789  require(contributors[msg.sender] > 0) */\n      tag_132\n      jumpi\n      0x00\n      dup1\n      revert\n    tag_132:\n        /* \"CrowdFunding.sol\":1802:1827  address payable recipient */\n      0x00\n        /* \"CrowdFunding.sol\":1838:1848  msg.sender */\n      caller\n        /* \"CrowdFunding.sol\":1802:1849  address payable recipient = payable(msg.sender) */\n      swap1\n      pop\n        /* \"CrowdFunding.sol\":1860:1870  uint value */\n      0x00\n        /* \"CrowdFunding.sol\":1873:1885  contributors */\n      dup1\n        /* \"CrowdFunding.sol\":1873:1897  contributors[msg.sender] */\n      0x00\n        /* \"CrowdFunding.sol\":1886:1896  msg.sender */\n      caller\n        /* \"CrowdFunding.sol\":1873:1897  contributors[msg.sender] */\n      0xffffffffffffffffffffffffffffffffffffffff\n      and\n      0xffffffffffffffffffffffffffffffffffffffff\n      and\n      dup2\n      mstore\n      0x20\n      add\n      swap1\n      dup2\n      mstore\n      0x20\n      add\n      0x00\n      keccak256\n      sload\n        /* \"CrowdFunding.sol\":1860:1897  uint value = contributors[msg.sender] */\n      swap1\n      pop\n        /* \"CrowdFunding.sol\":1936:1937  0 */\n      0x00\n        /* \"CrowdFunding.sol\":1910:1922  contributors */\n      dup1\n        /* \"CrowdFunding.sol\":1910:1934  contributors[msg.sender] */\n      0x00\n        /* \"CrowdFunding.sol\":1923:1933  msg.sender */\n      caller\n        /* \"CrowdFunding.sol\":1910:1934  contributors[msg.sender] */\n      0xffffffffffffffffffffffffffffffffffffffff\n      and\n      0xffffffffffffffffffffffffffffffffffffffff\n      and\n      dup2\n      mstore\n      0x20\n      add\n      swap1\n      dup2\n      mstore\n      0x20\n      add\n      0x00\n      keccak256\n        /* \"CrowdFunding.sol\":1910:1937  contributors[msg.sender]= 0 */\n      dup2\n      swap1\n      sstore\n      pop\n        /* \"CrowdFunding.sol\":1948:1957  recipient */\n      dup2\n        /* \"CrowdFunding.sol\":1948:1966  recipient.transfer */\n      0xffffffffffffffffffffffffffffffffffffffff\n      and\n        /* \"CrowdFunding.sol\":1948:1973  recipient.transfer(value) */\n      0x08fc\n        /* \"CrowdFunding.sol\":1967:1972  value */\n      dup3\n        /* \"CrowdFunding.sol\":1948:1973  recipient.transfer(value) */\n      swap1\n      dup2\n      iszero\n      mul\n      swap1\n      mload(0x40)\n      0x00\n      mload(0x40)\n      dup1\n      dup4\n      sub\n      dup2\n      dup6\n      dup9\n      dup9\n      call\n      swap4\n      pop\n      pop\n      pop\n      pop\n      iszero\n      dup1\n      iszero\n      tag_134\n      jumpi\n      returndatasize\n      0x00\n      dup1\n      returndatacopy\n      revert(0x00, returndatasize)\n    tag_134:\n      pop\n        /* \"CrowdFunding.sol\":1671:1981  {... */\n      pop\n      pop\n        /* \"CrowdFunding.sol\":1643:1981  function getRefund() public {... */\n      jump\t// out\n        /* \"CrowdFunding.sol\":291:315  uint public raisedAmount */\n    tag_81:\n      sload(0x06)\n      dup2\n      jump\t// out\n        /* \"CrowdFunding.sol\":141:161  address public admin */\n    tag_86:\n      0x01\n      0x00\n      swap1\n      sload\n      swap1\n      0x0100\n      exp\n      swap1\n      div\n      0xffffffffffffffffffffffffffffffffffffffff\n      and\n      dup2\n      jump\t// out\n        /* \"#utility.yul\":7:84   */\n    tag_135:\n        /* \"#utility.yul\":44:51   */\n      0x00\n        /* \"#utility.yul\":73:78   */\n      dup2\n        /* \"#utility.yul\":62:78   */\n      swap1\n      pop\n        /* \"#utility.yul\":7:84   */\n      swap2\n      swap1\n      pop\n      jump\t// out\n        /* \"#utility.yul\":90:208   */\n    tag_136:\n        /* \"#utility.yul\":177:201   */\n      tag_192\n        /* \"#utility.yul\":195:200   */\n      dup2\n        /* \"#utility.yul\":177:201   */\n      tag_135\n      jump\t// in\n    tag_192:\n        /* \"#utility.yul\":172:175   */\n      dup3\n        /* \"#utility.yul\":165:202   */\n      mstore\n        /* \"#utility.yul\":90:208   */\n      pop\n      pop\n      jump\t// out\n        /* \"#utility.yul\":214:436   */\n    tag_29:\n        /* \"#utility.yul\":307:311   */\n      0x00\n        /* \"#utility.yul\":345:347   */\n      0x20\n        /* \"#utility.yul\":334:343   */\n      dup3\n        /* \"#utility.yul\":330:348   */\n      add\n        /* \"#utility.yul\":322:348   */\n      swap1\n      pop\n        /* \"#utility.yul\":358:429   */\n      tag_194\n        /* \"#utility.yul\":426:427   */\n      0x00\n        /* \"#utility.yul\":415:424   */\n      dup4\n        /* \"#utility.yul\":411:428   */\n      add\n        /* \"#utility.yul\":402:408   */\n      dup5\n        /* \"#utility.yul\":358:429   */\n      tag_136\n      jump\t// in\n    tag_194:\n        /* \"#utility.yul\":214:436   */\n      swap3\n      swap2\n      pop\n      pop\n      jump\t// out\n        /* \"#utility.yul\":442:517   */\n    tag_137:\n        /* \"#utility.yul\":475:481   */\n      0x00\n        /* \"#utility.yul\":508:510   */\n      0x40\n        /* \"#utility.yul\":502:511   */\n      mload\n        /* \"#utility.yul\":492:511   */\n      swap1\n      pop\n        /* \"#utility.yul\":442:517   */\n      swap1\n      jump\t// out\n        /* \"#utility.yul\":523:640   */\n    tag_138:\n        /* \"#utility.yul\":632:633   */\n      0x00\n        /* \"#utility.yul\":629:630   */\n      dup1\n        /* \"#utility.yul\":622:634   */\n      revert\n        /* \"#utility.yul\":646:763   */\n    tag_139:\n        /* \"#utility.yul\":755:756   */\n      0x00\n        /* \"#utility.yul\":752:753   */\n      dup1\n        /* \"#utility.yul\":745:757   */\n      revert\n        /* \"#utility.yul\":769:886   */\n    tag_140:\n        /* \"#utility.yul\":878:879   */\n      0x00\n        /* \"#utility.yul\":875:876   */\n      dup1\n        /* \"#utility.yul\":868:880   */\n      revert\n        /* \"#utility.yul\":892:1009   */\n    tag_141:\n        /* \"#utility.yul\":1001:1002   */\n      0x00\n        /* \"#utility.yul\":998:999   */\n      dup1\n        /* \"#utility.yul\":991:1003   */\n      revert\n        /* \"#utility.yul\":1015:1117   */\n    tag_142:\n        /* \"#utility.yul\":1056:1062   */\n      0x00\n        /* \"#utility.yul\":1107:1109   */\n      0x1f\n        /* \"#utility.yul\":1103:1110   */\n      not\n        /* \"#utility.yul\":1098:1100   */\n      0x1f\n        /* \"#utility.yul\":1091:1096   */\n      dup4\n        /* \"#utility.yul\":1087:1101   */\n      add\n        /* \"#utility.yul\":1083:1111   */\n      and\n        /* \"#utility.yul\":1073:1111   */\n      swap1\n      pop\n        /* \"#utility.yul\":1015:1117   */\n      swap2\n      swap1\n      pop\n      jump\t// out\n        /* \"#utility.yul\":1123:1303   */\n    tag_143:\n        /* \"#utility.yul\":1171:1248   */\n      0x4e487b7100000000000000000000000000000000000000000000000000000000\n        /* \"#utility.yul\":1168:1169   */\n      0x00\n        /* \"#utility.yul\":1161:1249   */\n      mstore\n        /* \"#utility.yul\":1268:1272   */\n      0x41\n        /* \"#utility.yul\":1265:1266   */\n      0x04\n        /* \"#utility.yul\":1258:1273   */\n      mstore\n        /* \"#utility.yul\":1292:1296   */\n      0x24\n        /* \"#utility.yul\":1289:1290   */\n      0x00\n        /* \"#utility.yul\":1282:1297   */\n      revert\n        /* \"#utility.yul\":1309:1590   */\n    tag_144:\n        /* \"#utility.yul\":1392:1419   */\n      tag_203\n        /* \"#utility.yul\":1414:1418   */\n      dup3\n        /* \"#utility.yul\":1392:1419   */\n      tag_142\n      jump\t// in\n    tag_203:\n        /* \"#utility.yul\":1384:1390   */\n      dup2\n        /* \"#utility.yul\":1380:1420   */\n      add\n        /* \"#utility.yul\":1522:1528   */\n      dup2\n        /* \"#utility.yul\":1510:1520   */\n      dup2\n        /* \"#utility.yul\":1507:1529   */\n      lt\n        /* \"#utility.yul\":1486:1504   */\n      0xffffffffffffffff\n        /* \"#utility.yul\":1474:1484   */\n      dup3\n        /* \"#utility.yul\":1471:1505   */\n      gt\n        /* \"#utility.yul\":1468:1530   */\n      or\n        /* \"#utility.yul\":1465:1553   */\n      iszero\n      tag_204\n      jumpi\n        /* \"#utility.yul\":1533:1551   */\n      tag_205\n      tag_143\n      jump\t// in\n    tag_205:\n        /* \"#utility.yul\":1465:1553   */\n    tag_204:\n        /* \"#utility.yul\":1573:1583   */\n      dup1\n        /* \"#utility.yul\":1569:1571   */\n      0x40\n        /* \"#utility.yul\":1562:1584   */\n      mstore\n        /* \"#utility.yul\":1352:1590   */\n      pop\n        /* \"#utility.yul\":1309:1590   */\n      pop\n      pop\n      jump\t// out\n        /* \"#utility.yul\":1596:1725   */\n    tag_145:\n        /* \"#utility.yul\":1630:1636   */\n      0x00\n        /* \"#utility.yul\":1657:1677   */\n      tag_207\n      tag_137\n      jump\t// in\n    tag_207:\n        /* \"#utility.yul\":1647:1677   */\n      swap1\n      pop\n        /* \"#utility.yul\":1686:1719   */\n      tag_208\n        /* \"#utility.yul\":1714:1718   */\n      dup3\n        /* \"#utility.yul\":1706:1712   */\n      dup3\n        /* \"#utility.yul\":1686:1719   */\n      tag_144\n      jump\t// in\n    tag_208:\n        /* \"#utility.yul\":1596:1725   */\n      swap2\n      swap1\n      pop\n      jump\t// out\n        /* \"#utility.yul\":1731:2039   */\n    tag_146:\n        /* \"#utility.yul\":1793:1797   */\n      0x00\n        /* \"#utility.yul\":1883:1901   */\n      0xffffffffffffffff\n        /* \"#utility.yul\":1875:1881   */\n      dup3\n        /* \"#utility.yul\":1872:1902   */\n      gt\n        /* \"#utility.yul\":1869:1925   */\n      iszero\n      tag_210\n      jumpi\n        /* \"#utility.yul\":1905:1923   */\n      tag_211\n      tag_143\n      jump\t// in\n    tag_211:\n        /* \"#utility.yul\":1869:1925   */\n    tag_210:\n        /* \"#utility.yul\":1943:1972   */\n      tag_212\n        /* \"#utility.yul\":1965:1971   */\n      dup3\n        /* \"#utility.yul\":1943:1972   */\n      tag_142\n      jump\t// in\n    tag_212:\n        /* \"#utility.yul\":1935:1972   */\n      swap1\n      pop\n        /* \"#utility.yul\":2027:2031   */\n      0x20\n        /* \"#utility.yul\":2021:2025   */\n      dup2\n        /* \"#utility.yul\":2017:2032   */\n      add\n        /* \"#utility.yul\":2009:2032   */\n      swap1\n      pop\n        /* \"#utility.yul\":1731:2039   */\n      swap2\n      swap1\n      pop\n      jump\t// out\n        /* \"#utility.yul\":2045:2193   */\n    tag_147:\n        /* \"#utility.yul\":2143:2149   */\n      dup3\n        /* \"#utility.yul\":2138:2141   */\n      dup2\n        /* \"#utility.yul\":2133:2136   */\n      dup4\n        /* \"#utility.yul\":2120:2150   */\n      calldatacopy\n        /* \"#utility.yul\":2184:2185   */\n      0x00\n        /* \"#utility.yul\":2175:2181   */\n      dup4\n        /* \"#utility.yul\":2170:2173   */\n      dup4\n        /* \"#utility.yul\":2166:2182   */\n      add\n        /* \"#utility.yul\":2159:2186   */\n      mstore\n        /* \"#utility.yul\":2045:2193   */\n      pop\n      pop\n      pop\n      jump\t// out\n        /* \"#utility.yul\":2199:2624   */\n    tag_148:\n        /* \"#utility.yul\":2277:2282   */\n      0x00\n        /* \"#utility.yul\":2302:2368   */\n      tag_215\n        /* \"#utility.yul\":2318:2367   */\n      tag_216\n        /* \"#utility.yul\":2360:2366   */\n      dup5\n        /* \"#utility.yul\":2318:2367   */\n      tag_146\n      jump\t// in\n    tag_216:\n        /* \"#utility.yul\":2302:2368   */\n      tag_145\n      jump\t// in\n    tag_215:\n        /* \"#utility.yul\":2293:2368   */\n      swap1\n      pop\n        /* \"#utility.yul\":2391:2397   */\n      dup3\n        /* \"#utility.yul\":2384:2389   */\n      dup2\n        /* \"#utility.yul\":2377:2398   */\n      mstore\n        /* \"#utility.yul\":2429:2433   */\n      0x20\n        /* \"#utility.yul\":2422:2427   */\n      dup2\n        /* \"#utility.yul\":2418:2434   */\n      add\n        /* \"#utility.yul\":2467:2470   */\n      dup5\n        /* \"#utility.yul\":2458:2464   */\n      dup5\n        /* \"#utility.yul\":2453:2456   */\n      dup5\n        /* \"#utility.yul\":2449:2465   */\n      add\n        /* \"#utility.yul\":2446:2471   */\n      gt\n        /* \"#utility.yul\":2443:2555   */\n      iszero\n      tag_217\n      jumpi\n        /* \"#utility.yul\":2474:2553   */\n      tag_218\n      tag_141\n      jump\t// in\n    tag_218:\n        /* \"#utility.yul\":2443:2555   */\n    tag_217:\n        /* \"#utility.yul\":2564:2618   */\n      tag_219\n        /* \"#utility.yul\":2611:2617   */\n      dup5\n        /* \"#utility.yul\":2606:2609   */\n      dup3\n        /* \"#utility.yul\":2601:2604   */\n      dup6\n        /* \"#utility.yul\":2564:2618   */\n      tag_147\n      jump\t// in\n    tag_219:\n        /* \"#utility.yul\":2283:2624   */\n      pop\n        /* \"#utility.yul\":2199:2624   */\n      swap4\n      swap3\n      pop\n      pop\n      pop\n      jump\t// out\n        /* \"#utility.yul\":2644:2984   */\n    tag_149:\n        /* \"#utility.yul\":2700:2705   */\n      0x00\n        /* \"#utility.yul\":2749:2752   */\n      dup3\n        /* \"#utility.yul\":2742:2746   */\n      0x1f\n        /* \"#utility.yul\":2734:2740   */\n      dup4\n        /* \"#utility.yul\":2730:2747   */\n      add\n        /* \"#utility.yul\":2726:2753   */\n      slt\n        /* \"#utility.yul\":2716:2838   */\n      tag_221\n      jumpi\n        /* \"#utility.yul\":2757:2836   */\n      tag_222\n      tag_140\n      jump\t// in\n    tag_222:\n        /* \"#utility.yul\":2716:2838   */\n    tag_221:\n        /* \"#utility.yul\":2874:2880   */\n      dup2\n        /* \"#utility.yul\":2861:2881   */\n      calldataload\n        /* \"#utility.yul\":2899:2978   */\n      tag_223\n        /* \"#utility.yul\":2974:2977   */\n      dup5\n        /* \"#utility.yul\":2966:2972   */\n      dup3\n        /* \"#utility.yul\":2959:2963   */\n      0x20\n        /* \"#utility.yul\":2951:2957   */\n      dup7\n        /* \"#utility.yul\":2947:2964   */\n      add\n        /* \"#utility.yul\":2899:2978   */\n      tag_148\n      jump\t// in\n    tag_223:\n        /* \"#utility.yul\":2890:2978   */\n      swap2\n      pop\n        /* \"#utility.yul\":2706:2984   */\n      pop\n        /* \"#utility.yul\":2644:2984   */\n      swap3\n      swap2\n      pop\n      pop\n      jump\t// out\n        /* \"#utility.yul\":2990:3116   */\n    tag_150:\n        /* \"#utility.yul\":3027:3034   */\n      0x00\n        /* \"#utility.yul\":3067:3109   */\n      0xffffffffffffffffffffffffffffffffffffffff\n        /* \"#utility.yul\":3060:3065   */\n      dup3\n        /* \"#utility.yul\":3056:3110   */\n      and\n        /* \"#utility.yul\":3045:3110   */\n      swap1\n      pop\n        /* \"#utility.yul\":2990:3116   */\n      swap2\n      swap1\n      pop\n      jump\t// out\n        /* \"#utility.yul\":3122:3226   */\n    tag_151:\n        /* \"#utility.yul\":3167:3174   */\n      0x00\n        /* \"#utility.yul\":3196:3220   */\n      tag_226\n        /* \"#utility.yul\":3214:3219   */\n      dup3\n        /* \"#utility.yul\":3196:3220   */\n      tag_150\n      jump\t// in\n    tag_226:\n        /* \"#utility.yul\":3185:3220   */\n      swap1\n      pop\n        /* \"#utility.yul\":3122:3226   */\n      swap2\n      swap1\n      pop\n      jump\t// out\n        /* \"#utility.yul\":3232:3370   */\n    tag_152:\n        /* \"#utility.yul\":3313:3345   */\n      tag_228\n        /* \"#utility.yul\":3339:3344   */\n      dup2\n        /* \"#utility.yul\":3313:3345   */\n      tag_151\n      jump\t// in\n    tag_228:\n        /* \"#utility.yul\":3306:3311   */\n      dup2\n        /* \"#utility.yul\":3303:3346   */\n      eq\n        /* \"#utility.yul\":3293:3364   */\n      tag_229\n      jumpi\n        /* \"#utility.yul\":3360:3361   */\n      0x00\n        /* \"#utility.yul\":3357:3358   */\n      dup1\n        /* \"#utility.yul\":3350:3362   */\n      revert\n        /* \"#utility.yul\":3293:3364   */\n    tag_229:\n        /* \"#utility.yul\":3232:3370   */\n      pop\n      jump\t// out\n        /* \"#utility.yul\":3376:3531   */\n    tag_153:\n        /* \"#utility.yul\":3430:3435   */\n      0x00\n        /* \"#utility.yul\":3468:3474   */\n      dup2\n        /* \"#utility.yul\":3455:3475   */\n      calldataload\n        /* \"#utility.yul\":3446:3475   */\n      swap1\n      pop\n        /* \"#utility.yul\":3484:3525   */\n      tag_231\n        /* \"#utility.yul\":3519:3524   */\n      dup2\n        /* \"#utility.yul\":3484:3525   */\n      tag_152\n      jump\t// in\n    tag_231:\n        /* \"#utility.yul\":3376:3531   */\n      swap3\n      swap2\n      pop\n      pop\n      jump\t// out\n        /* \"#utility.yul\":3537:3659   */\n    tag_154:\n        /* \"#utility.yul\":3610:3634   */\n      tag_233\n        /* \"#utility.yul\":3628:3633   */\n      dup2\n        /* \"#utility.yul\":3610:3634   */\n      tag_135\n      jump\t// in\n    tag_233:\n        /* \"#utility.yul\":3603:3608   */\n      dup2\n        /* \"#utility.yul\":3600:3635   */\n      eq\n        /* \"#utility.yul\":3590:3653   */\n      tag_234\n      jumpi\n        /* \"#utility.yul\":3649:3650   */\n      0x00\n        /* \"#utility.yul\":3646:3647   */\n      dup1\n        /* \"#utility.yul\":3639:3651   */\n      revert\n        /* \"#utility.yul\":3590:3653   */\n    tag_234:\n        /* \"#utility.yul\":3537:3659   */\n      pop\n      jump\t// out\n        /* \"#utility.yul\":3665:3804   */\n    tag_155:\n        /* \"#utility.yul\":3711:3716   */\n      0x00\n        /* \"#utility.yul\":3749:3755   */\n      dup2\n        /* \"#utility.yul\":3736:3756   */\n      calldataload\n        /* \"#utility.yul\":3727:3756   */\n      swap1\n      pop\n        /* \"#utility.yul\":3765:3798   */\n      tag_236\n        /* \"#utility.yul\":3792:3797   */\n      dup2\n        /* \"#utility.yul\":3765:3798   */\n      tag_154\n      jump\t// in\n    tag_236:\n        /* \"#utility.yul\":3665:3804   */\n      swap3\n      swap2\n      pop\n      pop\n      jump\t// out\n        /* \"#utility.yul\":3810:4625   */\n    tag_33:\n        /* \"#utility.yul\":3905:3911   */\n      0x00\n        /* \"#utility.yul\":3913:3919   */\n      dup1\n        /* \"#utility.yul\":3921:3927   */\n      0x00\n        /* \"#utility.yul\":3970:3972   */\n      0x60\n        /* \"#utility.yul\":3958:3967   */\n      dup5\n        /* \"#utility.yul\":3949:3956   */\n      dup7\n        /* \"#utility.yul\":3945:3968   */\n      sub\n        /* \"#utility.yul\":3941:3973   */\n      slt\n        /* \"#utility.yul\":3938:4057   */\n      iszero\n      tag_238\n      jumpi\n        /* \"#utility.yul\":3976:4055   */\n      tag_239\n      tag_138\n      jump\t// in\n    tag_239:\n        /* \"#utility.yul\":3938:4057   */\n    tag_238:\n        /* \"#utility.yul\":4124:4125   */\n      0x00\n        /* \"#utility.yul\":4113:4122   */\n      dup5\n        /* \"#utility.yul\":4109:4126   */\n      add\n        /* \"#utility.yul\":4096:4127   */\n      calldataload\n        /* \"#utility.yul\":4154:4172   */\n      0xffffffffffffffff\n        /* \"#utility.yul\":4146:4152   */\n      dup2\n        /* \"#utility.yul\":4143:4173   */\n      gt\n        /* \"#utility.yul\":4140:4257   */\n      iszero\n      tag_240\n      jumpi\n        /* \"#utility.yul\":4176:4255   */\n      tag_241\n      tag_139\n      jump\t// in\n    tag_241:\n        /* \"#utility.yul\":4140:4257   */\n    tag_240:\n        /* \"#utility.yul\":4281:4344   */\n      tag_242\n        /* \"#utility.yul\":4336:4343   */\n      dup7\n        /* \"#utility.yul\":4327:4333   */\n      dup3\n        /* \"#utility.yul\":4316:4325   */\n      dup8\n        /* \"#utility.yul\":4312:4334   */\n      add\n        /* \"#utility.yul\":4281:4344   */\n      tag_149\n      jump\t// in\n    tag_242:\n        /* \"#utility.yul\":4271:4344   */\n      swap4\n      pop\n        /* \"#utility.yul\":4067:4354   */\n      pop\n        /* \"#utility.yul\":4393:4395   */\n      0x20\n        /* \"#utility.yul\":4419:4480   */\n      tag_243\n        /* \"#utility.yul\":4472:4479   */\n      dup7\n        /* \"#utility.yul\":4463:4469   */\n      dup3\n        /* \"#utility.yul\":4452:4461   */\n      dup8\n        /* \"#utility.yul\":4448:4470   */\n      add\n        /* \"#utility.yul\":4419:4480   */\n      tag_153\n      jump\t// in\n    tag_243:\n        /* \"#utility.yul\":4409:4480   */\n      swap3\n      pop\n        /* \"#utility.yul\":4364:4490   */\n      pop\n        /* \"#utility.yul\":4529:4531   */\n      0x40\n        /* \"#utility.yul\":4555:4608   */\n      tag_244\n        /* \"#utility.yul\":4600:4607   */\n      dup7\n        /* \"#utility.yul\":4591:4597   */\n      dup3\n        /* \"#utility.yul\":4580:4589   */\n      dup8\n        /* \"#utility.yul\":4576:4598   */\n      add\n        /* \"#utility.yul\":4555:4608   */\n      tag_155\n      jump\t// in\n    tag_244:\n        /* \"#utility.yul\":4545:4608   */\n      swap2\n      pop\n        /* \"#utility.yul\":4500:4618   */\n      pop\n        /* \"#utility.yul\":3810:4625   */\n      swap3\n      pop\n      swap3\n      pop\n      swap3\n      jump\t// out\n        /* \"#utility.yul\":4631:4727   */\n    tag_156:\n        /* \"#utility.yul\":4668:4675   */\n      0x00\n        /* \"#utility.yul\":4697:4721   */\n      tag_246\n        /* \"#utility.yul\":4715:4720   */\n      dup3\n        /* \"#utility.yul\":4697:4721   */\n      tag_150\n      jump\t// in\n    tag_246:\n        /* \"#utility.yul\":4686:4721   */\n      swap1\n      pop\n        /* \"#utility.yul\":4631:4727   */\n      swap2\n      swap1\n      pop\n      jump\t// out\n        /* \"#utility.yul\":4733:4855   */\n    tag_157:\n        /* \"#utility.yul\":4806:4830   */\n      tag_248\n        /* \"#utility.yul\":4824:4829   */\n      dup2\n        /* \"#utility.yul\":4806:4830   */\n      tag_156\n      jump\t// in\n    tag_248:\n        /* \"#utility.yul\":4799:4804   */\n      dup2\n        /* \"#utility.yul\":4796:4831   */\n      eq\n        /* \"#utility.yul\":4786:4849   */\n      tag_249\n      jumpi\n        /* \"#utility.yul\":4845:4846   */\n      0x00\n        /* \"#utility.yul\":4842:4843   */\n      dup1\n        /* \"#utility.yul\":4835:4847   */\n      revert\n        /* \"#utility.yul\":4786:4849   */\n    tag_249:\n        /* \"#utility.yul\":4733:4855   */\n      pop\n      jump\t// out\n        /* \"#utility.yul\":4861:5000   */\n    tag_158:\n        /* \"#utility.yul\":4907:4912   */\n      0x00\n        /* \"#utility.yul\":4945:4951   */\n      dup2\n        /* \"#utility.yul\":4932:4952   */\n      calldataload\n        /* \"#utility.yul\":4923:4952   */\n      swap1\n      pop\n        /* \"#utility.yul\":4961:4994   */\n      tag_251\n        /* \"#utility.yul\":4988:4993   */\n      dup2\n        /* \"#utility.yul\":4961:4994   */\n      tag_157\n      jump\t// in\n    tag_251:\n        /* \"#utility.yul\":4861:5000   */\n      swap3\n      swap2\n      pop\n      pop\n      jump\t// out\n        /* \"#utility.yul\":5006:5335   */\n    tag_38:\n        /* \"#utility.yul\":5065:5071   */\n      0x00\n        /* \"#utility.yul\":5114:5116   */\n      0x20\n        /* \"#utility.yul\":5102:5111   */\n      dup3\n        /* \"#utility.yul\":5093:5100   */\n      dup5\n        /* \"#utility.yul\":5089:5112   */\n      sub\n        /* \"#utility.yul\":5085:5117   */\n      slt\n        /* \"#utility.yul\":5082:5201   */\n      iszero\n      tag_253\n      jumpi\n        /* \"#utility.yul\":5120:5199   */\n      tag_254\n      tag_138\n      jump\t// in\n    tag_254:\n        /* \"#utility.yul\":5082:5201   */\n    tag_253:\n        /* \"#utility.yul\":5240:5241   */\n      0x00\n        /* \"#utility.yul\":5265:5318   */\n      tag_255\n        /* \"#utility.yul\":5310:5317   */\n      dup5\n        /* \"#utility.yul\":5301:5307   */\n      dup3\n        /* \"#utility.yul\":5290:5299   */\n      dup6\n        /* \"#utility.yul\":5286:5308   */\n      add\n        /* \"#utility.yul\":5265:5318   */\n      tag_158\n      jump\t// in\n    tag_255:\n        /* \"#utility.yul\":5255:5318   */\n      swap2\n      pop\n        /* \"#utility.yul\":5211:5328   */\n      pop\n        /* \"#utility.yul\":5006:5335   */\n      swap3\n      swap2\n      pop\n      pop\n      jump\t// out\n        /* \"#utility.yul\":5341:5670   */\n    tag_52:\n        /* \"#utility.yul\":5400:5406   */\n      0x00\n        /* \"#utility.yul\":5449:5451   */\n      0x20\n        /* \"#utility.yul\":5437:5446   */\n      dup3\n        /* \"#utility.yul\":5428:5435   */\n      dup5\n        /* \"#utility.yul\":5424:5447   */\n      sub\n        /* \"#utility.yul\":5420:5452   */\n      slt\n        /* \"#utility.yul\":5417:5536   */\n      iszero\n      tag_257\n      jumpi\n        /* \"#utility.yul\":5455:5534   */\n      tag_258\n      tag_138\n      jump\t// in\n    tag_258:\n        /* \"#utility.yul\":5417:5536   */\n    tag_257:\n        /* \"#utility.yul\":5575:5576   */\n      0x00\n        /* \"#utility.yul\":5600:5653   */\n      tag_259\n        /* \"#utility.yul\":5645:5652   */\n      dup5\n        /* \"#utility.yul\":5636:5642   */\n      dup3\n        /* \"#utility.yul\":5625:5634   */\n      dup6\n        /* \"#utility.yul\":5621:5643   */\n      add\n        /* \"#utility.yul\":5600:5653   */\n      tag_155\n      jump\t// in\n    tag_259:\n        /* \"#utility.yul\":5590:5653   */\n      swap2\n      pop\n        /* \"#utility.yul\":5546:5663   */\n      pop\n        /* \"#utility.yul\":5341:5670   */\n      swap3\n      swap2\n      pop\n      pop\n      jump\t// out\n        /* \"#utility.yul\":5676:5775   */\n    tag_159:\n        /* \"#utility.yul\":5728:5734   */\n      0x00\n        /* \"#utility.yul\":5762:5767   */\n      dup2\n        /* \"#utility.yul\":5756:5768   */\n      mload\n        /* \"#utility.yul\":5746:5768   */\n      swap1\n      pop\n        /* \"#utility.yul\":5676:5775   */\n      swap2\n      swap1\n      pop\n      jump\t// out\n        /* \"#utility.yul\":5781:5950   */\n    tag_160:\n        /* \"#utility.yul\":5865:5876   */\n      0x00\n        /* \"#utility.yul\":5899:5905   */\n      dup3\n        /* \"#utility.yul\":5894:5897   */\n      dup3\n        /* \"#utility.yul\":5887:5906   */\n      mstore\n        /* \"#utility.yul\":5939:5943   */\n      0x20\n        /* \"#utility.yul\":5934:5937   */\n      dup3\n        /* \"#utility.yul\":5930:5944   */\n      add\n        /* \"#utility.yul\":5915:5944   */\n      swap1\n      pop\n        /* \"#utility.yul\":5781:5950   */\n      swap3\n      swap2\n      pop\n      pop\n      jump\t// out\n        /* \"#utility.yul\":5956:6095   */\n    tag_161:\n        /* \"#utility.yul\":6045:6051   */\n      dup3\n        /* \"#utility.yul\":6040:6043   */\n      dup2\n        /* \"#utility.yul\":6035:6038   */\n      dup4\n        /* \"#utility.yul\":6029:6052   */\n      mcopy\n        /* \"#utility.yul\":6086:6087   */\n      0x00\n        /* \"#utility.yul\":6077:6083   */\n      dup4\n        /* \"#utility.yul\":6072:6075   */\n      dup4\n        /* \"#utility.yul\":6068:6084   */\n      add\n        /* \"#utility.yul\":6061:6088   */\n      mstore\n        /* \"#utility.yul\":5956:6095   */\n      pop\n      pop\n      pop\n      jump\t// out\n        /* \"#utility.yul\":6101:6478   */\n    tag_162:\n        /* \"#utility.yul\":6189:6192   */\n      0x00\n        /* \"#utility.yul\":6217:6256   */\n      tag_264\n        /* \"#utility.yul\":6250:6255   */\n      dup3\n        /* \"#utility.yul\":6217:6256   */\n      tag_159\n      jump\t// in\n    tag_264:\n        /* \"#utility.yul\":6272:6343   */\n      tag_265\n        /* \"#utility.yul\":6336:6342   */\n      dup2\n        /* \"#utility.yul\":6331:6334   */\n      dup6\n        /* \"#utility.yul\":6272:6343   */\n      tag_160\n      jump\t// in\n    tag_265:\n        /* \"#utility.yul\":6265:6343   */\n      swap4\n      pop\n        /* \"#utility.yul\":6352:6417   */\n      tag_266\n        /* \"#utility.yul\":6410:6416   */\n      dup2\n        /* \"#utility.yul\":6405:6408   */\n      dup6\n        /* \"#utility.yul\":6398:6402   */\n      0x20\n        /* \"#utility.yul\":6391:6396   */\n      dup7\n        /* \"#utility.yul\":6387:6403   */\n      add\n        /* \"#utility.yul\":6352:6417   */\n      tag_161\n      jump\t// in\n    tag_266:\n        /* \"#utility.yul\":6442:6471   */\n      tag_267\n        /* \"#utility.yul\":6464:6470   */\n      dup2\n        /* \"#utility.yul\":6442:6471   */\n      tag_142\n      jump\t// in\n    tag_267:\n        /* \"#utility.yul\":6437:6440   */\n      dup5\n        /* \"#utility.yul\":6433:6472   */\n      add\n        /* \"#utility.yul\":6426:6472   */\n      swap2\n      pop\n        /* \"#utility.yul\":6193:6478   */\n      pop\n        /* \"#utility.yul\":6101:6478   */\n      swap3\n      swap2\n      pop\n      pop\n      jump\t// out\n        /* \"#utility.yul\":6484:6626   */\n    tag_163:\n        /* \"#utility.yul\":6587:6619   */\n      tag_269\n        /* \"#utility.yul\":6613:6618   */\n      dup2\n        /* \"#utility.yul\":6587:6619   */\n      tag_151\n      jump\t// in\n    tag_269:\n        /* \"#utility.yul\":6582:6585   */\n      dup3\n        /* \"#utility.yul\":6575:6620   */\n      mstore\n        /* \"#utility.yul\":6484:6626   */\n      pop\n      pop\n      jump\t// out\n        /* \"#utility.yul\":6632:6722   */\n    tag_164:\n        /* \"#utility.yul\":6666:6673   */\n      0x00\n        /* \"#utility.yul\":6709:6714   */\n      dup2\n        /* \"#utility.yul\":6702:6715   */\n      iszero\n        /* \"#utility.yul\":6695:6716   */\n      iszero\n        /* \"#utility.yul\":6684:6716   */\n      swap1\n      pop\n        /* \"#utility.yul\":6632:6722   */\n      swap2\n      swap1\n      pop\n      jump\t// out\n        /* \"#utility.yul\":6728:6837   */\n    tag_165:\n        /* \"#utility.yul\":6809:6830   */\n      tag_272\n        /* \"#utility.yul\":6824:6829   */\n      dup2\n        /* \"#utility.yul\":6809:6830   */\n      tag_164\n      jump\t// in\n    tag_272:\n        /* \"#utility.yul\":6804:6807   */\n      dup3\n        /* \"#utility.yul\":6797:6831   */\n      mstore\n        /* \"#utility.yul\":6728:6837   */\n      pop\n      pop\n      jump\t// out\n        /* \"#utility.yul\":6843:7618   */\n    tag_67:\n        /* \"#utility.yul\":7078:7082   */\n      0x00\n        /* \"#utility.yul\":7116:7119   */\n      0xa0\n        /* \"#utility.yul\":7105:7114   */\n      dup3\n        /* \"#utility.yul\":7101:7120   */\n      add\n        /* \"#utility.yul\":7093:7120   */\n      swap1\n      pop\n        /* \"#utility.yul\":7166:7175   */\n      dup2\n        /* \"#utility.yul\":7160:7164   */\n      dup2\n        /* \"#utility.yul\":7156:7176   */\n      sub\n        /* \"#utility.yul\":7152:7153   */\n      0x00\n        /* \"#utility.yul\":7141:7150   */\n      dup4\n        /* \"#utility.yul\":7137:7154   */\n      add\n        /* \"#utility.yul\":7130:7177   */\n      mstore\n        /* \"#utility.yul\":7194:7272   */\n      tag_274\n        /* \"#utility.yul\":7267:7271   */\n      dup2\n        /* \"#utility.yul\":7258:7264   */\n      dup9\n        /* \"#utility.yul\":7194:7272   */\n      tag_162\n      jump\t// in\n    tag_274:\n        /* \"#utility.yul\":7186:7272   */\n      swap1\n      pop\n        /* \"#utility.yul\":7282:7370   */\n      tag_275\n        /* \"#utility.yul\":7366:7368   */\n      0x20\n        /* \"#utility.yul\":7355:7364   */\n      dup4\n        /* \"#utility.yul\":7351:7369   */\n      add\n        /* \"#utility.yul\":7342:7348   */\n      dup8\n        /* \"#utility.yul\":7282:7370   */\n      tag_163\n      jump\t// in\n    tag_275:\n        /* \"#utility.yul\":7380:7452   */\n      tag_276\n        /* \"#utility.yul\":7448:7450   */\n      0x40\n        /* \"#utility.yul\":7437:7446   */\n      dup4\n        /* \"#utility.yul\":7433:7451   */\n      add\n        /* \"#utility.yul\":7424:7430   */\n      dup7\n        /* \"#utility.yul\":7380:7452   */\n      tag_136\n      jump\t// in\n    tag_276:\n        /* \"#utility.yul\":7462:7534   */\n      tag_277\n        /* \"#utility.yul\":7530:7532   */\n      0x60\n        /* \"#utility.yul\":7519:7528   */\n      dup4\n        /* \"#utility.yul\":7515:7533   */\n      add\n        /* \"#utility.yul\":7506:7512   */\n      dup6\n        /* \"#utility.yul\":7462:7534   */\n      tag_136\n      jump\t// in\n    tag_277:\n        /* \"#utility.yul\":7544:7611   */\n      tag_278\n        /* \"#utility.yul\":7606:7609   */\n      0x80\n        /* \"#utility.yul\":7595:7604   */\n      dup4\n        /* \"#utility.yul\":7591:7610   */\n      add\n        /* \"#utility.yul\":7582:7588   */\n      dup5\n        /* \"#utility.yul\":7544:7611   */\n      tag_165\n      jump\t// in\n    tag_278:\n        /* \"#utility.yul\":6843:7618   */\n      swap7\n      swap6\n      pop\n      pop\n      pop\n      pop\n      pop\n      pop\n      jump\t// out\n        /* \"#utility.yul\":7624:7742   */\n    tag_166:\n        /* \"#utility.yul\":7711:7735   */\n      tag_280\n        /* \"#utility.yul\":7729:7734   */\n      dup2\n        /* \"#utility.yul\":7711:7735   */\n      tag_156\n      jump\t// in\n    tag_280:\n        /* \"#utility.yul\":7706:7709   */\n      dup3\n        /* \"#utility.yul\":7699:7736   */\n      mstore\n        /* \"#utility.yul\":7624:7742   */\n      pop\n      pop\n      jump\t// out\n        /* \"#utility.yul\":7748:7970   */\n    tag_88:\n        /* \"#utility.yul\":7841:7845   */\n      0x00\n        /* \"#utility.yul\":7879:7881   */\n      0x20\n        /* \"#utility.yul\":7868:7877   */\n      dup3\n        /* \"#utility.yul\":7864:7882   */\n      add\n        /* \"#utility.yul\":7856:7882   */\n      swap1\n      pop\n        /* \"#utility.yul\":7892:7963   */\n      tag_282\n        /* \"#utility.yul\":7960:7961   */\n      0x00\n        /* \"#utility.yul\":7949:7958   */\n      dup4\n        /* \"#utility.yul\":7945:7962   */\n      add\n        /* \"#utility.yul\":7936:7942   */\n      dup5\n        /* \"#utility.yul\":7892:7963   */\n      tag_166\n      jump\t// in\n    tag_282:\n        /* \"#utility.yul\":7748:7970   */\n      swap3\n      swap2\n      pop\n      pop\n      jump\t// out\n        /* \"#utility.yul\":7976:8156   */\n    tag_167:\n        /* \"#utility.yul\":8024:8101   */\n      0x4e487b7100000000000000000000000000000000000000000000000000000000\n        /* \"#utility.yul\":8021:8022   */\n      0x00\n        /* \"#utility.yul\":8014:8102   */\n      mstore\n        /* \"#utility.yul\":8121:8125   */\n      0x11\n        /* \"#utility.yul\":8118:8119   */\n      0x04\n        /* \"#utility.yul\":8111:8126   */\n      mstore\n        /* \"#utility.yul\":8145:8149   */\n      0x24\n        /* \"#utility.yul\":8142:8143   */\n      0x00\n        /* \"#utility.yul\":8135:8150   */\n      revert\n        /* \"#utility.yul\":8162:8395   */\n    tag_94:\n        /* \"#utility.yul\":8201:8204   */\n      0x00\n        /* \"#utility.yul\":8224:8248   */\n      tag_285\n        /* \"#utility.yul\":8242:8247   */\n      dup3\n        /* \"#utility.yul\":8224:8248   */\n      tag_135\n      jump\t// in\n    tag_285:\n        /* \"#utility.yul\":8215:8248   */\n      swap2\n      pop\n        /* \"#utility.yul\":8270:8336   */\n      0xffffffffffffffffffffffffffffffffffffffffffffffffffffffffffffffff\n        /* \"#utility.yul\":8263:8268   */\n      dup3\n        /* \"#utility.yul\":8260:8337   */\n      sub\n        /* \"#utility.yul\":8257:8360   */\n      tag_286\n      jumpi\n        /* \"#utility.yul\":8340:8358   */\n      tag_287\n      tag_167\n      jump\t// in\n    tag_287:\n        /* \"#utility.yul\":8257:8360   */\n    tag_286:\n        /* \"#utility.yul\":8387:8388   */\n      0x01\n        /* \"#utility.yul\":8380:8385   */\n      dup3\n        /* \"#utility.yul\":8376:8389   */\n      add\n        /* \"#utility.yul\":8369:8389   */\n      swap1\n      pop\n        /* \"#utility.yul\":8162:8395   */\n      swap2\n      swap1\n      pop\n      jump\t// out\n        /* \"#utility.yul\":8401:8592   */\n    tag_96:\n        /* \"#utility.yul\":8441:8444   */\n      0x00\n        /* \"#utility.yul\":8460:8480   */\n      tag_289\n        /* \"#utility.yul\":8478:8479   */\n      dup3\n        /* \"#utility.yul\":8460:8480   */\n      tag_135\n      jump\t// in\n    tag_289:\n        /* \"#utility.yul\":8455:8480   */\n      swap2\n      pop\n        /* \"#utility.yul\":8494:8514   */\n      tag_290\n        /* \"#utility.yul\":8512:8513   */\n      dup4\n        /* \"#utility.yul\":8494:8514   */\n      tag_135\n      jump\t// in\n    tag_290:\n        /* \"#utility.yul\":8489:8514   */\n      swap3\n      pop\n        /* \"#utility.yul\":8537:8538   */\n      dup3\n        /* \"#utility.yul\":8534:8535   */\n      dup3\n        /* \"#utility.yul\":8530:8539   */\n      add\n        /* \"#utility.yul\":8523:8539   */\n      swap1\n      pop\n        /* \"#utility.yul\":8558:8561   */\n      dup1\n        /* \"#utility.yul\":8555:8556   */\n      dup3\n        /* \"#utility.yul\":8552:8562   */\n      gt\n        /* \"#utility.yul\":8549:8585   */\n      iszero\n      tag_291\n      jumpi\n        /* \"#utility.yul\":8565:8583   */\n      tag_292\n      tag_167\n      jump\t// in\n    tag_292:\n        /* \"#utility.yul\":8549:8585   */\n    tag_291:\n        /* \"#utility.yul\":8401:8592   */\n      swap3\n      swap2\n      pop\n      pop\n      jump\t// out\n        /* \"#utility.yul\":8598:8930   */\n    tag_99:\n        /* \"#utility.yul\":8719:8723   */\n      0x00\n        /* \"#utility.yul\":8757:8759   */\n      0x40\n        /* \"#utility.yul\":8746:8755   */\n      dup3\n        /* \"#utility.yul\":8742:8760   */\n      add\n        /* \"#utility.yul\":8734:8760   */\n      swap1\n      pop\n        /* \"#utility.yul\":8770:8841   */\n      tag_294\n        /* \"#utility.yul\":8838:8839   */\n      0x00\n        /* \"#utility.yul\":8827:8836   */\n      dup4\n        /* \"#utility.yul\":8823:8840   */\n      add\n        /* \"#utility.yul\":8814:8820   */\n      dup6\n        /* \"#utility.yul\":8770:8841   */\n      tag_166\n      jump\t// in\n    tag_294:\n        /* \"#utility.yul\":8851:8923   */\n      tag_295\n        /* \"#utility.yul\":8919:8921   */\n      0x20\n        /* \"#utility.yul\":8908:8917   */\n      dup4\n        /* \"#utility.yul\":8904:8922   */\n      add\n        /* \"#utility.yul\":8895:8901   */\n      dup5\n        /* \"#utility.yul\":8851:8923   */\n      tag_136\n      jump\t// in\n    tag_295:\n        /* \"#utility.yul\":8598:8930   */\n      swap4\n      swap3\n      pop\n      pop\n      pop\n      jump\t// out\n        /* \"#utility.yul\":8936:9116   */\n    tag_168:\n        /* \"#utility.yul\":8984:9061   */\n      0x4e487b7100000000000000000000000000000000000000000000000000000000\n        /* \"#utility.yul\":8981:8982   */\n      0x00\n        /* \"#utility.yul\":8974:9062   */\n      mstore\n        /* \"#utility.yul\":9081:9085   */\n      0x22\n        /* \"#utility.yul\":9078:9079   */\n      0x04\n        /* \"#utility.yul\":9071:9086   */\n      mstore\n        /* \"#utility.yul\":9105:9109   */\n      0x24\n        /* \"#utility.yul\":9102:9103   */\n      0x00\n        /* \"#utility.yul\":9095:9110   */\n      revert\n        /* \"#utility.yul\":9122:9442   */\n    tag_124:\n        /* \"#utility.yul\":9166:9172   */\n      0x00\n        /* \"#utility.yul\":9203:9204   */\n      0x02\n        /* \"#utility.yul\":9197:9201   */\n      dup3\n        /* \"#utility.yul\":9193:9205   */\n      div\n        /* \"#utility.yul\":9183:9205   */\n      swap1\n      pop\n        /* \"#utility.yul\":9250:9251   */\n      0x01\n        /* \"#utility.yul\":9244:9248   */\n      dup3\n        /* \"#utility.yul\":9240:9252   */\n      and\n        /* \"#utility.yul\":9271:9289   */\n      dup1\n        /* \"#utility.yul\":9261:9342   */\n      tag_298\n      jumpi\n        /* \"#utility.yul\":9327:9331   */\n      0x7f\n        /* \"#utility.yul\":9319:9325   */\n      dup3\n        /* \"#utility.yul\":9315:9332   */\n      and\n        /* \"#utility.yul\":9305:9332   */\n      swap2\n      pop\n        /* \"#utility.yul\":9261:9342   */\n    tag_298:\n        /* \"#utility.yul\":9389:9391   */\n      0x20\n        /* \"#utility.yul\":9381:9387   */\n      dup3\n        /* \"#utility.yul\":9378:9392   */\n      lt\n        /* \"#utility.yul\":9358:9376   */\n      dup2\n        /* \"#utility.yul\":9355:9393   */\n      sub\n        /* \"#utility.yul\":9352:9436   */\n      tag_299\n      jumpi\n        /* \"#utility.yul\":9408:9426   */\n      tag_300\n      tag_168\n      jump\t// in\n    tag_300:\n        /* \"#utility.yul\":9352:9436   */\n    tag_299:\n        /* \"#utility.yul\":9173:9442   */\n      pop\n        /* \"#utility.yul\":9122:9442   */\n      swap2\n      swap1\n      pop\n      jump\t// out\n        /* \"#utility.yul\":9448:9589   */\n    tag_169:\n        /* \"#utility.yul\":9497:9501   */\n      0x00\n        /* \"#utility.yul\":9520:9523   */\n      dup2\n        /* \"#utility.yul\":9512:9523   */\n      swap1\n      pop\n        /* \"#utility.yul\":9543:9546   */\n      dup2\n        /* \"#utility.yul\":9540:9541   */\n      0x00\n        /* \"#utility.yul\":9533:9547   */\n      mstore\n        /* \"#utility.yul\":9577:9581   */\n      0x20\n        /* \"#utility.yul\":9574:9575   */\n      0x00\n        /* \"#utility.yul\":9564:9582   */\n      keccak256\n        /* \"#utility.yul\":9556:9582   */\n      swap1\n      pop\n        /* \"#utility.yul\":9448:9589   */\n      swap2\n      swap1\n      pop\n      jump\t// out\n        /* \"#utility.yul\":9595:9688   */\n    tag_170:\n        /* \"#utility.yul\":9632:9638   */\n      0x00\n        /* \"#utility.yul\":9679:9681   */\n      0x20\n        /* \"#utility.yul\":9674:9676   */\n      0x1f\n        /* \"#utility.yul\":9667:9672   */\n      dup4\n        /* \"#utility.yul\":9663:9677   */\n      add\n        /* \"#utility.yul\":9659:9682   */\n      div\n        /* \"#utility.yul\":9649:9682   */\n      swap1\n      pop\n        /* \"#utility.yul\":9595:9688   */\n      swap2\n      swap1\n      pop\n      jump\t// out\n        /* \"#utility.yul\":9694:9801   */\n    tag_171:\n        /* \"#utility.yul\":9738:9746   */\n      0x00\n        /* \"#utility.yul\":9788:9793   */\n      dup3\n        /* \"#utility.yul\":9782:9786   */\n      dup3\n        /* \"#utility.yul\":9778:9794   */\n      shl\n        /* \"#utility.yul\":9757:9794   */\n      swap1\n      pop\n        /* \"#utility.yul\":9694:9801   */\n      swap3\n      swap2\n      pop\n      pop\n      jump\t// out\n        /* \"#utility.yul\":9807:10200   */\n    tag_172:\n        /* \"#utility.yul\":9876:9882   */\n      0x00\n        /* \"#utility.yul\":9926:9927   */\n      0x08\n        /* \"#utility.yul\":9914:9924   */\n      dup4\n        /* \"#utility.yul\":9910:9928   */\n      mul\n        /* \"#utility.yul\":9949:10046   */\n      tag_305\n        /* \"#utility.yul\":9979:10045   */\n      0xffffffffffffffffffffffffffffffffffffffffffffffffffffffffffffffff\n        /* \"#utility.yul\":9968:9977   */\n      dup3\n        /* \"#utility.yul\":9949:10046   */\n      tag_171\n      jump\t// in\n    tag_305:\n        /* \"#utility.yul\":10067:10106   */\n      tag_306\n        /* \"#utility.yul\":10097:10105   */\n      dup7\n        /* \"#utility.yul\":10086:10095   */\n      dup4\n        /* \"#utility.yul\":10067:10106   */\n      tag_171\n      jump\t// in\n    tag_306:\n        /* \"#utility.yul\":10055:10106   */\n      swap6\n      pop\n        /* \"#utility.yul\":10139:10143   */\n      dup1\n        /* \"#utility.yul\":10135:10144   */\n      not\n        /* \"#utility.yul\":10128:10133   */\n      dup5\n        /* \"#utility.yul\":10124:10145   */\n      and\n        /* \"#utility.yul\":10115:10145   */\n      swap4\n      pop\n        /* \"#utility.yul\":10188:10192   */\n      dup1\n        /* \"#utility.yul\":10178:10186   */\n      dup7\n        /* \"#utility.yul\":10174:10193   */\n      and\n        /* \"#utility.yul\":10167:10172   */\n      dup5\n        /* \"#utility.yul\":10164:10194   */\n      or\n        /* \"#utility.yul\":10154:10194   */\n      swap3\n      pop\n        /* \"#utility.yul\":9883:10200   */\n      pop\n      pop\n        /* \"#utility.yul\":9807:10200   */\n      swap4\n      swap3\n      pop\n      pop\n      pop\n      jump\t// out\n        /* \"#utility.yul\":10206:10266   */\n    tag_173:\n        /* \"#utility.yul\":10234:10237   */\n      0x00\n        /* \"#utility.yul\":10255:10260   */\n      dup2\n        /* \"#utility.yul\":10248:10260   */\n      swap1\n      pop\n        /* \"#utility.yul\":10206:10266   */\n      swap2\n      swap1\n      pop\n      jump\t// out\n        /* \"#utility.yul\":10272:10414   */\n    tag_174:\n        /* \"#utility.yul\":10322:10331   */\n      0x00\n        /* \"#utility.yul\":10355:10408   */\n      tag_309\n        /* \"#utility.yul\":10373:10407   */\n      tag_310\n        /* \"#utility.yul\":10382:10406   */\n      tag_311\n        /* \"#utility.yul\":10400:10405   */\n      dup5\n        /* \"#utility.yul\":10382:10406   */\n      tag_135\n      jump\t// in\n    tag_311:\n        /* \"#utility.yul\":10373:10407   */\n      tag_173\n      jump\t// in\n    tag_310:\n        /* \"#utility.yul\":10355:10408   */\n      tag_135\n      jump\t// in\n    tag_309:\n        /* \"#utility.yul\":10342:10408   */\n      swap1\n      pop\n        /* \"#utility.yul\":10272:10414   */\n      swap2\n      swap1\n      pop\n      jump\t// out\n        /* \"#utility.yul\":10420:10495   */\n    tag_175:\n        /* \"#utility.yul\":10463:10466   */\n      0x00\n        /* \"#utility.yul\":10484:10489   */\n      dup2\n        /* \"#utility.yul\":10477:10489   */\n      swap1\n      pop\n        /* \"#utility.yul\":10420:10495   */\n      swap2\n      swap1\n      pop\n      jump\t// out\n        /* \"#utility.yul\":10501:10770   */\n    tag_176:\n        /* \"#utility.yul\":10611:10650   */\n      tag_314\n        /* \"#utility.yul\":10642:10649   */\n      dup4\n        /* \"#utility.yul\":10611:10650   */\n      tag_174\n      jump\t// in\n    tag_314:\n        /* \"#utility.yul\":10672:10763   */\n      tag_315\n        /* \"#utility.yul\":10721:10762   */\n      tag_316\n        /* \"#utility.yul\":10745:10761   */\n      dup3\n        /* \"#utility.yul\":10721:10762   */\n      tag_175\n      jump\t// in\n    tag_316:\n        /* \"#utility.yul\":10713:10719   */\n      dup5\n        /* \"#utility.yul\":10706:10710   */\n      dup5\n        /* \"#utility.yul\":10700:10711   */\n      sload\n        /* \"#utility.yul\":10672:10763   */\n      tag_172\n      jump\t// in\n    tag_315:\n        /* \"#utility.yul\":10666:10670   */\n      dup3\n        /* \"#utility.yul\":10659:10764   */\n      sstore\n        /* \"#utility.yul\":10577:10770   */\n      pop\n        /* \"#utility.yul\":10501:10770   */\n      pop\n      pop\n      pop\n      jump\t// out\n        /* \"#utility.yul\":10776:10849   */\n    tag_177:\n        /* \"#utility.yul\":10821:10824   */\n      0x00\n        /* \"#utility.yul\":10776:10849   */\n      swap1\n      jump\t// out\n        /* \"#utility.yul\":10855:11044   */\n    tag_178:\n        /* \"#utility.yul\":10932:10964   */\n      tag_319\n      tag_177\n      jump\t// in\n    tag_319:\n        /* \"#utility.yul\":10973:11038   */\n      tag_320\n        /* \"#utility.yul\":11031:11037   */\n      dup2\n        /* \"#utility.yul\":11023:11029   */\n      dup5\n        /* \"#utility.yul\":11017:11021   */\n      dup5\n        /* \"#utility.yul\":10973:11038   */\n      tag_176\n      jump\t// in\n    tag_320:\n        /* \"#utility.yul\":10908:11044   */\n      pop\n        /* \"#utility.yul\":10855:11044   */\n      pop\n      pop\n      jump\t// out\n        /* \"#utility.yul\":11050:11236   */\n    tag_179:\n        /* \"#utility.yul\":11110:11230   */\n    tag_322:\n        /* \"#utility.yul\":11127:11130   */\n      dup2\n        /* \"#utility.yul\":11120:11125   */\n      dup2\n        /* \"#utility.yul\":11117:11131   */\n      lt\n        /* \"#utility.yul\":11110:11230   */\n      iszero\n      tag_324\n      jumpi\n        /* \"#utility.yul\":11181:11220   */\n      tag_325\n        /* \"#utility.yul\":11218:11219   */\n      0x00\n        /* \"#utility.yul\":11211:11216   */\n      dup3\n        /* \"#utility.yul\":11181:11220   */\n      tag_178\n      jump\t// in\n    tag_325:\n        /* \"#utility.yul\":11154:11155   */\n      0x01\n        /* \"#utility.yul\":11147:11152   */\n      dup2\n        /* \"#utility.yul\":11143:11156   */\n      add\n        /* \"#utility.yul\":11134:11156   */\n      swap1\n      pop\n        /* \"#utility.yul\":11110:11230   */\n      jump(tag_322)\n    tag_324:\n        /* \"#utility.yul\":11050:11236   */\n      pop\n      pop\n      jump\t// out\n        /* \"#utility.yul\":11242:11785   */\n    tag_180:\n        /* \"#utility.yul\":11343:11345   */\n      0x1f\n        /* \"#utility.yul\":11338:11341   */\n      dup3\n        /* \"#utility.yul\":11335:11346   */\n      gt\n        /* \"#utility.yul\":11332:11778   */\n      iszero\n      tag_327\n      jumpi\n        /* \"#utility.yul\":11377:11415   */\n      tag_328\n        /* \"#utility.yul\":11409:11414   */\n      dup2\n        /* \"#utility.yul\":11377:11415   */\n      tag_169\n      jump\t// in\n    tag_328:\n        /* \"#utility.yul\":11461:11490   */\n      tag_329\n        /* \"#utility.yul\":11479:11489   */\n      dup5\n        /* \"#utility.yul\":11461:11490   */\n      tag_170\n      jump\t// in\n    tag_329:\n        /* \"#utility.yul\":11451:11459   */\n      dup2\n        /* \"#utility.yul\":11447:11491   */\n      add\n        /* \"#utility.yul\":11644:11646   */\n      0x20\n        /* \"#utility.yul\":11632:11642   */\n      dup6\n        /* \"#utility.yul\":11629:11647   */\n      lt\n        /* \"#utility.yul\":11626:11675   */\n      iszero\n      tag_330\n      jumpi\n        /* \"#utility.yul\":11665:11673   */\n      dup2\n        /* \"#utility.yul\":11650:11673   */\n      swap1\n      pop\n        /* \"#utility.yul\":11626:11675   */\n    tag_330:\n        /* \"#utility.yul\":11688:11768   */\n      tag_331\n        /* \"#utility.yul\":11744:11766   */\n      tag_332\n        /* \"#utility.yul\":11762:11765   */\n      dup6\n        /* \"#utility.yul\":11744:11766   */\n      tag_170\n      jump\t// in\n    tag_332:\n        /* \"#utility.yul\":11734:11742   */\n      dup4\n        /* \"#utility.yul\":11730:11767   */\n      add\n        /* \"#utility.yul\":11717:11728   */\n      dup3\n        /* \"#utility.yul\":11688:11768   */\n      tag_179\n      jump\t// in\n    tag_331:\n        /* \"#utility.yul\":11347:11778   */\n      pop\n      pop\n        /* \"#utility.yul\":11332:11778   */\n    tag_327:\n        /* \"#utility.yul\":11242:11785   */\n      pop\n      pop\n      pop\n      jump\t// out\n        /* \"#utility.yul\":11791:11908   */\n    tag_181:\n        /* \"#utility.yul\":11845:11853   */\n      0x00\n        /* \"#utility.yul\":11895:11900   */\n      dup3\n        /* \"#utility.yul\":11889:11893   */\n      dup3\n        /* \"#utility.yul\":11885:11901   */\n      shr\n        /* \"#utility.yul\":11864:11901   */\n      swap1\n      pop\n        /* \"#utility.yul\":11791:11908   */\n      swap3\n      swap2\n      pop\n      pop\n      jump\t// out\n        /* \"#utility.yul\":11914:12083   */\n    tag_182:\n        /* \"#utility.yul\":11958:11964   */\n      0x00\n        /* \"#utility.yul\":11991:12042   */\n      tag_335\n        /* \"#utility.yul\":12039:12040   */\n      0x00\n        /* \"#utility.yul\":12035:12041   */\n      not\n        /* \"#utility.yul\":12027:12032   */\n      dup5\n        /* \"#utility.yul\":12024:12025   */\n      0x08\n        /* \"#utility.yul\":12020:12033   */\n      mul\n        /* \"#utility.yul\":11991:12042   */\n      tag_181\n      jump\t// in\n    tag_335:\n        /* \"#utility.yul\":11987:12043   */\n      not\n        /* \"#utility.yul\":12072:12076   */\n      dup1\n        /* \"#utility.yul\":12066:12070   */\n      dup4\n        /* \"#utility.yul\":12062:12077   */\n      and\n        /* \"#utility.yul\":12052:12077   */\n      swap2\n      pop\n        /* \"#utility.yul\":11965:12083   */\n      pop\n        /* \"#utility.yul\":11914:12083   */\n      swap3\n      swap2\n      pop\n      pop\n      jump\t// out\n        /* \"#utility.yul\":12088:12383   */\n    tag_183:\n        /* \"#utility.yul\":12164:12168   */\n      0x00\n        /* \"#utility.yul\":12310:12339   */\n      tag_337\n        /* \"#utility.yul\":12335:12338   */\n      dup4\n        /* \"#utility.yul\":12329:12333   */\n      dup4\n        /* \"#utility.yul\":12310:12339   */\n      tag_182\n      jump\t// in\n    tag_337:\n        /* \"#utility.yul\":12302:12339   */\n      swap2\n      pop\n        /* \"#utility.yul\":12372:12375   */\n      dup3\n        /* \"#utility.yul\":12369:12370   */\n      0x02\n        /* \"#utility.yul\":12365:12376   */\n      mul\n        /* \"#utility.yul\":12359:12363   */\n      dup3\n        /* \"#utility.yul\":12356:12377   */\n      or\n        /* \"#utility.yul\":12348:12377   */\n      swap1\n      pop\n        /* \"#utility.yul\":12088:12383   */\n      swap3\n      swap2\n      pop\n      pop\n      jump\t// out\n        /* \"#utility.yul\":12388:13783   */\n    tag_104:\n        /* \"#utility.yul\":12505:12542   */\n      tag_339\n        /* \"#utility.yul\":12538:12541   */\n      dup3\n        /* \"#utility.yul\":12505:12542   */\n      tag_159\n      jump\t// in\n    tag_339:\n        /* \"#utility.yul\":12607:12625   */\n      0xffffffffffffffff\n        /* \"#utility.yul\":12599:12605   */\n      dup2\n        /* \"#utility.yul\":12596:12626   */\n      gt\n        /* \"#utility.yul\":12593:12649   */\n      iszero\n      tag_340\n      jumpi\n        /* \"#utility.yul\":12629:12647   */\n      tag_341\n      tag_143\n      jump\t// in\n    tag_341:\n        /* \"#utility.yul\":12593:12649   */\n    tag_340:\n        /* \"#utility.yul\":12673:12711   */\n      tag_342\n        /* \"#utility.yul\":12705:12709   */\n      dup3\n        /* \"#utility.yul\":12699:12710   */\n      sload\n        /* \"#utility.yul\":12673:12711   */\n      tag_124\n      jump\t// in\n    tag_342:\n        /* \"#utility.yul\":12758:12825   */\n      tag_343\n        /* \"#utility.yul\":12818:12824   */\n      dup3\n        /* \"#utility.yul\":12810:12816   */\n      dup3\n        /* \"#utility.yul\":12804:12808   */\n      dup6\n        /* \"#utility.yul\":12758:12825   */\n      tag_180\n      jump\t// in\n    tag_343:\n        /* \"#utility.yul\":12852:12853   */\n      0x00\n        /* \"#utility.yul\":12876:12880   */\n      0x20\n        /* \"#utility.yul\":12863:12880   */\n      swap1\n      pop\n        /* \"#utility.yul\":12908:12910   */\n      0x1f\n        /* \"#utility.yul\":12900:12906   */\n      dup4\n        /* \"#utility.yul\":12897:12911   */\n      gt\n        /* \"#utility.yul\":12925:12926   */\n      0x01\n        /* \"#utility.yul\":12920:13538   */\n      dup2\n      eq\n      tag_345\n      jumpi\n        /* \"#utility.yul\":13582:13583   */\n      0x00\n        /* \"#utility.yul\":13599:13605   */\n      dup5\n        /* \"#utility.yul\":13596:13673   */\n      iszero\n      tag_346\n      jumpi\n        /* \"#utility.yul\":13648:13657   */\n      dup3\n        /* \"#utility.yul\":13643:13646   */\n      dup8\n        /* \"#utility.yul\":13639:13658   */\n      add\n        /* \"#utility.yul\":13633:13659   */\n      mload\n        /* \"#utility.yul\":13624:13659   */\n      swap1\n      pop\n        /* \"#utility.yul\":13596:13673   */\n    tag_346:\n        /* \"#utility.yul\":13699:13766   */\n      tag_347\n        /* \"#utility.yul\":13759:13765   */\n      dup6\n        /* \"#utility.yul\":13752:13757   */\n      dup3\n        /* \"#utility.yul\":13699:13766   */\n      tag_183\n      jump\t// in\n    tag_347:\n        /* \"#utility.yul\":13693:13697   */\n      dup7\n        /* \"#utility.yul\":13686:13767   */\n      sstore\n        /* \"#utility.yul\":13555:13777   */\n      pop\n        /* \"#utility.yul\":12890:13777   */\n      jump(tag_344)\n        /* \"#utility.yul\":12920:13538   */\n    tag_345:\n        /* \"#utility.yul\":12972:12976   */\n      0x1f\n        /* \"#utility.yul\":12968:12977   */\n      not\n        /* \"#utility.yul\":12960:12966   */\n      dup5\n        /* \"#utility.yul\":12956:12978   */\n      and\n        /* \"#utility.yul\":13006:13043   */\n      tag_348\n        /* \"#utility.yul\":13038:13042   */\n      dup7\n        /* \"#utility.yul\":13006:13043   */\n      tag_169\n      jump\t// in\n    tag_348:\n        /* \"#utility.yul\":13065:13066   */\n      0x00\n        /* \"#utility.yul\":13079:13287   */\n    tag_349:\n        /* \"#utility.yul\":13093:13100   */\n      dup3\n        /* \"#utility.yul\":13090:13091   */\n      dup2\n        /* \"#utility.yul\":13087:13101   */\n      lt\n        /* \"#utility.yul\":13079:13287   */\n      iszero\n      tag_351\n      jumpi\n        /* \"#utility.yul\":13172:13181   */\n      dup5\n        /* \"#utility.yul\":13167:13170   */\n      dup10\n        /* \"#utility.yul\":13163:13182   */\n      add\n        /* \"#utility.yul\":13157:13183   */\n      mload\n        /* \"#utility.yul\":13149:13155   */\n      dup3\n        /* \"#utility.yul\":13142:13184   */\n      sstore\n        /* \"#utility.yul\":13223:13224   */\n      0x01\n        /* \"#utility.yul\":13215:13221   */\n      dup3\n        /* \"#utility.yul\":13211:13225   */\n      add\n        /* \"#utility.yul\":13201:13225   */\n      swap2\n      pop\n        /* \"#utility.yul\":13270:13272   */\n      0x20\n        /* \"#utility.yul\":13259:13268   */\n      dup6\n        /* \"#utility.yul\":13255:13273   */\n      add\n        /* \"#utility.yul\":13242:13273   */\n      swap5\n      pop\n        /* \"#utility.yul\":13116:13120   */\n      0x20\n        /* \"#utility.yul\":13113:13114   */\n      dup2\n        /* \"#utility.yul\":13109:13121   */\n      add\n        /* \"#utility.yul\":13104:13121   */\n      swap1\n      pop\n        /* \"#utility.yul\":13079:13287   */\n      jump(tag_349)\n    tag_351:\n        /* \"#utility.yul\":13315:13321   */\n      dup7\n        /* \"#utility.yul\":13306:13313   */\n      dup4\n        /* \"#utility.yul\":13303:13322   */\n      lt\n        /* \"#utility.yul\":13300:13479   */\n      iszero\n      tag_352\n      jumpi\n        /* \"#utility.yul\":13373:13382   */\n      dup5\n        /* \"#utility.yul\":13368:13371   */\n      dup10\n        /* \"#utility.yul\":13364:13383   */\n      add\n        /* \"#utility.yul\":13358:13384   */\n      mload\n        /* \"#utility.yul\":13416:13464   */\n      tag_353\n        /* \"#utility.yul\":13458:13462   */\n      0x1f\n        /* \"#utility.yul\":13450:13456   */\n      dup10\n        /* \"#utility.yul\":13446:13463   */\n      and\n        /* \"#utility.yul\":13435:13444   */\n      dup3\n        /* \"#utility.yul\":13416:13464   */\n      tag_182\n      jump\t// in\n    tag_353:\n        /* \"#utility.yul\":13408:13414   */\n      dup4\n        /* \"#utility.yul\":13401:13465   */\n      sstore\n        /* \"#utility.yul\":13323:13479   */\n      pop\n        /* \"#utility.yul\":13300:13479   */\n    tag_352:\n        /* \"#utility.yul\":13525:13526   */\n      0x01\n        /* \"#utility.yul\":13521:13522   */\n      0x02\n        /* \"#utility.yul\":13513:13519   */\n      dup9\n        /* \"#utility.yul\":13509:13523   */\n      mul\n        /* \"#utility.yul\":13505:13527   */\n      add\n        /* \"#utility.yul\":13499:13503   */\n      dup9\n        /* \"#utility.yul\":13492:13528   */\n      sstore\n        /* \"#utility.yul\":12927:13538   */\n      pop\n      pop\n      pop\n        /* \"#utility.yul\":12890:13777   */\n    tag_344:\n      pop\n        /* \"#utility.yul\":12480:13783   */\n      pop\n      pop\n      pop\n        /* \"#utility.yul\":12388:13783   */\n      pop\n      pop\n      jump\t// out\n        /* \"#utility.yul\":13789:13931   */\n    tag_184:\n        /* \"#utility.yul\":13839:13848   */\n      0x00\n        /* \"#utility.yul\":13872:13925   */\n      tag_355\n        /* \"#utility.yul\":13890:13924   */\n      tag_356\n        /* \"#utility.yul\":13899:13923   */\n      tag_357\n        /* \"#utility.yul\":13917:13922   */\n      dup5\n        /* \"#utility.yul\":13899:13923   */\n      tag_150\n      jump\t// in\n    tag_357:\n        /* \"#utility.yul\":13890:13924   */\n      tag_173\n      jump\t// in\n    tag_356:\n        /* \"#utility.yul\":13872:13925   */\n      tag_150\n      jump\t// in\n    tag_355:\n        /* \"#utility.yul\":13859:13925   */\n      swap1\n      pop\n        /* \"#utility.yul\":13789:13931   */\n      swap2\n      swap1\n      pop\n      jump\t// out\n        /* \"#utility.yul\":13937:14063   */\n    tag_185:\n        /* \"#utility.yul\":13987:13996   */\n      0x00\n        /* \"#utility.yul\":14020:14057   */\n      tag_359\n        /* \"#utility.yul\":14051:14056   */\n      dup3\n        /* \"#utility.yul\":14020:14057   */\n      tag_184\n      jump\t// in\n    tag_359:\n        /* \"#utility.yul\":14007:14057   */\n      swap1\n      pop\n        /* \"#utility.yul\":13937:14063   */\n      swap2\n      swap1\n      pop\n      jump\t// out\n        /* \"#utility.yul\":14069:14203   */\n    tag_186:\n        /* \"#utility.yul\":14127:14136   */\n      0x00\n        /* \"#utility.yul\":14160:14197   */\n      tag_361\n        /* \"#utility.yul\":14191:14196   */\n      dup3\n        /* \"#utility.yul\":14160:14197   */\n      tag_185\n      jump\t// in\n    tag_361:\n        /* \"#utility.yul\":14147:14197   */\n      swap1\n      pop\n        /* \"#utility.yul\":14069:14203   */\n      swap2\n      swap1\n      pop\n      jump\t// out\n        /* \"#utility.yul\":14209:14356   */\n    tag_187:\n        /* \"#utility.yul\":14304:14349   */\n      tag_363\n        /* \"#utility.yul\":14343:14348   */\n      dup2\n        /* \"#utility.yul\":14304:14349   */\n      tag_186\n      jump\t// in\n    tag_363:\n        /* \"#utility.yul\":14299:14302   */\n      dup3\n        /* \"#utility.yul\":14292:14350   */\n      mstore\n        /* \"#utility.yul\":14209:14356   */\n      pop\n      pop\n      jump\t// out\n        /* \"#utility.yul\":14362:14911   */\n    tag_106:\n        /* \"#utility.yul\":14539:14543   */\n      0x00\n        /* \"#utility.yul\":14577:14579   */\n      0x60\n        /* \"#utility.yul\":14566:14575   */\n      dup3\n        /* \"#utility.yul\":14562:14580   */\n      add\n        /* \"#utility.yul\":14554:14580   */\n      swap1\n      pop\n        /* \"#utility.yul\":14626:14635   */\n      dup2\n        /* \"#utility.yul\":14620:14624   */\n      dup2\n        /* \"#utility.yul\":14616:14636   */\n      sub\n        /* \"#utility.yul\":14612:14613   */\n      0x00\n        /* \"#utility.yul\":14601:14610   */\n      dup4\n        /* \"#utility.yul\":14597:14614   */\n      add\n        /* \"#utility.yul\":14590:14637   */\n      mstore\n        /* \"#utility.yul\":14654:14732   */\n      tag_365\n        /* \"#utility.yul\":14727:14731   */\n      dup2\n        /* \"#utility.yul\":14718:14724   */\n      dup7\n        /* \"#utility.yul\":14654:14732   */\n      tag_162\n      jump\t// in\n    tag_365:\n        /* \"#utility.yul\":14646:14732   */\n      swap1\n      pop\n        /* \"#utility.yul\":14742:14822   */\n      tag_366\n        /* \"#utility.yul\":14818:14820   */\n      0x20\n        /* \"#utility.yul\":14807:14816   */\n      dup4\n        /* \"#utility.yul\":14803:14821   */\n      add\n        /* \"#utility.yul\":14794:14800   */\n      dup6\n        /* \"#utility.yul\":14742:14822   */\n      tag_187\n      jump\t// in\n    tag_366:\n        /* \"#utility.yul\":14832:14904   */\n      tag_367\n        /* \"#utility.yul\":14900:14902   */\n      0x40\n        /* \"#utility.yul\":14889:14898   */\n      dup4\n        /* \"#utility.yul\":14885:14903   */\n      add\n        /* \"#utility.yul\":14876:14882   */\n      dup5\n        /* \"#utility.yul\":14832:14904   */\n      tag_136\n      jump\t// in\n    tag_367:\n        /* \"#utility.yul\":14362:14911   */\n      swap5\n      swap4\n      pop\n      pop\n      pop\n      pop\n      jump\t// out\n        /* \"#utility.yul\":14917:15097   */\n    tag_188:\n        /* \"#utility.yul\":14965:15042   */\n      0x4e487b7100000000000000000000000000000000000000000000000000000000\n        /* \"#utility.yul\":14962:14963   */\n      0x00\n        /* \"#utility.yul\":14955:15043   */\n      mstore\n        /* \"#utility.yul\":15062:15066   */\n      0x12\n        /* \"#utility.yul\":15059:15060   */\n      0x04\n        /* \"#utility.yul\":15052:15067   */\n      mstore\n        /* \"#utility.yul\":15086:15090   */\n      0x24\n        /* \"#utility.yul\":15083:15084   */\n      0x00\n        /* \"#utility.yul\":15076:15091   */\n      revert\n        /* \"#utility.yul\":15103:15288   */\n    tag_117:\n        /* \"#utility.yul\":15143:15144   */\n      0x00\n        /* \"#utility.yul\":15160:15180   */\n      tag_370\n        /* \"#utility.yul\":15178:15179   */\n      dup3\n        /* \"#utility.yul\":15160:15180   */\n      tag_135\n      jump\t// in\n    tag_370:\n        /* \"#utility.yul\":15155:15180   */\n      swap2\n      pop\n        /* \"#utility.yul\":15194:15214   */\n      tag_371\n        /* \"#utility.yul\":15212:15213   */\n      dup4\n        /* \"#utility.yul\":15194:15214   */\n      tag_135\n      jump\t// in\n    tag_371:\n        /* \"#utility.yul\":15189:15214   */\n      swap3\n      pop\n        /* \"#utility.yul\":15233:15234   */\n      dup3\n        /* \"#utility.yul\":15223:15258   */\n      tag_372\n      jumpi\n        /* \"#utility.yul\":15238:15256   */\n      tag_373\n      tag_188\n      jump\t// in\n    tag_373:\n        /* \"#utility.yul\":15223:15258   */\n    tag_372:\n        /* \"#utility.yul\":15280:15281   */\n      dup3\n        /* \"#utility.yul\":15277:15278   */\n      dup3\n        /* \"#utility.yul\":15273:15282   */\n      div\n        /* \"#utility.yul\":15268:15282   */\n      swap1\n      pop\n        /* \"#utility.yul\":15103:15288   */\n      swap3\n      swap2\n      pop\n      pop\n      jump\t// out\n        /* \"#utility.yul\":15294:15642   */\n    tag_122:\n        /* \"#utility.yul\":15423:15427   */\n      0x00\n        /* \"#utility.yul\":15461:15463   */\n      0x40\n        /* \"#utility.yul\":15450:15459   */\n      dup3\n        /* \"#utility.yul\":15446:15464   */\n      add\n        /* \"#utility.yul\":15438:15464   */\n      swap1\n      pop\n        /* \"#utility.yul\":15474:15553   */\n      tag_375\n        /* \"#utility.yul\":15550:15551   */\n      0x00\n        /* \"#utility.yul\":15539:15548   */\n      dup4\n        /* \"#utility.yul\":15535:15552   */\n      add\n        /* \"#utility.yul\":15526:15532   */\n      dup6\n        /* \"#utility.yul\":15474:15553   */\n      tag_187\n      jump\t// in\n    tag_375:\n        /* \"#utility.yul\":15563:15635   */\n      tag_376\n        /* \"#utility.yul\":15631:15633   */\n      0x20\n        /* \"#utility.yul\":15620:15629   */\n      dup4\n        /* \"#utility.yul\":15616:15634   */\n      add\n        /* \"#utility.yul\":15607:15613   */\n      dup5\n        /* \"#utility.yul\":15563:15635   */\n      tag_136\n      jump\t// in\n    tag_376:\n        /* \"#utility.yul\":15294:15642   */\n      swap4\n      swap3\n      pop\n      pop\n      pop\n      jump\t// out\n\n    auxdata: 0xa2646970667358221220bfbba36ca9bbc81fbde8b2d3bf318d2882cba35d283bfee048a868dec9ba87e564736f6c634300081a0033\n}\n",
				"bytecode": {
					"linkReferences": {},
					"object": "608060405234801561000f575f80fd5b5060405161150f38038061150f833981810160405281019061003191906100d0565b816004819055508042610044919061013b565b6005819055503360015f6101000a81548173ffffffffffffffffffffffffffffffffffffffff021916908373ffffffffffffffffffffffffffffffffffffffff1602179055506064600381905550505061016e565b5f80fd5b5f819050919050565b6100af8161009d565b81146100b9575f80fd5b50565b5f815190506100ca816100a6565b92915050565b5f80604083850312156100e6576100e5610099565b5b5f6100f3858286016100bc565b9250506020610104858286016100bc565b9150509250929050565b7f4e487b71000000000000000000000000000000000000000000000000000000005f52601160045260245ffd5b5f6101458261009d565b91506101508361009d565b92508282019050808211156101685761016761010e565b5b92915050565b6113948061017b5f395ff3fe6080604052600436106100eb575f3560e01c80635114cb5211610089578063b2d5ae4411610058578063b2d5ae44146102ee578063c59ee1dc14610304578063d7bb99ba1461032e578063f851a44014610338576100fa565b80635114cb521461023257806381d12c581461025a578063937e09b11461029a5780639fb42b1f146102c4576100fa565b806329dcb0cf116100c557806329dcb0cf1461018c57806340193883146101b65780634cb6f4a5146101e05780634e260f6f14610208576100fa565b806312065fe0146100fe5780631b16bb5c146101285780631f6d494214610150576100fa565b366100fa576100f8610362565b005b5f80fd5b348015610109575f80fd5b5061011261047d565b60405161011f9190610ac5565b60405180910390f35b348015610133575f80fd5b5061014e60048036038101906101499190610caf565b610484565b005b34801561015b575f80fd5b5061017660048036038101906101719190610d56565b610572565b6040516101839190610ac5565b60405180910390f35b348015610197575f80fd5b506101a0610586565b6040516101ad9190610ac5565b60405180910390f35b3480156101c1575f80fd5b506101ca61058c565b6040516101d79190610ac5565b60405180910390f35b3480156101eb575f80fd5b5061020660048036038101906102019190610d81565b610592565b005b348015610213575f80fd5b5061021c6106bb565b6040516102299190610ac5565b60405180910390f35b34801561023d575f80fd5b5061025860048036038101906102539190610d81565b6106c1565b005b348015610265575f80fd5b50610280600480360381019061027b9190610d81565b610862565b604051610291959493929190610e35565b60405180910390f35b3480156102a5575f80fd5b506102ae610945565b6040516102bb9190610ac5565b60405180910390f35b3480156102cf575f80fd5b506102d861094b565b6040516102e59190610ac5565b60405180910390f35b3480156102f9575f80fd5b50610302610951565b005b34801561030f575f80fd5b50610318610a82565b6040516103259190610ac5565b60405180910390f35b610336610362565b005b348015610343575f80fd5b5061034c610a88565b6040516103599190610e9c565b60405180910390f35b600554421061036f575f80fd5b60035434101561037d575f80fd5b5f805f3373ffffffffffffffffffffffffffffffffffffffff1673ffffffffffffffffffffffffffffffffffffffff1681526020019081526020015f2054036103d85760025f8154809291906103d290610ee2565b91905055505b345f803373ffffffffffffffffffffffffffffffffffffffff1673ffffffffffffffffffffffffffffffffffffffff1681526020019081526020015f205f8282546104239190610f29565b925050819055503460065f82825461043b9190610f29565b925050819055507f2daf61dec57a2c194e9e87958b1a40a5c236b5e8c6041655d664ddbd16c293203334604051610473929190610f5c565b60405180910390a1565b5f47905090565b5f60075f60085481526020019081526020015f20905060085f8154809291906104ac90610ee2565b919050555083815f0190816104c1919061117d565b5082816001015f6101000a81548173ffffffffffffffffffffffffffffffffffffffff021916908373ffffffffffffffffffffffffffffffffffffffff1602179055508181600301819055505f816004015f6101000a81548160ff0219169083151502179055505f81600201819055507f5392bd80651676ccaaedec1afbe841d47e369223df0ba1586110b6426ee87a3a8484846040516105649392919061129e565b60405180910390a150505050565b5f602052805f5260405f205f915090505481565b60055481565b60045481565b5f805f3373ffffffffffffffffffffffffffffffffffffffff1673ffffffffffffffffffffffffffffffffffffffff1681526020019081526020015f2054116105d9575f80fd5b5f60075f8381526020019081526020015f2090505f1515816005015f3373ffffffffffffffffffffffffffffffffffffffff1673ffffffffffffffffffffffffffffffffffffffff1681526020019081526020015f205f9054906101000a900460ff16151514610647575f80fd5b6001816005015f3373ffffffffffffffffffffffffffffffffffffffff1673ffffffffffffffffffffffffffffffffffffffff1681526020019081526020015f205f6101000a81548160ff021916908315150217905550806002015f8154809291906106b290610ee2565b91905055505050565b60025481565b60015f9054906101000a900473ffffffffffffffffffffffffffffffffffffffff1673ffffffffffffffffffffffffffffffffffffffff163373ffffffffffffffffffffffffffffffffffffffff1614610719575f80fd5b60045460065411610728575f80fd5b5f60075f8381526020019081526020015f2090505f1515816004015f9054906101000a900460ff1615151461075b575f80fd5b600280546107699190611307565b816002015411610777575f80fd5b806001015f9054906101000a900473ffffffffffffffffffffffffffffffffffffffff1673ffffffffffffffffffffffffffffffffffffffff166108fc826003015490811502906040515f60405180830381858888f193505050501580156107e1573d5f803e3d5ffd5b506001816004015f6101000a81548160ff0219169083151502179055507f516e1673e5e85c44620165259173329adda2ad25e7bb15020c732be060b5b790816001015f9054906101000a900473ffffffffffffffffffffffffffffffffffffffff168260030154604051610856929190611337565b60405180910390a15050565b6007602052805f5260405f205f91509050805f01805461088190610fb0565b80601f01602080910402602001604051908101604052809291908181526020018280546108ad90610fb0565b80156108f85780601f106108cf576101008083540402835291602001916108f8565b820191905f5260205f20905b8154815290600101906020018083116108db57829003601f168201915b505050505090806001015f9054906101000a900473ffffffffffffffffffffffffffffffffffffffff1690806002015490806003015490806004015f9054906101000a900460ff16905085565b60035481565b60085481565b60055442101580156109665750600454600654105b61096e575f80fd5b5f805f3373ffffffffffffffffffffffffffffffffffffffff1673ffffffffffffffffffffffffffffffffffffffff1681526020019081526020015f2054116109b5575f80fd5b5f3390505f805f3373ffffffffffffffffffffffffffffffffffffffff1673ffffffffffffffffffffffffffffffffffffffff1681526020019081526020015f205490505f805f3373ffffffffffffffffffffffffffffffffffffffff1673ffffffffffffffffffffffffffffffffffffffff1681526020019081526020015f20819055508173ffffffffffffffffffffffffffffffffffffffff166108fc8290811502906040515f60405180830381858888f19350505050158015610a7d573d5f803e3d5ffd5b505050565b60065481565b60015f9054906101000a900473ffffffffffffffffffffffffffffffffffffffff1681565b5f819050919050565b610abf81610aad565b82525050565b5f602082019050610ad85f830184610ab6565b92915050565b5f604051905090565b5f80fd5b5f80fd5b5f80fd5b5f80fd5b5f601f19601f8301169050919050565b7f4e487b71000000000000000000000000000000000000000000000000000000005f52604160045260245ffd5b610b3d82610af7565b810181811067ffffffffffffffff82111715610b5c57610b5b610b07565b5b80604052505050565b5f610b6e610ade565b9050610b7a8282610b34565b919050565b5f67ffffffffffffffff821115610b9957610b98610b07565b5b610ba282610af7565b9050602081019050919050565b828183375f83830152505050565b5f610bcf610bca84610b7f565b610b65565b905082815260208101848484011115610beb57610bea610af3565b5b610bf6848285610baf565b509392505050565b5f82601f830112610c1257610c11610aef565b5b8135610c22848260208601610bbd565b91505092915050565b5f73ffffffffffffffffffffffffffffffffffffffff82169050919050565b5f610c5482610c2b565b9050919050565b610c6481610c4a565b8114610c6e575f80fd5b50565b5f81359050610c7f81610c5b565b92915050565b610c8e81610aad565b8114610c98575f80fd5b50565b5f81359050610ca981610c85565b92915050565b5f805f60608486031215610cc657610cc5610ae7565b5b5f84013567ffffffffffffffff811115610ce357610ce2610aeb565b5b610cef86828701610bfe565b9350506020610d0086828701610c71565b9250506040610d1186828701610c9b565b9150509250925092565b5f610d2582610c2b565b9050919050565b610d3581610d1b565b8114610d3f575f80fd5b50565b5f81359050610d5081610d2c565b92915050565b5f60208284031215610d6b57610d6a610ae7565b5b5f610d7884828501610d42565b91505092915050565b5f60208284031215610d9657610d95610ae7565b5b5f610da384828501610c9b565b91505092915050565b5f81519050919050565b5f82825260208201905092915050565b8281835e5f83830152505050565b5f610dde82610dac565b610de88185610db6565b9350610df8818560208601610dc6565b610e0181610af7565b840191505092915050565b610e1581610c4a565b82525050565b5f8115159050919050565b610e2f81610e1b565b82525050565b5f60a0820190508181035f830152610e4d8188610dd4565b9050610e5c6020830187610e0c565b610e696040830186610ab6565b610e766060830185610ab6565b610e836080830184610e26565b9695505050505050565b610e9681610d1b565b82525050565b5f602082019050610eaf5f830184610e8d565b92915050565b7f4e487b71000000000000000000000000000000000000000000000000000000005f52601160045260245ffd5b5f610eec82610aad565b91507fffffffffffffffffffffffffffffffffffffffffffffffffffffffffffffffff8203610f1e57610f1d610eb5565b5b600182019050919050565b5f610f3382610aad565b9150610f3e83610aad565b9250828201905080821115610f5657610f55610eb5565b5b92915050565b5f604082019050610f6f5f830185610e8d565b610f7c6020830184610ab6565b9392505050565b7f4e487b71000000000000000000000000000000000000000000000000000000005f52602260045260245ffd5b5f6002820490506001821680610fc757607f821691505b602082108103610fda57610fd9610f83565b5b50919050565b5f819050815f5260205f209050919050565b5f6020601f8301049050919050565b5f82821b905092915050565b5f6008830261103c7fffffffffffffffffffffffffffffffffffffffffffffffffffffffffffffffff82611001565b6110468683611001565b95508019841693508086168417925050509392505050565b5f819050919050565b5f61108161107c61107784610aad565b61105e565b610aad565b9050919050565b5f819050919050565b61109a83611067565b6110ae6110a682611088565b84845461100d565b825550505050565b5f90565b6110c26110b6565b6110cd818484611091565b505050565b5b818110156110f0576110e55f826110ba565b6001810190506110d3565b5050565b601f8211156111355761110681610fe0565b61110f84610ff2565b8101602085101561111e578190505b61113261112a85610ff2565b8301826110d2565b50505b505050565b5f82821c905092915050565b5f6111555f198460080261113a565b1980831691505092915050565b5f61116d8383611146565b9150826002028217905092915050565b61118682610dac565b67ffffffffffffffff81111561119f5761119e610b07565b5b6111a98254610fb0565b6111b48282856110f4565b5f60209050601f8311600181146111e5575f84156111d3578287015190505b6111dd8582611162565b865550611244565b601f1984166111f386610fe0565b5f5b8281101561121a578489015182556001820191506020850194506020810190506111f5565b868310156112375784890151611233601f891682611146565b8355505b6001600288020188555050505b505050505050565b5f61126661126161125c84610c2b565b61105e565b610c2b565b9050919050565b5f6112778261124c565b9050919050565b5f6112888261126d565b9050919050565b6112988161127e565b82525050565b5f6060820190508181035f8301526112b68186610dd4565b90506112c5602083018561128f565b6112d26040830184610ab6565b949350505050565b7f4e487b71000000000000000000000000000000000000000000000000000000005f52601260045260245ffd5b5f61131182610aad565b915061131c83610aad565b92508261132c5761132b6112da565b5b828204905092915050565b5f60408201905061134a5f83018561128f565b6113576020830184610ab6565b939250505056fea2646970667358221220bfbba36ca9bbc81fbde8b2d3bf318d2882cba35d283bfee048a868dec9ba87e564736f6c634300081a0033",
					"opcodes": "PUSH1 0x80 PUSH1 0x40 MSTORE CALLVALUE DUP1 ISZERO PUSH2 0xF JUMPI PUSH0 DUP1 REVERT JUMPDEST POP PUSH1 0x40 MLOAD PUSH2 0x150F CODESIZE SUB DUP1 PUSH2 0x150F DUP4 CODECOPY DUP2 DUP2 ADD PUSH1 0x40 MSTORE DUP2 ADD SWAP1 PUSH2 0x31 SWAP2 SWAP1 PUSH2 0xD0 JUMP JUMPDEST DUP2 PUSH1 0x4 DUP2 SWAP1 SSTORE POP DUP1 TIMESTAMP PUSH2 0x44 SWAP2 SWAP1 PUSH2 0x13B JUMP JUMPDEST PUSH1 0x5 DUP2 SWAP1 SSTORE POP CALLER PUSH1 0x1 PUSH0 PUSH2 0x100 EXP DUP2 SLOAD DUP2 PUSH20 0xFFFFFFFFFFFFFFFFFFFFFFFFFFFFFFFFFFFFFFFF MUL NOT AND SWAP1 DUP4 PUSH20 0xFFFFFFFFFFFFFFFFFFFFFFFFFFFFFFFFFFFFFFFF AND MUL OR SWAP1 SSTORE POP PUSH1 0x64 PUSH1 0x3 DUP2 SWAP1 SSTORE POP POP POP PUSH2 0x16E JUMP JUMPDEST PUSH0 DUP1 REVERT JUMPDEST PUSH0 DUP2 SWAP1 POP SWAP2 SWAP1 POP JUMP JUMPDEST PUSH2 0xAF DUP2 PUSH2 0x9D JUMP JUMPDEST DUP2 EQ PUSH2 0xB9 JUMPI PUSH0 DUP1 REVERT JUMPDEST POP JUMP JUMPDEST PUSH0 DUP2 MLOAD SWAP1 POP PUSH2 0xCA DUP2 PUSH2 0xA6 JUMP JUMPDEST SWAP3 SWAP2 POP POP JUMP JUMPDEST PUSH0 DUP1 PUSH1 0x40 DUP4 DUP6 SUB SLT ISZERO PUSH2 0xE6 JUMPI PUSH2 0xE5 PUSH2 0x99 JUMP JUMPDEST JUMPDEST PUSH0 PUSH2 0xF3 DUP6 DUP3 DUP7 ADD PUSH2 0xBC JUMP JUMPDEST SWAP3 POP POP PUSH1 0x20 PUSH2 0x104 DUP6 DUP3 DUP7 ADD PUSH2 0xBC JUMP JUMPDEST SWAP2 POP POP SWAP3 POP SWAP3 SWAP1 POP JUMP JUMPDEST PUSH32 0x4E487B7100000000000000000000000000000000000000000000000000000000 PUSH0 MSTORE PUSH1 0x11 PUSH1 0x4 MSTORE PUSH1 0x24 PUSH0 REVERT JUMPDEST PUSH0 PUSH2 0x145 DUP3 PUSH2 0x9D JUMP JUMPDEST SWAP2 POP PUSH2 0x150 DUP4 PUSH2 0x9D JUMP JUMPDEST SWAP3 POP DUP3 DUP3 ADD SWAP1 POP DUP1 DUP3 GT ISZERO PUSH2 0x168 JUMPI PUSH2 0x167 PUSH2 0x10E JUMP JUMPDEST JUMPDEST SWAP3 SWAP2 POP POP JUMP JUMPDEST PUSH2 0x1394 DUP1 PUSH2 0x17B PUSH0 CODECOPY PUSH0 RETURN INVALID PUSH1 0x80 PUSH1 0x40 MSTORE PUSH1 0x4 CALLDATASIZE LT PUSH2 0xEB JUMPI PUSH0 CALLDATALOAD PUSH1 0xE0 SHR DUP1 PUSH4 0x5114CB52 GT PUSH2 0x89 JUMPI DUP1 PUSH4 0xB2D5AE44 GT PUSH2 0x58 JUMPI DUP1 PUSH4 0xB2D5AE44 EQ PUSH2 0x2EE JUMPI DUP1 PUSH4 0xC59EE1DC EQ PUSH2 0x304 JUMPI DUP1 PUSH4 0xD7BB99BA EQ PUSH2 0x32E JUMPI DUP1 PUSH4 0xF851A440 EQ PUSH2 0x338 JUMPI PUSH2 0xFA JUMP JUMPDEST DUP1 PUSH4 0x5114CB52 EQ PUSH2 0x232 JUMPI DUP1 PUSH4 0x81D12C58 EQ PUSH2 0x25A JUMPI DUP1 PUSH4 0x937E09B1 EQ PUSH2 0x29A JUMPI DUP1 PUSH4 0x9FB42B1F EQ PUSH2 0x2C4 JUMPI PUSH2 0xFA JUMP JUMPDEST DUP1 PUSH4 0x29DCB0CF GT PUSH2 0xC5 JUMPI DUP1 PUSH4 0x29DCB0CF EQ PUSH2 0x18C JUMPI DUP1 PUSH4 0x40193883 EQ PUSH2 0x1B6 JUMPI DUP1 PUSH4 0x4CB6F4A5 EQ PUSH2 0x1E0 JUMPI DUP1 PUSH4 0x4E260F6F EQ PUSH2 0x208 JUMPI PUSH2 0xFA JUMP JUMPDEST DUP1 PUSH4 0x12065FE0 EQ PUSH2 0xFE JUMPI DUP1 PUSH4 0x1B16BB5C EQ PUSH2 0x128 JUMPI DUP1 PUSH4 0x1F6D4942 EQ PUSH2 0x150 JUMPI PUSH2 0xFA JUMP JUMPDEST CALLDATASIZE PUSH2 0xFA JUMPI PUSH2 0xF8 PUSH2 0x362 JUMP JUMPDEST STOP JUMPDEST PUSH0 DUP1 REVERT JUMPDEST CALLVALUE DUP1 ISZERO PUSH2 0x109 JUMPI PUSH0 DUP1 REVERT JUMPDEST POP PUSH2 0x112 PUSH2 0x47D JUMP JUMPDEST PUSH1 0x40 MLOAD PUSH2 0x11F SWAP2 SWAP1 PUSH2 0xAC5 JUMP JUMPDEST PUSH1 0x40 MLOAD DUP1 SWAP2 SUB SWAP1 RETURN JUMPDEST CALLVALUE DUP1 ISZERO PUSH2 0x133 JUMPI PUSH0 DUP1 REVERT JUMPDEST POP PUSH2 0x14E PUSH1 0x4 DUP1 CALLDATASIZE SUB DUP2 ADD SWAP1 PUSH2 0x149 SWAP2 SWAP1 PUSH2 0xCAF JUMP JUMPDEST PUSH2 0x484 JUMP JUMPDEST STOP JUMPDEST CALLVALUE DUP1 ISZERO PUSH2 0x15B JUMPI PUSH0 DUP1 REVERT JUMPDEST POP PUSH2 0x176 PUSH1 0x4 DUP1 CALLDATASIZE SUB DUP2 ADD SWAP1 PUSH2 0x171 SWAP2 SWAP1 PUSH2 0xD56 JUMP JUMPDEST PUSH2 0x572 JUMP JUMPDEST PUSH1 0x40 MLOAD PUSH2 0x183 SWAP2 SWAP1 PUSH2 0xAC5 JUMP JUMPDEST PUSH1 0x40 MLOAD DUP1 SWAP2 SUB SWAP1 RETURN JUMPDEST CALLVALUE DUP1 ISZERO PUSH2 0x197 JUMPI PUSH0 DUP1 REVERT JUMPDEST POP PUSH2 0x1A0 PUSH2 0x586 JUMP JUMPDEST PUSH1 0x40 MLOAD PUSH2 0x1AD SWAP2 SWAP1 PUSH2 0xAC5 JUMP JUMPDEST PUSH1 0x40 MLOAD DUP1 SWAP2 SUB SWAP1 RETURN JUMPDEST CALLVALUE DUP1 ISZERO PUSH2 0x1C1 JUMPI PUSH0 DUP1 REVERT JUMPDEST POP PUSH2 0x1CA PUSH2 0x58C JUMP JUMPDEST PUSH1 0x40 MLOAD PUSH2 0x1D7 SWAP2 SWAP1 PUSH2 0xAC5 JUMP JUMPDEST PUSH1 0x40 MLOAD DUP1 SWAP2 SUB SWAP1 RETURN JUMPDEST CALLVALUE DUP1 ISZERO PUSH2 0x1EB JUMPI PUSH0 DUP1 REVERT JUMPDEST POP PUSH2 0x206 PUSH1 0x4 DUP1 CALLDATASIZE SUB DUP2 ADD SWAP1 PUSH2 0x201 SWAP2 SWAP1 PUSH2 0xD81 JUMP JUMPDEST PUSH2 0x592 JUMP JUMPDEST STOP JUMPDEST CALLVALUE DUP1 ISZERO PUSH2 0x213 JUMPI PUSH0 DUP1 REVERT JUMPDEST POP PUSH2 0x21C PUSH2 0x6BB JUMP JUMPDEST PUSH1 0x40 MLOAD PUSH2 0x229 SWAP2 SWAP1 PUSH2 0xAC5 JUMP JUMPDEST PUSH1 0x40 MLOAD DUP1 SWAP2 SUB SWAP1 RETURN JUMPDEST CALLVALUE DUP1 ISZERO PUSH2 0x23D JUMPI PUSH0 DUP1 REVERT JUMPDEST POP PUSH2 0x258 PUSH1 0x4 DUP1 CALLDATASIZE SUB DUP2 ADD SWAP1 PUSH2 0x253 SWAP2 SWAP1 PUSH2 0xD81 JUMP JUMPDEST PUSH2 0x6C1 JUMP JUMPDEST STOP JUMPDEST CALLVALUE DUP1 ISZERO PUSH2 0x265 JUMPI PUSH0 DUP1 REVERT JUMPDEST POP PUSH2 0x280 PUSH1 0x4 DUP1 CALLDATASIZE SUB DUP2 ADD SWAP1 PUSH2 0x27B SWAP2 SWAP1 PUSH2 0xD81 JUMP JUMPDEST PUSH2 0x862 JUMP JUMPDEST PUSH1 0x40 MLOAD PUSH2 0x291 SWAP6 SWAP5 SWAP4 SWAP3 SWAP2 SWAP1 PUSH2 0xE35 JUMP JUMPDEST PUSH1 0x40 MLOAD DUP1 SWAP2 SUB SWAP1 RETURN JUMPDEST CALLVALUE DUP1 ISZERO PUSH2 0x2A5 JUMPI PUSH0 DUP1 REVERT JUMPDEST POP PUSH2 0x2AE PUSH2 0x945 JUMP JUMPDEST PUSH1 0x40 MLOAD PUSH2 0x2BB SWAP2 SWAP1 PUSH2 0xAC5 JUMP JUMPDEST PUSH1 0x40 MLOAD DUP1 SWAP2 SUB SWAP1 RETURN JUMPDEST CALLVALUE DUP1 ISZERO PUSH2 0x2CF JUMPI PUSH0 DUP1 REVERT JUMPDEST POP PUSH2 0x2D8 PUSH2 0x94B JUMP JUMPDEST PUSH1 0x40 MLOAD PUSH2 0x2E5 SWAP2 SWAP1 PUSH2 0xAC5 JUMP JUMPDEST PUSH1 0x40 MLOAD DUP1 SWAP2 SUB SWAP1 RETURN JUMPDEST CALLVALUE DUP1 ISZERO PUSH2 0x2F9 JUMPI PUSH0 DUP1 REVERT JUMPDEST POP PUSH2 0x302 PUSH2 0x951 JUMP JUMPDEST STOP JUMPDEST CALLVALUE DUP1 ISZERO PUSH2 0x30F JUMPI PUSH0 DUP1 REVERT JUMPDEST POP PUSH2 0x318 PUSH2 0xA82 JUMP JUMPDEST PUSH1 0x40 MLOAD PUSH2 0x325 SWAP2 SWAP1 PUSH2 0xAC5 JUMP JUMPDEST PUSH1 0x40 MLOAD DUP1 SWAP2 SUB SWAP1 RETURN JUMPDEST PUSH2 0x336 PUSH2 0x362 JUMP JUMPDEST STOP JUMPDEST CALLVALUE DUP1 ISZERO PUSH2 0x343 JUMPI PUSH0 DUP1 REVERT JUMPDEST POP PUSH2 0x34C PUSH2 0xA88 JUMP JUMPDEST PUSH1 0x40 MLOAD PUSH2 0x359 SWAP2 SWAP1 PUSH2 0xE9C JUMP JUMPDEST PUSH1 0x40 MLOAD DUP1 SWAP2 SUB SWAP1 RETURN JUMPDEST PUSH1 0x5 SLOAD TIMESTAMP LT PUSH2 0x36F JUMPI PUSH0 DUP1 REVERT JUMPDEST PUSH1 0x3 SLOAD CALLVALUE LT ISZERO PUSH2 0x37D JUMPI PUSH0 DUP1 REVERT JUMPDEST PUSH0 DUP1 PUSH0 CALLER PUSH20 0xFFFFFFFFFFFFFFFFFFFFFFFFFFFFFFFFFFFFFFFF AND PUSH20 0xFFFFFFFFFFFFFFFFFFFFFFFFFFFFFFFFFFFFFFFF AND DUP2 MSTORE PUSH1 0x20 ADD SWAP1 DUP2 MSTORE PUSH1 0x20 ADD PUSH0 KECCAK256 SLOAD SUB PUSH2 0x3D8 JUMPI PUSH1 0x2 PUSH0 DUP2 SLOAD DUP1 SWAP3 SWAP2 SWAP1 PUSH2 0x3D2 SWAP1 PUSH2 0xEE2 JUMP JUMPDEST SWAP2 SWAP1 POP SSTORE POP JUMPDEST CALLVALUE PUSH0 DUP1 CALLER PUSH20 0xFFFFFFFFFFFFFFFFFFFFFFFFFFFFFFFFFFFFFFFF AND PUSH20 0xFFFFFFFFFFFFFFFFFFFFFFFFFFFFFFFFFFFFFFFF AND DUP2 MSTORE PUSH1 0x20 ADD SWAP1 DUP2 MSTORE PUSH1 0x20 ADD PUSH0 KECCAK256 PUSH0 DUP3 DUP3 SLOAD PUSH2 0x423 SWAP2 SWAP1 PUSH2 0xF29 JUMP JUMPDEST SWAP3 POP POP DUP2 SWAP1 SSTORE POP CALLVALUE PUSH1 0x6 PUSH0 DUP3 DUP3 SLOAD PUSH2 0x43B SWAP2 SWAP1 PUSH2 0xF29 JUMP JUMPDEST SWAP3 POP POP DUP2 SWAP1 SSTORE POP PUSH32 0x2DAF61DEC57A2C194E9E87958B1A40A5C236B5E8C6041655D664DDBD16C29320 CALLER CALLVALUE PUSH1 0x40 MLOAD PUSH2 0x473 SWAP3 SWAP2 SWAP1 PUSH2 0xF5C JUMP JUMPDEST PUSH1 0x40 MLOAD DUP1 SWAP2 SUB SWAP1 LOG1 JUMP JUMPDEST PUSH0 SELFBALANCE SWAP1 POP SWAP1 JUMP JUMPDEST PUSH0 PUSH1 0x7 PUSH0 PUSH1 0x8 SLOAD DUP2 MSTORE PUSH1 0x20 ADD SWAP1 DUP2 MSTORE PUSH1 0x20 ADD PUSH0 KECCAK256 SWAP1 POP PUSH1 0x8 PUSH0 DUP2 SLOAD DUP1 SWAP3 SWAP2 SWAP1 PUSH2 0x4AC SWAP1 PUSH2 0xEE2 JUMP JUMPDEST SWAP2 SWAP1 POP SSTORE POP DUP4 DUP2 PUSH0 ADD SWAP1 DUP2 PUSH2 0x4C1 SWAP2 SWAP1 PUSH2 0x117D JUMP JUMPDEST POP DUP3 DUP2 PUSH1 0x1 ADD PUSH0 PUSH2 0x100 EXP DUP2 SLOAD DUP2 PUSH20 0xFFFFFFFFFFFFFFFFFFFFFFFFFFFFFFFFFFFFFFFF MUL NOT AND SWAP1 DUP4 PUSH20 0xFFFFFFFFFFFFFFFFFFFFFFFFFFFFFFFFFFFFFFFF AND MUL OR SWAP1 SSTORE POP DUP2 DUP2 PUSH1 0x3 ADD DUP2 SWAP1 SSTORE POP PUSH0 DUP2 PUSH1 0x4 ADD PUSH0 PUSH2 0x100 EXP DUP2 SLOAD DUP2 PUSH1 0xFF MUL NOT AND SWAP1 DUP4 ISZERO ISZERO MUL OR SWAP1 SSTORE POP PUSH0 DUP2 PUSH1 0x2 ADD DUP2 SWAP1 SSTORE POP PUSH32 0x5392BD80651676CCAAEDEC1AFBE841D47E369223DF0BA1586110B6426EE87A3A DUP5 DUP5 DUP5 PUSH1 0x40 MLOAD PUSH2 0x564 SWAP4 SWAP3 SWAP2 SWAP1 PUSH2 0x129E JUMP JUMPDEST PUSH1 0x40 MLOAD DUP1 SWAP2 SUB SWAP1 LOG1 POP POP POP POP JUMP JUMPDEST PUSH0 PUSH1 0x20 MSTORE DUP1 PUSH0 MSTORE PUSH1 0x40 PUSH0 KECCAK256 PUSH0 SWAP2 POP SWAP1 POP SLOAD DUP2 JUMP JUMPDEST PUSH1 0x5 SLOAD DUP2 JUMP JUMPDEST PUSH1 0x4 SLOAD DUP2 JUMP JUMPDEST PUSH0 DUP1 PUSH0 CALLER PUSH20 0xFFFFFFFFFFFFFFFFFFFFFFFFFFFFFFFFFFFFFFFF AND PUSH20 0xFFFFFFFFFFFFFFFFFFFFFFFFFFFFFFFFFFFFFFFF AND DUP2 MSTORE PUSH1 0x20 ADD SWAP1 DUP2 MSTORE PUSH1 0x20 ADD PUSH0 KECCAK256 SLOAD GT PUSH2 0x5D9 JUMPI PUSH0 DUP1 REVERT JUMPDEST PUSH0 PUSH1 0x7 PUSH0 DUP4 DUP2 MSTORE PUSH1 0x20 ADD SWAP1 DUP2 MSTORE PUSH1 0x20 ADD PUSH0 KECCAK256 SWAP1 POP PUSH0 ISZERO ISZERO DUP2 PUSH1 0x5 ADD PUSH0 CALLER PUSH20 0xFFFFFFFFFFFFFFFFFFFFFFFFFFFFFFFFFFFFFFFF AND PUSH20 0xFFFFFFFFFFFFFFFFFFFFFFFFFFFFFFFFFFFFFFFF AND DUP2 MSTORE PUSH1 0x20 ADD SWAP1 DUP2 MSTORE PUSH1 0x20 ADD PUSH0 KECCAK256 PUSH0 SWAP1 SLOAD SWAP1 PUSH2 0x100 EXP SWAP1 DIV PUSH1 0xFF AND ISZERO ISZERO EQ PUSH2 0x647 JUMPI PUSH0 DUP1 REVERT JUMPDEST PUSH1 0x1 DUP2 PUSH1 0x5 ADD PUSH0 CALLER PUSH20 0xFFFFFFFFFFFFFFFFFFFFFFFFFFFFFFFFFFFFFFFF AND PUSH20 0xFFFFFFFFFFFFFFFFFFFFFFFFFFFFFFFFFFFFFFFF AND DUP2 MSTORE PUSH1 0x20 ADD SWAP1 DUP2 MSTORE PUSH1 0x20 ADD PUSH0 KECCAK256 PUSH0 PUSH2 0x100 EXP DUP2 SLOAD DUP2 PUSH1 0xFF MUL NOT AND SWAP1 DUP4 ISZERO ISZERO MUL OR SWAP1 SSTORE POP DUP1 PUSH1 0x2 ADD PUSH0 DUP2 SLOAD DUP1 SWAP3 SWAP2 SWAP1 PUSH2 0x6B2 SWAP1 PUSH2 0xEE2 JUMP JUMPDEST SWAP2 SWAP1 POP SSTORE POP POP POP JUMP JUMPDEST PUSH1 0x2 SLOAD DUP2 JUMP JUMPDEST PUSH1 0x1 PUSH0 SWAP1 SLOAD SWAP1 PUSH2 0x100 EXP SWAP1 DIV PUSH20 0xFFFFFFFFFFFFFFFFFFFFFFFFFFFFFFFFFFFFFFFF AND PUSH20 0xFFFFFFFFFFFFFFFFFFFFFFFFFFFFFFFFFFFFFFFF AND CALLER PUSH20 0xFFFFFFFFFFFFFFFFFFFFFFFFFFFFFFFFFFFFFFFF AND EQ PUSH2 0x719 JUMPI PUSH0 DUP1 REVERT JUMPDEST PUSH1 0x4 SLOAD PUSH1 0x6 SLOAD GT PUSH2 0x728 JUMPI PUSH0 DUP1 REVERT JUMPDEST PUSH0 PUSH1 0x7 PUSH0 DUP4 DUP2 MSTORE PUSH1 0x20 ADD SWAP1 DUP2 MSTORE PUSH1 0x20 ADD PUSH0 KECCAK256 SWAP1 POP PUSH0 ISZERO ISZERO DUP2 PUSH1 0x4 ADD PUSH0 SWAP1 SLOAD SWAP1 PUSH2 0x100 EXP SWAP1 DIV PUSH1 0xFF AND ISZERO ISZERO EQ PUSH2 0x75B JUMPI PUSH0 DUP1 REVERT JUMPDEST PUSH1 0x2 DUP1 SLOAD PUSH2 0x769 SWAP2 SWAP1 PUSH2 0x1307 JUMP JUMPDEST DUP2 PUSH1 0x2 ADD SLOAD GT PUSH2 0x777 JUMPI PUSH0 DUP1 REVERT JUMPDEST DUP1 PUSH1 0x1 ADD PUSH0 SWAP1 SLOAD SWAP1 PUSH2 0x100 EXP SWAP1 DIV PUSH20 0xFFFFFFFFFFFFFFFFFFFFFFFFFFFFFFFFFFFFFFFF AND PUSH20 0xFFFFFFFFFFFFFFFFFFFFFFFFFFFFFFFFFFFFFFFF AND PUSH2 0x8FC DUP3 PUSH1 0x3 ADD SLOAD SWAP1 DUP2 ISZERO MUL SWAP1 PUSH1 0x40 MLOAD PUSH0 PUSH1 0x40 MLOAD DUP1 DUP4 SUB DUP2 DUP6 DUP9 DUP9 CALL SWAP4 POP POP POP POP ISZERO DUP1 ISZERO PUSH2 0x7E1 JUMPI RETURNDATASIZE PUSH0 DUP1 RETURNDATACOPY RETURNDATASIZE PUSH0 REVERT JUMPDEST POP PUSH1 0x1 DUP2 PUSH1 0x4 ADD PUSH0 PUSH2 0x100 EXP DUP2 SLOAD DUP2 PUSH1 0xFF MUL NOT AND SWAP1 DUP4 ISZERO ISZERO MUL OR SWAP1 SSTORE POP PUSH32 0x516E1673E5E85C44620165259173329ADDA2AD25E7BB15020C732BE060B5B790 DUP2 PUSH1 0x1 ADD PUSH0 SWAP1 SLOAD SWAP1 PUSH2 0x100 EXP SWAP1 DIV PUSH20 0xFFFFFFFFFFFFFFFFFFFFFFFFFFFFFFFFFFFFFFFF AND DUP3 PUSH1 0x3 ADD SLOAD PUSH1 0x40 MLOAD PUSH2 0x856 SWAP3 SWAP2 SWAP1 PUSH2 0x1337 JUMP JUMPDEST PUSH1 0x40 MLOAD DUP1 SWAP2 SUB SWAP1 LOG1 POP POP JUMP JUMPDEST PUSH1 0x7 PUSH1 0x20 MSTORE DUP1 PUSH0 MSTORE PUSH1 0x40 PUSH0 KECCAK256 PUSH0 SWAP2 POP SWAP1 POP DUP1 PUSH0 ADD DUP1 SLOAD PUSH2 0x881 SWAP1 PUSH2 0xFB0 JUMP JUMPDEST DUP1 PUSH1 0x1F ADD PUSH1 0x20 DUP1 SWAP2 DIV MUL PUSH1 0x20 ADD PUSH1 0x40 MLOAD SWAP1 DUP2 ADD PUSH1 0x40 MSTORE DUP1 SWAP3 SWAP2 SWAP1 DUP2 DUP2 MSTORE PUSH1 0x20 ADD DUP3 DUP1 SLOAD PUSH2 0x8AD SWAP1 PUSH2 0xFB0 JUMP JUMPDEST DUP1 ISZERO PUSH2 0x8F8 JUMPI DUP1 PUSH1 0x1F LT PUSH2 0x8CF JUMPI PUSH2 0x100 DUP1 DUP4 SLOAD DIV MUL DUP4 MSTORE SWAP2 PUSH1 0x20 ADD SWAP2 PUSH2 0x8F8 JUMP JUMPDEST DUP3 ADD SWAP2 SWAP1 PUSH0 MSTORE PUSH1 0x20 PUSH0 KECCAK256 SWAP1 JUMPDEST DUP2 SLOAD DUP2 MSTORE SWAP1 PUSH1 0x1 ADD SWAP1 PUSH1 0x20 ADD DUP1 DUP4 GT PUSH2 0x8DB JUMPI DUP3 SWAP1 SUB PUSH1 0x1F AND DUP3 ADD SWAP2 JUMPDEST POP POP POP POP POP SWAP1 DUP1 PUSH1 0x1 ADD PUSH0 SWAP1 SLOAD SWAP1 PUSH2 0x100 EXP SWAP1 DIV PUSH20 0xFFFFFFFFFFFFFFFFFFFFFFFFFFFFFFFFFFFFFFFF AND SWAP1 DUP1 PUSH1 0x2 ADD SLOAD SWAP1 DUP1 PUSH1 0x3 ADD SLOAD SWAP1 DUP1 PUSH1 0x4 ADD PUSH0 SWAP1 SLOAD SWAP1 PUSH2 0x100 EXP SWAP1 DIV PUSH1 0xFF AND SWAP1 POP DUP6 JUMP JUMPDEST PUSH1 0x3 SLOAD DUP2 JUMP JUMPDEST PUSH1 0x8 SLOAD DUP2 JUMP JUMPDEST PUSH1 0x5 SLOAD TIMESTAMP LT ISZERO DUP1 ISZERO PUSH2 0x966 JUMPI POP PUSH1 0x4 SLOAD PUSH1 0x6 SLOAD LT JUMPDEST PUSH2 0x96E JUMPI PUSH0 DUP1 REVERT JUMPDEST PUSH0 DUP1 PUSH0 CALLER PUSH20 0xFFFFFFFFFFFFFFFFFFFFFFFFFFFFFFFFFFFFFFFF AND PUSH20 0xFFFFFFFFFFFFFFFFFFFFFFFFFFFFFFFFFFFFFFFF AND DUP2 MSTORE PUSH1 0x20 ADD SWAP1 DUP2 MSTORE PUSH1 0x20 ADD PUSH0 KECCAK256 SLOAD GT PUSH2 0x9B5 JUMPI PUSH0 DUP1 REVERT JUMPDEST PUSH0 CALLER SWAP1 POP PUSH0 DUP1 PUSH0 CALLER PUSH20 0xFFFFFFFFFFFFFFFFFFFFFFFFFFFFFFFFFFFFFFFF AND PUSH20 0xFFFFFFFFFFFFFFFFFFFFFFFFFFFFFFFFFFFFFFFF AND DUP2 MSTORE PUSH1 0x20 ADD SWAP1 DUP2 MSTORE PUSH1 0x20 ADD PUSH0 KECCAK256 SLOAD SWAP1 POP PUSH0 DUP1 PUSH0 CALLER PUSH20 0xFFFFFFFFFFFFFFFFFFFFFFFFFFFFFFFFFFFFFFFF AND PUSH20 0xFFFFFFFFFFFFFFFFFFFFFFFFFFFFFFFFFFFFFFFF AND DUP2 MSTORE PUSH1 0x20 ADD SWAP1 DUP2 MSTORE PUSH1 0x20 ADD PUSH0 KECCAK256 DUP2 SWAP1 SSTORE POP DUP2 PUSH20 0xFFFFFFFFFFFFFFFFFFFFFFFFFFFFFFFFFFFFFFFF AND PUSH2 0x8FC DUP3 SWAP1 DUP2 ISZERO MUL SWAP1 PUSH1 0x40 MLOAD PUSH0 PUSH1 0x40 MLOAD DUP1 DUP4 SUB DUP2 DUP6 DUP9 DUP9 CALL SWAP4 POP POP POP POP ISZERO DUP1 ISZERO PUSH2 0xA7D JUMPI RETURNDATASIZE PUSH0 DUP1 RETURNDATACOPY RETURNDATASIZE PUSH0 REVERT JUMPDEST POP POP POP JUMP JUMPDEST PUSH1 0x6 SLOAD DUP2 JUMP JUMPDEST PUSH1 0x1 PUSH0 SWAP1 SLOAD SWAP1 PUSH2 0x100 EXP SWAP1 DIV PUSH20 0xFFFFFFFFFFFFFFFFFFFFFFFFFFFFFFFFFFFFFFFF AND DUP2 JUMP JUMPDEST PUSH0 DUP2 SWAP1 POP SWAP2 SWAP1 POP JUMP JUMPDEST PUSH2 0xABF DUP2 PUSH2 0xAAD JUMP JUMPDEST DUP3 MSTORE POP POP JUMP JUMPDEST PUSH0 PUSH1 0x20 DUP3 ADD SWAP1 POP PUSH2 0xAD8 PUSH0 DUP4 ADD DUP5 PUSH2 0xAB6 JUMP JUMPDEST SWAP3 SWAP2 POP POP JUMP JUMPDEST PUSH0 PUSH1 0x40 MLOAD SWAP1 POP SWAP1 JUMP JUMPDEST PUSH0 DUP1 REVERT JUMPDEST PUSH0 DUP1 REVERT JUMPDEST PUSH0 DUP1 REVERT JUMPDEST PUSH0 DUP1 REVERT JUMPDEST PUSH0 PUSH1 0x1F NOT PUSH1 0x1F DUP4 ADD AND SWAP1 POP SWAP2 SWAP1 POP JUMP JUMPDEST PUSH32 0x4E487B7100000000000000000000000000000000000000000000000000000000 PUSH0 MSTORE PUSH1 0x41 PUSH1 0x4 MSTORE PUSH1 0x24 PUSH0 REVERT JUMPDEST PUSH2 0xB3D DUP3 PUSH2 0xAF7 JUMP JUMPDEST DUP2 ADD DUP2 DUP2 LT PUSH8 0xFFFFFFFFFFFFFFFF DUP3 GT OR ISZERO PUSH2 0xB5C JUMPI PUSH2 0xB5B PUSH2 0xB07 JUMP JUMPDEST JUMPDEST DUP1 PUSH1 0x40 MSTORE POP POP POP JUMP JUMPDEST PUSH0 PUSH2 0xB6E PUSH2 0xADE JUMP JUMPDEST SWAP1 POP PUSH2 0xB7A DUP3 DUP3 PUSH2 0xB34 JUMP JUMPDEST SWAP2 SWAP1 POP JUMP JUMPDEST PUSH0 PUSH8 0xFFFFFFFFFFFFFFFF DUP3 GT ISZERO PUSH2 0xB99 JUMPI PUSH2 0xB98 PUSH2 0xB07 JUMP JUMPDEST JUMPDEST PUSH2 0xBA2 DUP3 PUSH2 0xAF7 JUMP JUMPDEST SWAP1 POP PUSH1 0x20 DUP2 ADD SWAP1 POP SWAP2 SWAP1 POP JUMP JUMPDEST DUP3 DUP2 DUP4 CALLDATACOPY PUSH0 DUP4 DUP4 ADD MSTORE POP POP POP JUMP JUMPDEST PUSH0 PUSH2 0xBCF PUSH2 0xBCA DUP5 PUSH2 0xB7F JUMP JUMPDEST PUSH2 0xB65 JUMP JUMPDEST SWAP1 POP DUP3 DUP2 MSTORE PUSH1 0x20 DUP2 ADD DUP5 DUP5 DUP5 ADD GT ISZERO PUSH2 0xBEB JUMPI PUSH2 0xBEA PUSH2 0xAF3 JUMP JUMPDEST JUMPDEST PUSH2 0xBF6 DUP5 DUP3 DUP6 PUSH2 0xBAF JUMP JUMPDEST POP SWAP4 SWAP3 POP POP POP JUMP JUMPDEST PUSH0 DUP3 PUSH1 0x1F DUP4 ADD SLT PUSH2 0xC12 JUMPI PUSH2 0xC11 PUSH2 0xAEF JUMP JUMPDEST JUMPDEST DUP2 CALLDATALOAD PUSH2 0xC22 DUP5 DUP3 PUSH1 0x20 DUP7 ADD PUSH2 0xBBD JUMP JUMPDEST SWAP2 POP POP SWAP3 SWAP2 POP POP JUMP JUMPDEST PUSH0 PUSH20 0xFFFFFFFFFFFFFFFFFFFFFFFFFFFFFFFFFFFFFFFF DUP3 AND SWAP1 POP SWAP2 SWAP1 POP JUMP JUMPDEST PUSH0 PUSH2 0xC54 DUP3 PUSH2 0xC2B JUMP JUMPDEST SWAP1 POP SWAP2 SWAP1 POP JUMP JUMPDEST PUSH2 0xC64 DUP2 PUSH2 0xC4A JUMP JUMPDEST DUP2 EQ PUSH2 0xC6E JUMPI PUSH0 DUP1 REVERT JUMPDEST POP JUMP JUMPDEST PUSH0 DUP2 CALLDATALOAD SWAP1 POP PUSH2 0xC7F DUP2 PUSH2 0xC5B JUMP JUMPDEST SWAP3 SWAP2 POP POP JUMP JUMPDEST PUSH2 0xC8E DUP2 PUSH2 0xAAD JUMP JUMPDEST DUP2 EQ PUSH2 0xC98 JUMPI PUSH0 DUP1 REVERT JUMPDEST POP JUMP JUMPDEST PUSH0 DUP2 CALLDATALOAD SWAP1 POP PUSH2 0xCA9 DUP2 PUSH2 0xC85 JUMP JUMPDEST SWAP3 SWAP2 POP POP JUMP JUMPDEST PUSH0 DUP1 PUSH0 PUSH1 0x60 DUP5 DUP7 SUB SLT ISZERO PUSH2 0xCC6 JUMPI PUSH2 0xCC5 PUSH2 0xAE7 JUMP JUMPDEST JUMPDEST PUSH0 DUP5 ADD CALLDATALOAD PUSH8 0xFFFFFFFFFFFFFFFF DUP2 GT ISZERO PUSH2 0xCE3 JUMPI PUSH2 0xCE2 PUSH2 0xAEB JUMP JUMPDEST JUMPDEST PUSH2 0xCEF DUP7 DUP3 DUP8 ADD PUSH2 0xBFE JUMP JUMPDEST SWAP4 POP POP PUSH1 0x20 PUSH2 0xD00 DUP7 DUP3 DUP8 ADD PUSH2 0xC71 JUMP JUMPDEST SWAP3 POP POP PUSH1 0x40 PUSH2 0xD11 DUP7 DUP3 DUP8 ADD PUSH2 0xC9B JUMP JUMPDEST SWAP2 POP POP SWAP3 POP SWAP3 POP SWAP3 JUMP JUMPDEST PUSH0 PUSH2 0xD25 DUP3 PUSH2 0xC2B JUMP JUMPDEST SWAP1 POP SWAP2 SWAP1 POP JUMP JUMPDEST PUSH2 0xD35 DUP2 PUSH2 0xD1B JUMP JUMPDEST DUP2 EQ PUSH2 0xD3F JUMPI PUSH0 DUP1 REVERT JUMPDEST POP JUMP JUMPDEST PUSH0 DUP2 CALLDATALOAD SWAP1 POP PUSH2 0xD50 DUP2 PUSH2 0xD2C JUMP JUMPDEST SWAP3 SWAP2 POP POP JUMP JUMPDEST PUSH0 PUSH1 0x20 DUP3 DUP5 SUB SLT ISZERO PUSH2 0xD6B JUMPI PUSH2 0xD6A PUSH2 0xAE7 JUMP JUMPDEST JUMPDEST PUSH0 PUSH2 0xD78 DUP5 DUP3 DUP6 ADD PUSH2 0xD42 JUMP JUMPDEST SWAP2 POP POP SWAP3 SWAP2 POP POP JUMP JUMPDEST PUSH0 PUSH1 0x20 DUP3 DUP5 SUB SLT ISZERO PUSH2 0xD96 JUMPI PUSH2 0xD95 PUSH2 0xAE7 JUMP JUMPDEST JUMPDEST PUSH0 PUSH2 0xDA3 DUP5 DUP3 DUP6 ADD PUSH2 0xC9B JUMP JUMPDEST SWAP2 POP POP SWAP3 SWAP2 POP POP JUMP JUMPDEST PUSH0 DUP2 MLOAD SWAP1 POP SWAP2 SWAP1 POP JUMP JUMPDEST PUSH0 DUP3 DUP3 MSTORE PUSH1 0x20 DUP3 ADD SWAP1 POP SWAP3 SWAP2 POP POP JUMP JUMPDEST DUP3 DUP2 DUP4 MCOPY PUSH0 DUP4 DUP4 ADD MSTORE POP POP POP JUMP JUMPDEST PUSH0 PUSH2 0xDDE DUP3 PUSH2 0xDAC JUMP JUMPDEST PUSH2 0xDE8 DUP2 DUP6 PUSH2 0xDB6 JUMP JUMPDEST SWAP4 POP PUSH2 0xDF8 DUP2 DUP6 PUSH1 0x20 DUP7 ADD PUSH2 0xDC6 JUMP JUMPDEST PUSH2 0xE01 DUP2 PUSH2 0xAF7 JUMP JUMPDEST DUP5 ADD SWAP2 POP POP SWAP3 SWAP2 POP POP JUMP JUMPDEST PUSH2 0xE15 DUP2 PUSH2 0xC4A JUMP JUMPDEST DUP3 MSTORE POP POP JUMP JUMPDEST PUSH0 DUP2 ISZERO ISZERO SWAP1 POP SWAP2 SWAP1 POP JUMP JUMPDEST PUSH2 0xE2F DUP2 PUSH2 0xE1B JUMP JUMPDEST DUP3 MSTORE POP POP JUMP JUMPDEST PUSH0 PUSH1 0xA0 DUP3 ADD SWAP1 POP DUP2 DUP2 SUB PUSH0 DUP4 ADD MSTORE PUSH2 0xE4D DUP2 DUP9 PUSH2 0xDD4 JUMP JUMPDEST SWAP1 POP PUSH2 0xE5C PUSH1 0x20 DUP4 ADD DUP8 PUSH2 0xE0C JUMP JUMPDEST PUSH2 0xE69 PUSH1 0x40 DUP4 ADD DUP7 PUSH2 0xAB6 JUMP JUMPDEST PUSH2 0xE76 PUSH1 0x60 DUP4 ADD DUP6 PUSH2 0xAB6 JUMP JUMPDEST PUSH2 0xE83 PUSH1 0x80 DUP4 ADD DUP5 PUSH2 0xE26 JUMP JUMPDEST SWAP7 SWAP6 POP POP POP POP POP POP JUMP JUMPDEST PUSH2 0xE96 DUP2 PUSH2 0xD1B JUMP JUMPDEST DUP3 MSTORE POP POP JUMP JUMPDEST PUSH0 PUSH1 0x20 DUP3 ADD SWAP1 POP PUSH2 0xEAF PUSH0 DUP4 ADD DUP5 PUSH2 0xE8D JUMP JUMPDEST SWAP3 SWAP2 POP POP JUMP JUMPDEST PUSH32 0x4E487B7100000000000000000000000000000000000000000000000000000000 PUSH0 MSTORE PUSH1 0x11 PUSH1 0x4 MSTORE PUSH1 0x24 PUSH0 REVERT JUMPDEST PUSH0 PUSH2 0xEEC DUP3 PUSH2 0xAAD JUMP JUMPDEST SWAP2 POP PUSH32 0xFFFFFFFFFFFFFFFFFFFFFFFFFFFFFFFFFFFFFFFFFFFFFFFFFFFFFFFFFFFFFFFF DUP3 SUB PUSH2 0xF1E JUMPI PUSH2 0xF1D PUSH2 0xEB5 JUMP JUMPDEST JUMPDEST PUSH1 0x1 DUP3 ADD SWAP1 POP SWAP2 SWAP1 POP JUMP JUMPDEST PUSH0 PUSH2 0xF33 DUP3 PUSH2 0xAAD JUMP JUMPDEST SWAP2 POP PUSH2 0xF3E DUP4 PUSH2 0xAAD JUMP JUMPDEST SWAP3 POP DUP3 DUP3 ADD SWAP1 POP DUP1 DUP3 GT ISZERO PUSH2 0xF56 JUMPI PUSH2 0xF55 PUSH2 0xEB5 JUMP JUMPDEST JUMPDEST SWAP3 SWAP2 POP POP JUMP JUMPDEST PUSH0 PUSH1 0x40 DUP3 ADD SWAP1 POP PUSH2 0xF6F PUSH0 DUP4 ADD DUP6 PUSH2 0xE8D JUMP JUMPDEST PUSH2 0xF7C PUSH1 0x20 DUP4 ADD DUP5 PUSH2 0xAB6 JUMP JUMPDEST SWAP4 SWAP3 POP POP POP JUMP JUMPDEST PUSH32 0x4E487B7100000000000000000000000000000000000000000000000000000000 PUSH0 MSTORE PUSH1 0x22 PUSH1 0x4 MSTORE PUSH1 0x24 PUSH0 REVERT JUMPDEST PUSH0 PUSH1 0x2 DUP3 DIV SWAP1 POP PUSH1 0x1 DUP3 AND DUP1 PUSH2 0xFC7 JUMPI PUSH1 0x7F DUP3 AND SWAP2 POP JUMPDEST PUSH1 0x20 DUP3 LT DUP2 SUB PUSH2 0xFDA JUMPI PUSH2 0xFD9 PUSH2 0xF83 JUMP JUMPDEST JUMPDEST POP SWAP2 SWAP1 POP JUMP JUMPDEST PUSH0 DUP2 SWAP1 POP DUP2 PUSH0 MSTORE PUSH1 0x20 PUSH0 KECCAK256 SWAP1 POP SWAP2 SWAP1 POP JUMP JUMPDEST PUSH0 PUSH1 0x20 PUSH1 0x1F DUP4 ADD DIV SWAP1 POP SWAP2 SWAP1 POP JUMP JUMPDEST PUSH0 DUP3 DUP3 SHL SWAP1 POP SWAP3 SWAP2 POP POP JUMP JUMPDEST PUSH0 PUSH1 0x8 DUP4 MUL PUSH2 0x103C PUSH32 0xFFFFFFFFFFFFFFFFFFFFFFFFFFFFFFFFFFFFFFFFFFFFFFFFFFFFFFFFFFFFFFFF DUP3 PUSH2 0x1001 JUMP JUMPDEST PUSH2 0x1046 DUP7 DUP4 PUSH2 0x1001 JUMP JUMPDEST SWAP6 POP DUP1 NOT DUP5 AND SWAP4 POP DUP1 DUP7 AND DUP5 OR SWAP3 POP POP POP SWAP4 SWAP3 POP POP POP JUMP JUMPDEST PUSH0 DUP2 SWAP1 POP SWAP2 SWAP1 POP JUMP JUMPDEST PUSH0 PUSH2 0x1081 PUSH2 0x107C PUSH2 0x1077 DUP5 PUSH2 0xAAD JUMP JUMPDEST PUSH2 0x105E JUMP JUMPDEST PUSH2 0xAAD JUMP JUMPDEST SWAP1 POP SWAP2 SWAP1 POP JUMP JUMPDEST PUSH0 DUP2 SWAP1 POP SWAP2 SWAP1 POP JUMP JUMPDEST PUSH2 0x109A DUP4 PUSH2 0x1067 JUMP JUMPDEST PUSH2 0x10AE PUSH2 0x10A6 DUP3 PUSH2 0x1088 JUMP JUMPDEST DUP5 DUP5 SLOAD PUSH2 0x100D JUMP JUMPDEST DUP3 SSTORE POP POP POP POP JUMP JUMPDEST PUSH0 SWAP1 JUMP JUMPDEST PUSH2 0x10C2 PUSH2 0x10B6 JUMP JUMPDEST PUSH2 0x10CD DUP2 DUP5 DUP5 PUSH2 0x1091 JUMP JUMPDEST POP POP POP JUMP JUMPDEST JUMPDEST DUP2 DUP2 LT ISZERO PUSH2 0x10F0 JUMPI PUSH2 0x10E5 PUSH0 DUP3 PUSH2 0x10BA JUMP JUMPDEST PUSH1 0x1 DUP2 ADD SWAP1 POP PUSH2 0x10D3 JUMP JUMPDEST POP POP JUMP JUMPDEST PUSH1 0x1F DUP3 GT ISZERO PUSH2 0x1135 JUMPI PUSH2 0x1106 DUP2 PUSH2 0xFE0 JUMP JUMPDEST PUSH2 0x110F DUP5 PUSH2 0xFF2 JUMP JUMPDEST DUP2 ADD PUSH1 0x20 DUP6 LT ISZERO PUSH2 0x111E JUMPI DUP2 SWAP1 POP JUMPDEST PUSH2 0x1132 PUSH2 0x112A DUP6 PUSH2 0xFF2 JUMP JUMPDEST DUP4 ADD DUP3 PUSH2 0x10D2 JUMP JUMPDEST POP POP JUMPDEST POP POP POP JUMP JUMPDEST PUSH0 DUP3 DUP3 SHR SWAP1 POP SWAP3 SWAP2 POP POP JUMP JUMPDEST PUSH0 PUSH2 0x1155 PUSH0 NOT DUP5 PUSH1 0x8 MUL PUSH2 0x113A JUMP JUMPDEST NOT DUP1 DUP4 AND SWAP2 POP POP SWAP3 SWAP2 POP POP JUMP JUMPDEST PUSH0 PUSH2 0x116D DUP4 DUP4 PUSH2 0x1146 JUMP JUMPDEST SWAP2 POP DUP3 PUSH1 0x2 MUL DUP3 OR SWAP1 POP SWAP3 SWAP2 POP POP JUMP JUMPDEST PUSH2 0x1186 DUP3 PUSH2 0xDAC JUMP JUMPDEST PUSH8 0xFFFFFFFFFFFFFFFF DUP2 GT ISZERO PUSH2 0x119F JUMPI PUSH2 0x119E PUSH2 0xB07 JUMP JUMPDEST JUMPDEST PUSH2 0x11A9 DUP3 SLOAD PUSH2 0xFB0 JUMP JUMPDEST PUSH2 0x11B4 DUP3 DUP3 DUP6 PUSH2 0x10F4 JUMP JUMPDEST PUSH0 PUSH1 0x20 SWAP1 POP PUSH1 0x1F DUP4 GT PUSH1 0x1 DUP2 EQ PUSH2 0x11E5 JUMPI PUSH0 DUP5 ISZERO PUSH2 0x11D3 JUMPI DUP3 DUP8 ADD MLOAD SWAP1 POP JUMPDEST PUSH2 0x11DD DUP6 DUP3 PUSH2 0x1162 JUMP JUMPDEST DUP7 SSTORE POP PUSH2 0x1244 JUMP JUMPDEST PUSH1 0x1F NOT DUP5 AND PUSH2 0x11F3 DUP7 PUSH2 0xFE0 JUMP JUMPDEST PUSH0 JUMPDEST DUP3 DUP2 LT ISZERO PUSH2 0x121A JUMPI DUP5 DUP10 ADD MLOAD DUP3 SSTORE PUSH1 0x1 DUP3 ADD SWAP2 POP PUSH1 0x20 DUP6 ADD SWAP5 POP PUSH1 0x20 DUP2 ADD SWAP1 POP PUSH2 0x11F5 JUMP JUMPDEST DUP7 DUP4 LT ISZERO PUSH2 0x1237 JUMPI DUP5 DUP10 ADD MLOAD PUSH2 0x1233 PUSH1 0x1F DUP10 AND DUP3 PUSH2 0x1146 JUMP JUMPDEST DUP4 SSTORE POP JUMPDEST PUSH1 0x1 PUSH1 0x2 DUP9 MUL ADD DUP9 SSTORE POP POP POP JUMPDEST POP POP POP POP POP POP JUMP JUMPDEST PUSH0 PUSH2 0x1266 PUSH2 0x1261 PUSH2 0x125C DUP5 PUSH2 0xC2B JUMP JUMPDEST PUSH2 0x105E JUMP JUMPDEST PUSH2 0xC2B JUMP JUMPDEST SWAP1 POP SWAP2 SWAP1 POP JUMP JUMPDEST PUSH0 PUSH2 0x1277 DUP3 PUSH2 0x124C JUMP JUMPDEST SWAP1 POP SWAP2 SWAP1 POP JUMP JUMPDEST PUSH0 PUSH2 0x1288 DUP3 PUSH2 0x126D JUMP JUMPDEST SWAP1 POP SWAP2 SWAP1 POP JUMP JUMPDEST PUSH2 0x1298 DUP2 PUSH2 0x127E JUMP JUMPDEST DUP3 MSTORE POP POP JUMP JUMPDEST PUSH0 PUSH1 0x60 DUP3 ADD SWAP1 POP DUP2 DUP2 SUB PUSH0 DUP4 ADD MSTORE PUSH2 0x12B6 DUP2 DUP7 PUSH2 0xDD4 JUMP JUMPDEST SWAP1 POP PUSH2 0x12C5 PUSH1 0x20 DUP4 ADD DUP6 PUSH2 0x128F JUMP JUMPDEST PUSH2 0x12D2 PUSH1 0x40 DUP4 ADD DUP5 PUSH2 0xAB6 JUMP JUMPDEST SWAP5 SWAP4 POP POP POP POP JUMP JUMPDEST PUSH32 0x4E487B7100000000000000000000000000000000000000000000000000000000 PUSH0 MSTORE PUSH1 0x12 PUSH1 0x4 MSTORE PUSH1 0x24 PUSH0 REVERT JUMPDEST PUSH0 PUSH2 0x1311 DUP3 PUSH2 0xAAD JUMP JUMPDEST SWAP2 POP PUSH2 0x131C DUP4 PUSH2 0xAAD JUMP JUMPDEST SWAP3 POP DUP3 PUSH2 0x132C JUMPI PUSH2 0x132B PUSH2 0x12DA JUMP JUMPDEST JUMPDEST DUP3 DUP3 DIV SWAP1 POP SWAP3 SWAP2 POP POP JUMP JUMPDEST PUSH0 PUSH1 0x40 DUP3 ADD SWAP1 POP PUSH2 0x134A PUSH0 DUP4 ADD DUP6 PUSH2 0x128F JUMP JUMPDEST PUSH2 0x1357 PUSH1 0x20 DUP4 ADD DUP5 PUSH2 0xAB6 JUMP JUMPDEST SWAP4 SWAP3 POP POP POP JUMP INVALID LOG2 PUSH5 0x6970667358 0x22 SLT KECCAK256 0xBF 0xBB LOG3 PUSH13 0xA9BBC81FBDE8B2D3BF318D2882 0xCB LOG3 TSTORE 0x28 EXTCODESIZE INVALID 0xE0 BASEFEE 0xA8 PUSH9 0xDEC9BA87E564736F6C PUSH4 0x4300081A STOP CALLER "
				},
				"gasEstimates": {
					"creation": {
						"codeDepositCost": "1002400",
						"executionCost": "infinite",
						"totalCost": "infinite"
					},
					"external": {
						"admin()": "2596",
						"contribute()": "infinite",
						"contributors(address)": "2869",
						"createRequest(string,address,uint256)": "infinite",
						"deadline()": "2448",
						"getBalance()": "358",
						"getRefund()": "infinite",
						"goal()": "2470",
						"makePayment(uint256)": "infinite",
						"minimumContribution()": "2492",
						"noOfContributors()": "2514",
						"numRequests()": "2514",
						"raisedAmount()": "2469",
						"requests(uint256)": "infinite",
						"voteRequest(uint256)": "infinite"
					}
				},
				"methodIdentifiers": {
					"admin()": "f851a440",
					"contribute()": "d7bb99ba",
					"contributors(address)": "1f6d4942",
					"createRequest(string,address,uint256)": "1b16bb5c",
					"deadline()": "29dcb0cf",
					"getBalance()": "12065fe0",
					"getRefund()": "b2d5ae44",
					"goal()": "40193883",
					"makePayment(uint256)": "5114cb52",
					"minimumContribution()": "937e09b1",
					"noOfContributors()": "4e260f6f",
					"numRequests()": "9fb42b1f",
					"raisedAmount()": "c59ee1dc",
					"requests(uint256)": "81d12c58",
					"voteRequest(uint256)": "4cb6f4a5"
				}
			},
			"storageLayout": {
				"storage": [
					{
						"astId": 5,
						"contract": "CrowdFunding.sol:CrowdFunding",
						"label": "contributors",
						"offset": 0,
						"slot": "0",
						"type": "t_mapping(t_address,t_uint256)"
					},
					{
						"astId": 7,
						"contract": "CrowdFunding.sol:CrowdFunding",
						"label": "admin",
						"offset": 0,
						"slot": "1",
						"type": "t_address"
					},
					{
						"astId": 9,
						"contract": "CrowdFunding.sol:CrowdFunding",
						"label": "noOfContributors",
						"offset": 0,
						"slot": "2",
						"type": "t_uint256"
					},
					{
						"astId": 11,
						"contract": "CrowdFunding.sol:CrowdFunding",
						"label": "minimumContribution",
						"offset": 0,
						"slot": "3",
						"type": "t_uint256"
					},
					{
						"astId": 13,
						"contract": "CrowdFunding.sol:CrowdFunding",
						"label": "goal",
						"offset": 0,
						"slot": "4",
						"type": "t_uint256"
					},
					{
						"astId": 15,
						"contract": "CrowdFunding.sol:CrowdFunding",
						"label": "deadline",
						"offset": 0,
						"slot": "5",
						"type": "t_uint256"
					},
					{
						"astId": 17,
						"contract": "CrowdFunding.sol:CrowdFunding",
						"label": "raisedAmount",
						"offset": 0,
						"slot": "6",
						"type": "t_uint256"
					},
					{
						"astId": 37,
						"contract": "CrowdFunding.sol:CrowdFunding",
						"label": "requests",
						"offset": 0,
						"slot": "7",
						"type": "t_mapping(t_uint256,t_struct(Request)32_storage)"
					},
					{
						"astId": 39,
						"contract": "CrowdFunding.sol:CrowdFunding",
						"label": "numRequests",
						"offset": 0,
						"slot": "8",
						"type": "t_uint256"
					}
				],
				"types": {
					"t_address": {
						"encoding": "inplace",
						"label": "address",
						"numberOfBytes": "20"
					},
					"t_address_payable": {
						"encoding": "inplace",
						"label": "address payable",
						"numberOfBytes": "20"
					},
					"t_bool": {
						"encoding": "inplace",
						"label": "bool",
						"numberOfBytes": "1"
					},
					"t_mapping(t_address,t_bool)": {
						"encoding": "mapping",
						"key": "t_address",
						"label": "mapping(address => bool)",
						"numberOfBytes": "32",
						"value": "t_bool"
					},
					"t_mapping(t_address,t_uint256)": {
						"encoding": "mapping",
						"key": "t_address",
						"label": "mapping(address => uint256)",
						"numberOfBytes": "32",
						"value": "t_uint256"
					},
					"t_mapping(t_uint256,t_struct(Request)32_storage)": {
						"encoding": "mapping",
						"key": "t_uint256",
						"label": "mapping(uint256 => struct CrowdFunding.Request)",
						"numberOfBytes": "32",
						"value": "t_struct(Request)32_storage"
					},
					"t_string_storage": {
						"encoding": "bytes",
						"label": "string",
						"numberOfBytes": "32"
					},
					"t_struct(Request)32_storage": {
						"encoding": "inplace",
						"label": "struct CrowdFunding.Request",
						"members": [
							{
								"astId": 19,
								"contract": "CrowdFunding.sol:CrowdFunding",
								"label": "description",
								"offset": 0,
								"slot": "0",
								"type": "t_string_storage"
							},
							{
								"astId": 21,
								"contract": "CrowdFunding.sol:CrowdFunding",
								"label": "recipient",
								"offset": 0,
								"slot": "1",
								"type": "t_address_payable"
							},
							{
								"astId": 23,
								"contract": "CrowdFunding.sol:CrowdFunding",
								"label": "noOfVoters",
								"offset": 0,
								"slot": "2",
								"type": "t_uint256"
							},
							{
								"astId": 25,
								"contract": "CrowdFunding.sol:CrowdFunding",
								"label": "value",
								"offset": 0,
								"slot": "3",
								"type": "t_uint256"
							},
							{
								"astId": 27,
								"contract": "CrowdFunding.sol:CrowdFunding",
								"label": "completed",
								"offset": 0,
								"slot": "4",
								"type": "t_bool"
							},
							{
								"astId": 31,
								"contract": "CrowdFunding.sol:CrowdFunding",
								"label": "voters",
								"offset": 0,
								"slot": "5",
								"type": "t_mapping(t_address,t_bool)"
							}
						],
						"numberOfBytes": "192"
					},
					"t_uint256": {
						"encoding": "inplace",
						"label": "uint256",
						"numberOfBytes": "32"
					}
				}
			},
			"userdoc": {
				"kind": "user",
				"methods": {},
				"version": 1
			}
		}
	}
}