{
	"Auction.sol": {
		"auctionCreator": {
			"abi": [
				{
					"inputs": [
						{
							"internalType": "uint256",
							"name": "",
							"type": "uint256"
						}
					],
					"name": "auctions",
					"outputs": [
						{
							"internalType": "contract Auction",
							"name": "",
							"type": "address"
						}
					],
					"stateMutability": "view",
					"type": "function"
				},
				{
					"inputs": [],
					"name": "createAuction",
					"outputs": [],
					"stateMutability": "nonpayable",
					"type": "function"
				}
			],
			"devdoc": {
				"kind": "dev",
				"methods": {},
				"version": 1
			},
			"evm": {
				"assembly": "    /* \"Auction.sol\":60:250  contract auctionCreator {... */\n  mstore(0x40, 0x80)\n  callvalue\n  dup1\n  iszero\n  tag_1\n  jumpi\n  0x00\n  dup1\n  revert\ntag_1:\n  pop\n  dataSize(sub_0)\n  dup1\n  dataOffset(sub_0)\n  0x00\n  codecopy\n  0x00\n  return\nstop\n\nsub_0: assembly {\n        /* \"Auction.sol\":60:250  contract auctionCreator {... */\n      mstore(0x40, 0x80)\n      callvalue\n      dup1\n      iszero\n      tag_1\n      jumpi\n      0x00\n      dup1\n      revert\n    tag_1:\n      pop\n      jumpi(tag_2, lt(calldatasize, 0x04))\n      shr(0xe0, calldataload(0x00))\n      dup1\n      0x571a26a0\n      eq\n      tag_3\n      jumpi\n      dup1\n      0xf5811447\n      eq\n      tag_4\n      jumpi\n    tag_2:\n      0x00\n      dup1\n      revert\n        /* \"Auction.sol\":91:116  Auction[] public auctions */\n    tag_3:\n      tag_5\n      0x04\n      dup1\n      calldatasize\n      sub\n      dup2\n      add\n      swap1\n      tag_6\n      swap2\n      swap1\n      tag_7\n      jump\t// in\n    tag_6:\n      tag_8\n      jump\t// in\n    tag_5:\n      mload(0x40)\n      tag_9\n      swap2\n      swap1\n      tag_10\n      jump\t// in\n    tag_9:\n      mload(0x40)\n      dup1\n      swap2\n      sub\n      swap1\n      return\n        /* \"Auction.sol\":125:247  function createAuction() public {... */\n    tag_4:\n      tag_11\n      tag_12\n      jump\t// in\n    tag_11:\n      stop\n        /* \"Auction.sol\":91:116  Auction[] public auctions */\n    tag_8:\n      0x00\n      dup2\n      dup2\n      sload\n      dup2\n      lt\n      tag_13\n      jumpi\n      0x00\n      dup1\n      revert\n    tag_13:\n      swap1\n      0x00\n      mstore\n      keccak256(0x00, 0x20)\n      add\n      0x00\n      swap2\n      pop\n      sload\n      swap1\n      0x0100\n      exp\n      swap1\n      div\n      0xffffffffffffffffffffffffffffffffffffffff\n      and\n      dup2\n      jump\t// out\n        /* \"Auction.sol\":125:247  function createAuction() public {... */\n    tag_12:\n        /* \"Auction.sol\":164:182  Auction newAuction */\n      0x00\n        /* \"Auction.sol\":196:206  msg.sender */\n      caller\n        /* \"Auction.sol\":184:207  new Auction(msg.sender) */\n      mload(0x40)\n      tag_16\n      swap1\n      tag_17\n      jump\t// in\n    tag_16:\n      tag_18\n      swap2\n      swap1\n      tag_19\n      jump\t// in\n    tag_18:\n      mload(0x40)\n      dup1\n      swap2\n      sub\n      swap1\n      0x00\n      create\n      dup1\n      iszero\n      dup1\n      iszero\n      tag_20\n      jumpi\n      returndatasize\n      0x00\n      dup1\n      returndatacopy\n      revert(0x00, returndatasize)\n    tag_20:\n      pop\n        /* \"Auction.sol\":164:207  Auction newAuction= new Auction(msg.sender) */\n      swap1\n      pop\n        /* \"Auction.sol\":214:222  auctions */\n      0x00\n        /* \"Auction.sol\":228:238  newAuction */\n      dup2\n        /* \"Auction.sol\":214:239  auctions.push(newAuction) */\n      swap1\n      dup1\n      0x01\n      dup2\n      sload\n      add\n      dup1\n      dup3\n      sstore\n      dup1\n      swap2\n      pop\n      pop\n      0x01\n      swap1\n      sub\n      swap1\n      0x00\n      mstore\n      keccak256(0x00, 0x20)\n      add\n      0x00\n      swap1\n      swap2\n      swap1\n      swap2\n      swap1\n      swap2\n      0x0100\n      exp\n      dup2\n      sload\n      dup2\n      0xffffffffffffffffffffffffffffffffffffffff\n      mul\n      not\n      and\n      swap1\n      dup4\n      0xffffffffffffffffffffffffffffffffffffffff\n      and\n      mul\n      or\n      swap1\n      sstore\n      pop\n        /* \"Auction.sol\":157:247  {... */\n      pop\n        /* \"Auction.sol\":125:247  function createAuction() public {... */\n      jump\t// out\n    tag_17:\n      dataSize(sub_0)\n      dup1\n      dataOffset(sub_0)\n      dup4\n      codecopy\n      add\n      swap1\n      jump\t// out\n        /* \"#utility.yul\":88:205   */\n    tag_23:\n        /* \"#utility.yul\":197:198   */\n      0x00\n        /* \"#utility.yul\":194:195   */\n      dup1\n        /* \"#utility.yul\":187:199   */\n      revert\n        /* \"#utility.yul\":334:411   */\n    tag_25:\n        /* \"#utility.yul\":371:378   */\n      0x00\n        /* \"#utility.yul\":400:405   */\n      dup2\n        /* \"#utility.yul\":389:405   */\n      swap1\n      pop\n        /* \"#utility.yul\":334:411   */\n      swap2\n      swap1\n      pop\n      jump\t// out\n        /* \"#utility.yul\":417:539   */\n    tag_26:\n        /* \"#utility.yul\":490:514   */\n      tag_42\n        /* \"#utility.yul\":508:513   */\n      dup2\n        /* \"#utility.yul\":490:514   */\n      tag_25\n      jump\t// in\n    tag_42:\n        /* \"#utility.yul\":483:488   */\n      dup2\n        /* \"#utility.yul\":480:515   */\n      eq\n        /* \"#utility.yul\":470:533   */\n      tag_43\n      jumpi\n        /* \"#utility.yul\":529:530   */\n      0x00\n        /* \"#utility.yul\":526:527   */\n      dup1\n        /* \"#utility.yul\":519:531   */\n      revert\n        /* \"#utility.yul\":470:533   */\n    tag_43:\n        /* \"#utility.yul\":417:539   */\n      pop\n      jump\t// out\n        /* \"#utility.yul\":545:684   */\n    tag_27:\n        /* \"#utility.yul\":591:596   */\n      0x00\n        /* \"#utility.yul\":629:635   */\n      dup2\n        /* \"#utility.yul\":616:636   */\n      calldataload\n        /* \"#utility.yul\":607:636   */\n      swap1\n      pop\n        /* \"#utility.yul\":645:678   */\n      tag_45\n        /* \"#utility.yul\":672:677   */\n      dup2\n        /* \"#utility.yul\":645:678   */\n      tag_26\n      jump\t// in\n    tag_45:\n        /* \"#utility.yul\":545:684   */\n      swap3\n      swap2\n      pop\n      pop\n      jump\t// out\n        /* \"#utility.yul\":690:1019   */\n    tag_7:\n        /* \"#utility.yul\":749:755   */\n      0x00\n        /* \"#utility.yul\":798:800   */\n      0x20\n        /* \"#utility.yul\":786:795   */\n      dup3\n        /* \"#utility.yul\":777:784   */\n      dup5\n        /* \"#utility.yul\":773:796   */\n      sub\n        /* \"#utility.yul\":769:801   */\n      slt\n        /* \"#utility.yul\":766:885   */\n      iszero\n      tag_47\n      jumpi\n        /* \"#utility.yul\":804:883   */\n      tag_48\n      tag_23\n      jump\t// in\n    tag_48:\n        /* \"#utility.yul\":766:885   */\n    tag_47:\n        /* \"#utility.yul\":924:925   */\n      0x00\n        /* \"#utility.yul\":949:1002   */\n      tag_49\n        /* \"#utility.yul\":994:1001   */\n      dup5\n        /* \"#utility.yul\":985:991   */\n      dup3\n        /* \"#utility.yul\":974:983   */\n      dup6\n        /* \"#utility.yul\":970:992   */\n      add\n        /* \"#utility.yul\":949:1002   */\n      tag_27\n      jump\t// in\n    tag_49:\n        /* \"#utility.yul\":939:1002   */\n      swap2\n      pop\n        /* \"#utility.yul\":895:1012   */\n      pop\n        /* \"#utility.yul\":690:1019   */\n      swap3\n      swap2\n      pop\n      pop\n      jump\t// out\n        /* \"#utility.yul\":1025:1151   */\n    tag_28:\n        /* \"#utility.yul\":1062:1069   */\n      0x00\n        /* \"#utility.yul\":1102:1144   */\n      0xffffffffffffffffffffffffffffffffffffffff\n        /* \"#utility.yul\":1095:1100   */\n      dup3\n        /* \"#utility.yul\":1091:1145   */\n      and\n        /* \"#utility.yul\":1080:1145   */\n      swap1\n      pop\n        /* \"#utility.yul\":1025:1151   */\n      swap2\n      swap1\n      pop\n      jump\t// out\n        /* \"#utility.yul\":1157:1217   */\n    tag_29:\n        /* \"#utility.yul\":1185:1188   */\n      0x00\n        /* \"#utility.yul\":1206:1211   */\n      dup2\n        /* \"#utility.yul\":1199:1211   */\n      swap1\n      pop\n        /* \"#utility.yul\":1157:1217   */\n      swap2\n      swap1\n      pop\n      jump\t// out\n        /* \"#utility.yul\":1223:1365   */\n    tag_30:\n        /* \"#utility.yul\":1273:1282   */\n      0x00\n        /* \"#utility.yul\":1306:1359   */\n      tag_53\n        /* \"#utility.yul\":1324:1358   */\n      tag_54\n        /* \"#utility.yul\":1333:1357   */\n      tag_55\n        /* \"#utility.yul\":1351:1356   */\n      dup5\n        /* \"#utility.yul\":1333:1357   */\n      tag_28\n      jump\t// in\n    tag_55:\n        /* \"#utility.yul\":1324:1358   */\n      tag_29\n      jump\t// in\n    tag_54:\n        /* \"#utility.yul\":1306:1359   */\n      tag_28\n      jump\t// in\n    tag_53:\n        /* \"#utility.yul\":1293:1359   */\n      swap1\n      pop\n        /* \"#utility.yul\":1223:1365   */\n      swap2\n      swap1\n      pop\n      jump\t// out\n        /* \"#utility.yul\":1371:1497   */\n    tag_31:\n        /* \"#utility.yul\":1421:1430   */\n      0x00\n        /* \"#utility.yul\":1454:1491   */\n      tag_57\n        /* \"#utility.yul\":1485:1490   */\n      dup3\n        /* \"#utility.yul\":1454:1491   */\n      tag_30\n      jump\t// in\n    tag_57:\n        /* \"#utility.yul\":1441:1491   */\n      swap1\n      pop\n        /* \"#utility.yul\":1371:1497   */\n      swap2\n      swap1\n      pop\n      jump\t// out\n        /* \"#utility.yul\":1503:1644   */\n    tag_32:\n        /* \"#utility.yul\":1568:1577   */\n      0x00\n        /* \"#utility.yul\":1601:1638   */\n      tag_59\n        /* \"#utility.yul\":1632:1637   */\n      dup3\n        /* \"#utility.yul\":1601:1638   */\n      tag_31\n      jump\t// in\n    tag_59:\n        /* \"#utility.yul\":1588:1638   */\n      swap1\n      pop\n        /* \"#utility.yul\":1503:1644   */\n      swap2\n      swap1\n      pop\n      jump\t// out\n        /* \"#utility.yul\":1650:1811   */\n    tag_33:\n        /* \"#utility.yul\":1752:1804   */\n      tag_61\n        /* \"#utility.yul\":1798:1803   */\n      dup2\n        /* \"#utility.yul\":1752:1804   */\n      tag_32\n      jump\t// in\n    tag_61:\n        /* \"#utility.yul\":1747:1750   */\n      dup3\n        /* \"#utility.yul\":1740:1805   */\n      mstore\n        /* \"#utility.yul\":1650:1811   */\n      pop\n      pop\n      jump\t// out\n        /* \"#utility.yul\":1817:2069   */\n    tag_10:\n        /* \"#utility.yul\":1925:1929   */\n      0x00\n        /* \"#utility.yul\":1963:1965   */\n      0x20\n        /* \"#utility.yul\":1952:1961   */\n      dup3\n        /* \"#utility.yul\":1948:1966   */\n      add\n        /* \"#utility.yul\":1940:1966   */\n      swap1\n      pop\n        /* \"#utility.yul\":1976:2062   */\n      tag_63\n        /* \"#utility.yul\":2059:2060   */\n      0x00\n        /* \"#utility.yul\":2048:2057   */\n      dup4\n        /* \"#utility.yul\":2044:2061   */\n      add\n        /* \"#utility.yul\":2035:2041   */\n      dup5\n        /* \"#utility.yul\":1976:2062   */\n      tag_33\n      jump\t// in\n    tag_63:\n        /* \"#utility.yul\":1817:2069   */\n      swap3\n      swap2\n      pop\n      pop\n      jump\t// out\n        /* \"#utility.yul\":2075:2171   */\n    tag_34:\n        /* \"#utility.yul\":2112:2119   */\n      0x00\n        /* \"#utility.yul\":2141:2165   */\n      tag_65\n        /* \"#utility.yul\":2159:2164   */\n      dup3\n        /* \"#utility.yul\":2141:2165   */\n      tag_28\n      jump\t// in\n    tag_65:\n        /* \"#utility.yul\":2130:2165   */\n      swap1\n      pop\n        /* \"#utility.yul\":2075:2171   */\n      swap2\n      swap1\n      pop\n      jump\t// out\n        /* \"#utility.yul\":2177:2295   */\n    tag_35:\n        /* \"#utility.yul\":2264:2288   */\n      tag_67\n        /* \"#utility.yul\":2282:2287   */\n      dup2\n        /* \"#utility.yul\":2264:2288   */\n      tag_34\n      jump\t// in\n    tag_67:\n        /* \"#utility.yul\":2259:2262   */\n      dup3\n        /* \"#utility.yul\":2252:2289   */\n      mstore\n        /* \"#utility.yul\":2177:2295   */\n      pop\n      pop\n      jump\t// out\n        /* \"#utility.yul\":2301:2523   */\n    tag_19:\n        /* \"#utility.yul\":2394:2398   */\n      0x00\n        /* \"#utility.yul\":2432:2434   */\n      0x20\n        /* \"#utility.yul\":2421:2430   */\n      dup3\n        /* \"#utility.yul\":2417:2435   */\n      add\n        /* \"#utility.yul\":2409:2435   */\n      swap1\n      pop\n        /* \"#utility.yul\":2445:2516   */\n      tag_69\n        /* \"#utility.yul\":2513:2514   */\n      0x00\n        /* \"#utility.yul\":2502:2511   */\n      dup4\n        /* \"#utility.yul\":2498:2515   */\n      add\n        /* \"#utility.yul\":2489:2495   */\n      dup5\n        /* \"#utility.yul\":2445:2516   */\n      tag_35\n      jump\t// in\n    tag_69:\n        /* \"#utility.yul\":2301:2523   */\n      swap3\n      swap2\n      pop\n      pop\n      jump\t// out\n    stop\n\n    sub_0: assembly {\n            /* \"Auction.sol\":254:3509  contract Auction {... */\n          mstore(0x40, 0x80)\n            /* \"Auction.sol\":685:916  constructor (address eoa) {... */\n          callvalue\n          dup1\n          iszero\n          tag_1\n          jumpi\n          0x00\n          dup1\n          revert\n        tag_1:\n          pop\n          mload(0x40)\n          sub(codesize, bytecodeSize)\n          dup1\n          bytecodeSize\n          dup4\n          codecopy\n          dup2\n          dup2\n          add\n          0x40\n          mstore\n          dup2\n          add\n          swap1\n          tag_2\n          swap2\n          swap1\n          tag_3\n          jump\t// in\n        tag_2:\n            /* \"Auction.sol\":738:741  eoa */\n          dup1\n            /* \"Auction.sol\":722:727  owner */\n          0x00\n          dup1\n            /* \"Auction.sol\":722:742  owner = payable(eoa) */\n          0x0100\n          exp\n          dup2\n          sload\n          dup2\n          0xffffffffffffffffffffffffffffffffffffffff\n          mul\n          not\n          and\n          swap1\n          dup4\n          0xffffffffffffffffffffffffffffffffffffffff\n          and\n          mul\n          or\n          swap1\n          sstore\n          pop\n            /* \"Auction.sol\":767:780  State.Running */\n          0x01\n            /* \"Auction.sol\":753:765  auctionState */\n          0x04\n          0x00\n            /* \"Auction.sol\":753:780  auctionState= State.Running */\n          0x0100\n          exp\n          dup2\n          sload\n          dup2\n          0xff\n          mul\n          not\n          and\n          swap1\n          dup4\n          0x03\n          dup2\n          gt\n          iszero\n          tag_6\n          jumpi\n          tag_7\n          tag_8\n          jump\t// in\n        tag_7:\n        tag_6:\n          mul\n          or\n          swap1\n          sstore\n          pop\n            /* \"Auction.sol\":803:815  block.number */\n          number\n            /* \"Auction.sol\":791:801  startBlock */\n          0x01\n            /* \"Auction.sol\":791:815  startBlock= block.number */\n          dup2\n          swap1\n          sstore\n          pop\n            /* \"Auction.sol\":849:850  3 */\n          0x03\n            /* \"Auction.sol\":836:846  startBlock */\n          sload(0x01)\n            /* \"Auction.sol\":836:850  startBlock + 3 */\n          tag_9\n          swap2\n          swap1\n          tag_10\n          jump\t// in\n        tag_9:\n            /* \"Auction.sol\":826:834  endBlock */\n          0x02\n            /* \"Auction.sol\":826:850  endBlock= startBlock + 3 */\n          dup2\n          swap1\n          sstore\n          pop\n            /* \"Auction.sol\":861:873  ipfsHash= \"\" */\n          mload(0x40)\n          dup1\n          0x20\n          add\n          0x40\n          mstore\n          dup1\n          0x00\n          dup2\n          mstore\n          pop\n            /* \"Auction.sol\":861:869  ipfsHash */\n          0x03\n            /* \"Auction.sol\":861:873  ipfsHash= \"\" */\n          swap1\n          dup2\n          tag_11\n          swap2\n          swap1\n          tag_12\n          jump\t// in\n        tag_11:\n          pop\n            /* \"Auction.sol\":898:908  1000000000 */\n          0x3b9aca00\n            /* \"Auction.sol\":884:896  bidIncrement */\n          0x08\n            /* \"Auction.sol\":884:908  bidIncrement= 1000000000 */\n          dup2\n          swap1\n          sstore\n          pop\n            /* \"Auction.sol\":685:916  constructor (address eoa) {... */\n          pop\n            /* \"Auction.sol\":254:3509  contract Auction {... */\n          jump(tag_13)\n            /* \"#utility.yul\":88:205   */\n        tag_15:\n            /* \"#utility.yul\":197:198   */\n          0x00\n            /* \"#utility.yul\":194:195   */\n          dup1\n            /* \"#utility.yul\":187:199   */\n          revert\n            /* \"#utility.yul\":334:460   */\n        tag_17:\n            /* \"#utility.yul\":371:378   */\n          0x00\n            /* \"#utility.yul\":411:453   */\n          0xffffffffffffffffffffffffffffffffffffffff\n            /* \"#utility.yul\":404:409   */\n          dup3\n            /* \"#utility.yul\":400:454   */\n          and\n            /* \"#utility.yul\":389:454   */\n          swap1\n          pop\n            /* \"#utility.yul\":334:460   */\n          swap2\n          swap1\n          pop\n          jump\t// out\n            /* \"#utility.yul\":466:562   */\n        tag_18:\n            /* \"#utility.yul\":503:510   */\n          0x00\n            /* \"#utility.yul\":532:556   */\n          tag_48\n            /* \"#utility.yul\":550:555   */\n          dup3\n            /* \"#utility.yul\":532:556   */\n          tag_17\n          jump\t// in\n        tag_48:\n            /* \"#utility.yul\":521:556   */\n          swap1\n          pop\n            /* \"#utility.yul\":466:562   */\n          swap2\n          swap1\n          pop\n          jump\t// out\n            /* \"#utility.yul\":568:690   */\n        tag_19:\n            /* \"#utility.yul\":641:665   */\n          tag_50\n            /* \"#utility.yul\":659:664   */\n          dup2\n            /* \"#utility.yul\":641:665   */\n          tag_18\n          jump\t// in\n        tag_50:\n            /* \"#utility.yul\":634:639   */\n          dup2\n            /* \"#utility.yul\":631:666   */\n          eq\n            /* \"#utility.yul\":621:684   */\n          tag_51\n          jumpi\n            /* \"#utility.yul\":680:681   */\n          0x00\n            /* \"#utility.yul\":677:678   */\n          dup1\n            /* \"#utility.yul\":670:682   */\n          revert\n            /* \"#utility.yul\":621:684   */\n        tag_51:\n            /* \"#utility.yul\":568:690   */\n          pop\n          jump\t// out\n            /* \"#utility.yul\":696:839   */\n        tag_20:\n            /* \"#utility.yul\":753:758   */\n          0x00\n            /* \"#utility.yul\":784:790   */\n          dup2\n            /* \"#utility.yul\":778:791   */\n          mload\n            /* \"#utility.yul\":769:791   */\n          swap1\n          pop\n            /* \"#utility.yul\":800:833   */\n          tag_53\n            /* \"#utility.yul\":827:832   */\n          dup2\n            /* \"#utility.yul\":800:833   */\n          tag_19\n          jump\t// in\n        tag_53:\n            /* \"#utility.yul\":696:839   */\n          swap3\n          swap2\n          pop\n          pop\n          jump\t// out\n            /* \"#utility.yul\":845:1196   */\n        tag_3:\n            /* \"#utility.yul\":915:921   */\n          0x00\n            /* \"#utility.yul\":964:966   */\n          0x20\n            /* \"#utility.yul\":952:961   */\n          dup3\n            /* \"#utility.yul\":943:950   */\n          dup5\n            /* \"#utility.yul\":939:962   */\n          sub\n            /* \"#utility.yul\":935:967   */\n          slt\n            /* \"#utility.yul\":932:1051   */\n          iszero\n          tag_55\n          jumpi\n            /* \"#utility.yul\":970:1049   */\n          tag_56\n          tag_15\n          jump\t// in\n        tag_56:\n            /* \"#utility.yul\":932:1051   */\n        tag_55:\n            /* \"#utility.yul\":1090:1091   */\n          0x00\n            /* \"#utility.yul\":1115:1179   */\n          tag_57\n            /* \"#utility.yul\":1171:1178   */\n          dup5\n            /* \"#utility.yul\":1162:1168   */\n          dup3\n            /* \"#utility.yul\":1151:1160   */\n          dup6\n            /* \"#utility.yul\":1147:1169   */\n          add\n            /* \"#utility.yul\":1115:1179   */\n          tag_20\n          jump\t// in\n        tag_57:\n            /* \"#utility.yul\":1105:1179   */\n          swap2\n          pop\n            /* \"#utility.yul\":1061:1189   */\n          pop\n            /* \"#utility.yul\":845:1196   */\n          swap3\n          swap2\n          pop\n          pop\n          jump\t// out\n            /* \"#utility.yul\":1202:1382   */\n        tag_8:\n            /* \"#utility.yul\":1250:1327   */\n          0x4e487b7100000000000000000000000000000000000000000000000000000000\n            /* \"#utility.yul\":1247:1248   */\n          0x00\n            /* \"#utility.yul\":1240:1328   */\n          mstore\n            /* \"#utility.yul\":1347:1351   */\n          0x21\n            /* \"#utility.yul\":1344:1345   */\n          0x04\n            /* \"#utility.yul\":1337:1352   */\n          mstore\n            /* \"#utility.yul\":1371:1375   */\n          0x24\n            /* \"#utility.yul\":1368:1369   */\n          0x00\n            /* \"#utility.yul\":1361:1376   */\n          revert\n            /* \"#utility.yul\":1388:1465   */\n        tag_21:\n            /* \"#utility.yul\":1425:1432   */\n          0x00\n            /* \"#utility.yul\":1454:1459   */\n          dup2\n            /* \"#utility.yul\":1443:1459   */\n          swap1\n          pop\n            /* \"#utility.yul\":1388:1465   */\n          swap2\n          swap1\n          pop\n          jump\t// out\n            /* \"#utility.yul\":1471:1651   */\n        tag_22:\n            /* \"#utility.yul\":1519:1596   */\n          0x4e487b7100000000000000000000000000000000000000000000000000000000\n            /* \"#utility.yul\":1516:1517   */\n          0x00\n            /* \"#utility.yul\":1509:1597   */\n          mstore\n            /* \"#utility.yul\":1616:1620   */\n          0x11\n            /* \"#utility.yul\":1613:1614   */\n          0x04\n            /* \"#utility.yul\":1606:1621   */\n          mstore\n            /* \"#utility.yul\":1640:1644   */\n          0x24\n            /* \"#utility.yul\":1637:1638   */\n          0x00\n            /* \"#utility.yul\":1630:1645   */\n          revert\n            /* \"#utility.yul\":1657:1848   */\n        tag_10:\n            /* \"#utility.yul\":1697:1700   */\n          0x00\n            /* \"#utility.yul\":1716:1736   */\n          tag_62\n            /* \"#utility.yul\":1734:1735   */\n          dup3\n            /* \"#utility.yul\":1716:1736   */\n          tag_21\n          jump\t// in\n        tag_62:\n            /* \"#utility.yul\":1711:1736   */\n          swap2\n          pop\n            /* \"#utility.yul\":1750:1770   */\n          tag_63\n            /* \"#utility.yul\":1768:1769   */\n          dup4\n            /* \"#utility.yul\":1750:1770   */\n          tag_21\n          jump\t// in\n        tag_63:\n            /* \"#utility.yul\":1745:1770   */\n          swap3\n          pop\n            /* \"#utility.yul\":1793:1794   */\n          dup3\n            /* \"#utility.yul\":1790:1791   */\n          dup3\n            /* \"#utility.yul\":1786:1795   */\n          add\n            /* \"#utility.yul\":1779:1795   */\n          swap1\n          pop\n            /* \"#utility.yul\":1814:1817   */\n          dup1\n            /* \"#utility.yul\":1811:1812   */\n          dup3\n            /* \"#utility.yul\":1808:1818   */\n          gt\n            /* \"#utility.yul\":1805:1841   */\n          iszero\n          tag_64\n          jumpi\n            /* \"#utility.yul\":1821:1839   */\n          tag_65\n          tag_22\n          jump\t// in\n        tag_65:\n            /* \"#utility.yul\":1805:1841   */\n        tag_64:\n            /* \"#utility.yul\":1657:1848   */\n          swap3\n          swap2\n          pop\n          pop\n          jump\t// out\n            /* \"#utility.yul\":1854:1953   */\n        tag_23:\n            /* \"#utility.yul\":1906:1912   */\n          0x00\n            /* \"#utility.yul\":1940:1945   */\n          dup2\n            /* \"#utility.yul\":1934:1946   */\n          mload\n            /* \"#utility.yul\":1924:1946   */\n          swap1\n          pop\n            /* \"#utility.yul\":1854:1953   */\n          swap2\n          swap1\n          pop\n          jump\t// out\n            /* \"#utility.yul\":1959:2139   */\n        tag_24:\n            /* \"#utility.yul\":2007:2084   */\n          0x4e487b7100000000000000000000000000000000000000000000000000000000\n            /* \"#utility.yul\":2004:2005   */\n          0x00\n            /* \"#utility.yul\":1997:2085   */\n          mstore\n            /* \"#utility.yul\":2104:2108   */\n          0x41\n            /* \"#utility.yul\":2101:2102   */\n          0x04\n            /* \"#utility.yul\":2094:2109   */\n          mstore\n            /* \"#utility.yul\":2128:2132   */\n          0x24\n            /* \"#utility.yul\":2125:2126   */\n          0x00\n            /* \"#utility.yul\":2118:2133   */\n          revert\n            /* \"#utility.yul\":2145:2325   */\n        tag_25:\n            /* \"#utility.yul\":2193:2270   */\n          0x4e487b7100000000000000000000000000000000000000000000000000000000\n            /* \"#utility.yul\":2190:2191   */\n          0x00\n            /* \"#utility.yul\":2183:2271   */\n          mstore\n            /* \"#utility.yul\":2290:2294   */\n          0x22\n            /* \"#utility.yul\":2287:2288   */\n          0x04\n            /* \"#utility.yul\":2280:2295   */\n          mstore\n            /* \"#utility.yul\":2314:2318   */\n          0x24\n            /* \"#utility.yul\":2311:2312   */\n          0x00\n            /* \"#utility.yul\":2304:2319   */\n          revert\n            /* \"#utility.yul\":2331:2651   */\n        tag_26:\n            /* \"#utility.yul\":2375:2381   */\n          0x00\n            /* \"#utility.yul\":2412:2413   */\n          0x02\n            /* \"#utility.yul\":2406:2410   */\n          dup3\n            /* \"#utility.yul\":2402:2414   */\n          div\n            /* \"#utility.yul\":2392:2414   */\n          swap1\n          pop\n            /* \"#utility.yul\":2459:2460   */\n          0x01\n            /* \"#utility.yul\":2453:2457   */\n          dup3\n            /* \"#utility.yul\":2449:2461   */\n          and\n            /* \"#utility.yul\":2480:2498   */\n          dup1\n            /* \"#utility.yul\":2470:2551   */\n          tag_70\n          jumpi\n            /* \"#utility.yul\":2536:2540   */\n          0x7f\n            /* \"#utility.yul\":2528:2534   */\n          dup3\n            /* \"#utility.yul\":2524:2541   */\n          and\n            /* \"#utility.yul\":2514:2541   */\n          swap2\n          pop\n            /* \"#utility.yul\":2470:2551   */\n        tag_70:\n            /* \"#utility.yul\":2598:2600   */\n          0x20\n            /* \"#utility.yul\":2590:2596   */\n          dup3\n            /* \"#utility.yul\":2587:2601   */\n          lt\n            /* \"#utility.yul\":2567:2585   */\n          dup2\n            /* \"#utility.yul\":2564:2602   */\n          sub\n            /* \"#utility.yul\":2561:2645   */\n          tag_71\n          jumpi\n            /* \"#utility.yul\":2617:2635   */\n          tag_72\n          tag_25\n          jump\t// in\n        tag_72:\n            /* \"#utility.yul\":2561:2645   */\n        tag_71:\n            /* \"#utility.yul\":2382:2651   */\n          pop\n            /* \"#utility.yul\":2331:2651   */\n          swap2\n          swap1\n          pop\n          jump\t// out\n            /* \"#utility.yul\":2657:2798   */\n        tag_27:\n            /* \"#utility.yul\":2706:2710   */\n          0x00\n            /* \"#utility.yul\":2729:2732   */\n          dup2\n            /* \"#utility.yul\":2721:2732   */\n          swap1\n          pop\n            /* \"#utility.yul\":2752:2755   */\n          dup2\n            /* \"#utility.yul\":2749:2750   */\n          0x00\n            /* \"#utility.yul\":2742:2756   */\n          mstore\n            /* \"#utility.yul\":2786:2790   */\n          0x20\n            /* \"#utility.yul\":2783:2784   */\n          0x00\n            /* \"#utility.yul\":2773:2791   */\n          keccak256\n            /* \"#utility.yul\":2765:2791   */\n          swap1\n          pop\n            /* \"#utility.yul\":2657:2798   */\n          swap2\n          swap1\n          pop\n          jump\t// out\n            /* \"#utility.yul\":2804:2897   */\n        tag_28:\n            /* \"#utility.yul\":2841:2847   */\n          0x00\n            /* \"#utility.yul\":2888:2890   */\n          0x20\n            /* \"#utility.yul\":2883:2885   */\n          0x1f\n            /* \"#utility.yul\":2876:2881   */\n          dup4\n            /* \"#utility.yul\":2872:2886   */\n          add\n            /* \"#utility.yul\":2868:2891   */\n          div\n            /* \"#utility.yul\":2858:2891   */\n          swap1\n          pop\n            /* \"#utility.yul\":2804:2897   */\n          swap2\n          swap1\n          pop\n          jump\t// out\n            /* \"#utility.yul\":2903:3010   */\n        tag_29:\n            /* \"#utility.yul\":2947:2955   */\n          0x00\n            /* \"#utility.yul\":2997:3002   */\n          dup3\n            /* \"#utility.yul\":2991:2995   */\n          dup3\n            /* \"#utility.yul\":2987:3003   */\n          shl\n            /* \"#utility.yul\":2966:3003   */\n          swap1\n          pop\n            /* \"#utility.yul\":2903:3010   */\n          swap3\n          swap2\n          pop\n          pop\n          jump\t// out\n            /* \"#utility.yul\":3016:3409   */\n        tag_30:\n            /* \"#utility.yul\":3085:3091   */\n          0x00\n            /* \"#utility.yul\":3135:3136   */\n          0x08\n            /* \"#utility.yul\":3123:3133   */\n          dup4\n            /* \"#utility.yul\":3119:3137   */\n          mul\n            /* \"#utility.yul\":3158:3255   */\n          tag_77\n            /* \"#utility.yul\":3188:3254   */\n          0xffffffffffffffffffffffffffffffffffffffffffffffffffffffffffffffff\n            /* \"#utility.yul\":3177:3186   */\n          dup3\n            /* \"#utility.yul\":3158:3255   */\n          tag_29\n          jump\t// in\n        tag_77:\n            /* \"#utility.yul\":3276:3315   */\n          tag_78\n            /* \"#utility.yul\":3306:3314   */\n          dup7\n            /* \"#utility.yul\":3295:3304   */\n          dup4\n            /* \"#utility.yul\":3276:3315   */\n          tag_29\n          jump\t// in\n        tag_78:\n            /* \"#utility.yul\":3264:3315   */\n          swap6\n          pop\n            /* \"#utility.yul\":3348:3352   */\n          dup1\n            /* \"#utility.yul\":3344:3353   */\n          not\n            /* \"#utility.yul\":3337:3342   */\n          dup5\n            /* \"#utility.yul\":3333:3354   */\n          and\n            /* \"#utility.yul\":3324:3354   */\n          swap4\n          pop\n            /* \"#utility.yul\":3397:3401   */\n          dup1\n            /* \"#utility.yul\":3387:3395   */\n          dup7\n            /* \"#utility.yul\":3383:3402   */\n          and\n            /* \"#utility.yul\":3376:3381   */\n          dup5\n            /* \"#utility.yul\":3373:3403   */\n          or\n            /* \"#utility.yul\":3363:3403   */\n          swap3\n          pop\n            /* \"#utility.yul\":3092:3409   */\n          pop\n          pop\n            /* \"#utility.yul\":3016:3409   */\n          swap4\n          swap3\n          pop\n          pop\n          pop\n          jump\t// out\n            /* \"#utility.yul\":3415:3475   */\n        tag_31:\n            /* \"#utility.yul\":3443:3446   */\n          0x00\n            /* \"#utility.yul\":3464:3469   */\n          dup2\n            /* \"#utility.yul\":3457:3469   */\n          swap1\n          pop\n            /* \"#utility.yul\":3415:3475   */\n          swap2\n          swap1\n          pop\n          jump\t// out\n            /* \"#utility.yul\":3481:3623   */\n        tag_32:\n            /* \"#utility.yul\":3531:3540   */\n          0x00\n            /* \"#utility.yul\":3564:3617   */\n          tag_81\n            /* \"#utility.yul\":3582:3616   */\n          tag_82\n            /* \"#utility.yul\":3591:3615   */\n          tag_83\n            /* \"#utility.yul\":3609:3614   */\n          dup5\n            /* \"#utility.yul\":3591:3615   */\n          tag_21\n          jump\t// in\n        tag_83:\n            /* \"#utility.yul\":3582:3616   */\n          tag_31\n          jump\t// in\n        tag_82:\n            /* \"#utility.yul\":3564:3617   */\n          tag_21\n          jump\t// in\n        tag_81:\n            /* \"#utility.yul\":3551:3617   */\n          swap1\n          pop\n            /* \"#utility.yul\":3481:3623   */\n          swap2\n          swap1\n          pop\n          jump\t// out\n            /* \"#utility.yul\":3629:3704   */\n        tag_33:\n            /* \"#utility.yul\":3672:3675   */\n          0x00\n            /* \"#utility.yul\":3693:3698   */\n          dup2\n            /* \"#utility.yul\":3686:3698   */\n          swap1\n          pop\n            /* \"#utility.yul\":3629:3704   */\n          swap2\n          swap1\n          pop\n          jump\t// out\n            /* \"#utility.yul\":3710:3979   */\n        tag_34:\n            /* \"#utility.yul\":3820:3859   */\n          tag_86\n            /* \"#utility.yul\":3851:3858   */\n          dup4\n            /* \"#utility.yul\":3820:3859   */\n          tag_32\n          jump\t// in\n        tag_86:\n            /* \"#utility.yul\":3881:3972   */\n          tag_87\n            /* \"#utility.yul\":3930:3971   */\n          tag_88\n            /* \"#utility.yul\":3954:3970   */\n          dup3\n            /* \"#utility.yul\":3930:3971   */\n          tag_33\n          jump\t// in\n        tag_88:\n            /* \"#utility.yul\":3922:3928   */\n          dup5\n            /* \"#utility.yul\":3915:3919   */\n          dup5\n            /* \"#utility.yul\":3909:3920   */\n          sload\n            /* \"#utility.yul\":3881:3972   */\n          tag_30\n          jump\t// in\n        tag_87:\n            /* \"#utility.yul\":3875:3879   */\n          dup3\n            /* \"#utility.yul\":3868:3973   */\n          sstore\n            /* \"#utility.yul\":3786:3979   */\n          pop\n            /* \"#utility.yul\":3710:3979   */\n          pop\n          pop\n          pop\n          jump\t// out\n            /* \"#utility.yul\":3985:4058   */\n        tag_35:\n            /* \"#utility.yul\":4030:4033   */\n          0x00\n            /* \"#utility.yul\":3985:4058   */\n          swap1\n          jump\t// out\n            /* \"#utility.yul\":4064:4253   */\n        tag_36:\n            /* \"#utility.yul\":4141:4173   */\n          tag_91\n          tag_35\n          jump\t// in\n        tag_91:\n            /* \"#utility.yul\":4182:4247   */\n          tag_92\n            /* \"#utility.yul\":4240:4246   */\n          dup2\n            /* \"#utility.yul\":4232:4238   */\n          dup5\n            /* \"#utility.yul\":4226:4230   */\n          dup5\n            /* \"#utility.yul\":4182:4247   */\n          tag_34\n          jump\t// in\n        tag_92:\n            /* \"#utility.yul\":4117:4253   */\n          pop\n            /* \"#utility.yul\":4064:4253   */\n          pop\n          pop\n          jump\t// out\n            /* \"#utility.yul\":4259:4445   */\n        tag_37:\n            /* \"#utility.yul\":4319:4439   */\n        tag_94:\n            /* \"#utility.yul\":4336:4339   */\n          dup2\n            /* \"#utility.yul\":4329:4334   */\n          dup2\n            /* \"#utility.yul\":4326:4340   */\n          lt\n            /* \"#utility.yul\":4319:4439   */\n          iszero\n          tag_96\n          jumpi\n            /* \"#utility.yul\":4390:4429   */\n          tag_97\n            /* \"#utility.yul\":4427:4428   */\n          0x00\n            /* \"#utility.yul\":4420:4425   */\n          dup3\n            /* \"#utility.yul\":4390:4429   */\n          tag_36\n          jump\t// in\n        tag_97:\n            /* \"#utility.yul\":4363:4364   */\n          0x01\n            /* \"#utility.yul\":4356:4361   */\n          dup2\n            /* \"#utility.yul\":4352:4365   */\n          add\n            /* \"#utility.yul\":4343:4365   */\n          swap1\n          pop\n            /* \"#utility.yul\":4319:4439   */\n          jump(tag_94)\n        tag_96:\n            /* \"#utility.yul\":4259:4445   */\n          pop\n          pop\n          jump\t// out\n            /* \"#utility.yul\":4451:4994   */\n        tag_38:\n            /* \"#utility.yul\":4552:4554   */\n          0x1f\n            /* \"#utility.yul\":4547:4550   */\n          dup3\n            /* \"#utility.yul\":4544:4555   */\n          gt\n            /* \"#utility.yul\":4541:4987   */\n          iszero\n          tag_99\n          jumpi\n            /* \"#utility.yul\":4586:4624   */\n          tag_100\n            /* \"#utility.yul\":4618:4623   */\n          dup2\n            /* \"#utility.yul\":4586:4624   */\n          tag_27\n          jump\t// in\n        tag_100:\n            /* \"#utility.yul\":4670:4699   */\n          tag_101\n            /* \"#utility.yul\":4688:4698   */\n          dup5\n            /* \"#utility.yul\":4670:4699   */\n          tag_28\n          jump\t// in\n        tag_101:\n            /* \"#utility.yul\":4660:4668   */\n          dup2\n            /* \"#utility.yul\":4656:4700   */\n          add\n            /* \"#utility.yul\":4853:4855   */\n          0x20\n            /* \"#utility.yul\":4841:4851   */\n          dup6\n            /* \"#utility.yul\":4838:4856   */\n          lt\n            /* \"#utility.yul\":4835:4884   */\n          iszero\n          tag_102\n          jumpi\n            /* \"#utility.yul\":4874:4882   */\n          dup2\n            /* \"#utility.yul\":4859:4882   */\n          swap1\n          pop\n            /* \"#utility.yul\":4835:4884   */\n        tag_102:\n            /* \"#utility.yul\":4897:4977   */\n          tag_103\n            /* \"#utility.yul\":4953:4975   */\n          tag_104\n            /* \"#utility.yul\":4971:4974   */\n          dup6\n            /* \"#utility.yul\":4953:4975   */\n          tag_28\n          jump\t// in\n        tag_104:\n            /* \"#utility.yul\":4943:4951   */\n          dup4\n            /* \"#utility.yul\":4939:4976   */\n          add\n            /* \"#utility.yul\":4926:4937   */\n          dup3\n            /* \"#utility.yul\":4897:4977   */\n          tag_37\n          jump\t// in\n        tag_103:\n            /* \"#utility.yul\":4556:4987   */\n          pop\n          pop\n            /* \"#utility.yul\":4541:4987   */\n        tag_99:\n            /* \"#utility.yul\":4451:4994   */\n          pop\n          pop\n          pop\n          jump\t// out\n            /* \"#utility.yul\":5000:5117   */\n        tag_39:\n            /* \"#utility.yul\":5054:5062   */\n          0x00\n            /* \"#utility.yul\":5104:5109   */\n          dup3\n            /* \"#utility.yul\":5098:5102   */\n          dup3\n            /* \"#utility.yul\":5094:5110   */\n          shr\n            /* \"#utility.yul\":5073:5110   */\n          swap1\n          pop\n            /* \"#utility.yul\":5000:5117   */\n          swap3\n          swap2\n          pop\n          pop\n          jump\t// out\n            /* \"#utility.yul\":5123:5292   */\n        tag_40:\n            /* \"#utility.yul\":5167:5173   */\n          0x00\n            /* \"#utility.yul\":5200:5251   */\n          tag_107\n            /* \"#utility.yul\":5248:5249   */\n          0x00\n            /* \"#utility.yul\":5244:5250   */\n          not\n            /* \"#utility.yul\":5236:5241   */\n          dup5\n            /* \"#utility.yul\":5233:5234   */\n          0x08\n            /* \"#utility.yul\":5229:5242   */\n          mul\n            /* \"#utility.yul\":5200:5251   */\n          tag_39\n          jump\t// in\n        tag_107:\n            /* \"#utility.yul\":5196:5252   */\n          not\n            /* \"#utility.yul\":5281:5285   */\n          dup1\n            /* \"#utility.yul\":5275:5279   */\n          dup4\n            /* \"#utility.yul\":5271:5286   */\n          and\n            /* \"#utility.yul\":5261:5286   */\n          swap2\n          pop\n            /* \"#utility.yul\":5174:5292   */\n          pop\n            /* \"#utility.yul\":5123:5292   */\n          swap3\n          swap2\n          pop\n          pop\n          jump\t// out\n            /* \"#utility.yul\":5297:5592   */\n        tag_41:\n            /* \"#utility.yul\":5373:5377   */\n          0x00\n            /* \"#utility.yul\":5519:5548   */\n          tag_109\n            /* \"#utility.yul\":5544:5547   */\n          dup4\n            /* \"#utility.yul\":5538:5542   */\n          dup4\n            /* \"#utility.yul\":5519:5548   */\n          tag_40\n          jump\t// in\n        tag_109:\n            /* \"#utility.yul\":5511:5548   */\n          swap2\n          pop\n            /* \"#utility.yul\":5581:5584   */\n          dup3\n            /* \"#utility.yul\":5578:5579   */\n          0x02\n            /* \"#utility.yul\":5574:5585   */\n          mul\n            /* \"#utility.yul\":5568:5572   */\n          dup3\n            /* \"#utility.yul\":5565:5586   */\n          or\n            /* \"#utility.yul\":5557:5586   */\n          swap1\n          pop\n            /* \"#utility.yul\":5297:5592   */\n          swap3\n          swap2\n          pop\n          pop\n          jump\t// out\n            /* \"#utility.yul\":5597:6992   */\n        tag_12:\n            /* \"#utility.yul\":5714:5751   */\n          tag_111\n            /* \"#utility.yul\":5747:5750   */\n          dup3\n            /* \"#utility.yul\":5714:5751   */\n          tag_23\n          jump\t// in\n        tag_111:\n            /* \"#utility.yul\":5816:5834   */\n          0xffffffffffffffff\n            /* \"#utility.yul\":5808:5814   */\n          dup2\n            /* \"#utility.yul\":5805:5835   */\n          gt\n            /* \"#utility.yul\":5802:5858   */\n          iszero\n          tag_112\n          jumpi\n            /* \"#utility.yul\":5838:5856   */\n          tag_113\n          tag_24\n          jump\t// in\n        tag_113:\n            /* \"#utility.yul\":5802:5858   */\n        tag_112:\n            /* \"#utility.yul\":5882:5920   */\n          tag_114\n            /* \"#utility.yul\":5914:5918   */\n          dup3\n            /* \"#utility.yul\":5908:5919   */\n          sload\n            /* \"#utility.yul\":5882:5920   */\n          tag_26\n          jump\t// in\n        tag_114:\n            /* \"#utility.yul\":5967:6034   */\n          tag_115\n            /* \"#utility.yul\":6027:6033   */\n          dup3\n            /* \"#utility.yul\":6019:6025   */\n          dup3\n            /* \"#utility.yul\":6013:6017   */\n          dup6\n            /* \"#utility.yul\":5967:6034   */\n          tag_38\n          jump\t// in\n        tag_115:\n            /* \"#utility.yul\":6061:6062   */\n          0x00\n            /* \"#utility.yul\":6085:6089   */\n          0x20\n            /* \"#utility.yul\":6072:6089   */\n          swap1\n          pop\n            /* \"#utility.yul\":6117:6119   */\n          0x1f\n            /* \"#utility.yul\":6109:6115   */\n          dup4\n            /* \"#utility.yul\":6106:6120   */\n          gt\n            /* \"#utility.yul\":6134:6135   */\n          0x01\n            /* \"#utility.yul\":6129:6747   */\n          dup2\n          eq\n          tag_117\n          jumpi\n            /* \"#utility.yul\":6791:6792   */\n          0x00\n            /* \"#utility.yul\":6808:6814   */\n          dup5\n            /* \"#utility.yul\":6805:6882   */\n          iszero\n          tag_118\n          jumpi\n            /* \"#utility.yul\":6857:6866   */\n          dup3\n            /* \"#utility.yul\":6852:6855   */\n          dup8\n            /* \"#utility.yul\":6848:6867   */\n          add\n            /* \"#utility.yul\":6842:6868   */\n          mload\n            /* \"#utility.yul\":6833:6868   */\n          swap1\n          pop\n            /* \"#utility.yul\":6805:6882   */\n        tag_118:\n            /* \"#utility.yul\":6908:6975   */\n          tag_119\n            /* \"#utility.yul\":6968:6974   */\n          dup6\n            /* \"#utility.yul\":6961:6966   */\n          dup3\n            /* \"#utility.yul\":6908:6975   */\n          tag_41\n          jump\t// in\n        tag_119:\n            /* \"#utility.yul\":6902:6906   */\n          dup7\n            /* \"#utility.yul\":6895:6976   */\n          sstore\n            /* \"#utility.yul\":6764:6986   */\n          pop\n            /* \"#utility.yul\":6099:6986   */\n          jump(tag_116)\n            /* \"#utility.yul\":6129:6747   */\n        tag_117:\n            /* \"#utility.yul\":6181:6185   */\n          0x1f\n            /* \"#utility.yul\":6177:6186   */\n          not\n            /* \"#utility.yul\":6169:6175   */\n          dup5\n            /* \"#utility.yul\":6165:6187   */\n          and\n            /* \"#utility.yul\":6215:6252   */\n          tag_120\n            /* \"#utility.yul\":6247:6251   */\n          dup7\n            /* \"#utility.yul\":6215:6252   */\n          tag_27\n          jump\t// in\n        tag_120:\n            /* \"#utility.yul\":6274:6275   */\n          0x00\n            /* \"#utility.yul\":6288:6496   */\n        tag_121:\n            /* \"#utility.yul\":6302:6309   */\n          dup3\n            /* \"#utility.yul\":6299:6300   */\n          dup2\n            /* \"#utility.yul\":6296:6310   */\n          lt\n            /* \"#utility.yul\":6288:6496   */\n          iszero\n          tag_123\n          jumpi\n            /* \"#utility.yul\":6381:6390   */\n          dup5\n            /* \"#utility.yul\":6376:6379   */\n          dup10\n            /* \"#utility.yul\":6372:6391   */\n          add\n            /* \"#utility.yul\":6366:6392   */\n          mload\n            /* \"#utility.yul\":6358:6364   */\n          dup3\n            /* \"#utility.yul\":6351:6393   */\n          sstore\n            /* \"#utility.yul\":6432:6433   */\n          0x01\n            /* \"#utility.yul\":6424:6430   */\n          dup3\n            /* \"#utility.yul\":6420:6434   */\n          add\n            /* \"#utility.yul\":6410:6434   */\n          swap2\n          pop\n            /* \"#utility.yul\":6479:6481   */\n          0x20\n            /* \"#utility.yul\":6468:6477   */\n          dup6\n            /* \"#utility.yul\":6464:6482   */\n          add\n            /* \"#utility.yul\":6451:6482   */\n          swap5\n          pop\n            /* \"#utility.yul\":6325:6329   */\n          0x20\n            /* \"#utility.yul\":6322:6323   */\n          dup2\n            /* \"#utility.yul\":6318:6330   */\n          add\n            /* \"#utility.yul\":6313:6330   */\n          swap1\n          pop\n            /* \"#utility.yul\":6288:6496   */\n          jump(tag_121)\n        tag_123:\n            /* \"#utility.yul\":6524:6530   */\n          dup7\n            /* \"#utility.yul\":6515:6522   */\n          dup4\n            /* \"#utility.yul\":6512:6531   */\n          lt\n            /* \"#utility.yul\":6509:6688   */\n          iszero\n          tag_124\n          jumpi\n            /* \"#utility.yul\":6582:6591   */\n          dup5\n            /* \"#utility.yul\":6577:6580   */\n          dup10\n            /* \"#utility.yul\":6573:6592   */\n          add\n            /* \"#utility.yul\":6567:6593   */\n          mload\n            /* \"#utility.yul\":6625:6673   */\n          tag_125\n            /* \"#utility.yul\":6667:6671   */\n          0x1f\n            /* \"#utility.yul\":6659:6665   */\n          dup10\n            /* \"#utility.yul\":6655:6672   */\n          and\n            /* \"#utility.yul\":6644:6653   */\n          dup3\n            /* \"#utility.yul\":6625:6673   */\n          tag_40\n          jump\t// in\n        tag_125:\n            /* \"#utility.yul\":6617:6623   */\n          dup4\n            /* \"#utility.yul\":6610:6674   */\n          sstore\n            /* \"#utility.yul\":6532:6688   */\n          pop\n            /* \"#utility.yul\":6509:6688   */\n        tag_124:\n            /* \"#utility.yul\":6734:6735   */\n          0x01\n            /* \"#utility.yul\":6730:6731   */\n          0x02\n            /* \"#utility.yul\":6722:6728   */\n          dup9\n            /* \"#utility.yul\":6718:6732   */\n          mul\n            /* \"#utility.yul\":6714:6736   */\n          add\n            /* \"#utility.yul\":6708:6712   */\n          dup9\n            /* \"#utility.yul\":6701:6737   */\n          sstore\n            /* \"#utility.yul\":6136:6747   */\n          pop\n          pop\n          pop\n            /* \"#utility.yul\":6099:6986   */\n        tag_116:\n          pop\n            /* \"#utility.yul\":5689:6992   */\n          pop\n          pop\n          pop\n            /* \"#utility.yul\":5597:6992   */\n          pop\n          pop\n          jump\t// out\n            /* \"Auction.sol\":254:3509  contract Auction {... */\n        tag_13:\n          dataSize(sub_0)\n          dup1\n          dataOffset(sub_0)\n          0x00\n          codecopy\n          0x00\n          return\n        stop\n\n        sub_0: assembly {\n                /* \"Auction.sol\":254:3509  contract Auction {... */\n              mstore(0x40, 0x80)\n              jumpi(tag_1, lt(calldatasize, 0x04))\n              shr(0xe0, calldataload(0x00))\n              dup1\n              0x91f90157\n              gt\n              tag_12\n              jumpi\n              dup1\n              0x91f90157\n              eq\n              tag_7\n              jumpi\n              dup1\n              0xc623674f\n              eq\n              tag_8\n              jumpi\n              dup1\n              0xecfc7ecc\n              eq\n              tag_9\n              jumpi\n              dup1\n              0xf5b56c56\n              eq\n              tag_10\n              jumpi\n              dup1\n              0xf77282ab\n              eq\n              tag_11\n              jumpi\n              jump(tag_1)\n            tag_12:\n              dup1\n              0x083c6323\n              eq\n              tag_2\n              jumpi\n              dup1\n              0x48cd4cb1\n              eq\n              tag_3\n              jumpi\n              dup1\n              0x7fb45099\n              eq\n              tag_4\n              jumpi\n              dup1\n              0x8da5cb5b\n              eq\n              tag_5\n              jumpi\n              dup1\n              0x8fa8b790\n              eq\n              tag_6\n              jumpi\n            tag_1:\n              0x00\n              dup1\n              revert\n                /* \"Auction.sol\":343:363  uint public endBlock */\n            tag_2:\n              callvalue\n              dup1\n              iszero\n              tag_13\n              jumpi\n              0x00\n              dup1\n              revert\n            tag_13:\n              pop\n              tag_14\n              tag_15\n              jump\t// in\n            tag_14:\n              mload(0x40)\n              tag_16\n              swap2\n              swap1\n              tag_17\n              jump\t// in\n            tag_16:\n              mload(0x40)\n              dup1\n              swap2\n              sub\n              swap1\n              return\n                /* \"Auction.sol\":314:336  uint public startBlock */\n            tag_3:\n              callvalue\n              dup1\n              iszero\n              tag_18\n              jumpi\n              0x00\n              dup1\n              revert\n            tag_18:\n              pop\n              tag_19\n              tag_20\n              jump\t// in\n            tag_19:\n              mload(0x40)\n              tag_21\n              swap2\n              swap1\n              tag_17\n              jump\t// in\n            tag_21:\n              mload(0x40)\n              dup1\n              swap2\n              sub\n              swap1\n              return\n                /* \"Auction.sol\":508:533  State public auctionState */\n            tag_4:\n              callvalue\n              dup1\n              iszero\n              tag_22\n              jumpi\n              0x00\n              dup1\n              revert\n            tag_22:\n              pop\n              tag_23\n              tag_24\n              jump\t// in\n            tag_23:\n              mload(0x40)\n              tag_25\n              swap2\n              swap1\n              tag_26\n              jump\t// in\n            tag_25:\n              mload(0x40)\n              dup1\n              swap2\n              sub\n              swap1\n              return\n                /* \"Auction.sol\":278:307  address  payable public owner */\n            tag_5:\n              callvalue\n              dup1\n              iszero\n              tag_27\n              jumpi\n              0x00\n              dup1\n              revert\n            tag_27:\n              pop\n              tag_28\n              tag_29\n              jump\t// in\n            tag_28:\n              mload(0x40)\n              tag_30\n              swap2\n              swap1\n              tag_31\n              jump\t// in\n            tag_30:\n              mload(0x40)\n              dup1\n              swap2\n              sub\n              swap1\n              return\n                /* \"Auction.sol\":1388:1478  function cancelAuction() public onlyOwner {... */\n            tag_6:\n              callvalue\n              dup1\n              iszero\n              tag_32\n              jumpi\n              0x00\n              dup1\n              revert\n            tag_32:\n              pop\n              tag_33\n              tag_34\n              jump\t// in\n            tag_33:\n              stop\n                /* \"Auction.sol\":578:614  address payable public highestBidder */\n            tag_7:\n              callvalue\n              dup1\n              iszero\n              tag_35\n              jumpi\n              0x00\n              dup1\n              revert\n            tag_35:\n              pop\n              tag_36\n              tag_37\n              jump\t// in\n            tag_36:\n              mload(0x40)\n              tag_38\n              swap2\n              swap1\n              tag_31\n              jump\t// in\n            tag_38:\n              mload(0x40)\n              dup1\n              swap2\n              sub\n              swap1\n              return\n                /* \"Auction.sol\":370:392  string public ipfsHash */\n            tag_8:\n              callvalue\n              dup1\n              iszero\n              tag_39\n              jumpi\n              0x00\n              dup1\n              revert\n            tag_39:\n              pop\n              tag_40\n              tag_41\n              jump\t// in\n            tag_40:\n              mload(0x40)\n              tag_42\n              swap2\n              swap1\n              tag_43\n              jump\t// in\n            tag_42:\n              mload(0x40)\n              dup1\n              swap2\n              sub\n              swap1\n              return\n                /* \"Auction.sol\":1486:2423  function placeBid() public payable notOwner afterStart beforeEnd {... */\n            tag_9:\n              tag_44\n              tag_45\n              jump\t// in\n            tag_44:\n              stop\n                /* \"Auction.sol\":542:571  uint public highestBindingBid */\n            tag_10:\n              callvalue\n              dup1\n              iszero\n              tag_46\n              jumpi\n              0x00\n              dup1\n              revert\n            tag_46:\n              pop\n              tag_47\n              tag_48\n              jump\t// in\n            tag_47:\n              mload(0x40)\n              tag_49\n              swap2\n              swap1\n              tag_17\n              jump\t// in\n            tag_49:\n              mload(0x40)\n              dup1\n              swap2\n              sub\n              swap1\n              return\n                /* \"Auction.sol\":2431:3506  function finalizeAuction() public {... */\n            tag_11:\n              callvalue\n              dup1\n              iszero\n              tag_50\n              jumpi\n              0x00\n              dup1\n              revert\n            tag_50:\n              pop\n              tag_51\n              tag_52\n              jump\t// in\n            tag_51:\n              stop\n                /* \"Auction.sol\":343:363  uint public endBlock */\n            tag_15:\n              sload(0x02)\n              dup2\n              jump\t// out\n                /* \"Auction.sol\":314:336  uint public startBlock */\n            tag_20:\n              sload(0x01)\n              dup2\n              jump\t// out\n                /* \"Auction.sol\":508:533  State public auctionState */\n            tag_24:\n              0x04\n              0x00\n              swap1\n              sload\n              swap1\n              0x0100\n              exp\n              swap1\n              div\n              0xff\n              and\n              dup2\n              jump\t// out\n                /* \"Auction.sol\":278:307  address  payable public owner */\n            tag_29:\n              0x00\n              dup1\n              sload\n              swap1\n              0x0100\n              exp\n              swap1\n              div\n              0xffffffffffffffffffffffffffffffffffffffff\n              and\n              dup2\n              jump\t// out\n                /* \"Auction.sol\":1388:1478  function cancelAuction() public onlyOwner {... */\n            tag_34:\n                /* \"Auction.sol\":1058:1068  msg.sender */\n              caller\n                /* \"Auction.sol\":1051:1068  owner==msg.sender */\n              0xffffffffffffffffffffffffffffffffffffffff\n              and\n                /* \"Auction.sol\":1051:1056  owner */\n              0x00\n              dup1\n              sload\n              swap1\n              0x0100\n              exp\n              swap1\n              div\n              0xffffffffffffffffffffffffffffffffffffffff\n              and\n                /* \"Auction.sol\":1051:1068  owner==msg.sender */\n              0xffffffffffffffffffffffffffffffffffffffff\n              and\n              eq\n                /* \"Auction.sol\":1043:1069  require(owner==msg.sender) */\n              tag_54\n              jumpi\n              0x00\n              dup1\n              revert\n            tag_54:\n                /* \"Auction.sol\":1456:1470  State.Canceled */\n              0x03\n                /* \"Auction.sol\":1441:1453  auctionState */\n              0x04\n              0x00\n                /* \"Auction.sol\":1441:1470  auctionState = State.Canceled */\n              0x0100\n              exp\n              dup2\n              sload\n              dup2\n              0xff\n              mul\n              not\n              and\n              swap1\n              dup4\n              0x03\n              dup2\n              gt\n              iszero\n              tag_56\n              jumpi\n              tag_57\n              tag_58\n              jump\t// in\n            tag_57:\n            tag_56:\n              mul\n              or\n              swap1\n              sstore\n              pop\n                /* \"Auction.sol\":1388:1478  function cancelAuction() public onlyOwner {... */\n              jump\t// out\n                /* \"Auction.sol\":578:614  address payable public highestBidder */\n            tag_37:\n              0x06\n              0x00\n              swap1\n              sload\n              swap1\n              0x0100\n              exp\n              swap1\n              div\n              0xffffffffffffffffffffffffffffffffffffffff\n              and\n              dup2\n              jump\t// out\n                /* \"Auction.sol\":370:392  string public ipfsHash */\n            tag_41:\n              0x03\n              dup1\n              sload\n              tag_59\n              swap1\n              tag_60\n              jump\t// in\n            tag_59:\n              dup1\n              0x1f\n              add\n              0x20\n              dup1\n              swap2\n              div\n              mul\n              0x20\n              add\n              mload(0x40)\n              swap1\n              dup2\n              add\n              0x40\n              mstore\n              dup1\n              swap3\n              swap2\n              swap1\n              dup2\n              dup2\n              mstore\n              0x20\n              add\n              dup3\n              dup1\n              sload\n              tag_61\n              swap1\n              tag_60\n              jump\t// in\n            tag_61:\n              dup1\n              iszero\n              tag_62\n              jumpi\n              dup1\n              0x1f\n              lt\n              tag_63\n              jumpi\n              0x0100\n              dup1\n              dup4\n              sload\n              div\n              mul\n              dup4\n              mstore\n              swap2\n              0x20\n              add\n              swap2\n              jump(tag_62)\n            tag_63:\n              dup3\n              add\n              swap2\n              swap1\n              0x00\n              mstore\n              keccak256(0x00, 0x20)\n              swap1\n            tag_64:\n              dup2\n              sload\n              dup2\n              mstore\n              swap1\n              0x01\n              add\n              swap1\n              0x20\n              add\n              dup1\n              dup4\n              gt\n              tag_64\n              jumpi\n              dup3\n              swap1\n              sub\n              0x1f\n              and\n              dup3\n              add\n              swap2\n            tag_62:\n              pop\n              pop\n              pop\n              pop\n              pop\n              dup2\n              jump\t// out\n                /* \"Auction.sol\":1486:2423  function placeBid() public payable notOwner afterStart beforeEnd {... */\n            tag_45:\n                /* \"Auction.sol\":972:982  msg.sender */\n              caller\n                /* \"Auction.sol\":963:982  owner != msg.sender */\n              0xffffffffffffffffffffffffffffffffffffffff\n              and\n                /* \"Auction.sol\":963:968  owner */\n              0x00\n              dup1\n              sload\n              swap1\n              0x0100\n              exp\n              swap1\n              div\n              0xffffffffffffffffffffffffffffffffffffffff\n              and\n                /* \"Auction.sol\":963:982  owner != msg.sender */\n              0xffffffffffffffffffffffffffffffffffffffff\n              and\n              sub\n                /* \"Auction.sol\":955:983  require(owner != msg.sender) */\n              tag_66\n              jumpi\n              0x00\n              dup1\n              revert\n            tag_66:\n                /* \"Auction.sol\":1151:1161  startBlock */\n              sload(0x01)\n                /* \"Auction.sol\":1135:1147  block.number */\n              number\n                /* \"Auction.sol\":1135:1161  block.number >= startBlock */\n              lt\n              iszero\n                /* \"Auction.sol\":1127:1162  require(block.number >= startBlock) */\n              tag_68\n              jumpi\n              0x00\n              dup1\n              revert\n            tag_68:\n                /* \"Auction.sol\":1247:1255  endBlock */\n              sload(0x02)\n                /* \"Auction.sol\":1231:1243  block.number */\n              number\n                /* \"Auction.sol\":1231:1255  block.number <= endBlock */\n              gt\n              iszero\n                /* \"Auction.sol\":1223:1256  require(block.number <= endBlock) */\n              tag_70\n              jumpi\n              0x00\n              dup1\n              revert\n            tag_70:\n                /* \"Auction.sol\":1586:1599  State.Running */\n              0x01\n                /* \"Auction.sol\":1570:1599  auctionState == State.Running */\n              0x03\n              dup2\n              gt\n              iszero\n              tag_72\n              jumpi\n              tag_73\n              tag_58\n              jump\t// in\n            tag_73:\n            tag_72:\n                /* \"Auction.sol\":1570:1582  auctionState */\n              0x04\n              0x00\n              swap1\n              sload\n              swap1\n              0x0100\n              exp\n              swap1\n              div\n              0xff\n              and\n                /* \"Auction.sol\":1570:1599  auctionState == State.Running */\n              0x03\n              dup2\n              gt\n              iszero\n              tag_74\n              jumpi\n              tag_75\n              tag_58\n              jump\t// in\n            tag_75:\n            tag_74:\n              eq\n                /* \"Auction.sol\":1562:1600  require(auctionState == State.Running) */\n              tag_76\n              jumpi\n              0x00\n              dup1\n              revert\n            tag_76:\n                /* \"Auction.sol\":1632:1635  100 */\n              0x64\n                /* \"Auction.sol\":1619:1628  msg.value */\n              callvalue\n                /* \"Auction.sol\":1619:1635  msg.value >= 100 */\n              lt\n              iszero\n                /* \"Auction.sol\":1611:1636  require(msg.value >= 100) */\n              tag_77\n              jumpi\n              0x00\n              dup1\n              revert\n            tag_77:\n                /* \"Auction.sol\":1649:1664  uint currentBid */\n              0x00\n                /* \"Auction.sol\":1683:1692  msg.value */\n              callvalue\n                /* \"Auction.sol\":1667:1670  bid */\n              0x07\n                /* \"Auction.sol\":1667:1682  bid[msg.sender] */\n              0x00\n                /* \"Auction.sol\":1671:1681  msg.sender */\n              caller\n                /* \"Auction.sol\":1667:1682  bid[msg.sender] */\n              0xffffffffffffffffffffffffffffffffffffffff\n              and\n              0xffffffffffffffffffffffffffffffffffffffff\n              and\n              dup2\n              mstore\n              0x20\n              add\n              swap1\n              dup2\n              mstore\n              0x20\n              add\n              0x00\n              keccak256\n              sload\n                /* \"Auction.sol\":1667:1692  bid[msg.sender]+msg.value */\n              tag_78\n              swap2\n              swap1\n              tag_79\n              jump\t// in\n            tag_78:\n                /* \"Auction.sol\":1649:1692  uint currentBid = bid[msg.sender]+msg.value */\n              swap1\n              pop\n                /* \"Auction.sol\":1781:1798  highestBindingBid */\n              sload(0x05)\n                /* \"Auction.sol\":1768:1778  currentBid */\n              dup2\n                /* \"Auction.sol\":1768:1798  currentBid > highestBindingBid */\n              gt\n                /* \"Auction.sol\":1760:1799  require(currentBid > highestBindingBid) */\n              tag_80\n              jumpi\n              0x00\n              dup1\n              revert\n            tag_80:\n                /* \"Auction.sol\":1899:1909  currentBid */\n              dup1\n                /* \"Auction.sol\":1882:1885  bid */\n              0x07\n                /* \"Auction.sol\":1882:1897  bid[msg.sender] */\n              0x00\n                /* \"Auction.sol\":1886:1896  msg.sender */\n              caller\n                /* \"Auction.sol\":1882:1897  bid[msg.sender] */\n              0xffffffffffffffffffffffffffffffffffffffff\n              and\n              0xffffffffffffffffffffffffffffffffffffffff\n              and\n              dup2\n              mstore\n              0x20\n              add\n              swap1\n              dup2\n              mstore\n              0x20\n              add\n              0x00\n              keccak256\n                /* \"Auction.sol\":1882:1909  bid[msg.sender]= currentBid */\n              dup2\n              swap1\n              sstore\n              pop\n                /* \"Auction.sol\":1985:1988  bid */\n              0x07\n                /* \"Auction.sol\":1985:2003  bid[highestBidder] */\n              0x00\n                /* \"Auction.sol\":1989:2002  highestBidder */\n              0x06\n              0x00\n              swap1\n              sload\n              swap1\n              0x0100\n              exp\n              swap1\n              div\n              0xffffffffffffffffffffffffffffffffffffffff\n              and\n                /* \"Auction.sol\":1985:2003  bid[highestBidder] */\n              0xffffffffffffffffffffffffffffffffffffffff\n              and\n              0xffffffffffffffffffffffffffffffffffffffff\n              and\n              dup2\n              mstore\n              0x20\n              add\n              swap1\n              dup2\n              mstore\n              0x20\n              add\n              0x00\n              keccak256\n              sload\n                /* \"Auction.sol\":1971:1981  currentBid */\n              dup2\n                /* \"Auction.sol\":1971:2003  currentBid <= bid[highestBidder] */\n              gt\n                /* \"Auction.sol\":1968:2416  if(currentBid <= bid[highestBidder]){... */\n              tag_81\n              jumpi\n                /* \"Auction.sol\":2120:2170  min(bid[highestBidder], bidIncrement + currentBid) */\n              tag_82\n                /* \"Auction.sol\":2124:2127  bid */\n              0x07\n                /* \"Auction.sol\":2124:2142  bid[highestBidder] */\n              0x00\n                /* \"Auction.sol\":2128:2141  highestBidder */\n              0x06\n              0x00\n              swap1\n              sload\n              swap1\n              0x0100\n              exp\n              swap1\n              div\n              0xffffffffffffffffffffffffffffffffffffffff\n              and\n                /* \"Auction.sol\":2124:2142  bid[highestBidder] */\n              0xffffffffffffffffffffffffffffffffffffffff\n              and\n              0xffffffffffffffffffffffffffffffffffffffff\n              and\n              dup2\n              mstore\n              0x20\n              add\n              swap1\n              dup2\n              mstore\n              0x20\n              add\n              0x00\n              keccak256\n              sload\n                /* \"Auction.sol\":2159:2169  currentBid */\n              dup3\n                /* \"Auction.sol\":2144:2156  bidIncrement */\n              sload(0x08)\n                /* \"Auction.sol\":2144:2169  bidIncrement + currentBid */\n              tag_83\n              swap2\n              swap1\n              tag_79\n              jump\t// in\n            tag_83:\n                /* \"Auction.sol\":2120:2123  min */\n              tag_84\n                /* \"Auction.sol\":2120:2170  min(bid[highestBidder], bidIncrement + currentBid) */\n              jump\t// in\n            tag_82:\n                /* \"Auction.sol\":2101:2118  highestBindingBid */\n              0x05\n                /* \"Auction.sol\":2101:2170  highestBindingBid= min(bid[highestBidder], bidIncrement + currentBid) */\n              dup2\n              swap1\n              sstore\n              pop\n                /* \"Auction.sol\":1968:2416  if(currentBid <= bid[highestBidder]){... */\n              jump(tag_85)\n            tag_81:\n                /* \"Auction.sol\":2305:2355  min(bid[highestBidder] + bidIncrement, currentBid) */\n              tag_86\n                /* \"Auction.sol\":2330:2342  bidIncrement */\n              sload(0x08)\n                /* \"Auction.sol\":2309:2312  bid */\n              0x07\n                /* \"Auction.sol\":2309:2327  bid[highestBidder] */\n              0x00\n                /* \"Auction.sol\":2313:2326  highestBidder */\n              0x06\n              0x00\n              swap1\n              sload\n              swap1\n              0x0100\n              exp\n              swap1\n              div\n              0xffffffffffffffffffffffffffffffffffffffff\n              and\n                /* \"Auction.sol\":2309:2327  bid[highestBidder] */\n              0xffffffffffffffffffffffffffffffffffffffff\n              and\n              0xffffffffffffffffffffffffffffffffffffffff\n              and\n              dup2\n              mstore\n              0x20\n              add\n              swap1\n              dup2\n              mstore\n              0x20\n              add\n              0x00\n              keccak256\n              sload\n                /* \"Auction.sol\":2309:2342  bid[highestBidder] + bidIncrement */\n              tag_87\n              swap2\n              swap1\n              tag_79\n              jump\t// in\n            tag_87:\n                /* \"Auction.sol\":2344:2354  currentBid */\n              dup3\n                /* \"Auction.sol\":2305:2308  min */\n              tag_84\n                /* \"Auction.sol\":2305:2355  min(bid[highestBidder] + bidIncrement, currentBid) */\n              jump\t// in\n            tag_86:\n                /* \"Auction.sol\":2286:2303  highestBindingBid */\n              0x05\n                /* \"Auction.sol\":2286:2355  highestBindingBid= min(bid[highestBidder] + bidIncrement, currentBid) */\n              dup2\n              swap1\n              sstore\n              pop\n                /* \"Auction.sol\":2393:2403  msg.sender */\n              caller\n                /* \"Auction.sol\":2370:2383  highestBidder */\n              0x06\n              0x00\n                /* \"Auction.sol\":2370:2404  highestBidder= payable(msg.sender) */\n              0x0100\n              exp\n              dup2\n              sload\n              dup2\n              0xffffffffffffffffffffffffffffffffffffffff\n              mul\n              not\n              and\n              swap1\n              dup4\n              0xffffffffffffffffffffffffffffffffffffffff\n              and\n              mul\n              or\n              swap1\n              sstore\n              pop\n                /* \"Auction.sol\":1968:2416  if(currentBid <= bid[highestBidder]){... */\n            tag_85:\n                /* \"Auction.sol\":1551:2423  {... */\n              pop\n                /* \"Auction.sol\":1486:2423  function placeBid() public payable notOwner afterStart beforeEnd {... */\n              jump\t// out\n                /* \"Auction.sol\":542:571  uint public highestBindingBid */\n            tag_48:\n              sload(0x05)\n              dup2\n              jump\t// out\n                /* \"Auction.sol\":2431:3506  function finalizeAuction() public {... */\n            tag_52:\n                /* \"Auction.sol\":2500:2514  State.Canceled */\n              0x03\n                /* \"Auction.sol\":2484:2514  auctionState == State.Canceled */\n              dup1\n              dup2\n              gt\n              iszero\n              tag_89\n              jumpi\n              tag_90\n              tag_58\n              jump\t// in\n            tag_90:\n            tag_89:\n                /* \"Auction.sol\":2484:2496  auctionState */\n              0x04\n              0x00\n              swap1\n              sload\n              swap1\n              0x0100\n              exp\n              swap1\n              div\n              0xff\n              and\n                /* \"Auction.sol\":2484:2514  auctionState == State.Canceled */\n              0x03\n              dup2\n              gt\n              iszero\n              tag_91\n              jumpi\n              tag_92\n              tag_58\n              jump\t// in\n            tag_92:\n            tag_91:\n              eq\n                /* \"Auction.sol\":2484:2541  auctionState == State.Canceled || block.number > endBlock */\n              dup1\n              tag_93\n              jumpi\n              pop\n                /* \"Auction.sol\":2533:2541  endBlock */\n              sload(0x02)\n                /* \"Auction.sol\":2518:2530  block.number */\n              number\n                /* \"Auction.sol\":2518:2541  block.number > endBlock */\n              gt\n                /* \"Auction.sol\":2484:2541  auctionState == State.Canceled || block.number > endBlock */\n            tag_93:\n                /* \"Auction.sol\":2476:2542  require(auctionState == State.Canceled || block.number > endBlock) */\n              tag_94\n              jumpi\n              0x00\n              dup1\n              revert\n            tag_94:\n                /* \"Auction.sol\":2577:2582  owner */\n              0x00\n              dup1\n              sload\n              swap1\n              0x0100\n              exp\n              swap1\n              div\n              0xffffffffffffffffffffffffffffffffffffffff\n              and\n                /* \"Auction.sol\":2563:2582  msg.sender == owner */\n              0xffffffffffffffffffffffffffffffffffffffff\n              and\n                /* \"Auction.sol\":2563:2573  msg.sender */\n              caller\n                /* \"Auction.sol\":2563:2582  msg.sender == owner */\n              0xffffffffffffffffffffffffffffffffffffffff\n              and\n              eq\n                /* \"Auction.sol\":2563:2605  msg.sender == owner || bid[msg.sender] > 0 */\n              dup1\n              tag_95\n              jumpi\n              pop\n                /* \"Auction.sol\":2604:2605  0 */\n              0x00\n                /* \"Auction.sol\":2586:2589  bid */\n              0x07\n                /* \"Auction.sol\":2586:2601  bid[msg.sender] */\n              0x00\n                /* \"Auction.sol\":2590:2600  msg.sender */\n              caller\n                /* \"Auction.sol\":2586:2601  bid[msg.sender] */\n              0xffffffffffffffffffffffffffffffffffffffff\n              and\n              0xffffffffffffffffffffffffffffffffffffffff\n              and\n              dup2\n              mstore\n              0x20\n              add\n              swap1\n              dup2\n              mstore\n              0x20\n              add\n              0x00\n              keccak256\n              sload\n                /* \"Auction.sol\":2586:2605  bid[msg.sender] > 0 */\n              gt\n                /* \"Auction.sol\":2563:2605  msg.sender == owner || bid[msg.sender] > 0 */\n            tag_95:\n                /* \"Auction.sol\":2553:2606  require ( msg.sender == owner || bid[msg.sender] > 0) */\n              tag_96\n              jumpi\n              0x00\n              dup1\n              revert\n            tag_96:\n                /* \"Auction.sol\":2619:2644  address payable recipient */\n              0x00\n                /* \"Auction.sol\":2655:2665  uint value */\n              dup1\n                /* \"Auction.sol\":2698:2712  State.Canceled */\n              0x03\n                /* \"Auction.sol\":2682:2712  auctionState == State.Canceled */\n              dup1\n              dup2\n              gt\n              iszero\n              tag_97\n              jumpi\n              tag_98\n              tag_58\n              jump\t// in\n            tag_98:\n            tag_97:\n                /* \"Auction.sol\":2682:2694  auctionState */\n              0x04\n              0x00\n              swap1\n              sload\n              swap1\n              0x0100\n              exp\n              swap1\n              div\n              0xff\n              and\n                /* \"Auction.sol\":2682:2712  auctionState == State.Canceled */\n              0x03\n              dup2\n              gt\n              iszero\n              tag_99\n              jumpi\n              tag_100\n              tag_58\n              jump\t// in\n            tag_100:\n            tag_99:\n              sub\n                /* \"Auction.sol\":2678:3436  if( auctionState == State.Canceled ){ //auction state is canceled ... */\n              tag_101\n              jumpi\n                /* \"Auction.sol\":2773:2783  msg.sender */\n              caller\n                /* \"Auction.sol\":2754:2784  recipient= payable(msg.sender) */\n              swap2\n              pop\n                /* \"Auction.sol\":2802:2805  bid */\n              0x07\n                /* \"Auction.sol\":2802:2817  bid[msg.sender] */\n              0x00\n                /* \"Auction.sol\":2806:2816  msg.sender */\n              caller\n                /* \"Auction.sol\":2802:2817  bid[msg.sender] */\n              0xffffffffffffffffffffffffffffffffffffffff\n              and\n              0xffffffffffffffffffffffffffffffffffffffff\n              and\n              dup2\n              mstore\n              0x20\n              add\n              swap1\n              dup2\n              mstore\n              0x20\n              add\n              0x00\n              keccak256\n              sload\n                /* \"Auction.sol\":2795:2817  value= bid[msg.sender] */\n              swap1\n              pop\n                /* \"Auction.sol\":2678:3436  if( auctionState == State.Canceled ){ //auction state is canceled ... */\n              jump(tag_102)\n            tag_101:\n                /* \"Auction.sol\":2901:2906  owner */\n              0x00\n              dup1\n              sload\n              swap1\n              0x0100\n              exp\n              swap1\n              div\n              0xffffffffffffffffffffffffffffffffffffffff\n              and\n                /* \"Auction.sol\":2887:2906  msg.sender == owner */\n              0xffffffffffffffffffffffffffffffffffffffff\n              and\n                /* \"Auction.sol\":2887:2897  msg.sender */\n              caller\n                /* \"Auction.sol\":2887:2906  msg.sender == owner */\n              0xffffffffffffffffffffffffffffffffffffffff\n              and\n              sub\n                /* \"Auction.sol\":2884:3425  if(msg.sender == owner) { //this is the owner ... */\n              tag_103\n              jumpi\n                /* \"Auction.sol\":2960:2965  owner */\n              0x00\n              dup1\n              sload\n              swap1\n              0x0100\n              exp\n              swap1\n              div\n              0xffffffffffffffffffffffffffffffffffffffff\n              and\n                /* \"Auction.sol\":2948:2965  recipient = owner */\n              swap2\n              pop\n                /* \"Auction.sol\":2992:3009  highestBindingBid */\n              sload(0x05)\n                /* \"Auction.sol\":2984:3009  value = highestBindingBid */\n              swap1\n              pop\n                /* \"Auction.sol\":2884:3425  if(msg.sender == owner) { //this is the owner ... */\n              jump(tag_104)\n            tag_103:\n                /* \"Auction.sol\":3090:3103  highestBidder */\n              0x06\n              0x00\n              swap1\n              sload\n              swap1\n              0x0100\n              exp\n              swap1\n              div\n              0xffffffffffffffffffffffffffffffffffffffff\n              and\n                /* \"Auction.sol\":3076:3103  msg.sender == highestBidder */\n              0xffffffffffffffffffffffffffffffffffffffff\n              and\n                /* \"Auction.sol\":3076:3086  msg.sender */\n              caller\n                /* \"Auction.sol\":3076:3103  msg.sender == highestBidder */\n              0xffffffffffffffffffffffffffffffffffffffff\n              and\n              sub\n                /* \"Auction.sol\":3073:3410  if(msg.sender == highestBidder) {... */\n              tag_105\n              jumpi\n                /* \"Auction.sol\":3139:3152  highestBidder */\n              0x06\n              0x00\n              swap1\n              sload\n              swap1\n              0x0100\n              exp\n              swap1\n              div\n              0xffffffffffffffffffffffffffffffffffffffff\n              and\n                /* \"Auction.sol\":3128:3152  recipient= highestBidder */\n              swap2\n              pop\n                /* \"Auction.sol\":3203:3220  highestBindingBid */\n              sload(0x05)\n                /* \"Auction.sol\":3182:3185  bid */\n              0x07\n                /* \"Auction.sol\":3182:3200  bid[highestBidder] */\n              0x00\n                /* \"Auction.sol\":3186:3199  highestBidder */\n              0x06\n              0x00\n              swap1\n              sload\n              swap1\n              0x0100\n              exp\n              swap1\n              div\n              0xffffffffffffffffffffffffffffffffffffffff\n              and\n                /* \"Auction.sol\":3182:3200  bid[highestBidder] */\n              0xffffffffffffffffffffffffffffffffffffffff\n              and\n              0xffffffffffffffffffffffffffffffffffffffff\n              and\n              dup2\n              mstore\n              0x20\n              add\n              swap1\n              dup2\n              mstore\n              0x20\n              add\n              0x00\n              keccak256\n              sload\n                /* \"Auction.sol\":3182:3220  bid[highestBidder] - highestBindingBid */\n              tag_106\n              swap2\n              swap1\n              tag_107\n              jump\t// in\n            tag_106:\n                /* \"Auction.sol\":3175:3220  value= bid[highestBidder] - highestBindingBid */\n              swap1\n              pop\n                /* \"Auction.sol\":3073:3410  if(msg.sender == highestBidder) {... */\n              jump(tag_108)\n            tag_105:\n                /* \"Auction.sol\":3338:3348  msg.sender */\n              caller\n                /* \"Auction.sol\":3317:3349  recipient = payable (msg.sender) */\n              swap2\n              pop\n                /* \"Auction.sol\":3375:3378  bid */\n              0x07\n                /* \"Auction.sol\":3375:3390  bid[msg.sender] */\n              0x00\n                /* \"Auction.sol\":3379:3389  msg.sender */\n              caller\n                /* \"Auction.sol\":3375:3390  bid[msg.sender] */\n              0xffffffffffffffffffffffffffffffffffffffff\n              and\n              0xffffffffffffffffffffffffffffffffffffffff\n              and\n              dup2\n              mstore\n              0x20\n              add\n              swap1\n              dup2\n              mstore\n              0x20\n              add\n              0x00\n              keccak256\n              sload\n                /* \"Auction.sol\":3368:3390  value= bid[msg.sender] */\n              swap1\n              pop\n                /* \"Auction.sol\":3073:3410  if(msg.sender == highestBidder) {... */\n            tag_108:\n                /* \"Auction.sol\":2884:3425  if(msg.sender == owner) { //this is the owner ... */\n            tag_104:\n                /* \"Auction.sol\":2678:3436  if( auctionState == State.Canceled ){ //auction state is canceled ... */\n            tag_102:\n                /* \"Auction.sol\":3461:3462  0 */\n              0x00\n                /* \"Auction.sol\":3446:3449  bid */\n              0x07\n                /* \"Auction.sol\":3446:3460  bid[recipient] */\n              0x00\n                /* \"Auction.sol\":3450:3459  recipient */\n              dup5\n                /* \"Auction.sol\":3446:3460  bid[recipient] */\n              0xffffffffffffffffffffffffffffffffffffffff\n              and\n              0xffffffffffffffffffffffffffffffffffffffff\n              and\n              dup2\n              mstore\n              0x20\n              add\n              swap1\n              dup2\n              mstore\n              0x20\n              add\n              0x00\n              keccak256\n                /* \"Auction.sol\":3446:3462  bid[recipient]=0 */\n              dup2\n              swap1\n              sstore\n              pop\n                /* \"Auction.sol\":3473:3482  recipient */\n              dup2\n                /* \"Auction.sol\":3473:3491  recipient.transfer */\n              0xffffffffffffffffffffffffffffffffffffffff\n              and\n                /* \"Auction.sol\":3473:3498  recipient.transfer(value) */\n              0x08fc\n                /* \"Auction.sol\":3492:3497  value */\n              dup3\n                /* \"Auction.sol\":3473:3498  recipient.transfer(value) */\n              swap1\n              dup2\n              iszero\n              mul\n              swap1\n              mload(0x40)\n              0x00\n              mload(0x40)\n              dup1\n              dup4\n              sub\n              dup2\n              dup6\n              dup9\n              dup9\n              call\n              swap4\n              pop\n              pop\n              pop\n              pop\n              iszero\n              dup1\n              iszero\n              tag_110\n              jumpi\n              returndatasize\n              0x00\n              dup1\n              returndatacopy\n              revert(0x00, returndatasize)\n            tag_110:\n              pop\n                /* \"Auction.sol\":2465:3506  {... */\n              pop\n              pop\n                /* \"Auction.sol\":2431:3506  function finalizeAuction() public {... */\n              jump\t// out\n                /* \"Auction.sol\":1284:1380  function min(uint a, uint b) internal pure returns (uint) {... */\n            tag_84:\n                /* \"Auction.sol\":1336:1340  uint */\n              0x00\n                /* \"Auction.sol\":1363:1364  b */\n              dup2\n                /* \"Auction.sol\":1360:1361  a */\n              dup4\n                /* \"Auction.sol\":1360:1364  a<=b */\n              gt\n              iszero\n                /* \"Auction.sol\":1360:1372  a<=b ? a : b */\n              tag_112\n              jumpi\n                /* \"Auction.sol\":1371:1372  b */\n              dup2\n                /* \"Auction.sol\":1360:1372  a<=b ? a : b */\n              jump(tag_113)\n            tag_112:\n                /* \"Auction.sol\":1367:1368  a */\n              dup3\n                /* \"Auction.sol\":1360:1372  a<=b ? a : b */\n            tag_113:\n                /* \"Auction.sol\":1353:1372  return a<=b ? a : b */\n              swap1\n              pop\n                /* \"Auction.sol\":1284:1380  function min(uint a, uint b) internal pure returns (uint) {... */\n              swap3\n              swap2\n              pop\n              pop\n              jump\t// out\n                /* \"#utility.yul\":7:84   */\n            tag_114:\n                /* \"#utility.yul\":44:51   */\n              0x00\n                /* \"#utility.yul\":73:78   */\n              dup2\n                /* \"#utility.yul\":62:78   */\n              swap1\n              pop\n                /* \"#utility.yul\":7:84   */\n              swap2\n              swap1\n              pop\n              jump\t// out\n                /* \"#utility.yul\":90:208   */\n            tag_115:\n                /* \"#utility.yul\":177:201   */\n              tag_133\n                /* \"#utility.yul\":195:200   */\n              dup2\n                /* \"#utility.yul\":177:201   */\n              tag_114\n              jump\t// in\n            tag_133:\n                /* \"#utility.yul\":172:175   */\n              dup3\n                /* \"#utility.yul\":165:202   */\n              mstore\n                /* \"#utility.yul\":90:208   */\n              pop\n              pop\n              jump\t// out\n                /* \"#utility.yul\":214:436   */\n            tag_17:\n                /* \"#utility.yul\":307:311   */\n              0x00\n                /* \"#utility.yul\":345:347   */\n              0x20\n                /* \"#utility.yul\":334:343   */\n              dup3\n                /* \"#utility.yul\":330:348   */\n              add\n                /* \"#utility.yul\":322:348   */\n              swap1\n              pop\n                /* \"#utility.yul\":358:429   */\n              tag_135\n                /* \"#utility.yul\":426:427   */\n              0x00\n                /* \"#utility.yul\":415:424   */\n              dup4\n                /* \"#utility.yul\":411:428   */\n              add\n                /* \"#utility.yul\":402:408   */\n              dup5\n                /* \"#utility.yul\":358:429   */\n              tag_115\n              jump\t// in\n            tag_135:\n                /* \"#utility.yul\":214:436   */\n              swap3\n              swap2\n              pop\n              pop\n              jump\t// out\n                /* \"#utility.yul\":442:622   */\n            tag_58:\n                /* \"#utility.yul\":490:567   */\n              0x4e487b7100000000000000000000000000000000000000000000000000000000\n                /* \"#utility.yul\":487:488   */\n              0x00\n                /* \"#utility.yul\":480:568   */\n              mstore\n                /* \"#utility.yul\":587:591   */\n              0x21\n                /* \"#utility.yul\":584:585   */\n              0x04\n                /* \"#utility.yul\":577:592   */\n              mstore\n                /* \"#utility.yul\":611:615   */\n              0x24\n                /* \"#utility.yul\":608:609   */\n              0x00\n                /* \"#utility.yul\":601:616   */\n              revert\n                /* \"#utility.yul\":628:741   */\n            tag_116:\n                /* \"#utility.yul\":709:710   */\n              0x04\n                /* \"#utility.yul\":702:707   */\n              dup2\n                /* \"#utility.yul\":699:711   */\n              lt\n                /* \"#utility.yul\":689:735   */\n              tag_138\n              jumpi\n                /* \"#utility.yul\":715:733   */\n              tag_139\n              tag_58\n              jump\t// in\n            tag_139:\n                /* \"#utility.yul\":689:735   */\n            tag_138:\n                /* \"#utility.yul\":628:741   */\n              pop\n              jump\t// out\n                /* \"#utility.yul\":747:874   */\n            tag_117:\n                /* \"#utility.yul\":792:799   */\n              0x00\n                /* \"#utility.yul\":821:826   */\n              dup2\n                /* \"#utility.yul\":810:826   */\n              swap1\n              pop\n                /* \"#utility.yul\":827:868   */\n              tag_141\n                /* \"#utility.yul\":862:867   */\n              dup3\n                /* \"#utility.yul\":827:868   */\n              tag_116\n              jump\t// in\n            tag_141:\n                /* \"#utility.yul\":747:874   */\n              swap2\n              swap1\n              pop\n              jump\t// out\n                /* \"#utility.yul\":880:1007   */\n            tag_118:\n                /* \"#utility.yul\":936:945   */\n              0x00\n                /* \"#utility.yul\":969:1001   */\n              tag_143\n                /* \"#utility.yul\":995:1000   */\n              dup3\n                /* \"#utility.yul\":969:1001   */\n              tag_117\n              jump\t// in\n            tag_143:\n                /* \"#utility.yul\":956:1001   */\n              swap1\n              pop\n                /* \"#utility.yul\":880:1007   */\n              swap2\n              swap1\n              pop\n              jump\t// out\n                /* \"#utility.yul\":1013:1156   */\n            tag_119:\n                /* \"#utility.yul\":1106:1149   */\n              tag_145\n                /* \"#utility.yul\":1143:1148   */\n              dup2\n                /* \"#utility.yul\":1106:1149   */\n              tag_118\n              jump\t// in\n            tag_145:\n                /* \"#utility.yul\":1101:1104   */\n              dup3\n                /* \"#utility.yul\":1094:1150   */\n              mstore\n                /* \"#utility.yul\":1013:1156   */\n              pop\n              pop\n              jump\t// out\n                /* \"#utility.yul\":1162:1396   */\n            tag_26:\n                /* \"#utility.yul\":1261:1265   */\n              0x00\n                /* \"#utility.yul\":1299:1301   */\n              0x20\n                /* \"#utility.yul\":1288:1297   */\n              dup3\n                /* \"#utility.yul\":1284:1302   */\n              add\n                /* \"#utility.yul\":1276:1302   */\n              swap1\n              pop\n                /* \"#utility.yul\":1312:1389   */\n              tag_147\n                /* \"#utility.yul\":1386:1387   */\n              0x00\n                /* \"#utility.yul\":1375:1384   */\n              dup4\n                /* \"#utility.yul\":1371:1388   */\n              add\n                /* \"#utility.yul\":1362:1368   */\n              dup5\n                /* \"#utility.yul\":1312:1389   */\n              tag_119\n              jump\t// in\n            tag_147:\n                /* \"#utility.yul\":1162:1396   */\n              swap3\n              swap2\n              pop\n              pop\n              jump\t// out\n                /* \"#utility.yul\":1402:1528   */\n            tag_120:\n                /* \"#utility.yul\":1439:1446   */\n              0x00\n                /* \"#utility.yul\":1479:1521   */\n              0xffffffffffffffffffffffffffffffffffffffff\n                /* \"#utility.yul\":1472:1477   */\n              dup3\n                /* \"#utility.yul\":1468:1522   */\n              and\n                /* \"#utility.yul\":1457:1522   */\n              swap1\n              pop\n                /* \"#utility.yul\":1402:1528   */\n              swap2\n              swap1\n              pop\n              jump\t// out\n                /* \"#utility.yul\":1534:1638   */\n            tag_121:\n                /* \"#utility.yul\":1579:1586   */\n              0x00\n                /* \"#utility.yul\":1608:1632   */\n              tag_150\n                /* \"#utility.yul\":1626:1631   */\n              dup3\n                /* \"#utility.yul\":1608:1632   */\n              tag_120\n              jump\t// in\n            tag_150:\n                /* \"#utility.yul\":1597:1632   */\n              swap1\n              pop\n                /* \"#utility.yul\":1534:1638   */\n              swap2\n              swap1\n              pop\n              jump\t// out\n                /* \"#utility.yul\":1644:1786   */\n            tag_122:\n                /* \"#utility.yul\":1747:1779   */\n              tag_152\n                /* \"#utility.yul\":1773:1778   */\n              dup2\n                /* \"#utility.yul\":1747:1779   */\n              tag_121\n              jump\t// in\n            tag_152:\n                /* \"#utility.yul\":1742:1745   */\n              dup3\n                /* \"#utility.yul\":1735:1780   */\n              mstore\n                /* \"#utility.yul\":1644:1786   */\n              pop\n              pop\n              jump\t// out\n                /* \"#utility.yul\":1792:2046   */\n            tag_31:\n                /* \"#utility.yul\":1901:1905   */\n              0x00\n                /* \"#utility.yul\":1939:1941   */\n              0x20\n                /* \"#utility.yul\":1928:1937   */\n              dup3\n                /* \"#utility.yul\":1924:1942   */\n              add\n                /* \"#utility.yul\":1916:1942   */\n              swap1\n              pop\n                /* \"#utility.yul\":1952:2039   */\n              tag_154\n                /* \"#utility.yul\":2036:2037   */\n              0x00\n                /* \"#utility.yul\":2025:2034   */\n              dup4\n                /* \"#utility.yul\":2021:2038   */\n              add\n                /* \"#utility.yul\":2012:2018   */\n              dup5\n                /* \"#utility.yul\":1952:2039   */\n              tag_122\n              jump\t// in\n            tag_154:\n                /* \"#utility.yul\":1792:2046   */\n              swap3\n              swap2\n              pop\n              pop\n              jump\t// out\n                /* \"#utility.yul\":2052:2151   */\n            tag_123:\n                /* \"#utility.yul\":2104:2110   */\n              0x00\n                /* \"#utility.yul\":2138:2143   */\n              dup2\n                /* \"#utility.yul\":2132:2144   */\n              mload\n                /* \"#utility.yul\":2122:2144   */\n              swap1\n              pop\n                /* \"#utility.yul\":2052:2151   */\n              swap2\n              swap1\n              pop\n              jump\t// out\n                /* \"#utility.yul\":2157:2326   */\n            tag_124:\n                /* \"#utility.yul\":2241:2252   */\n              0x00\n                /* \"#utility.yul\":2275:2281   */\n              dup3\n                /* \"#utility.yul\":2270:2273   */\n              dup3\n                /* \"#utility.yul\":2263:2282   */\n              mstore\n                /* \"#utility.yul\":2315:2319   */\n              0x20\n                /* \"#utility.yul\":2310:2313   */\n              dup3\n                /* \"#utility.yul\":2306:2320   */\n              add\n                /* \"#utility.yul\":2291:2320   */\n              swap1\n              pop\n                /* \"#utility.yul\":2157:2326   */\n              swap3\n              swap2\n              pop\n              pop\n              jump\t// out\n                /* \"#utility.yul\":2332:2471   */\n            tag_125:\n                /* \"#utility.yul\":2421:2427   */\n              dup3\n                /* \"#utility.yul\":2416:2419   */\n              dup2\n                /* \"#utility.yul\":2411:2414   */\n              dup4\n                /* \"#utility.yul\":2405:2428   */\n              mcopy\n                /* \"#utility.yul\":2462:2463   */\n              0x00\n                /* \"#utility.yul\":2453:2459   */\n              dup4\n                /* \"#utility.yul\":2448:2451   */\n              dup4\n                /* \"#utility.yul\":2444:2460   */\n              add\n                /* \"#utility.yul\":2437:2464   */\n              mstore\n                /* \"#utility.yul\":2332:2471   */\n              pop\n              pop\n              pop\n              jump\t// out\n                /* \"#utility.yul\":2477:2579   */\n            tag_126:\n                /* \"#utility.yul\":2518:2524   */\n              0x00\n                /* \"#utility.yul\":2569:2571   */\n              0x1f\n                /* \"#utility.yul\":2565:2572   */\n              not\n                /* \"#utility.yul\":2560:2562   */\n              0x1f\n                /* \"#utility.yul\":2553:2558   */\n              dup4\n                /* \"#utility.yul\":2549:2563   */\n              add\n                /* \"#utility.yul\":2545:2573   */\n              and\n                /* \"#utility.yul\":2535:2573   */\n              swap1\n              pop\n                /* \"#utility.yul\":2477:2579   */\n              swap2\n              swap1\n              pop\n              jump\t// out\n                /* \"#utility.yul\":2585:2962   */\n            tag_127:\n                /* \"#utility.yul\":2673:2676   */\n              0x00\n                /* \"#utility.yul\":2701:2740   */\n              tag_160\n                /* \"#utility.yul\":2734:2739   */\n              dup3\n                /* \"#utility.yul\":2701:2740   */\n              tag_123\n              jump\t// in\n            tag_160:\n                /* \"#utility.yul\":2756:2827   */\n              tag_161\n                /* \"#utility.yul\":2820:2826   */\n              dup2\n                /* \"#utility.yul\":2815:2818   */\n              dup6\n                /* \"#utility.yul\":2756:2827   */\n              tag_124\n              jump\t// in\n            tag_161:\n                /* \"#utility.yul\":2749:2827   */\n              swap4\n              pop\n                /* \"#utility.yul\":2836:2901   */\n              tag_162\n                /* \"#utility.yul\":2894:2900   */\n              dup2\n                /* \"#utility.yul\":2889:2892   */\n              dup6\n                /* \"#utility.yul\":2882:2886   */\n              0x20\n                /* \"#utility.yul\":2875:2880   */\n              dup7\n                /* \"#utility.yul\":2871:2887   */\n              add\n                /* \"#utility.yul\":2836:2901   */\n              tag_125\n              jump\t// in\n            tag_162:\n                /* \"#utility.yul\":2926:2955   */\n              tag_163\n                /* \"#utility.yul\":2948:2954   */\n              dup2\n                /* \"#utility.yul\":2926:2955   */\n              tag_126\n              jump\t// in\n            tag_163:\n                /* \"#utility.yul\":2921:2924   */\n              dup5\n                /* \"#utility.yul\":2917:2956   */\n              add\n                /* \"#utility.yul\":2910:2956   */\n              swap2\n              pop\n                /* \"#utility.yul\":2677:2962   */\n              pop\n                /* \"#utility.yul\":2585:2962   */\n              swap3\n              swap2\n              pop\n              pop\n              jump\t// out\n                /* \"#utility.yul\":2968:3281   */\n            tag_43:\n                /* \"#utility.yul\":3081:3085   */\n              0x00\n                /* \"#utility.yul\":3119:3121   */\n              0x20\n                /* \"#utility.yul\":3108:3117   */\n              dup3\n                /* \"#utility.yul\":3104:3122   */\n              add\n                /* \"#utility.yul\":3096:3122   */\n              swap1\n              pop\n                /* \"#utility.yul\":3168:3177   */\n              dup2\n                /* \"#utility.yul\":3162:3166   */\n              dup2\n                /* \"#utility.yul\":3158:3178   */\n              sub\n                /* \"#utility.yul\":3154:3155   */\n              0x00\n                /* \"#utility.yul\":3143:3152   */\n              dup4\n                /* \"#utility.yul\":3139:3156   */\n              add\n                /* \"#utility.yul\":3132:3179   */\n              mstore\n                /* \"#utility.yul\":3196:3274   */\n              tag_165\n                /* \"#utility.yul\":3269:3273   */\n              dup2\n                /* \"#utility.yul\":3260:3266   */\n              dup5\n                /* \"#utility.yul\":3196:3274   */\n              tag_127\n              jump\t// in\n            tag_165:\n                /* \"#utility.yul\":3188:3274   */\n              swap1\n              pop\n                /* \"#utility.yul\":2968:3281   */\n              swap3\n              swap2\n              pop\n              pop\n              jump\t// out\n                /* \"#utility.yul\":3287:3467   */\n            tag_128:\n                /* \"#utility.yul\":3335:3412   */\n              0x4e487b7100000000000000000000000000000000000000000000000000000000\n                /* \"#utility.yul\":3332:3333   */\n              0x00\n                /* \"#utility.yul\":3325:3413   */\n              mstore\n                /* \"#utility.yul\":3432:3436   */\n              0x22\n                /* \"#utility.yul\":3429:3430   */\n              0x04\n                /* \"#utility.yul\":3422:3437   */\n              mstore\n                /* \"#utility.yul\":3456:3460   */\n              0x24\n                /* \"#utility.yul\":3453:3454   */\n              0x00\n                /* \"#utility.yul\":3446:3461   */\n              revert\n                /* \"#utility.yul\":3473:3793   */\n            tag_60:\n                /* \"#utility.yul\":3517:3523   */\n              0x00\n                /* \"#utility.yul\":3554:3555   */\n              0x02\n                /* \"#utility.yul\":3548:3552   */\n              dup3\n                /* \"#utility.yul\":3544:3556   */\n              div\n                /* \"#utility.yul\":3534:3556   */\n              swap1\n              pop\n                /* \"#utility.yul\":3601:3602   */\n              0x01\n                /* \"#utility.yul\":3595:3599   */\n              dup3\n                /* \"#utility.yul\":3591:3603   */\n              and\n                /* \"#utility.yul\":3622:3640   */\n              dup1\n                /* \"#utility.yul\":3612:3693   */\n              tag_168\n              jumpi\n                /* \"#utility.yul\":3678:3682   */\n              0x7f\n                /* \"#utility.yul\":3670:3676   */\n              dup3\n                /* \"#utility.yul\":3666:3683   */\n              and\n                /* \"#utility.yul\":3656:3683   */\n              swap2\n              pop\n                /* \"#utility.yul\":3612:3693   */\n            tag_168:\n                /* \"#utility.yul\":3740:3742   */\n              0x20\n                /* \"#utility.yul\":3732:3738   */\n              dup3\n                /* \"#utility.yul\":3729:3743   */\n              lt\n                /* \"#utility.yul\":3709:3727   */\n              dup2\n                /* \"#utility.yul\":3706:3744   */\n              sub\n                /* \"#utility.yul\":3703:3787   */\n              tag_169\n              jumpi\n                /* \"#utility.yul\":3759:3777   */\n              tag_170\n              tag_128\n              jump\t// in\n            tag_170:\n                /* \"#utility.yul\":3703:3787   */\n            tag_169:\n                /* \"#utility.yul\":3524:3793   */\n              pop\n                /* \"#utility.yul\":3473:3793   */\n              swap2\n              swap1\n              pop\n              jump\t// out\n                /* \"#utility.yul\":3799:3979   */\n            tag_129:\n                /* \"#utility.yul\":3847:3924   */\n              0x4e487b7100000000000000000000000000000000000000000000000000000000\n                /* \"#utility.yul\":3844:3845   */\n              0x00\n                /* \"#utility.yul\":3837:3925   */\n              mstore\n                /* \"#utility.yul\":3944:3948   */\n              0x11\n                /* \"#utility.yul\":3941:3942   */\n              0x04\n                /* \"#utility.yul\":3934:3949   */\n              mstore\n                /* \"#utility.yul\":3968:3972   */\n              0x24\n                /* \"#utility.yul\":3965:3966   */\n              0x00\n                /* \"#utility.yul\":3958:3973   */\n              revert\n                /* \"#utility.yul\":3985:4176   */\n            tag_79:\n                /* \"#utility.yul\":4025:4028   */\n              0x00\n                /* \"#utility.yul\":4044:4064   */\n              tag_173\n                /* \"#utility.yul\":4062:4063   */\n              dup3\n                /* \"#utility.yul\":4044:4064   */\n              tag_114\n              jump\t// in\n            tag_173:\n                /* \"#utility.yul\":4039:4064   */\n              swap2\n              pop\n                /* \"#utility.yul\":4078:4098   */\n              tag_174\n                /* \"#utility.yul\":4096:4097   */\n              dup4\n                /* \"#utility.yul\":4078:4098   */\n              tag_114\n              jump\t// in\n            tag_174:\n                /* \"#utility.yul\":4073:4098   */\n              swap3\n              pop\n                /* \"#utility.yul\":4121:4122   */\n              dup3\n                /* \"#utility.yul\":4118:4119   */\n              dup3\n                /* \"#utility.yul\":4114:4123   */\n              add\n                /* \"#utility.yul\":4107:4123   */\n              swap1\n              pop\n                /* \"#utility.yul\":4142:4145   */\n              dup1\n                /* \"#utility.yul\":4139:4140   */\n              dup3\n                /* \"#utility.yul\":4136:4146   */\n              gt\n                /* \"#utility.yul\":4133:4169   */\n              iszero\n              tag_175\n              jumpi\n                /* \"#utility.yul\":4149:4167   */\n              tag_176\n              tag_129\n              jump\t// in\n            tag_176:\n                /* \"#utility.yul\":4133:4169   */\n            tag_175:\n                /* \"#utility.yul\":3985:4176   */\n              swap3\n              swap2\n              pop\n              pop\n              jump\t// out\n                /* \"#utility.yul\":4182:4376   */\n            tag_107:\n                /* \"#utility.yul\":4222:4226   */\n              0x00\n                /* \"#utility.yul\":4242:4262   */\n              tag_178\n                /* \"#utility.yul\":4260:4261   */\n              dup3\n                /* \"#utility.yul\":4242:4262   */\n              tag_114\n              jump\t// in\n            tag_178:\n                /* \"#utility.yul\":4237:4262   */\n              swap2\n              pop\n                /* \"#utility.yul\":4276:4296   */\n              tag_179\n                /* \"#utility.yul\":4294:4295   */\n              dup4\n                /* \"#utility.yul\":4276:4296   */\n              tag_114\n              jump\t// in\n            tag_179:\n                /* \"#utility.yul\":4271:4296   */\n              swap3\n              pop\n                /* \"#utility.yul\":4320:4321   */\n              dup3\n                /* \"#utility.yul\":4317:4318   */\n              dup3\n                /* \"#utility.yul\":4313:4322   */\n              sub\n                /* \"#utility.yul\":4305:4322   */\n              swap1\n              pop\n                /* \"#utility.yul\":4344:4345   */\n              dup2\n                /* \"#utility.yul\":4338:4342   */\n              dup2\n                /* \"#utility.yul\":4335:4346   */\n              gt\n                /* \"#utility.yul\":4332:4369   */\n              iszero\n              tag_180\n              jumpi\n                /* \"#utility.yul\":4349:4367   */\n              tag_181\n              tag_129\n              jump\t// in\n            tag_181:\n                /* \"#utility.yul\":4332:4369   */\n            tag_180:\n                /* \"#utility.yul\":4182:4376   */\n              swap3\n              swap2\n              pop\n              pop\n              jump\t// out\n\n            auxdata: 0xa2646970667358221220613c40955c5d4cdcf5a0a362cce10054fe958b52390048c6eb00620bb04f4a6564736f6c634300081a0033\n        }\n    }\n\n    auxdata: 0xa264697066735822122038372bcc7081936f1a28bfd0684466499a5af27f4c221d8e26a8d93fec13c72864736f6c634300081a0033\n}\n",
				"bytecode": {
					"linkReferences": {},
					"object": "6080604052348015600e575f80fd5b506114b08061001c5f395ff3fe608060405234801561000f575f80fd5b5060043610610034575f3560e01c8063571a26a014610038578063f581144714610068575b5f80fd5b610052600480360381019061004d9190610186565b610072565b60405161005f919061022b565b60405180910390f35b6100706100ac565b005b5f8181548110610080575f80fd5b905f5260205f20015f915054906101000a900473ffffffffffffffffffffffffffffffffffffffff1681565b5f336040516100ba90610142565b6100c49190610264565b604051809103905ff0801580156100dd573d5f803e3d5ffd5b5090505f81908060018154018082558091505060019003905f5260205f20015f9091909190916101000a81548173ffffffffffffffffffffffffffffffffffffffff021916908373ffffffffffffffffffffffffffffffffffffffff16021790555050565b6111fd8061027e83390190565b5f80fd5b5f819050919050565b61016581610153565b811461016f575f80fd5b50565b5f813590506101808161015c565b92915050565b5f6020828403121561019b5761019a61014f565b5b5f6101a884828501610172565b91505092915050565b5f73ffffffffffffffffffffffffffffffffffffffff82169050919050565b5f819050919050565b5f6101f36101ee6101e9846101b1565b6101d0565b6101b1565b9050919050565b5f610204826101d9565b9050919050565b5f610215826101fa565b9050919050565b6102258161020b565b82525050565b5f60208201905061023e5f83018461021c565b92915050565b5f61024e826101b1565b9050919050565b61025e81610244565b82525050565b5f6020820190506102775f830184610255565b9291505056fe608060405234801561000f575f80fd5b506040516111fd3803806111fd83398181016040528101906100319190610143565b805f806101000a81548173ffffffffffffffffffffffffffffffffffffffff021916908373ffffffffffffffffffffffffffffffffffffffff160217905550600160045f6101000a81548160ff021916908360038111156100955761009461016e565b5b02179055504360018190555060036001546100b091906101d1565b60028190555060405180602001604052805f815250600390816100d39190610435565b50633b9aca0060088190555050610504565b5f80fd5b5f73ffffffffffffffffffffffffffffffffffffffff82169050919050565b5f610112826100e9565b9050919050565b61012281610108565b811461012c575f80fd5b50565b5f8151905061013d81610119565b92915050565b5f60208284031215610158576101576100e5565b5b5f6101658482850161012f565b91505092915050565b7f4e487b71000000000000000000000000000000000000000000000000000000005f52602160045260245ffd5b5f819050919050565b7f4e487b71000000000000000000000000000000000000000000000000000000005f52601160045260245ffd5b5f6101db8261019b565b91506101e68361019b565b92508282019050808211156101fe576101fd6101a4565b5b92915050565b5f81519050919050565b7f4e487b71000000000000000000000000000000000000000000000000000000005f52604160045260245ffd5b7f4e487b71000000000000000000000000000000000000000000000000000000005f52602260045260245ffd5b5f600282049050600182168061027f57607f821691505b6020821081036102925761029161023b565b5b50919050565b5f819050815f5260205f209050919050565b5f6020601f8301049050919050565b5f82821b905092915050565b5f600883026102f47fffffffffffffffffffffffffffffffffffffffffffffffffffffffffffffffff826102b9565b6102fe86836102b9565b95508019841693508086168417925050509392505050565b5f819050919050565b5f61033961033461032f8461019b565b610316565b61019b565b9050919050565b5f819050919050565b6103528361031f565b61036661035e82610340565b8484546102c5565b825550505050565b5f90565b61037a61036e565b610385818484610349565b505050565b5b818110156103a85761039d5f82610372565b60018101905061038b565b5050565b601f8211156103ed576103be81610298565b6103c7846102aa565b810160208510156103d6578190505b6103ea6103e2856102aa565b83018261038a565b50505b505050565b5f82821c905092915050565b5f61040d5f19846008026103f2565b1980831691505092915050565b5f61042583836103fe565b9150826002028217905092915050565b61043e82610204565b67ffffffffffffffff8111156104575761045661020e565b5b6104618254610268565b61046c8282856103ac565b5f60209050601f83116001811461049d575f841561048b578287015190505b610495858261041a565b8655506104fc565b601f1984166104ab86610298565b5f5b828110156104d2578489015182556001820191506020850194506020810190506104ad565b868310156104ef57848901516104eb601f8916826103fe565b8355505b6001600288020188555050505b505050505050565b610cec806105115f395ff3fe608060405260043610610090575f3560e01c806391f901571161005857806391f9015714610152578063c623674f1461017c578063ecfc7ecc146101a6578063f5b56c56146101b0578063f77282ab146101da57610090565b8063083c63231461009457806348cd4cb1146100be5780637fb45099146100e85780638da5cb5b146101125780638fa8b7901461013c575b5f80fd5b34801561009f575f80fd5b506100a86101f0565b6040516100b59190610a39565b60405180910390f35b3480156100c9575f80fd5b506100d26101f6565b6040516100df9190610a39565b60405180910390f35b3480156100f3575f80fd5b506100fc6101fc565b6040516101099190610ac5565b60405180910390f35b34801561011d575f80fd5b5061012661020e565b6040516101339190610b1d565b60405180910390f35b348015610147575f80fd5b50610150610231565b005b34801561015d575f80fd5b506101666102b3565b6040516101739190610b1d565b60405180910390f35b348015610187575f80fd5b506101906102d8565b60405161019d9190610ba6565b60405180910390f35b6101ae610364565b005b3480156101bb575f80fd5b506101c4610660565b6040516101d19190610a39565b60405180910390f35b3480156101e5575f80fd5b506101ee610666565b005b60025481565b60015481565b60045f9054906101000a900460ff1681565b5f8054906101000a900473ffffffffffffffffffffffffffffffffffffffff1681565b3373ffffffffffffffffffffffffffffffffffffffff165f8054906101000a900473ffffffffffffffffffffffffffffffffffffffff1673ffffffffffffffffffffffffffffffffffffffff1614610287575f80fd5b600360045f6101000a81548160ff021916908360038111156102ac576102ab610a52565b5b0217905550565b60065f9054906101000a900473ffffffffffffffffffffffffffffffffffffffff1681565b600380546102e590610bf3565b80601f016020809104026020016040519081016040528092919081815260200182805461031190610bf3565b801561035c5780601f106103335761010080835404028352916020019161035c565b820191905f5260205f20905b81548152906001019060200180831161033f57829003601f168201915b505050505081565b3373ffffffffffffffffffffffffffffffffffffffff165f8054906101000a900473ffffffffffffffffffffffffffffffffffffffff1673ffffffffffffffffffffffffffffffffffffffff16036103ba575f80fd5b6001544310156103c8575f80fd5b6002544311156103d6575f80fd5b600160038111156103ea576103e9610a52565b5b60045f9054906101000a900460ff16600381111561040b5761040a610a52565b5b14610414575f80fd5b6064341015610421575f80fd5b5f3460075f3373ffffffffffffffffffffffffffffffffffffffff1673ffffffffffffffffffffffffffffffffffffffff1681526020019081526020015f205461046b9190610c50565b9050600554811161047a575f80fd5b8060075f3373ffffffffffffffffffffffffffffffffffffffff1673ffffffffffffffffffffffffffffffffffffffff1681526020019081526020015f208190555060075f60065f9054906101000a900473ffffffffffffffffffffffffffffffffffffffff1673ffffffffffffffffffffffffffffffffffffffff1673ffffffffffffffffffffffffffffffffffffffff1681526020019081526020015f205481116105a15761059660075f60065f9054906101000a900473ffffffffffffffffffffffffffffffffffffffff1673ffffffffffffffffffffffffffffffffffffffff1673ffffffffffffffffffffffffffffffffffffffff1681526020019081526020015f2054826008546105919190610c50565b610a08565b60058190555061065d565b61061660085460075f60065f9054906101000a900473ffffffffffffffffffffffffffffffffffffffff1673ffffffffffffffffffffffffffffffffffffffff1673ffffffffffffffffffffffffffffffffffffffff1681526020019081526020015f20546106109190610c50565b82610a08565b6005819055503360065f6101000a81548173ffffffffffffffffffffffffffffffffffffffff021916908373ffffffffffffffffffffffffffffffffffffffff1602179055505b50565b60055481565b60038081111561067957610678610a52565b5b60045f9054906101000a900460ff16600381111561069a57610699610a52565b5b14806106a7575060025443115b6106af575f80fd5b5f8054906101000a900473ffffffffffffffffffffffffffffffffffffffff1673ffffffffffffffffffffffffffffffffffffffff163373ffffffffffffffffffffffffffffffffffffffff16148061074457505f60075f3373ffffffffffffffffffffffffffffffffffffffff1673ffffffffffffffffffffffffffffffffffffffff1681526020019081526020015f2054115b61074c575f80fd5b5f8060038081111561076157610760610a52565b5b60045f9054906101000a900460ff16600381111561078257610781610a52565b5b036107cf5733915060075f3373ffffffffffffffffffffffffffffffffffffffff1673ffffffffffffffffffffffffffffffffffffffff1681526020019081526020015f2054905061097e565b5f8054906101000a900473ffffffffffffffffffffffffffffffffffffffff1673ffffffffffffffffffffffffffffffffffffffff163373ffffffffffffffffffffffffffffffffffffffff160361084d575f8054906101000a900473ffffffffffffffffffffffffffffffffffffffff169150600554905061097d565b60065f9054906101000a900473ffffffffffffffffffffffffffffffffffffffff1673ffffffffffffffffffffffffffffffffffffffff163373ffffffffffffffffffffffffffffffffffffffff16036109385760065f9054906101000a900473ffffffffffffffffffffffffffffffffffffffff16915060055460075f60065f9054906101000a900473ffffffffffffffffffffffffffffffffffffffff1673ffffffffffffffffffffffffffffffffffffffff1673ffffffffffffffffffffffffffffffffffffffff1681526020019081526020015f20546109319190610c83565b905061097c565b33915060075f3373ffffffffffffffffffffffffffffffffffffffff1673ffffffffffffffffffffffffffffffffffffffff1681526020019081526020015f205490505b5b5b5f60075f8473ffffffffffffffffffffffffffffffffffffffff1673ffffffffffffffffffffffffffffffffffffffff1681526020019081526020015f20819055508173ffffffffffffffffffffffffffffffffffffffff166108fc8290811502906040515f60405180830381858888f19350505050158015610a03573d5f803e3d5ffd5b505050565b5f81831115610a175781610a19565b825b905092915050565b5f819050919050565b610a3381610a21565b82525050565b5f602082019050610a4c5f830184610a2a565b92915050565b7f4e487b71000000000000000000000000000000000000000000000000000000005f52602160045260245ffd5b60048110610a9057610a8f610a52565b5b50565b5f819050610aa082610a7f565b919050565b5f610aaf82610a93565b9050919050565b610abf81610aa5565b82525050565b5f602082019050610ad85f830184610ab6565b92915050565b5f73ffffffffffffffffffffffffffffffffffffffff82169050919050565b5f610b0782610ade565b9050919050565b610b1781610afd565b82525050565b5f602082019050610b305f830184610b0e565b92915050565b5f81519050919050565b5f82825260208201905092915050565b8281835e5f83830152505050565b5f601f19601f8301169050919050565b5f610b7882610b36565b610b828185610b40565b9350610b92818560208601610b50565b610b9b81610b5e565b840191505092915050565b5f6020820190508181035f830152610bbe8184610b6e565b905092915050565b7f4e487b71000000000000000000000000000000000000000000000000000000005f52602260045260245ffd5b5f6002820490506001821680610c0a57607f821691505b602082108103610c1d57610c1c610bc6565b5b50919050565b7f4e487b71000000000000000000000000000000000000000000000000000000005f52601160045260245ffd5b5f610c5a82610a21565b9150610c6583610a21565b9250828201905080821115610c7d57610c7c610c23565b5b92915050565b5f610c8d82610a21565b9150610c9883610a21565b9250828203905081811115610cb057610caf610c23565b5b9291505056fea2646970667358221220613c40955c5d4cdcf5a0a362cce10054fe958b52390048c6eb00620bb04f4a6564736f6c634300081a0033a264697066735822122038372bcc7081936f1a28bfd0684466499a5af27f4c221d8e26a8d93fec13c72864736f6c634300081a0033",
					"opcodes": "PUSH1 0x80 PUSH1 0x40 MSTORE CALLVALUE DUP1 ISZERO PUSH1 0xE JUMPI PUSH0 DUP1 REVERT JUMPDEST POP PUSH2 0x14B0 DUP1 PUSH2 0x1C PUSH0 CODECOPY PUSH0 RETURN INVALID PUSH1 0x80 PUSH1 0x40 MSTORE CALLVALUE DUP1 ISZERO PUSH2 0xF JUMPI PUSH0 DUP1 REVERT JUMPDEST POP PUSH1 0x4 CALLDATASIZE LT PUSH2 0x34 JUMPI PUSH0 CALLDATALOAD PUSH1 0xE0 SHR DUP1 PUSH4 0x571A26A0 EQ PUSH2 0x38 JUMPI DUP1 PUSH4 0xF5811447 EQ PUSH2 0x68 JUMPI JUMPDEST PUSH0 DUP1 REVERT JUMPDEST PUSH2 0x52 PUSH1 0x4 DUP1 CALLDATASIZE SUB DUP2 ADD SWAP1 PUSH2 0x4D SWAP2 SWAP1 PUSH2 0x186 JUMP JUMPDEST PUSH2 0x72 JUMP JUMPDEST PUSH1 0x40 MLOAD PUSH2 0x5F SWAP2 SWAP1 PUSH2 0x22B JUMP JUMPDEST PUSH1 0x40 MLOAD DUP1 SWAP2 SUB SWAP1 RETURN JUMPDEST PUSH2 0x70 PUSH2 0xAC JUMP JUMPDEST STOP JUMPDEST PUSH0 DUP2 DUP2 SLOAD DUP2 LT PUSH2 0x80 JUMPI PUSH0 DUP1 REVERT JUMPDEST SWAP1 PUSH0 MSTORE PUSH1 0x20 PUSH0 KECCAK256 ADD PUSH0 SWAP2 POP SLOAD SWAP1 PUSH2 0x100 EXP SWAP1 DIV PUSH20 0xFFFFFFFFFFFFFFFFFFFFFFFFFFFFFFFFFFFFFFFF AND DUP2 JUMP JUMPDEST PUSH0 CALLER PUSH1 0x40 MLOAD PUSH2 0xBA SWAP1 PUSH2 0x142 JUMP JUMPDEST PUSH2 0xC4 SWAP2 SWAP1 PUSH2 0x264 JUMP JUMPDEST PUSH1 0x40 MLOAD DUP1 SWAP2 SUB SWAP1 PUSH0 CREATE DUP1 ISZERO DUP1 ISZERO PUSH2 0xDD JUMPI RETURNDATASIZE PUSH0 DUP1 RETURNDATACOPY RETURNDATASIZE PUSH0 REVERT JUMPDEST POP SWAP1 POP PUSH0 DUP2 SWAP1 DUP1 PUSH1 0x1 DUP2 SLOAD ADD DUP1 DUP3 SSTORE DUP1 SWAP2 POP POP PUSH1 0x1 SWAP1 SUB SWAP1 PUSH0 MSTORE PUSH1 0x20 PUSH0 KECCAK256 ADD PUSH0 SWAP1 SWAP2 SWAP1 SWAP2 SWAP1 SWAP2 PUSH2 0x100 EXP DUP2 SLOAD DUP2 PUSH20 0xFFFFFFFFFFFFFFFFFFFFFFFFFFFFFFFFFFFFFFFF MUL NOT AND SWAP1 DUP4 PUSH20 0xFFFFFFFFFFFFFFFFFFFFFFFFFFFFFFFFFFFFFFFF AND MUL OR SWAP1 SSTORE POP POP JUMP JUMPDEST PUSH2 0x11FD DUP1 PUSH2 0x27E DUP4 CODECOPY ADD SWAP1 JUMP JUMPDEST PUSH0 DUP1 REVERT JUMPDEST PUSH0 DUP2 SWAP1 POP SWAP2 SWAP1 POP JUMP JUMPDEST PUSH2 0x165 DUP2 PUSH2 0x153 JUMP JUMPDEST DUP2 EQ PUSH2 0x16F JUMPI PUSH0 DUP1 REVERT JUMPDEST POP JUMP JUMPDEST PUSH0 DUP2 CALLDATALOAD SWAP1 POP PUSH2 0x180 DUP2 PUSH2 0x15C JUMP JUMPDEST SWAP3 SWAP2 POP POP JUMP JUMPDEST PUSH0 PUSH1 0x20 DUP3 DUP5 SUB SLT ISZERO PUSH2 0x19B JUMPI PUSH2 0x19A PUSH2 0x14F JUMP JUMPDEST JUMPDEST PUSH0 PUSH2 0x1A8 DUP5 DUP3 DUP6 ADD PUSH2 0x172 JUMP JUMPDEST SWAP2 POP POP SWAP3 SWAP2 POP POP JUMP JUMPDEST PUSH0 PUSH20 0xFFFFFFFFFFFFFFFFFFFFFFFFFFFFFFFFFFFFFFFF DUP3 AND SWAP1 POP SWAP2 SWAP1 POP JUMP JUMPDEST PUSH0 DUP2 SWAP1 POP SWAP2 SWAP1 POP JUMP JUMPDEST PUSH0 PUSH2 0x1F3 PUSH2 0x1EE PUSH2 0x1E9 DUP5 PUSH2 0x1B1 JUMP JUMPDEST PUSH2 0x1D0 JUMP JUMPDEST PUSH2 0x1B1 JUMP JUMPDEST SWAP1 POP SWAP2 SWAP1 POP JUMP JUMPDEST PUSH0 PUSH2 0x204 DUP3 PUSH2 0x1D9 JUMP JUMPDEST SWAP1 POP SWAP2 SWAP1 POP JUMP JUMPDEST PUSH0 PUSH2 0x215 DUP3 PUSH2 0x1FA JUMP JUMPDEST SWAP1 POP SWAP2 SWAP1 POP JUMP JUMPDEST PUSH2 0x225 DUP2 PUSH2 0x20B JUMP JUMPDEST DUP3 MSTORE POP POP JUMP JUMPDEST PUSH0 PUSH1 0x20 DUP3 ADD SWAP1 POP PUSH2 0x23E PUSH0 DUP4 ADD DUP5 PUSH2 0x21C JUMP JUMPDEST SWAP3 SWAP2 POP POP JUMP JUMPDEST PUSH0 PUSH2 0x24E DUP3 PUSH2 0x1B1 JUMP JUMPDEST SWAP1 POP SWAP2 SWAP1 POP JUMP JUMPDEST PUSH2 0x25E DUP2 PUSH2 0x244 JUMP JUMPDEST DUP3 MSTORE POP POP JUMP JUMPDEST PUSH0 PUSH1 0x20 DUP3 ADD SWAP1 POP PUSH2 0x277 PUSH0 DUP4 ADD DUP5 PUSH2 0x255 JUMP JUMPDEST SWAP3 SWAP2 POP POP JUMP INVALID PUSH1 0x80 PUSH1 0x40 MSTORE CALLVALUE DUP1 ISZERO PUSH2 0xF JUMPI PUSH0 DUP1 REVERT JUMPDEST POP PUSH1 0x40 MLOAD PUSH2 0x11FD CODESIZE SUB DUP1 PUSH2 0x11FD DUP4 CODECOPY DUP2 DUP2 ADD PUSH1 0x40 MSTORE DUP2 ADD SWAP1 PUSH2 0x31 SWAP2 SWAP1 PUSH2 0x143 JUMP JUMPDEST DUP1 PUSH0 DUP1 PUSH2 0x100 EXP DUP2 SLOAD DUP2 PUSH20 0xFFFFFFFFFFFFFFFFFFFFFFFFFFFFFFFFFFFFFFFF MUL NOT AND SWAP1 DUP4 PUSH20 0xFFFFFFFFFFFFFFFFFFFFFFFFFFFFFFFFFFFFFFFF AND MUL OR SWAP1 SSTORE POP PUSH1 0x1 PUSH1 0x4 PUSH0 PUSH2 0x100 EXP DUP2 SLOAD DUP2 PUSH1 0xFF MUL NOT AND SWAP1 DUP4 PUSH1 0x3 DUP2 GT ISZERO PUSH2 0x95 JUMPI PUSH2 0x94 PUSH2 0x16E JUMP JUMPDEST JUMPDEST MUL OR SWAP1 SSTORE POP NUMBER PUSH1 0x1 DUP2 SWAP1 SSTORE POP PUSH1 0x3 PUSH1 0x1 SLOAD PUSH2 0xB0 SWAP2 SWAP1 PUSH2 0x1D1 JUMP JUMPDEST PUSH1 0x2 DUP2 SWAP1 SSTORE POP PUSH1 0x40 MLOAD DUP1 PUSH1 0x20 ADD PUSH1 0x40 MSTORE DUP1 PUSH0 DUP2 MSTORE POP PUSH1 0x3 SWAP1 DUP2 PUSH2 0xD3 SWAP2 SWAP1 PUSH2 0x435 JUMP JUMPDEST POP PUSH4 0x3B9ACA00 PUSH1 0x8 DUP2 SWAP1 SSTORE POP POP PUSH2 0x504 JUMP JUMPDEST PUSH0 DUP1 REVERT JUMPDEST PUSH0 PUSH20 0xFFFFFFFFFFFFFFFFFFFFFFFFFFFFFFFFFFFFFFFF DUP3 AND SWAP1 POP SWAP2 SWAP1 POP JUMP JUMPDEST PUSH0 PUSH2 0x112 DUP3 PUSH2 0xE9 JUMP JUMPDEST SWAP1 POP SWAP2 SWAP1 POP JUMP JUMPDEST PUSH2 0x122 DUP2 PUSH2 0x108 JUMP JUMPDEST DUP2 EQ PUSH2 0x12C JUMPI PUSH0 DUP1 REVERT JUMPDEST POP JUMP JUMPDEST PUSH0 DUP2 MLOAD SWAP1 POP PUSH2 0x13D DUP2 PUSH2 0x119 JUMP JUMPDEST SWAP3 SWAP2 POP POP JUMP JUMPDEST PUSH0 PUSH1 0x20 DUP3 DUP5 SUB SLT ISZERO PUSH2 0x158 JUMPI PUSH2 0x157 PUSH2 0xE5 JUMP JUMPDEST JUMPDEST PUSH0 PUSH2 0x165 DUP5 DUP3 DUP6 ADD PUSH2 0x12F JUMP JUMPDEST SWAP2 POP POP SWAP3 SWAP2 POP POP JUMP JUMPDEST PUSH32 0x4E487B7100000000000000000000000000000000000000000000000000000000 PUSH0 MSTORE PUSH1 0x21 PUSH1 0x4 MSTORE PUSH1 0x24 PUSH0 REVERT JUMPDEST PUSH0 DUP2 SWAP1 POP SWAP2 SWAP1 POP JUMP JUMPDEST PUSH32 0x4E487B7100000000000000000000000000000000000000000000000000000000 PUSH0 MSTORE PUSH1 0x11 PUSH1 0x4 MSTORE PUSH1 0x24 PUSH0 REVERT JUMPDEST PUSH0 PUSH2 0x1DB DUP3 PUSH2 0x19B JUMP JUMPDEST SWAP2 POP PUSH2 0x1E6 DUP4 PUSH2 0x19B JUMP JUMPDEST SWAP3 POP DUP3 DUP3 ADD SWAP1 POP DUP1 DUP3 GT ISZERO PUSH2 0x1FE JUMPI PUSH2 0x1FD PUSH2 0x1A4 JUMP JUMPDEST JUMPDEST SWAP3 SWAP2 POP POP JUMP JUMPDEST PUSH0 DUP2 MLOAD SWAP1 POP SWAP2 SWAP1 POP JUMP JUMPDEST PUSH32 0x4E487B7100000000000000000000000000000000000000000000000000000000 PUSH0 MSTORE PUSH1 0x41 PUSH1 0x4 MSTORE PUSH1 0x24 PUSH0 REVERT JUMPDEST PUSH32 0x4E487B7100000000000000000000000000000000000000000000000000000000 PUSH0 MSTORE PUSH1 0x22 PUSH1 0x4 MSTORE PUSH1 0x24 PUSH0 REVERT JUMPDEST PUSH0 PUSH1 0x2 DUP3 DIV SWAP1 POP PUSH1 0x1 DUP3 AND DUP1 PUSH2 0x27F JUMPI PUSH1 0x7F DUP3 AND SWAP2 POP JUMPDEST PUSH1 0x20 DUP3 LT DUP2 SUB PUSH2 0x292 JUMPI PUSH2 0x291 PUSH2 0x23B JUMP JUMPDEST JUMPDEST POP SWAP2 SWAP1 POP JUMP JUMPDEST PUSH0 DUP2 SWAP1 POP DUP2 PUSH0 MSTORE PUSH1 0x20 PUSH0 KECCAK256 SWAP1 POP SWAP2 SWAP1 POP JUMP JUMPDEST PUSH0 PUSH1 0x20 PUSH1 0x1F DUP4 ADD DIV SWAP1 POP SWAP2 SWAP1 POP JUMP JUMPDEST PUSH0 DUP3 DUP3 SHL SWAP1 POP SWAP3 SWAP2 POP POP JUMP JUMPDEST PUSH0 PUSH1 0x8 DUP4 MUL PUSH2 0x2F4 PUSH32 0xFFFFFFFFFFFFFFFFFFFFFFFFFFFFFFFFFFFFFFFFFFFFFFFFFFFFFFFFFFFFFFFF DUP3 PUSH2 0x2B9 JUMP JUMPDEST PUSH2 0x2FE DUP7 DUP4 PUSH2 0x2B9 JUMP JUMPDEST SWAP6 POP DUP1 NOT DUP5 AND SWAP4 POP DUP1 DUP7 AND DUP5 OR SWAP3 POP POP POP SWAP4 SWAP3 POP POP POP JUMP JUMPDEST PUSH0 DUP2 SWAP1 POP SWAP2 SWAP1 POP JUMP JUMPDEST PUSH0 PUSH2 0x339 PUSH2 0x334 PUSH2 0x32F DUP5 PUSH2 0x19B JUMP JUMPDEST PUSH2 0x316 JUMP JUMPDEST PUSH2 0x19B JUMP JUMPDEST SWAP1 POP SWAP2 SWAP1 POP JUMP JUMPDEST PUSH0 DUP2 SWAP1 POP SWAP2 SWAP1 POP JUMP JUMPDEST PUSH2 0x352 DUP4 PUSH2 0x31F JUMP JUMPDEST PUSH2 0x366 PUSH2 0x35E DUP3 PUSH2 0x340 JUMP JUMPDEST DUP5 DUP5 SLOAD PUSH2 0x2C5 JUMP JUMPDEST DUP3 SSTORE POP POP POP POP JUMP JUMPDEST PUSH0 SWAP1 JUMP JUMPDEST PUSH2 0x37A PUSH2 0x36E JUMP JUMPDEST PUSH2 0x385 DUP2 DUP5 DUP5 PUSH2 0x349 JUMP JUMPDEST POP POP POP JUMP JUMPDEST JUMPDEST DUP2 DUP2 LT ISZERO PUSH2 0x3A8 JUMPI PUSH2 0x39D PUSH0 DUP3 PUSH2 0x372 JUMP JUMPDEST PUSH1 0x1 DUP2 ADD SWAP1 POP PUSH2 0x38B JUMP JUMPDEST POP POP JUMP JUMPDEST PUSH1 0x1F DUP3 GT ISZERO PUSH2 0x3ED JUMPI PUSH2 0x3BE DUP2 PUSH2 0x298 JUMP JUMPDEST PUSH2 0x3C7 DUP5 PUSH2 0x2AA JUMP JUMPDEST DUP2 ADD PUSH1 0x20 DUP6 LT ISZERO PUSH2 0x3D6 JUMPI DUP2 SWAP1 POP JUMPDEST PUSH2 0x3EA PUSH2 0x3E2 DUP6 PUSH2 0x2AA JUMP JUMPDEST DUP4 ADD DUP3 PUSH2 0x38A JUMP JUMPDEST POP POP JUMPDEST POP POP POP JUMP JUMPDEST PUSH0 DUP3 DUP3 SHR SWAP1 POP SWAP3 SWAP2 POP POP JUMP JUMPDEST PUSH0 PUSH2 0x40D PUSH0 NOT DUP5 PUSH1 0x8 MUL PUSH2 0x3F2 JUMP JUMPDEST NOT DUP1 DUP4 AND SWAP2 POP POP SWAP3 SWAP2 POP POP JUMP JUMPDEST PUSH0 PUSH2 0x425 DUP4 DUP4 PUSH2 0x3FE JUMP JUMPDEST SWAP2 POP DUP3 PUSH1 0x2 MUL DUP3 OR SWAP1 POP SWAP3 SWAP2 POP POP JUMP JUMPDEST PUSH2 0x43E DUP3 PUSH2 0x204 JUMP JUMPDEST PUSH8 0xFFFFFFFFFFFFFFFF DUP2 GT ISZERO PUSH2 0x457 JUMPI PUSH2 0x456 PUSH2 0x20E JUMP JUMPDEST JUMPDEST PUSH2 0x461 DUP3 SLOAD PUSH2 0x268 JUMP JUMPDEST PUSH2 0x46C DUP3 DUP3 DUP6 PUSH2 0x3AC JUMP JUMPDEST PUSH0 PUSH1 0x20 SWAP1 POP PUSH1 0x1F DUP4 GT PUSH1 0x1 DUP2 EQ PUSH2 0x49D JUMPI PUSH0 DUP5 ISZERO PUSH2 0x48B JUMPI DUP3 DUP8 ADD MLOAD SWAP1 POP JUMPDEST PUSH2 0x495 DUP6 DUP3 PUSH2 0x41A JUMP JUMPDEST DUP7 SSTORE POP PUSH2 0x4FC JUMP JUMPDEST PUSH1 0x1F NOT DUP5 AND PUSH2 0x4AB DUP7 PUSH2 0x298 JUMP JUMPDEST PUSH0 JUMPDEST DUP3 DUP2 LT ISZERO PUSH2 0x4D2 JUMPI DUP5 DUP10 ADD MLOAD DUP3 SSTORE PUSH1 0x1 DUP3 ADD SWAP2 POP PUSH1 0x20 DUP6 ADD SWAP5 POP PUSH1 0x20 DUP2 ADD SWAP1 POP PUSH2 0x4AD JUMP JUMPDEST DUP7 DUP4 LT ISZERO PUSH2 0x4EF JUMPI DUP5 DUP10 ADD MLOAD PUSH2 0x4EB PUSH1 0x1F DUP10 AND DUP3 PUSH2 0x3FE JUMP JUMPDEST DUP4 SSTORE POP JUMPDEST PUSH1 0x1 PUSH1 0x2 DUP9 MUL ADD DUP9 SSTORE POP POP POP JUMPDEST POP POP POP POP POP POP JUMP JUMPDEST PUSH2 0xCEC DUP1 PUSH2 0x511 PUSH0 CODECOPY PUSH0 RETURN INVALID PUSH1 0x80 PUSH1 0x40 MSTORE PUSH1 0x4 CALLDATASIZE LT PUSH2 0x90 JUMPI PUSH0 CALLDATALOAD PUSH1 0xE0 SHR DUP1 PUSH4 0x91F90157 GT PUSH2 0x58 JUMPI DUP1 PUSH4 0x91F90157 EQ PUSH2 0x152 JUMPI DUP1 PUSH4 0xC623674F EQ PUSH2 0x17C JUMPI DUP1 PUSH4 0xECFC7ECC EQ PUSH2 0x1A6 JUMPI DUP1 PUSH4 0xF5B56C56 EQ PUSH2 0x1B0 JUMPI DUP1 PUSH4 0xF77282AB EQ PUSH2 0x1DA JUMPI PUSH2 0x90 JUMP JUMPDEST DUP1 PUSH4 0x83C6323 EQ PUSH2 0x94 JUMPI DUP1 PUSH4 0x48CD4CB1 EQ PUSH2 0xBE JUMPI DUP1 PUSH4 0x7FB45099 EQ PUSH2 0xE8 JUMPI DUP1 PUSH4 0x8DA5CB5B EQ PUSH2 0x112 JUMPI DUP1 PUSH4 0x8FA8B790 EQ PUSH2 0x13C JUMPI JUMPDEST PUSH0 DUP1 REVERT JUMPDEST CALLVALUE DUP1 ISZERO PUSH2 0x9F JUMPI PUSH0 DUP1 REVERT JUMPDEST POP PUSH2 0xA8 PUSH2 0x1F0 JUMP JUMPDEST PUSH1 0x40 MLOAD PUSH2 0xB5 SWAP2 SWAP1 PUSH2 0xA39 JUMP JUMPDEST PUSH1 0x40 MLOAD DUP1 SWAP2 SUB SWAP1 RETURN JUMPDEST CALLVALUE DUP1 ISZERO PUSH2 0xC9 JUMPI PUSH0 DUP1 REVERT JUMPDEST POP PUSH2 0xD2 PUSH2 0x1F6 JUMP JUMPDEST PUSH1 0x40 MLOAD PUSH2 0xDF SWAP2 SWAP1 PUSH2 0xA39 JUMP JUMPDEST PUSH1 0x40 MLOAD DUP1 SWAP2 SUB SWAP1 RETURN JUMPDEST CALLVALUE DUP1 ISZERO PUSH2 0xF3 JUMPI PUSH0 DUP1 REVERT JUMPDEST POP PUSH2 0xFC PUSH2 0x1FC JUMP JUMPDEST PUSH1 0x40 MLOAD PUSH2 0x109 SWAP2 SWAP1 PUSH2 0xAC5 JUMP JUMPDEST PUSH1 0x40 MLOAD DUP1 SWAP2 SUB SWAP1 RETURN JUMPDEST CALLVALUE DUP1 ISZERO PUSH2 0x11D JUMPI PUSH0 DUP1 REVERT JUMPDEST POP PUSH2 0x126 PUSH2 0x20E JUMP JUMPDEST PUSH1 0x40 MLOAD PUSH2 0x133 SWAP2 SWAP1 PUSH2 0xB1D JUMP JUMPDEST PUSH1 0x40 MLOAD DUP1 SWAP2 SUB SWAP1 RETURN JUMPDEST CALLVALUE DUP1 ISZERO PUSH2 0x147 JUMPI PUSH0 DUP1 REVERT JUMPDEST POP PUSH2 0x150 PUSH2 0x231 JUMP JUMPDEST STOP JUMPDEST CALLVALUE DUP1 ISZERO PUSH2 0x15D JUMPI PUSH0 DUP1 REVERT JUMPDEST POP PUSH2 0x166 PUSH2 0x2B3 JUMP JUMPDEST PUSH1 0x40 MLOAD PUSH2 0x173 SWAP2 SWAP1 PUSH2 0xB1D JUMP JUMPDEST PUSH1 0x40 MLOAD DUP1 SWAP2 SUB SWAP1 RETURN JUMPDEST CALLVALUE DUP1 ISZERO PUSH2 0x187 JUMPI PUSH0 DUP1 REVERT JUMPDEST POP PUSH2 0x190 PUSH2 0x2D8 JUMP JUMPDEST PUSH1 0x40 MLOAD PUSH2 0x19D SWAP2 SWAP1 PUSH2 0xBA6 JUMP JUMPDEST PUSH1 0x40 MLOAD DUP1 SWAP2 SUB SWAP1 RETURN JUMPDEST PUSH2 0x1AE PUSH2 0x364 JUMP JUMPDEST STOP JUMPDEST CALLVALUE DUP1 ISZERO PUSH2 0x1BB JUMPI PUSH0 DUP1 REVERT JUMPDEST POP PUSH2 0x1C4 PUSH2 0x660 JUMP JUMPDEST PUSH1 0x40 MLOAD PUSH2 0x1D1 SWAP2 SWAP1 PUSH2 0xA39 JUMP JUMPDEST PUSH1 0x40 MLOAD DUP1 SWAP2 SUB SWAP1 RETURN JUMPDEST CALLVALUE DUP1 ISZERO PUSH2 0x1E5 JUMPI PUSH0 DUP1 REVERT JUMPDEST POP PUSH2 0x1EE PUSH2 0x666 JUMP JUMPDEST STOP JUMPDEST PUSH1 0x2 SLOAD DUP2 JUMP JUMPDEST PUSH1 0x1 SLOAD DUP2 JUMP JUMPDEST PUSH1 0x4 PUSH0 SWAP1 SLOAD SWAP1 PUSH2 0x100 EXP SWAP1 DIV PUSH1 0xFF AND DUP2 JUMP JUMPDEST PUSH0 DUP1 SLOAD SWAP1 PUSH2 0x100 EXP SWAP1 DIV PUSH20 0xFFFFFFFFFFFFFFFFFFFFFFFFFFFFFFFFFFFFFFFF AND DUP2 JUMP JUMPDEST CALLER PUSH20 0xFFFFFFFFFFFFFFFFFFFFFFFFFFFFFFFFFFFFFFFF AND PUSH0 DUP1 SLOAD SWAP1 PUSH2 0x100 EXP SWAP1 DIV PUSH20 0xFFFFFFFFFFFFFFFFFFFFFFFFFFFFFFFFFFFFFFFF AND PUSH20 0xFFFFFFFFFFFFFFFFFFFFFFFFFFFFFFFFFFFFFFFF AND EQ PUSH2 0x287 JUMPI PUSH0 DUP1 REVERT JUMPDEST PUSH1 0x3 PUSH1 0x4 PUSH0 PUSH2 0x100 EXP DUP2 SLOAD DUP2 PUSH1 0xFF MUL NOT AND SWAP1 DUP4 PUSH1 0x3 DUP2 GT ISZERO PUSH2 0x2AC JUMPI PUSH2 0x2AB PUSH2 0xA52 JUMP JUMPDEST JUMPDEST MUL OR SWAP1 SSTORE POP JUMP JUMPDEST PUSH1 0x6 PUSH0 SWAP1 SLOAD SWAP1 PUSH2 0x100 EXP SWAP1 DIV PUSH20 0xFFFFFFFFFFFFFFFFFFFFFFFFFFFFFFFFFFFFFFFF AND DUP2 JUMP JUMPDEST PUSH1 0x3 DUP1 SLOAD PUSH2 0x2E5 SWAP1 PUSH2 0xBF3 JUMP JUMPDEST DUP1 PUSH1 0x1F ADD PUSH1 0x20 DUP1 SWAP2 DIV MUL PUSH1 0x20 ADD PUSH1 0x40 MLOAD SWAP1 DUP2 ADD PUSH1 0x40 MSTORE DUP1 SWAP3 SWAP2 SWAP1 DUP2 DUP2 MSTORE PUSH1 0x20 ADD DUP3 DUP1 SLOAD PUSH2 0x311 SWAP1 PUSH2 0xBF3 JUMP JUMPDEST DUP1 ISZERO PUSH2 0x35C JUMPI DUP1 PUSH1 0x1F LT PUSH2 0x333 JUMPI PUSH2 0x100 DUP1 DUP4 SLOAD DIV MUL DUP4 MSTORE SWAP2 PUSH1 0x20 ADD SWAP2 PUSH2 0x35C JUMP JUMPDEST DUP3 ADD SWAP2 SWAP1 PUSH0 MSTORE PUSH1 0x20 PUSH0 KECCAK256 SWAP1 JUMPDEST DUP2 SLOAD DUP2 MSTORE SWAP1 PUSH1 0x1 ADD SWAP1 PUSH1 0x20 ADD DUP1 DUP4 GT PUSH2 0x33F JUMPI DUP3 SWAP1 SUB PUSH1 0x1F AND DUP3 ADD SWAP2 JUMPDEST POP POP POP POP POP DUP2 JUMP JUMPDEST CALLER PUSH20 0xFFFFFFFFFFFFFFFFFFFFFFFFFFFFFFFFFFFFFFFF AND PUSH0 DUP1 SLOAD SWAP1 PUSH2 0x100 EXP SWAP1 DIV PUSH20 0xFFFFFFFFFFFFFFFFFFFFFFFFFFFFFFFFFFFFFFFF AND PUSH20 0xFFFFFFFFFFFFFFFFFFFFFFFFFFFFFFFFFFFFFFFF AND SUB PUSH2 0x3BA JUMPI PUSH0 DUP1 REVERT JUMPDEST PUSH1 0x1 SLOAD NUMBER LT ISZERO PUSH2 0x3C8 JUMPI PUSH0 DUP1 REVERT JUMPDEST PUSH1 0x2 SLOAD NUMBER GT ISZERO PUSH2 0x3D6 JUMPI PUSH0 DUP1 REVERT JUMPDEST PUSH1 0x1 PUSH1 0x3 DUP2 GT ISZERO PUSH2 0x3EA JUMPI PUSH2 0x3E9 PUSH2 0xA52 JUMP JUMPDEST JUMPDEST PUSH1 0x4 PUSH0 SWAP1 SLOAD SWAP1 PUSH2 0x100 EXP SWAP1 DIV PUSH1 0xFF AND PUSH1 0x3 DUP2 GT ISZERO PUSH2 0x40B JUMPI PUSH2 0x40A PUSH2 0xA52 JUMP JUMPDEST JUMPDEST EQ PUSH2 0x414 JUMPI PUSH0 DUP1 REVERT JUMPDEST PUSH1 0x64 CALLVALUE LT ISZERO PUSH2 0x421 JUMPI PUSH0 DUP1 REVERT JUMPDEST PUSH0 CALLVALUE PUSH1 0x7 PUSH0 CALLER PUSH20 0xFFFFFFFFFFFFFFFFFFFFFFFFFFFFFFFFFFFFFFFF AND PUSH20 0xFFFFFFFFFFFFFFFFFFFFFFFFFFFFFFFFFFFFFFFF AND DUP2 MSTORE PUSH1 0x20 ADD SWAP1 DUP2 MSTORE PUSH1 0x20 ADD PUSH0 KECCAK256 SLOAD PUSH2 0x46B SWAP2 SWAP1 PUSH2 0xC50 JUMP JUMPDEST SWAP1 POP PUSH1 0x5 SLOAD DUP2 GT PUSH2 0x47A JUMPI PUSH0 DUP1 REVERT JUMPDEST DUP1 PUSH1 0x7 PUSH0 CALLER PUSH20 0xFFFFFFFFFFFFFFFFFFFFFFFFFFFFFFFFFFFFFFFF AND PUSH20 0xFFFFFFFFFFFFFFFFFFFFFFFFFFFFFFFFFFFFFFFF AND DUP2 MSTORE PUSH1 0x20 ADD SWAP1 DUP2 MSTORE PUSH1 0x20 ADD PUSH0 KECCAK256 DUP2 SWAP1 SSTORE POP PUSH1 0x7 PUSH0 PUSH1 0x6 PUSH0 SWAP1 SLOAD SWAP1 PUSH2 0x100 EXP SWAP1 DIV PUSH20 0xFFFFFFFFFFFFFFFFFFFFFFFFFFFFFFFFFFFFFFFF AND PUSH20 0xFFFFFFFFFFFFFFFFFFFFFFFFFFFFFFFFFFFFFFFF AND PUSH20 0xFFFFFFFFFFFFFFFFFFFFFFFFFFFFFFFFFFFFFFFF AND DUP2 MSTORE PUSH1 0x20 ADD SWAP1 DUP2 MSTORE PUSH1 0x20 ADD PUSH0 KECCAK256 SLOAD DUP2 GT PUSH2 0x5A1 JUMPI PUSH2 0x596 PUSH1 0x7 PUSH0 PUSH1 0x6 PUSH0 SWAP1 SLOAD SWAP1 PUSH2 0x100 EXP SWAP1 DIV PUSH20 0xFFFFFFFFFFFFFFFFFFFFFFFFFFFFFFFFFFFFFFFF AND PUSH20 0xFFFFFFFFFFFFFFFFFFFFFFFFFFFFFFFFFFFFFFFF AND PUSH20 0xFFFFFFFFFFFFFFFFFFFFFFFFFFFFFFFFFFFFFFFF AND DUP2 MSTORE PUSH1 0x20 ADD SWAP1 DUP2 MSTORE PUSH1 0x20 ADD PUSH0 KECCAK256 SLOAD DUP3 PUSH1 0x8 SLOAD PUSH2 0x591 SWAP2 SWAP1 PUSH2 0xC50 JUMP JUMPDEST PUSH2 0xA08 JUMP JUMPDEST PUSH1 0x5 DUP2 SWAP1 SSTORE POP PUSH2 0x65D JUMP JUMPDEST PUSH2 0x616 PUSH1 0x8 SLOAD PUSH1 0x7 PUSH0 PUSH1 0x6 PUSH0 SWAP1 SLOAD SWAP1 PUSH2 0x100 EXP SWAP1 DIV PUSH20 0xFFFFFFFFFFFFFFFFFFFFFFFFFFFFFFFFFFFFFFFF AND PUSH20 0xFFFFFFFFFFFFFFFFFFFFFFFFFFFFFFFFFFFFFFFF AND PUSH20 0xFFFFFFFFFFFFFFFFFFFFFFFFFFFFFFFFFFFFFFFF AND DUP2 MSTORE PUSH1 0x20 ADD SWAP1 DUP2 MSTORE PUSH1 0x20 ADD PUSH0 KECCAK256 SLOAD PUSH2 0x610 SWAP2 SWAP1 PUSH2 0xC50 JUMP JUMPDEST DUP3 PUSH2 0xA08 JUMP JUMPDEST PUSH1 0x5 DUP2 SWAP1 SSTORE POP CALLER PUSH1 0x6 PUSH0 PUSH2 0x100 EXP DUP2 SLOAD DUP2 PUSH20 0xFFFFFFFFFFFFFFFFFFFFFFFFFFFFFFFFFFFFFFFF MUL NOT AND SWAP1 DUP4 PUSH20 0xFFFFFFFFFFFFFFFFFFFFFFFFFFFFFFFFFFFFFFFF AND MUL OR SWAP1 SSTORE POP JUMPDEST POP JUMP JUMPDEST PUSH1 0x5 SLOAD DUP2 JUMP JUMPDEST PUSH1 0x3 DUP1 DUP2 GT ISZERO PUSH2 0x679 JUMPI PUSH2 0x678 PUSH2 0xA52 JUMP JUMPDEST JUMPDEST PUSH1 0x4 PUSH0 SWAP1 SLOAD SWAP1 PUSH2 0x100 EXP SWAP1 DIV PUSH1 0xFF AND PUSH1 0x3 DUP2 GT ISZERO PUSH2 0x69A JUMPI PUSH2 0x699 PUSH2 0xA52 JUMP JUMPDEST JUMPDEST EQ DUP1 PUSH2 0x6A7 JUMPI POP PUSH1 0x2 SLOAD NUMBER GT JUMPDEST PUSH2 0x6AF JUMPI PUSH0 DUP1 REVERT JUMPDEST PUSH0 DUP1 SLOAD SWAP1 PUSH2 0x100 EXP SWAP1 DIV PUSH20 0xFFFFFFFFFFFFFFFFFFFFFFFFFFFFFFFFFFFFFFFF AND PUSH20 0xFFFFFFFFFFFFFFFFFFFFFFFFFFFFFFFFFFFFFFFF AND CALLER PUSH20 0xFFFFFFFFFFFFFFFFFFFFFFFFFFFFFFFFFFFFFFFF AND EQ DUP1 PUSH2 0x744 JUMPI POP PUSH0 PUSH1 0x7 PUSH0 CALLER PUSH20 0xFFFFFFFFFFFFFFFFFFFFFFFFFFFFFFFFFFFFFFFF AND PUSH20 0xFFFFFFFFFFFFFFFFFFFFFFFFFFFFFFFFFFFFFFFF AND DUP2 MSTORE PUSH1 0x20 ADD SWAP1 DUP2 MSTORE PUSH1 0x20 ADD PUSH0 KECCAK256 SLOAD GT JUMPDEST PUSH2 0x74C JUMPI PUSH0 DUP1 REVERT JUMPDEST PUSH0 DUP1 PUSH1 0x3 DUP1 DUP2 GT ISZERO PUSH2 0x761 JUMPI PUSH2 0x760 PUSH2 0xA52 JUMP JUMPDEST JUMPDEST PUSH1 0x4 PUSH0 SWAP1 SLOAD SWAP1 PUSH2 0x100 EXP SWAP1 DIV PUSH1 0xFF AND PUSH1 0x3 DUP2 GT ISZERO PUSH2 0x782 JUMPI PUSH2 0x781 PUSH2 0xA52 JUMP JUMPDEST JUMPDEST SUB PUSH2 0x7CF JUMPI CALLER SWAP2 POP PUSH1 0x7 PUSH0 CALLER PUSH20 0xFFFFFFFFFFFFFFFFFFFFFFFFFFFFFFFFFFFFFFFF AND PUSH20 0xFFFFFFFFFFFFFFFFFFFFFFFFFFFFFFFFFFFFFFFF AND DUP2 MSTORE PUSH1 0x20 ADD SWAP1 DUP2 MSTORE PUSH1 0x20 ADD PUSH0 KECCAK256 SLOAD SWAP1 POP PUSH2 0x97E JUMP JUMPDEST PUSH0 DUP1 SLOAD SWAP1 PUSH2 0x100 EXP SWAP1 DIV PUSH20 0xFFFFFFFFFFFFFFFFFFFFFFFFFFFFFFFFFFFFFFFF AND PUSH20 0xFFFFFFFFFFFFFFFFFFFFFFFFFFFFFFFFFFFFFFFF AND CALLER PUSH20 0xFFFFFFFFFFFFFFFFFFFFFFFFFFFFFFFFFFFFFFFF AND SUB PUSH2 0x84D JUMPI PUSH0 DUP1 SLOAD SWAP1 PUSH2 0x100 EXP SWAP1 DIV PUSH20 0xFFFFFFFFFFFFFFFFFFFFFFFFFFFFFFFFFFFFFFFF AND SWAP2 POP PUSH1 0x5 SLOAD SWAP1 POP PUSH2 0x97D JUMP JUMPDEST PUSH1 0x6 PUSH0 SWAP1 SLOAD SWAP1 PUSH2 0x100 EXP SWAP1 DIV PUSH20 0xFFFFFFFFFFFFFFFFFFFFFFFFFFFFFFFFFFFFFFFF AND PUSH20 0xFFFFFFFFFFFFFFFFFFFFFFFFFFFFFFFFFFFFFFFF AND CALLER PUSH20 0xFFFFFFFFFFFFFFFFFFFFFFFFFFFFFFFFFFFFFFFF AND SUB PUSH2 0x938 JUMPI PUSH1 0x6 PUSH0 SWAP1 SLOAD SWAP1 PUSH2 0x100 EXP SWAP1 DIV PUSH20 0xFFFFFFFFFFFFFFFFFFFFFFFFFFFFFFFFFFFFFFFF AND SWAP2 POP PUSH1 0x5 SLOAD PUSH1 0x7 PUSH0 PUSH1 0x6 PUSH0 SWAP1 SLOAD SWAP1 PUSH2 0x100 EXP SWAP1 DIV PUSH20 0xFFFFFFFFFFFFFFFFFFFFFFFFFFFFFFFFFFFFFFFF AND PUSH20 0xFFFFFFFFFFFFFFFFFFFFFFFFFFFFFFFFFFFFFFFF AND PUSH20 0xFFFFFFFFFFFFFFFFFFFFFFFFFFFFFFFFFFFFFFFF AND DUP2 MSTORE PUSH1 0x20 ADD SWAP1 DUP2 MSTORE PUSH1 0x20 ADD PUSH0 KECCAK256 SLOAD PUSH2 0x931 SWAP2 SWAP1 PUSH2 0xC83 JUMP JUMPDEST SWAP1 POP PUSH2 0x97C JUMP JUMPDEST CALLER SWAP2 POP PUSH1 0x7 PUSH0 CALLER PUSH20 0xFFFFFFFFFFFFFFFFFFFFFFFFFFFFFFFFFFFFFFFF AND PUSH20 0xFFFFFFFFFFFFFFFFFFFFFFFFFFFFFFFFFFFFFFFF AND DUP2 MSTORE PUSH1 0x20 ADD SWAP1 DUP2 MSTORE PUSH1 0x20 ADD PUSH0 KECCAK256 SLOAD SWAP1 POP JUMPDEST JUMPDEST JUMPDEST PUSH0 PUSH1 0x7 PUSH0 DUP5 PUSH20 0xFFFFFFFFFFFFFFFFFFFFFFFFFFFFFFFFFFFFFFFF AND PUSH20 0xFFFFFFFFFFFFFFFFFFFFFFFFFFFFFFFFFFFFFFFF AND DUP2 MSTORE PUSH1 0x20 ADD SWAP1 DUP2 MSTORE PUSH1 0x20 ADD PUSH0 KECCAK256 DUP2 SWAP1 SSTORE POP DUP2 PUSH20 0xFFFFFFFFFFFFFFFFFFFFFFFFFFFFFFFFFFFFFFFF AND PUSH2 0x8FC DUP3 SWAP1 DUP2 ISZERO MUL SWAP1 PUSH1 0x40 MLOAD PUSH0 PUSH1 0x40 MLOAD DUP1 DUP4 SUB DUP2 DUP6 DUP9 DUP9 CALL SWAP4 POP POP POP POP ISZERO DUP1 ISZERO PUSH2 0xA03 JUMPI RETURNDATASIZE PUSH0 DUP1 RETURNDATACOPY RETURNDATASIZE PUSH0 REVERT JUMPDEST POP POP POP JUMP JUMPDEST PUSH0 DUP2 DUP4 GT ISZERO PUSH2 0xA17 JUMPI DUP2 PUSH2 0xA19 JUMP JUMPDEST DUP3 JUMPDEST SWAP1 POP SWAP3 SWAP2 POP POP JUMP JUMPDEST PUSH0 DUP2 SWAP1 POP SWAP2 SWAP1 POP JUMP JUMPDEST PUSH2 0xA33 DUP2 PUSH2 0xA21 JUMP JUMPDEST DUP3 MSTORE POP POP JUMP JUMPDEST PUSH0 PUSH1 0x20 DUP3 ADD SWAP1 POP PUSH2 0xA4C PUSH0 DUP4 ADD DUP5 PUSH2 0xA2A JUMP JUMPDEST SWAP3 SWAP2 POP POP JUMP JUMPDEST PUSH32 0x4E487B7100000000000000000000000000000000000000000000000000000000 PUSH0 MSTORE PUSH1 0x21 PUSH1 0x4 MSTORE PUSH1 0x24 PUSH0 REVERT JUMPDEST PUSH1 0x4 DUP2 LT PUSH2 0xA90 JUMPI PUSH2 0xA8F PUSH2 0xA52 JUMP JUMPDEST JUMPDEST POP JUMP JUMPDEST PUSH0 DUP2 SWAP1 POP PUSH2 0xAA0 DUP3 PUSH2 0xA7F JUMP JUMPDEST SWAP2 SWAP1 POP JUMP JUMPDEST PUSH0 PUSH2 0xAAF DUP3 PUSH2 0xA93 JUMP JUMPDEST SWAP1 POP SWAP2 SWAP1 POP JUMP JUMPDEST PUSH2 0xABF DUP2 PUSH2 0xAA5 JUMP JUMPDEST DUP3 MSTORE POP POP JUMP JUMPDEST PUSH0 PUSH1 0x20 DUP3 ADD SWAP1 POP PUSH2 0xAD8 PUSH0 DUP4 ADD DUP5 PUSH2 0xAB6 JUMP JUMPDEST SWAP3 SWAP2 POP POP JUMP JUMPDEST PUSH0 PUSH20 0xFFFFFFFFFFFFFFFFFFFFFFFFFFFFFFFFFFFFFFFF DUP3 AND SWAP1 POP SWAP2 SWAP1 POP JUMP JUMPDEST PUSH0 PUSH2 0xB07 DUP3 PUSH2 0xADE JUMP JUMPDEST SWAP1 POP SWAP2 SWAP1 POP JUMP JUMPDEST PUSH2 0xB17 DUP2 PUSH2 0xAFD JUMP JUMPDEST DUP3 MSTORE POP POP JUMP JUMPDEST PUSH0 PUSH1 0x20 DUP3 ADD SWAP1 POP PUSH2 0xB30 PUSH0 DUP4 ADD DUP5 PUSH2 0xB0E JUMP JUMPDEST SWAP3 SWAP2 POP POP JUMP JUMPDEST PUSH0 DUP2 MLOAD SWAP1 POP SWAP2 SWAP1 POP JUMP JUMPDEST PUSH0 DUP3 DUP3 MSTORE PUSH1 0x20 DUP3 ADD SWAP1 POP SWAP3 SWAP2 POP POP JUMP JUMPDEST DUP3 DUP2 DUP4 MCOPY PUSH0 DUP4 DUP4 ADD MSTORE POP POP POP JUMP JUMPDEST PUSH0 PUSH1 0x1F NOT PUSH1 0x1F DUP4 ADD AND SWAP1 POP SWAP2 SWAP1 POP JUMP JUMPDEST PUSH0 PUSH2 0xB78 DUP3 PUSH2 0xB36 JUMP JUMPDEST PUSH2 0xB82 DUP2 DUP6 PUSH2 0xB40 JUMP JUMPDEST SWAP4 POP PUSH2 0xB92 DUP2 DUP6 PUSH1 0x20 DUP7 ADD PUSH2 0xB50 JUMP JUMPDEST PUSH2 0xB9B DUP2 PUSH2 0xB5E JUMP JUMPDEST DUP5 ADD SWAP2 POP POP SWAP3 SWAP2 POP POP JUMP JUMPDEST PUSH0 PUSH1 0x20 DUP3 ADD SWAP1 POP DUP2 DUP2 SUB PUSH0 DUP4 ADD MSTORE PUSH2 0xBBE DUP2 DUP5 PUSH2 0xB6E JUMP JUMPDEST SWAP1 POP SWAP3 SWAP2 POP POP JUMP JUMPDEST PUSH32 0x4E487B7100000000000000000000000000000000000000000000000000000000 PUSH0 MSTORE PUSH1 0x22 PUSH1 0x4 MSTORE PUSH1 0x24 PUSH0 REVERT JUMPDEST PUSH0 PUSH1 0x2 DUP3 DIV SWAP1 POP PUSH1 0x1 DUP3 AND DUP1 PUSH2 0xC0A JUMPI PUSH1 0x7F DUP3 AND SWAP2 POP JUMPDEST PUSH1 0x20 DUP3 LT DUP2 SUB PUSH2 0xC1D JUMPI PUSH2 0xC1C PUSH2 0xBC6 JUMP JUMPDEST JUMPDEST POP SWAP2 SWAP1 POP JUMP JUMPDEST PUSH32 0x4E487B7100000000000000000000000000000000000000000000000000000000 PUSH0 MSTORE PUSH1 0x11 PUSH1 0x4 MSTORE PUSH1 0x24 PUSH0 REVERT JUMPDEST PUSH0 PUSH2 0xC5A DUP3 PUSH2 0xA21 JUMP JUMPDEST SWAP2 POP PUSH2 0xC65 DUP4 PUSH2 0xA21 JUMP JUMPDEST SWAP3 POP DUP3 DUP3 ADD SWAP1 POP DUP1 DUP3 GT ISZERO PUSH2 0xC7D JUMPI PUSH2 0xC7C PUSH2 0xC23 JUMP JUMPDEST JUMPDEST SWAP3 SWAP2 POP POP JUMP JUMPDEST PUSH0 PUSH2 0xC8D DUP3 PUSH2 0xA21 JUMP JUMPDEST SWAP2 POP PUSH2 0xC98 DUP4 PUSH2 0xA21 JUMP JUMPDEST SWAP3 POP DUP3 DUP3 SUB SWAP1 POP DUP2 DUP2 GT ISZERO PUSH2 0xCB0 JUMPI PUSH2 0xCAF PUSH2 0xC23 JUMP JUMPDEST JUMPDEST SWAP3 SWAP2 POP POP JUMP INVALID LOG2 PUSH5 0x6970667358 0x22 SLT KECCAK256 PUSH2 0x3C40 SWAP6 TLOAD TSTORE 0x4C 0xDC CREATE2 LOG0 LOG3 PUSH3 0xCCE100 SLOAD INVALID SWAP6 DUP12 MSTORE CODECOPY STOP BASEFEE 0xC6 0xEB STOP PUSH3 0xBB04F BLOBBASEFEE PUSH6 0x64736F6C6343 STOP ADDMOD BYTE STOP CALLER LOG2 PUSH5 0x6970667358 0x22 SLT KECCAK256 CODESIZE CALLDATACOPY 0x2B 0xCC PUSH17 0x81936F1A28BFD0684466499A5AF27F4C22 SAR DUP15 0x26 0xA8 0xD9 EXTCODEHASH 0xEC SGT 0xC7 0x28 PUSH5 0x736F6C6343 STOP ADDMOD BYTE STOP CALLER "
				},
				"gasEstimates": {
					"creation": {
						"codeDepositCost": "1059200",
						"executionCost": "1098",
						"totalCost": "1060298"
					},
					"external": {
						"auctions(uint256)": "infinite",
						"createAuction()": "infinite"
					}
				},
				"methodIdentifiers": {
					"auctions(uint256)": "571a26a0",
					"createAuction()": "f5811447"
				}
			},
			"storageLayout": {
				"storage": [
					{
						"astId": 5,
						"contract": "Auction.sol:auctionCreator",
						"label": "auctions",
						"offset": 0,
						"slot": "0",
						"type": "t_array(t_contract(Auction)366)dyn_storage"
					}
				],
				"types": {
					"t_array(t_contract(Auction)366)dyn_storage": {
						"base": "t_contract(Auction)366",
						"encoding": "dynamic_array",
						"label": "contract Auction[]",
						"numberOfBytes": "32"
					},
					"t_contract(Auction)366": {
						"encoding": "inplace",
						"label": "contract Auction",
						"numberOfBytes": "20"
					}
				}
			},
			"userdoc": {
				"kind": "user",
				"methods": {},
				"version": 1
			}
		}
	}
}