{
	"data": {
		"bytecode": {
			"linkReferences": {},
			"object": "608060405234801561000f575f80fd5b5060405161150f38038061150f833981810160405281019061003191906100d0565b816004819055508042610044919061013b565b6005819055503360015f6101000a81548173ffffffffffffffffffffffffffffffffffffffff021916908373ffffffffffffffffffffffffffffffffffffffff1602179055506064600381905550505061016e565b5f80fd5b5f819050919050565b6100af8161009d565b81146100b9575f80fd5b50565b5f815190506100ca816100a6565b92915050565b5f80604083850312156100e6576100e5610099565b5b5f6100f3858286016100bc565b9250506020610104858286016100bc565b9150509250929050565b7f4e487b71000000000000000000000000000000000000000000000000000000005f52601160045260245ffd5b5f6101458261009d565b91506101508361009d565b92508282019050808211156101685761016761010e565b5b92915050565b6113948061017b5f395ff3fe6080604052600436106100eb575f3560e01c80635114cb5211610089578063b2d5ae4411610058578063b2d5ae44146102ee578063c59ee1dc14610304578063d7bb99ba1461032e578063f851a44014610338576100fa565b80635114cb521461023257806381d12c581461025a578063937e09b11461029a5780639fb42b1f146102c4576100fa565b806329dcb0cf116100c557806329dcb0cf1461018c57806340193883146101b65780634cb6f4a5146101e05780634e260f6f14610208576100fa565b806312065fe0146100fe5780631b16bb5c146101285780631f6d494214610150576100fa565b366100fa576100f8610362565b005b5f80fd5b348015610109575f80fd5b5061011261047d565b60405161011f9190610ac5565b60405180910390f35b348015610133575f80fd5b5061014e60048036038101906101499190610caf565b610484565b005b34801561015b575f80fd5b5061017660048036038101906101719190610d56565b610572565b6040516101839190610ac5565b60405180910390f35b348015610197575f80fd5b506101a0610586565b6040516101ad9190610ac5565b60405180910390f35b3480156101c1575f80fd5b506101ca61058c565b6040516101d79190610ac5565b60405180910390f35b3480156101eb575f80fd5b5061020660048036038101906102019190610d81565b610592565b005b348015610213575f80fd5b5061021c6106bb565b6040516102299190610ac5565b60405180910390f35b34801561023d575f80fd5b5061025860048036038101906102539190610d81565b6106c1565b005b348015610265575f80fd5b50610280600480360381019061027b9190610d81565b610862565b604051610291959493929190610e35565b60405180910390f35b3480156102a5575f80fd5b506102ae610945565b6040516102bb9190610ac5565b60405180910390f35b3480156102cf575f80fd5b506102d861094b565b6040516102e59190610ac5565b60405180910390f35b3480156102f9575f80fd5b50610302610951565b005b34801561030f575f80fd5b50610318610a82565b6040516103259190610ac5565b60405180910390f35b610336610362565b005b348015610343575f80fd5b5061034c610a88565b6040516103599190610e9c565b60405180910390f35b600554421061036f575f80fd5b60035434101561037d575f80fd5b5f805f3373ffffffffffffffffffffffffffffffffffffffff1673ffffffffffffffffffffffffffffffffffffffff1681526020019081526020015f2054036103d85760025f8154809291906103d290610ee2565b91905055505b345f803373ffffffffffffffffffffffffffffffffffffffff1673ffffffffffffffffffffffffffffffffffffffff1681526020019081526020015f205f8282546104239190610f29565b925050819055503460065f82825461043b9190610f29565b925050819055507f2daf61dec57a2c194e9e87958b1a40a5c236b5e8c6041655d664ddbd16c293203334604051610473929190610f5c565b60405180910390a1565b5f47905090565b5f60075f60085481526020019081526020015f20905060085f8154809291906104ac90610ee2565b919050555083815f0190816104c1919061117d565b5082816001015f6101000a81548173ffffffffffffffffffffffffffffffffffffffff021916908373ffffffffffffffffffffffffffffffffffffffff1602179055508181600301819055505f816004015f6101000a81548160ff0219169083151502179055505f81600201819055507f5392bd80651676ccaaedec1afbe841d47e369223df0ba1586110b6426ee87a3a8484846040516105649392919061129e565b60405180910390a150505050565b5f602052805f5260405f205f915090505481565b60055481565b60045481565b5f805f3373ffffffffffffffffffffffffffffffffffffffff1673ffffffffffffffffffffffffffffffffffffffff1681526020019081526020015f2054116105d9575f80fd5b5f60075f8381526020019081526020015f2090505f1515816005015f3373ffffffffffffffffffffffffffffffffffffffff1673ffffffffffffffffffffffffffffffffffffffff1681526020019081526020015f205f9054906101000a900460ff16151514610647575f80fd5b6001816005015f3373ffffffffffffffffffffffffffffffffffffffff1673ffffffffffffffffffffffffffffffffffffffff1681526020019081526020015f205f6101000a81548160ff021916908315150217905550806002015f8154809291906106b290610ee2565b91905055505050565b60025481565b60015f9054906101000a900473ffffffffffffffffffffffffffffffffffffffff1673ffffffffffffffffffffffffffffffffffffffff163373ffffffffffffffffffffffffffffffffffffffff1614610719575f80fd5b60045460065411610728575f80fd5b5f60075f8381526020019081526020015f2090505f1515816004015f9054906101000a900460ff1615151461075b575f80fd5b600280546107699190611307565b816002015411610777575f80fd5b806001015f9054906101000a900473ffffffffffffffffffffffffffffffffffffffff1673ffffffffffffffffffffffffffffffffffffffff166108fc826003015490811502906040515f60405180830381858888f193505050501580156107e1573d5f803e3d5ffd5b506001816004015f6101000a81548160ff0219169083151502179055507f516e1673e5e85c44620165259173329adda2ad25e7bb15020c732be060b5b790816001015f9054906101000a900473ffffffffffffffffffffffffffffffffffffffff168260030154604051610856929190611337565b60405180910390a15050565b6007602052805f5260405f205f91509050805f01805461088190610fb0565b80601f01602080910402602001604051908101604052809291908181526020018280546108ad90610fb0565b80156108f85780601f106108cf576101008083540402835291602001916108f8565b820191905f5260205f20905b8154815290600101906020018083116108db57829003601f168201915b505050505090806001015f9054906101000a900473ffffffffffffffffffffffffffffffffffffffff1690806002015490806003015490806004015f9054906101000a900460ff16905085565b60035481565b60085481565b60055442101580156109665750600454600654105b61096e575f80fd5b5f805f3373ffffffffffffffffffffffffffffffffffffffff1673ffffffffffffffffffffffffffffffffffffffff1681526020019081526020015f2054116109b5575f80fd5b5f3390505f805f3373ffffffffffffffffffffffffffffffffffffffff1673ffffffffffffffffffffffffffffffffffffffff1681526020019081526020015f205490505f805f3373ffffffffffffffffffffffffffffffffffffffff1673ffffffffffffffffffffffffffffffffffffffff1681526020019081526020015f20819055508173ffffffffffffffffffffffffffffffffffffffff166108fc8290811502906040515f60405180830381858888f19350505050158015610a7d573d5f803e3d5ffd5b505050565b60065481565b60015f9054906101000a900473ffffffffffffffffffffffffffffffffffffffff1681565b5f819050919050565b610abf81610aad565b82525050565b5f602082019050610ad85f830184610ab6565b92915050565b5f604051905090565b5f80fd5b5f80fd5b5f80fd5b5f80fd5b5f601f19601f8301169050919050565b7f4e487b71000000000000000000000000000000000000000000000000000000005f52604160045260245ffd5b610b3d82610af7565b810181811067ffffffffffffffff82111715610b5c57610b5b610b07565b5b80604052505050565b5f610b6e610ade565b9050610b7a8282610b34565b919050565b5f67ffffffffffffffff821115610b9957610b98610b07565b5b610ba282610af7565b9050602081019050919050565b828183375f83830152505050565b5f610bcf610bca84610b7f565b610b65565b905082815260208101848484011115610beb57610bea610af3565b5b610bf6848285610baf565b509392505050565b5f82601f830112610c1257610c11610aef565b5b8135610c22848260208601610bbd565b91505092915050565b5f73ffffffffffffffffffffffffffffffffffffffff82169050919050565b5f610c5482610c2b565b9050919050565b610c6481610c4a565b8114610c6e575f80fd5b50565b5f81359050610c7f81610c5b565b92915050565b610c8e81610aad565b8114610c98575f80fd5b50565b5f81359050610ca981610c85565b92915050565b5f805f60608486031215610cc657610cc5610ae7565b5b5f84013567ffffffffffffffff811115610ce357610ce2610aeb565b5b610cef86828701610bfe565b9350506020610d0086828701610c71565b9250506040610d1186828701610c9b565b9150509250925092565b5f610d2582610c2b565b9050919050565b610d3581610d1b565b8114610d3f575f80fd5b50565b5f81359050610d5081610d2c565b92915050565b5f60208284031215610d6b57610d6a610ae7565b5b5f610d7884828501610d42565b91505092915050565b5f60208284031215610d9657610d95610ae7565b5b5f610da384828501610c9b565b91505092915050565b5f81519050919050565b5f82825260208201905092915050565b8281835e5f83830152505050565b5f610dde82610dac565b610de88185610db6565b9350610df8818560208601610dc6565b610e0181610af7565b840191505092915050565b610e1581610c4a565b82525050565b5f8115159050919050565b610e2f81610e1b565b82525050565b5f60a0820190508181035f830152610e4d8188610dd4565b9050610e5c6020830187610e0c565b610e696040830186610ab6565b610e766060830185610ab6565b610e836080830184610e26565b9695505050505050565b610e9681610d1b565b82525050565b5f602082019050610eaf5f830184610e8d565b92915050565b7f4e487b71000000000000000000000000000000000000000000000000000000005f52601160045260245ffd5b5f610eec82610aad565b91507fffffffffffffffffffffffffffffffffffffffffffffffffffffffffffffffff8203610f1e57610f1d610eb5565b5b600182019050919050565b5f610f3382610aad565b9150610f3e83610aad565b9250828201905080821115610f5657610f55610eb5565b5b92915050565b5f604082019050610f6f5f830185610e8d565b610f7c6020830184610ab6565b9392505050565b7f4e487b71000000000000000000000000000000000000000000000000000000005f52602260045260245ffd5b5f6002820490506001821680610fc757607f821691505b602082108103610fda57610fd9610f83565b5b50919050565b5f819050815f5260205f209050919050565b5f6020601f8301049050919050565b5f82821b905092915050565b5f6008830261103c7fffffffffffffffffffffffffffffffffffffffffffffffffffffffffffffffff82611001565b6110468683611001565b95508019841693508086168417925050509392505050565b5f819050919050565b5f61108161107c61107784610aad565b61105e565b610aad565b9050919050565b5f819050919050565b61109a83611067565b6110ae6110a682611088565b84845461100d565b825550505050565b5f90565b6110c26110b6565b6110cd818484611091565b505050565b5b818110156110f0576110e55f826110ba565b6001810190506110d3565b5050565b601f8211156111355761110681610fe0565b61110f84610ff2565b8101602085101561111e578190505b61113261112a85610ff2565b8301826110d2565b50505b505050565b5f82821c905092915050565b5f6111555f198460080261113a565b1980831691505092915050565b5f61116d8383611146565b9150826002028217905092915050565b61118682610dac565b67ffffffffffffffff81111561119f5761119e610b07565b5b6111a98254610fb0565b6111b48282856110f4565b5f60209050601f8311600181146111e5575f84156111d3578287015190505b6111dd8582611162565b865550611244565b601f1984166111f386610fe0565b5f5b8281101561121a578489015182556001820191506020850194506020810190506111f5565b868310156112375784890151611233601f891682611146565b8355505b6001600288020188555050505b505050505050565b5f61126661126161125c84610c2b565b61105e565b610c2b565b9050919050565b5f6112778261124c565b9050919050565b5f6112888261126d565b9050919050565b6112988161127e565b82525050565b5f6060820190508181035f8301526112b68186610dd4565b90506112c5602083018561128f565b6112d26040830184610ab6565b949350505050565b7f4e487b71000000000000000000000000000000000000000000000000000000005f52601260045260245ffd5b5f61131182610aad565b915061131c83610aad565b92508261132c5761132b6112da565b5b828204905092915050565b5f60408201905061134a5f83018561128f565b6113576020830184610ab6565b939250505056fea2646970667358221220bfbba36ca9bbc81fbde8b2d3bf318d2882cba35d283bfee048a868dec9ba87e564736f6c634300081a0033",
			"opcodes": "PUSH1 0x80 PUSH1 0x40 MSTORE CALLVALUE DUP1 ISZERO PUSH2 0xF JUMPI PUSH0 DUP1 REVERT JUMPDEST POP PUSH1 0x40 MLOAD PUSH2 0x150F CODESIZE SUB DUP1 PUSH2 0x150F DUP4 CODECOPY DUP2 DUP2 ADD PUSH1 0x40 MSTORE DUP2 ADD SWAP1 PUSH2 0x31 SWAP2 SWAP1 PUSH2 0xD0 JUMP JUMPDEST DUP2 PUSH1 0x4 DUP2 SWAP1 SSTORE POP DUP1 TIMESTAMP PUSH2 0x44 SWAP2 SWAP1 PUSH2 0x13B JUMP JUMPDEST PUSH1 0x5 DUP2 SWAP1 SSTORE POP CALLER PUSH1 0x1 PUSH0 PUSH2 0x100 EXP DUP2 SLOAD DUP2 PUSH20 0xFFFFFFFFFFFFFFFFFFFFFFFFFFFFFFFFFFFFFFFF MUL NOT AND SWAP1 DUP4 PUSH20 0xFFFFFFFFFFFFFFFFFFFFFFFFFFFFFFFFFFFFFFFF AND MUL OR SWAP1 SSTORE POP PUSH1 0x64 PUSH1 0x3 DUP2 SWAP1 SSTORE POP POP POP PUSH2 0x16E JUMP JUMPDEST PUSH0 DUP1 REVERT JUMPDEST PUSH0 DUP2 SWAP1 POP SWAP2 SWAP1 POP JUMP JUMPDEST PUSH2 0xAF DUP2 PUSH2 0x9D JUMP JUMPDEST DUP2 EQ PUSH2 0xB9 JUMPI PUSH0 DUP1 REVERT JUMPDEST POP JUMP JUMPDEST PUSH0 DUP2 MLOAD SWAP1 POP PUSH2 0xCA DUP2 PUSH2 0xA6 JUMP JUMPDEST SWAP3 SWAP2 POP POP JUMP JUMPDEST PUSH0 DUP1 PUSH1 0x40 DUP4 DUP6 SUB SLT ISZERO PUSH2 0xE6 JUMPI PUSH2 0xE5 PUSH2 0x99 JUMP JUMPDEST JUMPDEST PUSH0 PUSH2 0xF3 DUP6 DUP3 DUP7 ADD PUSH2 0xBC JUMP JUMPDEST SWAP3 POP POP PUSH1 0x20 PUSH2 0x104 DUP6 DUP3 DUP7 ADD PUSH2 0xBC JUMP JUMPDEST SWAP2 POP POP SWAP3 POP SWAP3 SWAP1 POP JUMP JUMPDEST PUSH32 0x4E487B7100000000000000000000000000000000000000000000000000000000 PUSH0 MSTORE PUSH1 0x11 PUSH1 0x4 MSTORE PUSH1 0x24 PUSH0 REVERT JUMPDEST PUSH0 PUSH2 0x145 DUP3 PUSH2 0x9D JUMP JUMPDEST SWAP2 POP PUSH2 0x150 DUP4 PUSH2 0x9D JUMP JUMPDEST SWAP3 POP DUP3 DUP3 ADD SWAP1 POP DUP1 DUP3 GT ISZERO PUSH2 0x168 JUMPI PUSH2 0x167 PUSH2 0x10E JUMP JUMPDEST JUMPDEST SWAP3 SWAP2 POP POP JUMP JUMPDEST PUSH2 0x1394 DUP1 PUSH2 0x17B PUSH0 CODECOPY PUSH0 RETURN INVALID PUSH1 0x80 PUSH1 0x40 MSTORE PUSH1 0x4 CALLDATASIZE LT PUSH2 0xEB JUMPI PUSH0 CALLDATALOAD PUSH1 0xE0 SHR DUP1 PUSH4 0x5114CB52 GT PUSH2 0x89 JUMPI DUP1 PUSH4 0xB2D5AE44 GT PUSH2 0x58 JUMPI DUP1 PUSH4 0xB2D5AE44 EQ PUSH2 0x2EE JUMPI DUP1 PUSH4 0xC59EE1DC EQ PUSH2 0x304 JUMPI DUP1 PUSH4 0xD7BB99BA EQ PUSH2 0x32E JUMPI DUP1 PUSH4 0xF851A440 EQ PUSH2 0x338 JUMPI PUSH2 0xFA JUMP JUMPDEST DUP1 PUSH4 0x5114CB52 EQ PUSH2 0x232 JUMPI DUP1 PUSH4 0x81D12C58 EQ PUSH2 0x25A JUMPI DUP1 PUSH4 0x937E09B1 EQ PUSH2 0x29A JUMPI DUP1 PUSH4 0x9FB42B1F EQ PUSH2 0x2C4 JUMPI PUSH2 0xFA JUMP JUMPDEST DUP1 PUSH4 0x29DCB0CF GT PUSH2 0xC5 JUMPI DUP1 PUSH4 0x29DCB0CF EQ PUSH2 0x18C JUMPI DUP1 PUSH4 0x40193883 EQ PUSH2 0x1B6 JUMPI DUP1 PUSH4 0x4CB6F4A5 EQ PUSH2 0x1E0 JUMPI DUP1 PUSH4 0x4E260F6F EQ PUSH2 0x208 JUMPI PUSH2 0xFA JUMP JUMPDEST DUP1 PUSH4 0x12065FE0 EQ PUSH2 0xFE JUMPI DUP1 PUSH4 0x1B16BB5C EQ PUSH2 0x128 JUMPI DUP1 PUSH4 0x1F6D4942 EQ PUSH2 0x150 JUMPI PUSH2 0xFA JUMP JUMPDEST CALLDATASIZE PUSH2 0xFA JUMPI PUSH2 0xF8 PUSH2 0x362 JUMP JUMPDEST STOP JUMPDEST PUSH0 DUP1 REVERT JUMPDEST CALLVALUE DUP1 ISZERO PUSH2 0x109 JUMPI PUSH0 DUP1 REVERT JUMPDEST POP PUSH2 0x112 PUSH2 0x47D JUMP JUMPDEST PUSH1 0x40 MLOAD PUSH2 0x11F SWAP2 SWAP1 PUSH2 0xAC5 JUMP JUMPDEST PUSH1 0x40 MLOAD DUP1 SWAP2 SUB SWAP1 RETURN JUMPDEST CALLVALUE DUP1 ISZERO PUSH2 0x133 JUMPI PUSH0 DUP1 REVERT JUMPDEST POP PUSH2 0x14E PUSH1 0x4 DUP1 CALLDATASIZE SUB DUP2 ADD SWAP1 PUSH2 0x149 SWAP2 SWAP1 PUSH2 0xCAF JUMP JUMPDEST PUSH2 0x484 JUMP JUMPDEST STOP JUMPDEST CALLVALUE DUP1 ISZERO PUSH2 0x15B JUMPI PUSH0 DUP1 REVERT JUMPDEST POP PUSH2 0x176 PUSH1 0x4 DUP1 CALLDATASIZE SUB DUP2 ADD SWAP1 PUSH2 0x171 SWAP2 SWAP1 PUSH2 0xD56 JUMP JUMPDEST PUSH2 0x572 JUMP JUMPDEST PUSH1 0x40 MLOAD PUSH2 0x183 SWAP2 SWAP1 PUSH2 0xAC5 JUMP JUMPDEST PUSH1 0x40 MLOAD DUP1 SWAP2 SUB SWAP1 RETURN JUMPDEST CALLVALUE DUP1 ISZERO PUSH2 0x197 JUMPI PUSH0 DUP1 REVERT JUMPDEST POP PUSH2 0x1A0 PUSH2 0x586 JUMP JUMPDEST PUSH1 0x40 MLOAD PUSH2 0x1AD SWAP2 SWAP1 PUSH2 0xAC5 JUMP JUMPDEST PUSH1 0x40 MLOAD DUP1 SWAP2 SUB SWAP1 RETURN JUMPDEST CALLVALUE DUP1 ISZERO PUSH2 0x1C1 JUMPI PUSH0 DUP1 REVERT JUMPDEST POP PUSH2 0x1CA PUSH2 0x58C JUMP JUMPDEST PUSH1 0x40 MLOAD PUSH2 0x1D7 SWAP2 SWAP1 PUSH2 0xAC5 JUMP JUMPDEST PUSH1 0x40 MLOAD DUP1 SWAP2 SUB SWAP1 RETURN JUMPDEST CALLVALUE DUP1 ISZERO PUSH2 0x1EB JUMPI PUSH0 DUP1 REVERT JUMPDEST POP PUSH2 0x206 PUSH1 0x4 DUP1 CALLDATASIZE SUB DUP2 ADD SWAP1 PUSH2 0x201 SWAP2 SWAP1 PUSH2 0xD81 JUMP JUMPDEST PUSH2 0x592 JUMP JUMPDEST STOP JUMPDEST CALLVALUE DUP1 ISZERO PUSH2 0x213 JUMPI PUSH0 DUP1 REVERT JUMPDEST POP PUSH2 0x21C PUSH2 0x6BB JUMP JUMPDEST PUSH1 0x40 MLOAD PUSH2 0x229 SWAP2 SWAP1 PUSH2 0xAC5 JUMP JUMPDEST PUSH1 0x40 MLOAD DUP1 SWAP2 SUB SWAP1 RETURN JUMPDEST CALLVALUE DUP1 ISZERO PUSH2 0x23D JUMPI PUSH0 DUP1 REVERT JUMPDEST POP PUSH2 0x258 PUSH1 0x4 DUP1 CALLDATASIZE SUB DUP2 ADD SWAP1 PUSH2 0x253 SWAP2 SWAP1 PUSH2 0xD81 JUMP JUMPDEST PUSH2 0x6C1 JUMP JUMPDEST STOP JUMPDEST CALLVALUE DUP1 ISZERO PUSH2 0x265 JUMPI PUSH0 DUP1 REVERT JUMPDEST POP PUSH2 0x280 PUSH1 0x4 DUP1 CALLDATASIZE SUB DUP2 ADD SWAP1 PUSH2 0x27B SWAP2 SWAP1 PUSH2 0xD81 JUMP JUMPDEST PUSH2 0x862 JUMP JUMPDEST PUSH1 0x40 MLOAD PUSH2 0x291 SWAP6 SWAP5 SWAP4 SWAP3 SWAP2 SWAP1 PUSH2 0xE35 JUMP JUMPDEST PUSH1 0x40 MLOAD DUP1 SWAP2 SUB SWAP1 RETURN JUMPDEST CALLVALUE DUP1 ISZERO PUSH2 0x2A5 JUMPI PUSH0 DUP1 REVERT JUMPDEST POP PUSH2 0x2AE PUSH2 0x945 JUMP JUMPDEST PUSH1 0x40 MLOAD PUSH2 0x2BB SWAP2 SWAP1 PUSH2 0xAC5 JUMP JUMPDEST PUSH1 0x40 MLOAD DUP1 SWAP2 SUB SWAP1 RETURN JUMPDEST CALLVALUE DUP1 ISZERO PUSH2 0x2CF JUMPI PUSH0 DUP1 REVERT JUMPDEST POP PUSH2 0x2D8 PUSH2 0x94B JUMP JUMPDEST PUSH1 0x40 MLOAD PUSH2 0x2E5 SWAP2 SWAP1 PUSH2 0xAC5 JUMP JUMPDEST PUSH1 0x40 MLOAD DUP1 SWAP2 SUB SWAP1 RETURN JUMPDEST CALLVALUE DUP1 ISZERO PUSH2 0x2F9 JUMPI PUSH0 DUP1 REVERT JUMPDEST POP PUSH2 0x302 PUSH2 0x951 JUMP JUMPDEST STOP JUMPDEST CALLVALUE DUP1 ISZERO PUSH2 0x30F JUMPI PUSH0 DUP1 REVERT JUMPDEST POP PUSH2 0x318 PUSH2 0xA82 JUMP JUMPDEST PUSH1 0x40 MLOAD PUSH2 0x325 SWAP2 SWAP1 PUSH2 0xAC5 JUMP JUMPDEST PUSH1 0x40 MLOAD DUP1 SWAP2 SUB SWAP1 RETURN JUMPDEST PUSH2 0x336 PUSH2 0x362 JUMP JUMPDEST STOP JUMPDEST CALLVALUE DUP1 ISZERO PUSH2 0x343 JUMPI PUSH0 DUP1 REVERT JUMPDEST POP PUSH2 0x34C PUSH2 0xA88 JUMP JUMPDEST PUSH1 0x40 MLOAD PUSH2 0x359 SWAP2 SWAP1 PUSH2 0xE9C JUMP JUMPDEST PUSH1 0x40 MLOAD DUP1 SWAP2 SUB SWAP1 RETURN JUMPDEST PUSH1 0x5 SLOAD TIMESTAMP LT PUSH2 0x36F JUMPI PUSH0 DUP1 REVERT JUMPDEST PUSH1 0x3 SLOAD CALLVALUE LT ISZERO PUSH2 0x37D JUMPI PUSH0 DUP1 REVERT JUMPDEST PUSH0 DUP1 PUSH0 CALLER PUSH20 0xFFFFFFFFFFFFFFFFFFFFFFFFFFFFFFFFFFFFFFFF AND PUSH20 0xFFFFFFFFFFFFFFFFFFFFFFFFFFFFFFFFFFFFFFFF AND DUP2 MSTORE PUSH1 0x20 ADD SWAP1 DUP2 MSTORE PUSH1 0x20 ADD PUSH0 KECCAK256 SLOAD SUB PUSH2 0x3D8 JUMPI PUSH1 0x2 PUSH0 DUP2 SLOAD DUP1 SWAP3 SWAP2 SWAP1 PUSH2 0x3D2 SWAP1 PUSH2 0xEE2 JUMP JUMPDEST SWAP2 SWAP1 POP SSTORE POP JUMPDEST CALLVALUE PUSH0 DUP1 CALLER PUSH20 0xFFFFFFFFFFFFFFFFFFFFFFFFFFFFFFFFFFFFFFFF AND PUSH20 0xFFFFFFFFFFFFFFFFFFFFFFFFFFFFFFFFFFFFFFFF AND DUP2 MSTORE PUSH1 0x20 ADD SWAP1 DUP2 MSTORE PUSH1 0x20 ADD PUSH0 KECCAK256 PUSH0 DUP3 DUP3 SLOAD PUSH2 0x423 SWAP2 SWAP1 PUSH2 0xF29 JUMP JUMPDEST SWAP3 POP POP DUP2 SWAP1 SSTORE POP CALLVALUE PUSH1 0x6 PUSH0 DUP3 DUP3 SLOAD PUSH2 0x43B SWAP2 SWAP1 PUSH2 0xF29 JUMP JUMPDEST SWAP3 POP POP DUP2 SWAP1 SSTORE POP PUSH32 0x2DAF61DEC57A2C194E9E87958B1A40A5C236B5E8C6041655D664DDBD16C29320 CALLER CALLVALUE PUSH1 0x40 MLOAD PUSH2 0x473 SWAP3 SWAP2 SWAP1 PUSH2 0xF5C JUMP JUMPDEST PUSH1 0x40 MLOAD DUP1 SWAP2 SUB SWAP1 LOG1 JUMP JUMPDEST PUSH0 SELFBALANCE SWAP1 POP SWAP1 JUMP JUMPDEST PUSH0 PUSH1 0x7 PUSH0 PUSH1 0x8 SLOAD DUP2 MSTORE PUSH1 0x20 ADD SWAP1 DUP2 MSTORE PUSH1 0x20 ADD PUSH0 KECCAK256 SWAP1 POP PUSH1 0x8 PUSH0 DUP2 SLOAD DUP1 SWAP3 SWAP2 SWAP1 PUSH2 0x4AC SWAP1 PUSH2 0xEE2 JUMP JUMPDEST SWAP2 SWAP1 POP SSTORE POP DUP4 DUP2 PUSH0 ADD SWAP1 DUP2 PUSH2 0x4C1 SWAP2 SWAP1 PUSH2 0x117D JUMP JUMPDEST POP DUP3 DUP2 PUSH1 0x1 ADD PUSH0 PUSH2 0x100 EXP DUP2 SLOAD DUP2 PUSH20 0xFFFFFFFFFFFFFFFFFFFFFFFFFFFFFFFFFFFFFFFF MUL NOT AND SWAP1 DUP4 PUSH20 0xFFFFFFFFFFFFFFFFFFFFFFFFFFFFFFFFFFFFFFFF AND MUL OR SWAP1 SSTORE POP DUP2 DUP2 PUSH1 0x3 ADD DUP2 SWAP1 SSTORE POP PUSH0 DUP2 PUSH1 0x4 ADD PUSH0 PUSH2 0x100 EXP DUP2 SLOAD DUP2 PUSH1 0xFF MUL NOT AND SWAP1 DUP4 ISZERO ISZERO MUL OR SWAP1 SSTORE POP PUSH0 DUP2 PUSH1 0x2 ADD DUP2 SWAP1 SSTORE POP PUSH32 0x5392BD80651676CCAAEDEC1AFBE841D47E369223DF0BA1586110B6426EE87A3A DUP5 DUP5 DUP5 PUSH1 0x40 MLOAD PUSH2 0x564 SWAP4 SWAP3 SWAP2 SWAP1 PUSH2 0x129E JUMP JUMPDEST PUSH1 0x40 MLOAD DUP1 SWAP2 SUB SWAP1 LOG1 POP POP POP POP JUMP JUMPDEST PUSH0 PUSH1 0x20 MSTORE DUP1 PUSH0 MSTORE PUSH1 0x40 PUSH0 KECCAK256 PUSH0 SWAP2 POP SWAP1 POP SLOAD DUP2 JUMP JUMPDEST PUSH1 0x5 SLOAD DUP2 JUMP JUMPDEST PUSH1 0x4 SLOAD DUP2 JUMP JUMPDEST PUSH0 DUP1 PUSH0 CALLER PUSH20 0xFFFFFFFFFFFFFFFFFFFFFFFFFFFFFFFFFFFFFFFF AND PUSH20 0xFFFFFFFFFFFFFFFFFFFFFFFFFFFFFFFFFFFFFFFF AND DUP2 MSTORE PUSH1 0x20 ADD SWAP1 DUP2 MSTORE PUSH1 0x20 ADD PUSH0 KECCAK256 SLOAD GT PUSH2 0x5D9 JUMPI PUSH0 DUP1 REVERT JUMPDEST PUSH0 PUSH1 0x7 PUSH0 DUP4 DUP2 MSTORE PUSH1 0x20 ADD SWAP1 DUP2 MSTORE PUSH1 0x20 ADD PUSH0 KECCAK256 SWAP1 POP PUSH0 ISZERO ISZERO DUP2 PUSH1 0x5 ADD PUSH0 CALLER PUSH20 0xFFFFFFFFFFFFFFFFFFFFFFFFFFFFFFFFFFFFFFFF AND PUSH20 0xFFFFFFFFFFFFFFFFFFFFFFFFFFFFFFFFFFFFFFFF AND DUP2 MSTORE PUSH1 0x20 ADD SWAP1 DUP2 MSTORE PUSH1 0x20 ADD PUSH0 KECCAK256 PUSH0 SWAP1 SLOAD SWAP1 PUSH2 0x100 EXP SWAP1 DIV PUSH1 0xFF AND ISZERO ISZERO EQ PUSH2 0x647 JUMPI PUSH0 DUP1 REVERT JUMPDEST PUSH1 0x1 DUP2 PUSH1 0x5 ADD PUSH0 CALLER PUSH20 0xFFFFFFFFFFFFFFFFFFFFFFFFFFFFFFFFFFFFFFFF AND PUSH20 0xFFFFFFFFFFFFFFFFFFFFFFFFFFFFFFFFFFFFFFFF AND DUP2 MSTORE PUSH1 0x20 ADD SWAP1 DUP2 MSTORE PUSH1 0x20 ADD PUSH0 KECCAK256 PUSH0 PUSH2 0x100 EXP DUP2 SLOAD DUP2 PUSH1 0xFF MUL NOT AND SWAP1 DUP4 ISZERO ISZERO MUL OR SWAP1 SSTORE POP DUP1 PUSH1 0x2 ADD PUSH0 DUP2 SLOAD DUP1 SWAP3 SWAP2 SWAP1 PUSH2 0x6B2 SWAP1 PUSH2 0xEE2 JUMP JUMPDEST SWAP2 SWAP1 POP SSTORE POP POP POP JUMP JUMPDEST PUSH1 0x2 SLOAD DUP2 JUMP JUMPDEST PUSH1 0x1 PUSH0 SWAP1 SLOAD SWAP1 PUSH2 0x100 EXP SWAP1 DIV PUSH20 0xFFFFFFFFFFFFFFFFFFFFFFFFFFFFFFFFFFFFFFFF AND PUSH20 0xFFFFFFFFFFFFFFFFFFFFFFFFFFFFFFFFFFFFFFFF AND CALLER PUSH20 0xFFFFFFFFFFFFFFFFFFFFFFFFFFFFFFFFFFFFFFFF AND EQ PUSH2 0x719 JUMPI PUSH0 DUP1 REVERT JUMPDEST PUSH1 0x4 SLOAD PUSH1 0x6 SLOAD GT PUSH2 0x728 JUMPI PUSH0 DUP1 REVERT JUMPDEST PUSH0 PUSH1 0x7 PUSH0 DUP4 DUP2 MSTORE PUSH1 0x20 ADD SWAP1 DUP2 MSTORE PUSH1 0x20 ADD PUSH0 KECCAK256 SWAP1 POP PUSH0 ISZERO ISZERO DUP2 PUSH1 0x4 ADD PUSH0 SWAP1 SLOAD SWAP1 PUSH2 0x100 EXP SWAP1 DIV PUSH1 0xFF AND ISZERO ISZERO EQ PUSH2 0x75B JUMPI PUSH0 DUP1 REVERT JUMPDEST PUSH1 0x2 DUP1 SLOAD PUSH2 0x769 SWAP2 SWAP1 PUSH2 0x1307 JUMP JUMPDEST DUP2 PUSH1 0x2 ADD SLOAD GT PUSH2 0x777 JUMPI PUSH0 DUP1 REVERT JUMPDEST DUP1 PUSH1 0x1 ADD PUSH0 SWAP1 SLOAD SWAP1 PUSH2 0x100 EXP SWAP1 DIV PUSH20 0xFFFFFFFFFFFFFFFFFFFFFFFFFFFFFFFFFFFFFFFF AND PUSH20 0xFFFFFFFFFFFFFFFFFFFFFFFFFFFFFFFFFFFFFFFF AND PUSH2 0x8FC DUP3 PUSH1 0x3 ADD SLOAD SWAP1 DUP2 ISZERO MUL SWAP1 PUSH1 0x40 MLOAD PUSH0 PUSH1 0x40 MLOAD DUP1 DUP4 SUB DUP2 DUP6 DUP9 DUP9 CALL SWAP4 POP POP POP POP ISZERO DUP1 ISZERO PUSH2 0x7E1 JUMPI RETURNDATASIZE PUSH0 DUP1 RETURNDATACOPY RETURNDATASIZE PUSH0 REVERT JUMPDEST POP PUSH1 0x1 DUP2 PUSH1 0x4 ADD PUSH0 PUSH2 0x100 EXP DUP2 SLOAD DUP2 PUSH1 0xFF MUL NOT AND SWAP1 DUP4 ISZERO ISZERO MUL OR SWAP1 SSTORE POP PUSH32 0x516E1673E5E85C44620165259173329ADDA2AD25E7BB15020C732BE060B5B790 DUP2 PUSH1 0x1 ADD PUSH0 SWAP1 SLOAD SWAP1 PUSH2 0x100 EXP SWAP1 DIV PUSH20 0xFFFFFFFFFFFFFFFFFFFFFFFFFFFFFFFFFFFFFFFF AND DUP3 PUSH1 0x3 ADD SLOAD PUSH1 0x40 MLOAD PUSH2 0x856 SWAP3 SWAP2 SWAP1 PUSH2 0x1337 JUMP JUMPDEST PUSH1 0x40 MLOAD DUP1 SWAP2 SUB SWAP1 LOG1 POP POP JUMP JUMPDEST PUSH1 0x7 PUSH1 0x20 MSTORE DUP1 PUSH0 MSTORE PUSH1 0x40 PUSH0 KECCAK256 PUSH0 SWAP2 POP SWAP1 POP DUP1 PUSH0 ADD DUP1 SLOAD PUSH2 0x881 SWAP1 PUSH2 0xFB0 JUMP JUMPDEST DUP1 PUSH1 0x1F ADD PUSH1 0x20 DUP1 SWAP2 DIV MUL PUSH1 0x20 ADD PUSH1 0x40 MLOAD SWAP1 DUP2 ADD PUSH1 0x40 MSTORE DUP1 SWAP3 SWAP2 SWAP1 DUP2 DUP2 MSTORE PUSH1 0x20 ADD DUP3 DUP1 SLOAD PUSH2 0x8AD SWAP1 PUSH2 0xFB0 JUMP JUMPDEST DUP1 ISZERO PUSH2 0x8F8 JUMPI DUP1 PUSH1 0x1F LT PUSH2 0x8CF JUMPI PUSH2 0x100 DUP1 DUP4 SLOAD DIV MUL DUP4 MSTORE SWAP2 PUSH1 0x20 ADD SWAP2 PUSH2 0x8F8 JUMP JUMPDEST DUP3 ADD SWAP2 SWAP1 PUSH0 MSTORE PUSH1 0x20 PUSH0 KECCAK256 SWAP1 JUMPDEST DUP2 SLOAD DUP2 MSTORE SWAP1 PUSH1 0x1 ADD SWAP1 PUSH1 0x20 ADD DUP1 DUP4 GT PUSH2 0x8DB JUMPI DUP3 SWAP1 SUB PUSH1 0x1F AND DUP3 ADD SWAP2 JUMPDEST POP POP POP POP POP SWAP1 DUP1 PUSH1 0x1 ADD PUSH0 SWAP1 SLOAD SWAP1 PUSH2 0x100 EXP SWAP1 DIV PUSH20 0xFFFFFFFFFFFFFFFFFFFFFFFFFFFFFFFFFFFFFFFF AND SWAP1 DUP1 PUSH1 0x2 ADD SLOAD SWAP1 DUP1 PUSH1 0x3 ADD SLOAD SWAP1 DUP1 PUSH1 0x4 ADD PUSH0 SWAP1 SLOAD SWAP1 PUSH2 0x100 EXP SWAP1 DIV PUSH1 0xFF AND SWAP1 POP DUP6 JUMP JUMPDEST PUSH1 0x3 SLOAD DUP2 JUMP JUMPDEST PUSH1 0x8 SLOAD DUP2 JUMP JUMPDEST PUSH1 0x5 SLOAD TIMESTAMP LT ISZERO DUP1 ISZERO PUSH2 0x966 JUMPI POP PUSH1 0x4 SLOAD PUSH1 0x6 SLOAD LT JUMPDEST PUSH2 0x96E JUMPI PUSH0 DUP1 REVERT JUMPDEST PUSH0 DUP1 PUSH0 CALLER PUSH20 0xFFFFFFFFFFFFFFFFFFFFFFFFFFFFFFFFFFFFFFFF AND PUSH20 0xFFFFFFFFFFFFFFFFFFFFFFFFFFFFFFFFFFFFFFFF AND DUP2 MSTORE PUSH1 0x20 ADD SWAP1 DUP2 MSTORE PUSH1 0x20 ADD PUSH0 KECCAK256 SLOAD GT PUSH2 0x9B5 JUMPI PUSH0 DUP1 REVERT JUMPDEST PUSH0 CALLER SWAP1 POP PUSH0 DUP1 PUSH0 CALLER PUSH20 0xFFFFFFFFFFFFFFFFFFFFFFFFFFFFFFFFFFFFFFFF AND PUSH20 0xFFFFFFFFFFFFFFFFFFFFFFFFFFFFFFFFFFFFFFFF AND DUP2 MSTORE PUSH1 0x20 ADD SWAP1 DUP2 MSTORE PUSH1 0x20 ADD PUSH0 KECCAK256 SLOAD SWAP1 POP PUSH0 DUP1 PUSH0 CALLER PUSH20 0xFFFFFFFFFFFFFFFFFFFFFFFFFFFFFFFFFFFFFFFF AND PUSH20 0xFFFFFFFFFFFFFFFFFFFFFFFFFFFFFFFFFFFFFFFF AND DUP2 MSTORE PUSH1 0x20 ADD SWAP1 DUP2 MSTORE PUSH1 0x20 ADD PUSH0 KECCAK256 DUP2 SWAP1 SSTORE POP DUP2 PUSH20 0xFFFFFFFFFFFFFFFFFFFFFFFFFFFFFFFFFFFFFFFF AND PUSH2 0x8FC DUP3 SWAP1 DUP2 ISZERO MUL SWAP1 PUSH1 0x40 MLOAD PUSH0 PUSH1 0x40 MLOAD DUP1 DUP4 SUB DUP2 DUP6 DUP9 DUP9 CALL SWAP4 POP POP POP POP ISZERO DUP1 ISZERO PUSH2 0xA7D JUMPI RETURNDATASIZE PUSH0 DUP1 RETURNDATACOPY RETURNDATASIZE PUSH0 REVERT JUMPDEST POP POP POP JUMP JUMPDEST PUSH1 0x6 SLOAD DUP2 JUMP JUMPDEST PUSH1 0x1 PUSH0 SWAP1 SLOAD SWAP1 PUSH2 0x100 EXP SWAP1 DIV PUSH20 0xFFFFFFFFFFFFFFFFFFFFFFFFFFFFFFFFFFFFFFFF AND DUP2 JUMP JUMPDEST PUSH0 DUP2 SWAP1 POP SWAP2 SWAP1 POP JUMP JUMPDEST PUSH2 0xABF DUP2 PUSH2 0xAAD JUMP JUMPDEST DUP3 MSTORE POP POP JUMP JUMPDEST PUSH0 PUSH1 0x20 DUP3 ADD SWAP1 POP PUSH2 0xAD8 PUSH0 DUP4 ADD DUP5 PUSH2 0xAB6 JUMP JUMPDEST SWAP3 SWAP2 POP POP JUMP JUMPDEST PUSH0 PUSH1 0x40 MLOAD SWAP1 POP SWAP1 JUMP JUMPDEST PUSH0 DUP1 REVERT JUMPDEST PUSH0 DUP1 REVERT JUMPDEST PUSH0 DUP1 REVERT JUMPDEST PUSH0 DUP1 REVERT JUMPDEST PUSH0 PUSH1 0x1F NOT PUSH1 0x1F DUP4 ADD AND SWAP1 POP SWAP2 SWAP1 POP JUMP JUMPDEST PUSH32 0x4E487B7100000000000000000000000000000000000000000000000000000000 PUSH0 MSTORE PUSH1 0x41 PUSH1 0x4 MSTORE PUSH1 0x24 PUSH0 REVERT JUMPDEST PUSH2 0xB3D DUP3 PUSH2 0xAF7 JUMP JUMPDEST DUP2 ADD DUP2 DUP2 LT PUSH8 0xFFFFFFFFFFFFFFFF DUP3 GT OR ISZERO PUSH2 0xB5C JUMPI PUSH2 0xB5B PUSH2 0xB07 JUMP JUMPDEST JUMPDEST DUP1 PUSH1 0x40 MSTORE POP POP POP JUMP JUMPDEST PUSH0 PUSH2 0xB6E PUSH2 0xADE JUMP JUMPDEST SWAP1 POP PUSH2 0xB7A DUP3 DUP3 PUSH2 0xB34 JUMP JUMPDEST SWAP2 SWAP1 POP JUMP JUMPDEST PUSH0 PUSH8 0xFFFFFFFFFFFFFFFF DUP3 GT ISZERO PUSH2 0xB99 JUMPI PUSH2 0xB98 PUSH2 0xB07 JUMP JUMPDEST JUMPDEST PUSH2 0xBA2 DUP3 PUSH2 0xAF7 JUMP JUMPDEST SWAP1 POP PUSH1 0x20 DUP2 ADD SWAP1 POP SWAP2 SWAP1 POP JUMP JUMPDEST DUP3 DUP2 DUP4 CALLDATACOPY PUSH0 DUP4 DUP4 ADD MSTORE POP POP POP JUMP JUMPDEST PUSH0 PUSH2 0xBCF PUSH2 0xBCA DUP5 PUSH2 0xB7F JUMP JUMPDEST PUSH2 0xB65 JUMP JUMPDEST SWAP1 POP DUP3 DUP2 MSTORE PUSH1 0x20 DUP2 ADD DUP5 DUP5 DUP5 ADD GT ISZERO PUSH2 0xBEB JUMPI PUSH2 0xBEA PUSH2 0xAF3 JUMP JUMPDEST JUMPDEST PUSH2 0xBF6 DUP5 DUP3 DUP6 PUSH2 0xBAF JUMP JUMPDEST POP SWAP4 SWAP3 POP POP POP JUMP JUMPDEST PUSH0 DUP3 PUSH1 0x1F DUP4 ADD SLT PUSH2 0xC12 JUMPI PUSH2 0xC11 PUSH2 0xAEF JUMP JUMPDEST JUMPDEST DUP2 CALLDATALOAD PUSH2 0xC22 DUP5 DUP3 PUSH1 0x20 DUP7 ADD PUSH2 0xBBD JUMP JUMPDEST SWAP2 POP POP SWAP3 SWAP2 POP POP JUMP JUMPDEST PUSH0 PUSH20 0xFFFFFFFFFFFFFFFFFFFFFFFFFFFFFFFFFFFFFFFF DUP3 AND SWAP1 POP SWAP2 SWAP1 POP JUMP JUMPDEST PUSH0 PUSH2 0xC54 DUP3 PUSH2 0xC2B JUMP JUMPDEST SWAP1 POP SWAP2 SWAP1 POP JUMP JUMPDEST PUSH2 0xC64 DUP2 PUSH2 0xC4A JUMP JUMPDEST DUP2 EQ PUSH2 0xC6E JUMPI PUSH0 DUP1 REVERT JUMPDEST POP JUMP JUMPDEST PUSH0 DUP2 CALLDATALOAD SWAP1 POP PUSH2 0xC7F DUP2 PUSH2 0xC5B JUMP JUMPDEST SWAP3 SWAP2 POP POP JUMP JUMPDEST PUSH2 0xC8E DUP2 PUSH2 0xAAD JUMP JUMPDEST DUP2 EQ PUSH2 0xC98 JUMPI PUSH0 DUP1 REVERT JUMPDEST POP JUMP JUMPDEST PUSH0 DUP2 CALLDATALOAD SWAP1 POP PUSH2 0xCA9 DUP2 PUSH2 0xC85 JUMP JUMPDEST SWAP3 SWAP2 POP POP JUMP JUMPDEST PUSH0 DUP1 PUSH0 PUSH1 0x60 DUP5 DUP7 SUB SLT ISZERO PUSH2 0xCC6 JUMPI PUSH2 0xCC5 PUSH2 0xAE7 JUMP JUMPDEST JUMPDEST PUSH0 DUP5 ADD CALLDATALOAD PUSH8 0xFFFFFFFFFFFFFFFF DUP2 GT ISZERO PUSH2 0xCE3 JUMPI PUSH2 0xCE2 PUSH2 0xAEB JUMP JUMPDEST JUMPDEST PUSH2 0xCEF DUP7 DUP3 DUP8 ADD PUSH2 0xBFE JUMP JUMPDEST SWAP4 POP POP PUSH1 0x20 PUSH2 0xD00 DUP7 DUP3 DUP8 ADD PUSH2 0xC71 JUMP JUMPDEST SWAP3 POP POP PUSH1 0x40 PUSH2 0xD11 DUP7 DUP3 DUP8 ADD PUSH2 0xC9B JUMP JUMPDEST SWAP2 POP POP SWAP3 POP SWAP3 POP SWAP3 JUMP JUMPDEST PUSH0 PUSH2 0xD25 DUP3 PUSH2 0xC2B JUMP JUMPDEST SWAP1 POP SWAP2 SWAP1 POP JUMP JUMPDEST PUSH2 0xD35 DUP2 PUSH2 0xD1B JUMP JUMPDEST DUP2 EQ PUSH2 0xD3F JUMPI PUSH0 DUP1 REVERT JUMPDEST POP JUMP JUMPDEST PUSH0 DUP2 CALLDATALOAD SWAP1 POP PUSH2 0xD50 DUP2 PUSH2 0xD2C JUMP JUMPDEST SWAP3 SWAP2 POP POP JUMP JUMPDEST PUSH0 PUSH1 0x20 DUP3 DUP5 SUB SLT ISZERO PUSH2 0xD6B JUMPI PUSH2 0xD6A PUSH2 0xAE7 JUMP JUMPDEST JUMPDEST PUSH0 PUSH2 0xD78 DUP5 DUP3 DUP6 ADD PUSH2 0xD42 JUMP JUMPDEST SWAP2 POP POP SWAP3 SWAP2 POP POP JUMP JUMPDEST PUSH0 PUSH1 0x20 DUP3 DUP5 SUB SLT ISZERO PUSH2 0xD96 JUMPI PUSH2 0xD95 PUSH2 0xAE7 JUMP JUMPDEST JUMPDEST PUSH0 PUSH2 0xDA3 DUP5 DUP3 DUP6 ADD PUSH2 0xC9B JUMP JUMPDEST SWAP2 POP POP SWAP3 SWAP2 POP POP JUMP JUMPDEST PUSH0 DUP2 MLOAD SWAP1 POP SWAP2 SWAP1 POP JUMP JUMPDEST PUSH0 DUP3 DUP3 MSTORE PUSH1 0x20 DUP3 ADD SWAP1 POP SWAP3 SWAP2 POP POP JUMP JUMPDEST DUP3 DUP2 DUP4 MCOPY PUSH0 DUP4 DUP4 ADD MSTORE POP POP POP JUMP JUMPDEST PUSH0 PUSH2 0xDDE DUP3 PUSH2 0xDAC JUMP JUMPDEST PUSH2 0xDE8 DUP2 DUP6 PUSH2 0xDB6 JUMP JUMPDEST SWAP4 POP PUSH2 0xDF8 DUP2 DUP6 PUSH1 0x20 DUP7 ADD PUSH2 0xDC6 JUMP JUMPDEST PUSH2 0xE01 DUP2 PUSH2 0xAF7 JUMP JUMPDEST DUP5 ADD SWAP2 POP POP SWAP3 SWAP2 POP POP JUMP JUMPDEST PUSH2 0xE15 DUP2 PUSH2 0xC4A JUMP JUMPDEST DUP3 MSTORE POP POP JUMP JUMPDEST PUSH0 DUP2 ISZERO ISZERO SWAP1 POP SWAP2 SWAP1 POP JUMP JUMPDEST PUSH2 0xE2F DUP2 PUSH2 0xE1B JUMP JUMPDEST DUP3 MSTORE POP POP JUMP JUMPDEST PUSH0 PUSH1 0xA0 DUP3 ADD SWAP1 POP DUP2 DUP2 SUB PUSH0 DUP4 ADD MSTORE PUSH2 0xE4D DUP2 DUP9 PUSH2 0xDD4 JUMP JUMPDEST SWAP1 POP PUSH2 0xE5C PUSH1 0x20 DUP4 ADD DUP8 PUSH2 0xE0C JUMP JUMPDEST PUSH2 0xE69 PUSH1 0x40 DUP4 ADD DUP7 PUSH2 0xAB6 JUMP JUMPDEST PUSH2 0xE76 PUSH1 0x60 DUP4 ADD DUP6 PUSH2 0xAB6 JUMP JUMPDEST PUSH2 0xE83 PUSH1 0x80 DUP4 ADD DUP5 PUSH2 0xE26 JUMP JUMPDEST SWAP7 SWAP6 POP POP POP POP POP POP JUMP JUMPDEST PUSH2 0xE96 DUP2 PUSH2 0xD1B JUMP JUMPDEST DUP3 MSTORE POP POP JUMP JUMPDEST PUSH0 PUSH1 0x20 DUP3 ADD SWAP1 POP PUSH2 0xEAF PUSH0 DUP4 ADD DUP5 PUSH2 0xE8D JUMP JUMPDEST SWAP3 SWAP2 POP POP JUMP JUMPDEST PUSH32 0x4E487B7100000000000000000000000000000000000000000000000000000000 PUSH0 MSTORE PUSH1 0x11 PUSH1 0x4 MSTORE PUSH1 0x24 PUSH0 REVERT JUMPDEST PUSH0 PUSH2 0xEEC DUP3 PUSH2 0xAAD JUMP JUMPDEST SWAP2 POP PUSH32 0xFFFFFFFFFFFFFFFFFFFFFFFFFFFFFFFFFFFFFFFFFFFFFFFFFFFFFFFFFFFFFFFF DUP3 SUB PUSH2 0xF1E JUMPI PUSH2 0xF1D PUSH2 0xEB5 JUMP JUMPDEST JUMPDEST PUSH1 0x1 DUP3 ADD SWAP1 POP SWAP2 SWAP1 POP JUMP JUMPDEST PUSH0 PUSH2 0xF33 DUP3 PUSH2 0xAAD JUMP JUMPDEST SWAP2 POP PUSH2 0xF3E DUP4 PUSH2 0xAAD JUMP JUMPDEST SWAP3 POP DUP3 DUP3 ADD SWAP1 POP DUP1 DUP3 GT ISZERO PUSH2 0xF56 JUMPI PUSH2 0xF55 PUSH2 0xEB5 JUMP JUMPDEST JUMPDEST SWAP3 SWAP2 POP POP JUMP JUMPDEST PUSH0 PUSH1 0x40 DUP3 ADD SWAP1 POP PUSH2 0xF6F PUSH0 DUP4 ADD DUP6 PUSH2 0xE8D JUMP JUMPDEST PUSH2 0xF7C PUSH1 0x20 DUP4 ADD DUP5 PUSH2 0xAB6 JUMP JUMPDEST SWAP4 SWAP3 POP POP POP JUMP JUMPDEST PUSH32 0x4E487B7100000000000000000000000000000000000000000000000000000000 PUSH0 MSTORE PUSH1 0x22 PUSH1 0x4 MSTORE PUSH1 0x24 PUSH0 REVERT JUMPDEST PUSH0 PUSH1 0x2 DUP3 DIV SWAP1 POP PUSH1 0x1 DUP3 AND DUP1 PUSH2 0xFC7 JUMPI PUSH1 0x7F DUP3 AND SWAP2 POP JUMPDEST PUSH1 0x20 DUP3 LT DUP2 SUB PUSH2 0xFDA JUMPI PUSH2 0xFD9 PUSH2 0xF83 JUMP JUMPDEST JUMPDEST POP SWAP2 SWAP1 POP JUMP JUMPDEST PUSH0 DUP2 SWAP1 POP DUP2 PUSH0 MSTORE PUSH1 0x20 PUSH0 KECCAK256 SWAP1 POP SWAP2 SWAP1 POP JUMP JUMPDEST PUSH0 PUSH1 0x20 PUSH1 0x1F DUP4 ADD DIV SWAP1 POP SWAP2 SWAP1 POP JUMP JUMPDEST PUSH0 DUP3 DUP3 SHL SWAP1 POP SWAP3 SWAP2 POP POP JUMP JUMPDEST PUSH0 PUSH1 0x8 DUP4 MUL PUSH2 0x103C PUSH32 0xFFFFFFFFFFFFFFFFFFFFFFFFFFFFFFFFFFFFFFFFFFFFFFFFFFFFFFFFFFFFFFFF DUP3 PUSH2 0x1001 JUMP JUMPDEST PUSH2 0x1046 DUP7 DUP4 PUSH2 0x1001 JUMP JUMPDEST SWAP6 POP DUP1 NOT DUP5 AND SWAP4 POP DUP1 DUP7 AND DUP5 OR SWAP3 POP POP POP SWAP4 SWAP3 POP POP POP JUMP JUMPDEST PUSH0 DUP2 SWAP1 POP SWAP2 SWAP1 POP JUMP JUMPDEST PUSH0 PUSH2 0x1081 PUSH2 0x107C PUSH2 0x1077 DUP5 PUSH2 0xAAD JUMP JUMPDEST PUSH2 0x105E JUMP JUMPDEST PUSH2 0xAAD JUMP JUMPDEST SWAP1 POP SWAP2 SWAP1 POP JUMP JUMPDEST PUSH0 DUP2 SWAP1 POP SWAP2 SWAP1 POP JUMP JUMPDEST PUSH2 0x109A DUP4 PUSH2 0x1067 JUMP JUMPDEST PUSH2 0x10AE PUSH2 0x10A6 DUP3 PUSH2 0x1088 JUMP JUMPDEST DUP5 DUP5 SLOAD PUSH2 0x100D JUMP JUMPDEST DUP3 SSTORE POP POP POP POP JUMP JUMPDEST PUSH0 SWAP1 JUMP JUMPDEST PUSH2 0x10C2 PUSH2 0x10B6 JUMP JUMPDEST PUSH2 0x10CD DUP2 DUP5 DUP5 PUSH2 0x1091 JUMP JUMPDEST POP POP POP JUMP JUMPDEST JUMPDEST DUP2 DUP2 LT ISZERO PUSH2 0x10F0 JUMPI PUSH2 0x10E5 PUSH0 DUP3 PUSH2 0x10BA JUMP JUMPDEST PUSH1 0x1 DUP2 ADD SWAP1 POP PUSH2 0x10D3 JUMP JUMPDEST POP POP JUMP JUMPDEST PUSH1 0x1F DUP3 GT ISZERO PUSH2 0x1135 JUMPI PUSH2 0x1106 DUP2 PUSH2 0xFE0 JUMP JUMPDEST PUSH2 0x110F DUP5 PUSH2 0xFF2 JUMP JUMPDEST DUP2 ADD PUSH1 0x20 DUP6 LT ISZERO PUSH2 0x111E JUMPI DUP2 SWAP1 POP JUMPDEST PUSH2 0x1132 PUSH2 0x112A DUP6 PUSH2 0xFF2 JUMP JUMPDEST DUP4 ADD DUP3 PUSH2 0x10D2 JUMP JUMPDEST POP POP JUMPDEST POP POP POP JUMP JUMPDEST PUSH0 DUP3 DUP3 SHR SWAP1 POP SWAP3 SWAP2 POP POP JUMP JUMPDEST PUSH0 PUSH2 0x1155 PUSH0 NOT DUP5 PUSH1 0x8 MUL PUSH2 0x113A JUMP JUMPDEST NOT DUP1 DUP4 AND SWAP2 POP POP SWAP3 SWAP2 POP POP JUMP JUMPDEST PUSH0 PUSH2 0x116D DUP4 DUP4 PUSH2 0x1146 JUMP JUMPDEST SWAP2 POP DUP3 PUSH1 0x2 MUL DUP3 OR SWAP1 POP SWAP3 SWAP2 POP POP JUMP JUMPDEST PUSH2 0x1186 DUP3 PUSH2 0xDAC JUMP JUMPDEST PUSH8 0xFFFFFFFFFFFFFFFF DUP2 GT ISZERO PUSH2 0x119F JUMPI PUSH2 0x119E PUSH2 0xB07 JUMP JUMPDEST JUMPDEST PUSH2 0x11A9 DUP3 SLOAD PUSH2 0xFB0 JUMP JUMPDEST PUSH2 0x11B4 DUP3 DUP3 DUP6 PUSH2 0x10F4 JUMP JUMPDEST PUSH0 PUSH1 0x20 SWAP1 POP PUSH1 0x1F DUP4 GT PUSH1 0x1 DUP2 EQ PUSH2 0x11E5 JUMPI PUSH0 DUP5 ISZERO PUSH2 0x11D3 JUMPI DUP3 DUP8 ADD MLOAD SWAP1 POP JUMPDEST PUSH2 0x11DD DUP6 DUP3 PUSH2 0x1162 JUMP JUMPDEST DUP7 SSTORE POP PUSH2 0x1244 JUMP JUMPDEST PUSH1 0x1F NOT DUP5 AND PUSH2 0x11F3 DUP7 PUSH2 0xFE0 JUMP JUMPDEST PUSH0 JUMPDEST DUP3 DUP2 LT ISZERO PUSH2 0x121A JUMPI DUP5 DUP10 ADD MLOAD DUP3 SSTORE PUSH1 0x1 DUP3 ADD SWAP2 POP PUSH1 0x20 DUP6 ADD SWAP5 POP PUSH1 0x20 DUP2 ADD SWAP1 POP PUSH2 0x11F5 JUMP JUMPDEST DUP7 DUP4 LT ISZERO PUSH2 0x1237 JUMPI DUP5 DUP10 ADD MLOAD PUSH2 0x1233 PUSH1 0x1F DUP10 AND DUP3 PUSH2 0x1146 JUMP JUMPDEST DUP4 SSTORE POP JUMPDEST PUSH1 0x1 PUSH1 0x2 DUP9 MUL ADD DUP9 SSTORE POP POP POP JUMPDEST POP POP POP POP POP POP JUMP JUMPDEST PUSH0 PUSH2 0x1266 PUSH2 0x1261 PUSH2 0x125C DUP5 PUSH2 0xC2B JUMP JUMPDEST PUSH2 0x105E JUMP JUMPDEST PUSH2 0xC2B JUMP JUMPDEST SWAP1 POP SWAP2 SWAP1 POP JUMP JUMPDEST PUSH0 PUSH2 0x1277 DUP3 PUSH2 0x124C JUMP JUMPDEST SWAP1 POP SWAP2 SWAP1 POP JUMP JUMPDEST PUSH0 PUSH2 0x1288 DUP3 PUSH2 0x126D JUMP JUMPDEST SWAP1 POP SWAP2 SWAP1 POP JUMP JUMPDEST PUSH2 0x1298 DUP2 PUSH2 0x127E JUMP JUMPDEST DUP3 MSTORE POP POP JUMP JUMPDEST PUSH0 PUSH1 0x60 DUP3 ADD SWAP1 POP DUP2 DUP2 SUB PUSH0 DUP4 ADD MSTORE PUSH2 0x12B6 DUP2 DUP7 PUSH2 0xDD4 JUMP JUMPDEST SWAP1 POP PUSH2 0x12C5 PUSH1 0x20 DUP4 ADD DUP6 PUSH2 0x128F JUMP JUMPDEST PUSH2 0x12D2 PUSH1 0x40 DUP4 ADD DUP5 PUSH2 0xAB6 JUMP JUMPDEST SWAP5 SWAP4 POP POP POP POP JUMP JUMPDEST PUSH32 0x4E487B7100000000000000000000000000000000000000000000000000000000 PUSH0 MSTORE PUSH1 0x12 PUSH1 0x4 MSTORE PUSH1 0x24 PUSH0 REVERT JUMPDEST PUSH0 PUSH2 0x1311 DUP3 PUSH2 0xAAD JUMP JUMPDEST SWAP2 POP PUSH2 0x131C DUP4 PUSH2 0xAAD JUMP JUMPDEST SWAP3 POP DUP3 PUSH2 0x132C JUMPI PUSH2 0x132B PUSH2 0x12DA JUMP JUMPDEST JUMPDEST DUP3 DUP3 DIV SWAP1 POP SWAP3 SWAP2 POP POP JUMP JUMPDEST PUSH0 PUSH1 0x40 DUP3 ADD SWAP1 POP PUSH2 0x134A PUSH0 DUP4 ADD DUP6 PUSH2 0x128F JUMP JUMPDEST PUSH2 0x1357 PUSH1 0x20 DUP4 ADD DUP5 PUSH2 0xAB6 JUMP JUMPDEST SWAP4 SWAP3 POP POP POP JUMP INVALID LOG2 PUSH5 0x6970667358 0x22 SLT KECCAK256 0xBF 0xBB LOG3 PUSH13 0xA9BBC81FBDE8B2D3BF318D2882 0xCB LOG3 TSTORE 0x28 EXTCODESIZE INVALID 0xE0 BASEFEE 0xA8 PUSH9 0xDEC9BA87E564736F6C PUSH4 0x4300081A STOP CALLER "
		},
		"gasEstimates": {
			"creation": {
				"codeDepositCost": "1002400",
				"executionCost": "infinite",
				"totalCost": "infinite"
			},
			"external": {
				"admin()": "2596",
				"contribute()": "infinite",
				"contributors(address)": "2869",
				"createRequest(string,address,uint256)": "infinite",
				"deadline()": "2448",
				"getBalance()": "358",
				"getRefund()": "infinite",
				"goal()": "2470",
				"makePayment(uint256)": "infinite",
				"minimumContribution()": "2492",
				"noOfContributors()": "2514",
				"numRequests()": "2514",
				"raisedAmount()": "2469",
				"requests(uint256)": "infinite",
				"voteRequest(uint256)": "infinite"
			}
		},
		"methodIdentifiers": {
			"admin()": "f851a440",
			"contribute()": "d7bb99ba",
			"contributors(address)": "1f6d4942",
			"createRequest(string,address,uint256)": "1b16bb5c",
			"deadline()": "29dcb0cf",
			"getBalance()": "12065fe0",
			"getRefund()": "b2d5ae44",
			"goal()": "40193883",
			"makePayment(uint256)": "5114cb52",
			"minimumContribution()": "937e09b1",
			"noOfContributors()": "4e260f6f",
			"numRequests()": "9fb42b1f",
			"raisedAmount()": "c59ee1dc",
			"requests(uint256)": "81d12c58",
			"voteRequest(uint256)": "4cb6f4a5"
		}
	},
	"abi": [
		{
			"inputs": [
				{
					"internalType": "uint256",
					"name": "_goal",
					"type": "uint256"
				},
				{
					"internalType": "uint256",
					"name": "_deadline",
					"type": "uint256"
				}
			],
			"stateMutability": "nonpayable",
			"type": "constructor"
		},
		{
			"anonymous": false,
			"inputs": [
				{
					"indexed": false,
					"internalType": "address",
					"name": "_sender",
					"type": "address"
				},
				{
					"indexed": false,
					"internalType": "uint256",
					"name": "_value",
					"type": "uint256"
				}
			],
			"name": "ContributeEvent",
			"type": "event"
		},
		{
			"anonymous": false,
			"inputs": [
				{
					"indexed": false,
					"internalType": "string",
					"name": "_description",
					"type": "string"
				},
				{
					"indexed": false,
					"internalType": "address",
					"name": "recipient",
					"type": "address"
				},
				{
					"indexed": false,
					"internalType": "uint256",
					"name": "value",
					"type": "uint256"
				}
			],
			"name": "CreateRequestEvent",
			"type": "event"
		},
		{
			"anonymous": false,
			"inputs": [
				{
					"indexed": false,
					"internalType": "address",
					"name": "_recipient",
					"type": "address"
				},
				{
					"indexed": false,
					"internalType": "uint256",
					"name": "value",
					"type": "uint256"
				}
			],
			"name": "MakePaymentEvent",
			"type": "event"
		},
		{
			"inputs": [],
			"name": "admin",
			"outputs": [
				{
					"internalType": "address",
					"name": "",
					"type": "address"
				}
			],
			"stateMutability": "view",
			"type": "function"
		},
		{
			"inputs": [],
			"name": "contribute",
			"outputs": [],
			"stateMutability": "payable",
			"type": "function"
		},
		{
			"inputs": [
				{
					"internalType": "address",
					"name": "",
					"type": "address"
				}
			],
			"name": "contributors",
			"outputs": [
				{
					"internalType": "uint256",
					"name": "",
					"type": "uint256"
				}
			],
			"stateMutability": "view",
			"type": "function"
		},
		{
			"inputs": [
				{
					"internalType": "string",
					"name": "_description",
					"type": "string"
				},
				{
					"internalType": "address payable",
					"name": "_recipient",
					"type": "address"
				},
				{
					"internalType": "uint256",
					"name": "_value",
					"type": "uint256"
				}
			],
			"name": "createRequest",
			"outputs": [],
			"stateMutability": "nonpayable",
			"type": "function"
		},
		{
			"inputs": [],
			"name": "deadline",
			"outputs": [
				{
					"internalType": "uint256",
					"name": "",
					"type": "uint256"
				}
			],
			"stateMutability": "view",
			"type": "function"
		},
		{
			"inputs": [],
			"name": "getBalance",
			"outputs": [
				{
					"internalType": "uint256",
					"name": "",
					"type": "uint256"
				}
			],
			"stateMutability": "view",
			"type": "function"
		},
		{
			"inputs": [],
			"name": "getRefund",
			"outputs": [],
			"stateMutability": "nonpayable",
			"type": "function"
		},
		{
			"inputs": [],
			"name": "goal",
			"outputs": [
				{
					"internalType": "uint256",
					"name": "",
					"type": "uint256"
				}
			],
			"stateMutability": "view",
			"type": "function"
		},
		{
			"inputs": [
				{
					"internalType": "uint256",
					"name": "_requestNo",
					"type": "uint256"
				}
			],
			"name": "makePayment",
			"outputs": [],
			"stateMutability": "nonpayable",
			"type": "function"
		},
		{
			"inputs": [],
			"name": "minimumContribution",
			"outputs": [
				{
					"internalType": "uint256",
					"name": "",
					"type": "uint256"
				}
			],
			"stateMutability": "view",
			"type": "function"
		},
		{
			"inputs": [],
			"name": "noOfContributors",
			"outputs": [
				{
					"internalType": "uint256",
					"name": "",
					"type": "uint256"
				}
			],
			"stateMutability": "view",
			"type": "function"
		},
		{
			"inputs": [],
			"name": "numRequests",
			"outputs": [
				{
					"internalType": "uint256",
					"name": "",
					"type": "uint256"
				}
			],
			"stateMutability": "view",
			"type": "function"
		},
		{
			"inputs": [],
			"name": "raisedAmount",
			"outputs": [
				{
					"internalType": "uint256",
					"name": "",
					"type": "uint256"
				}
			],
			"stateMutability": "view",
			"type": "function"
		},
		{
			"inputs": [
				{
					"internalType": "uint256",
					"name": "",
					"type": "uint256"
				}
			],
			"name": "requests",
			"outputs": [
				{
					"internalType": "string",
					"name": "description",
					"type": "string"
				},
				{
					"internalType": "address payable",
					"name": "recipient",
					"type": "address"
				},
				{
					"internalType": "uint256",
					"name": "noOfVoters",
					"type": "uint256"
				},
				{
					"internalType": "uint256",
					"name": "value",
					"type": "uint256"
				},
				{
					"internalType": "bool",
					"name": "completed",
					"type": "bool"
				}
			],
			"stateMutability": "view",
			"type": "function"
		},
		{
			"inputs": [
				{
					"internalType": "uint256",
					"name": "_requestNo",
					"type": "uint256"
				}
			],
			"name": "voteRequest",
			"outputs": [],
			"stateMutability": "nonpayable",
			"type": "function"
		},
		{
			"stateMutability": "payable",
			"type": "receive"
		}
	]
}